:020000040000FA
:100000000C9463000C948B000C948B000C948B006C
:100010000C948B000C948B000C948B000C94880532
:100020000C948B000C948B000C948B000C948B0024
:100030000C948B000C948B000C948B000C948B0014
:100040000C943C060C948B000C940A060C94E4056A
:100050000C948B000C948B000C948B000C948B00F4
:100060000C948B000C948B000000000024002700EF
:100070002A000000000023002600290000000008DC
:10008000000201000003040700000000000000005F
:10009000010204081020408001020408102001021F
:1000A0000408102000000000250028002B00040494
:1000B0000404040404040202020202020303030310
:1000C00003030200E80711241FBECFEFD8E0DEBF14
:1000D000CDBF15E0A0E0B1E0E2EAF3E102C0059097
:1000E0000D92AE37B107D9F726E0AEE7B5E001C013
:1000F0001D92A533B207E1F710E0C3E6D0E004C0DB
:100100002197FE010E94BA09C236D107C9F70E94A1
:1001100086060C94CF090C940000AF92BF92CF9248
:10012000DF92EF92FF920F931F93CF93DF936C01B7
:100130007B018B01040F151FEB015E01AE18BF0898
:10014000C017D10759F06991D601ED91FC9101904A
:10015000F081E02DC6010995892B79F7C501DF9162
:10016000CF911F910F91FF90EF90DF90CF90BF90B4
:10017000AF900895FC01538D448D252F30E0842FDE
:1001800090E0821B930B541710F0CF9608950197BF
:100190000895FC01918D828D981761F0A28DAE0FAC
:1001A000BF2FB11D5D968C91928D9F5F9F73928F33
:1001B00090E008958FEF9FEF0895FC01918D828D5F
:1001C000981731F0828DE80FF11D858D90E008952C
:1001D0008FEF9FEF0895FC01918D228D892F90E084
:1001E000805C9F4F821B91098F739927089587E840
:1001F00095E00E94EB0021E0892B09F420E0822F9A
:10020000089580E090E0892B29F00E94F700811189
:100210000C9400000895FC01A48DA80FB92FB11D06
:10022000A35ABF4F2C91848D90E001968F7399272C
:10023000848FA689B7892C93A089B1898C9183700A
:1002400080648C93938D848D981306C00288F38903
:10025000E02D80818F7D80830895EF92FF920F9330
:100260001F93CF93DF93EC0181E0888F9B8D8C8D62
:1002700098131AC0E889F989808185FF15C09FB756
:10028000F894EE89FF896083E889F9898081837019
:10029000806480839FBF81E090E0DF91CF911F91C8
:1002A0000F91FF90EF900895F62E0B8D10E00F5FE9
:1002B0001F4F0F731127E02E8C8D8E110CC00FB6BF
:1002C00007FCFACFE889F989808185FFF5CFCE0157
:1002D0000E940B01F1CFEB8DEC0FFD2FF11DE35AC6
:1002E000FF4FF0829FB7F8940B8FEA89FB898081DA
:1002F0008062CFCFCF93DF93EC01888D8823B9F054
:10030000AA89BB89E889F9898C9185FD03C0808120
:1003100086FD0DC00FB607FCF7CF8C9185FFF2CF9D
:10032000808185FFEDCFCE010E940B01E9CFDF91E7
:10033000CF910895833081F028F4813099F0823094
:10034000A9F008958730A9F08830C9F08430B1F45D
:10035000809180008F7D03C0809180008F77809393
:100360008000089584B58F7784BD089584B58F7D0E
:10037000FBCF8091B0008F778093B000089580917B
:10038000B0008F7DF9CFCF93DF9390910001891357
:100390000BC0E2ECF0E0E4919FEF90930001E130BC
:1003A00059F138F1E23071F1282F30E0F901E458C9
:1003B000FF4F8491F901E057FF4FD491F901E255C5
:1003C000FF4FC491CC2391F081110E949A01EC2F30
:1003D000F0E0EE0FFF1FEC55FF4FA591B4918FB7E2
:1003E000F894EC91D095DE23DC938FBFDF91CF9111
:1003F000089510926E00D8CF90916F009D7F9093DA
:100400006F00D2CF909170009D7F9093700091E02B
:100410009093B0009091B100987F94609093B10058
:100420001092B300C1CFCF93DF93282F30E0F901B2
:10043000E458FF4F8491F901E057FF4FD491F9013F
:10044000E255FF4FC491CC23A1F081110E949A0183
:10045000EC2FF0E0EE0FFF1FEE58FF4FA591B49187
:10046000EC91ED2381E090E009F480E0DF91CF9101
:10047000089580E090E0FACFCF93DF9390E0FC0105
:10048000E057FF4F249182559F4FFC0184918823B0
:10049000D1F090E0880F991FFC01E859FF4FA5911A
:1004A000B491FC01EC55FF4FC591D491623071F4C9
:1004B0009FB7F8943C91822F809583238C93E88199
:1004C0002E2B28839FBFDF91CF9108958FB7F8948B
:1004D000EC912E2B2C938FBFF6CF4F925F926F92A1
:1004E0007F928F929F92AF92BF92CF92DF92EF92C4
:1004F000FF920F931F93CF93DF9300D000D01F92F2
:10050000CDB7DEB78C012A013B0180910001883014
:10051000C9F08F3F09F47FC00F900F900F900F909C
:100520000F90DF91CF911F910F91FF90EF90DF908F
:10053000CF90BF90AF909F908F907F906F905F9083
:100540004F900895E2ECF0E084918D8387FDE4CF35
:1005500061E088E00E943C028D81882321F09D812A
:10056000923009F05CC14801B12CA12C60E072E12D
:100570008AE790E0A50198010E947C0929833A83CB
:100580004B835C8369017A0181E0C81AD108E108D4
:10059000F1089FEFC916D104E104F10409F00CF44D
:1005A00013C160E472E48FE090E0A50198010E941D
:1005B0007C0969017A0181E0C81AD108E108F108D3
:1005C0009D81923009F098C08FEFC816D104E104E4
:1005D000F10409F00CF4DDC160E970ED83E090E016
:1005E000A50198010E947C0969017A0191E0C91A6C
:1005F000D108E108F1088FEFC816D104E104F10435
:1006000011F00CF0A3C183E09091B100987F892B89
:100610008093B100E1C088E080930001E2ECF0E05B
:1006200094919D839F3F09F477CF913029F158F041
:10063000923009F43FC08D8187FD6ECF61E088E084
:100640000E943C028CCF14BC15BC84B5826084BD72
:1006500085B5816085BDE6EBF0E0E491F0E0EE0F5A
:10066000FF1FEC55FF4F85919491E8E9F0E0E4918C
:10067000E09328061D826CCF1092800010928100BA
:1006800080918100886080938100809181008160E9
:1006900080938100E6EBF0E0E491F0E0EE0FFF1FC5
:1006A000EC55FF4F85919491E8E9F0E0E491E093F7
:1006B00027064ECF1092B0001092B1008091B0008A
:1006C00082608093B0008091B10081608093B1001E
:1006D000E6EBF0E0E491F0E0EE0FFF1FEC55FF4F8A
:1006E000859194919093260680932506E8E9F0E0A1
:1006F000E491E09324062CCF9FEFC916D104E104C6
:10070000F10409F00CF489C068E478EE81E090E02F
:10071000A50198010E947C0969017A0181E0C81A4B
:10072000D108E108F1089D81992309F428C19FEFC0
:10073000C916D104E104F10409F00CF41EC162E110
:100740007AE780E090E0A50194010E947C096901AC
:100750007A0181E0C81AD108E108F1089D81992346
:1007600009F4EBC08FEFC816D104E104F10411F0D5
:1007700008F0BFC086E048CF64E274EF80E090E00C
:10078000A50194010E947C0969017A0181E0C81ADF
:10079000D108E108F10885E09FEFC916D104E10412
:1007A000F10409F008F430CF62E17AE780E090E0EC
:1007B000A50194010E947C0969017A0191E0C91A9E
:1007C000D108E108F108CECF81E09D8191111CCFC5
:1007D00095B5987F892B85BD2FEF3FEFA901411477
:1007E00051046104710409F043C09D81913009F402
:1007F0005EC0923009F46DC091118ECEC7BC2093BB
:10080000310630933206409333065093340680917C
:100810006E00826080936E007FCE82E0D6CFB12CD6
:10082000A12C60E072E18AE790E0A50198010E94A6
:100830007C0969017A0181E0C81AD108E108F10850
:10084000C114D10491E0E906F10404F591E08D8131
:10085000813011F680918100887F892B80938100FF
:100860002FEF3FEFA9014114510461047104F9F025
:10087000D801AA0FBB1FA30192010E949B0928EE79
:1008800033E040E050E00E945A09AFCF68E478EED0
:1008900081E090E0A50198010E947C0969017A013C
:1008A00081E0C81AD108E108F10893E0D0CFD092D6
:1008B0008900C092880020932D0630932E06409325
:1008C0002F065093300680916F00826080936F00F6
:1008D00023CEC092B3002093290630932A0640937A
:1008E0002B0650932C0680917000826080937000DC
:1008F00013CEC980DA80EB80FC809AE0F594E7940F
:10090000D794C7949A95D1F791E0C91AD108E10814
:10091000F10887E079CEC980DA80EB80FC808AE03C
:10092000F594E794D794C7948A95D1F791E0C91AC2
:10093000D108E108F10885E04BCF8FEFC816D1044C
:10094000E104F10409F038F784E042CF68E478EE7E
:1009500081E090E0A50198010E947C0969017A017B
:1009600091E0C91AD108E108F1088FEFC816D10447
:10097000E104F10411F00CF0FFCE84E045CE8FEFDE
:10098000C816D104E104F10411F00CF0D8CE83E0D4
:100990001FCF82E039CE3FB7F894809183059091C4
:1009A0008405A0918505B091860526B5A89B05C054
:1009B0002F3F19F00196A11DB11D3FBFBA2FA92FDE
:1009C000982F8827BC01CD01620F711D811D911DDB
:1009D00042E0660F771F881F991F4A95D1F7089547
:1009E0008F929F92AF92BF92CF92DF92EF92FF923F
:1009F0006B017C010E94CB044B015C01C114D1044A
:100A0000E104F104B9F00E94CB04681979098A095C
:100A10009B09683E73408105910580F321E0C21A6D
:100A2000D108E108F10888EE880E83E0981EA11C29
:100A3000B11CE4CFFF90EF90DF90CF90BF90AF90CC
:100A40009F908F900895AF92BF92CF92DF92EF92D6
:100A5000FF920F931F93CF93DF93C3EBD1E001E09D
:100A600011E088EEA82E83E0B82E82E0C536D807C4
:100A700039F169917991C5010E9446096B01770F9F
:100A8000EE08FF08B701A601F801819191918F014D
:100A90000E946D02C701B6010E944D0826E636E6A7
:100AA00046E85FE30E94B1080E941508072E000C7B
:100AB000880B990B0E94F00488E00E94C301D5CFF7
:100AC000DF91CF911F910F91FF90EF90DF90CF902A
:100AD000BF90AF900895CF93DF93FC010190002069
:100AE000E9F73197AF01481B590BBC0187E895E046
:100AF0000E948D00EC0142E050E06DEF74E087E869
:100B000095E00E948D008C0F9D1FDF91CF9108957D
:100B10001F920F920FB60F9211242F933F934F9372
:100B20005F936F937F938F939F93AF93BF93EF9355
:100B3000FF938091290690912A06A0912B06B091EF
:100B40002C06892B8A2B8B2BD1F190912406E091D6
:100B50002506F091260680818927808380912906C9
:100B600090912A06A0912B06B0912C061816190612
:100B70001A061B069CF48091290690912A06A091E2
:100B80002B06B0912C060197A109B1098093290683
:100B900090932A06A0932B06B0932C06FF91EF9119
:100BA000BF91AF919F918F917F916F915F914F9185
:100BB0003F912F910F900FBE0F901F90189580912D
:100BC00000010E94C301EACF1F920F920FB60F924D
:100BD00011242F933F934F935F936F937F938F9342
:100BE0009F93AF93BF93EF93FF9387E895E00E94A5
:100BF0000B01FF91EF91BF91AF919F918F917F91E9
:100C00006F915F914F913F912F910F900FBE0F9079
:100C10001F9018951F920F920FB60F9211242F93C9
:100C20008F939F93EF93FF93E0919705F091980531
:100C30008081E0919D05F0919E0582FD1BC0908111
:100C40008091A0058F5F8F732091A105821741F0DD
:100C5000E091A005F0E0E957FA4F958F8093A00549
:100C6000FF91EF919F918F912F910F900FBE0F9059
:100C70001F9018958081F4CF1F920F920FB60F929C
:100C800011242F933F938F939F93AF93BF938091A2
:100C90007F0590918005A0918105B09182053091EA
:100CA0007E0523E0230F2D3758F50196A11DB11DB8
:100CB00020937E0580937F0590938005A093810506
:100CC000B09382058091830590918405A09185055C
:100CD000B09186050196A11DB11D80938305909367
:100CE0008405A0938505B0938605BF91AF919F9130
:100CF0008F913F912F910F900FBE0F901F901895DD
:100D000026E8230F0296A11DB11DD2CF789484B599
:100D1000826084BD84B5816084BD85B5826085BDF7
:100D200085B5816085BD80916E00816080936E0085
:100D30001092810080918100826080938100809177
:100D40008100816080938100809180008160809328
:100D500080008091B10084608093B1008091B000E8
:100D600081608093B00080917A00846080937A00E3
:100D700080917A00826080937A0080917A0081600D
:100D800080937A0080917A00806880937A00109234
:100D9000C10062E082E00E943C0262E083E00E94C7
:100DA0003C0262E084E00E943C0262E085E00E9436
:100DB0003C02E0919705F091980582E08083E091F4
:100DC0009305F09194051082E0919505F0919605B8
:100DD0008FEC808310929F05E0919B05F0919C051C
:100DE00086E08083E0919905F0919A058081806189
:100DF0008083E0919905F0919A05808188608083D5
:100E0000E0919905F0919A05808180688083E09156
:100E10009905F0919A0580818F7D808380E095E02F
:100E20000E946B050E942305C8EED3E03DEFA32E80
:100E300034E0B32E40E0C42E40E0D42E82E00E9485
:100E40001302892B31F48FE095E00E946B050E941C
:100E5000230583E00E941302892BB9F58DE295E00A
:100E60000E946B0507EB12E029E7E22E22E0F22E4A
:100E700082E0053F180749F1F801619171918F01F6
:100E8000CE010E9446092B01770F66087708B3014F
:100E9000A201F701819191917F010E946D02C3012E
:100EA000B2010E944D0826E636E646EA5FE30E945C
:100EB000B1080E941508072E000C880B990B0E94A0
:100EC000F00488E00E94C301D3CF84E00E941302A3
:100ED000892BB9F587E495E00E946B0505E613E0E0
:100EE00095EFE92E92E0F92EF3E0053D1F0749F159
:100EF000F801619171918F01CE010E9446092B0189
:100F0000770F66087708B301A201F70181919191EB
:100F10007F010E946D02C301B2010E944D0826E6C6
:100F200036E646EE5FE30E94B1080E941508072EE0
:100F3000000C880B990B0E94F00488E00E94C3010A
:100F4000D3CF85E00E941302892BB1F587E695E0A7
:100F50000E946B0509E614E085EDE82E83E0F82E8B
:100F6000A016B10649F1F801619171918F01CE018E
:100F70000E9446092B01770F66087708B301A2018A
:100F8000F701819191917F010E946D02C301B2012D
:100F90000E944D082DEC3CEC4CE250E40E94B1085C
:100FA0000E941508072E000C880B990B0E94F00474
:100FB00088E00E94C301D4CFC114D10409F43ECF0C
:100FC0000E94F700882309F439CF0E94000036CF31
:100FD000E7E8F5E01382128288EE93E0A0E0B0E04B
:100FE00084839583A683B7838BE692E09183808385
:100FF00085EC90E09587848784EC90E097878687DE
:1010000080EC90E0918B808B81EC90E0938B828BD5
:1010100082EC90E0958B848B86EC90E0978B868BAE
:10102000118E128E138E148E08950E941C086894DF
:10103000B1110C94AB0808950E94900888F09F5756
:1010400098F0B92F9927B751B0F0E1F0660F771FEC
:10105000881F991F1AF0BA95C9F714C0B13091F0E2
:101060000E94AA08B1E008950C94AA08672F782F6F
:101070008827B85F39F0B93FCCF3869577956795A7
:10108000B395D9F73EF490958095709561957F4F13
:101090008F4F9F4F0895E89409C097FB3EF49095B9
:1010A0008095709561957F4F8F4F9F4F9923A9F041
:1010B000F92F96E9BB279395F695879577956795D0
:1010C000B795F111F8CFFAF4BB0F11F460FF1BC014
:1010D0006F5F7F4F8F4F9F4F16C0882311F096E9A7
:1010E00011C0772321F09EE8872F762F05C0662355
:1010F00071F096E8862F70E060E02AF09A95660F0E
:10110000771F881FDAF7880F9695879597F90895C6
:1011100057FD9058440F551F59F05F3F71F04795A8
:10112000880F97FB991F61F09F3F79F0879508958D
:10113000121613061406551FF2CF4695F1DF08C0AC
:10114000161617061806991FF1CF869571056105C9
:1011500008940895E894BB2766277727CB0197F971
:1011600008950E94C4080C9435090E94270938F09C
:101170000E942E0920F0952311F00C941E090C9466
:10118000240911240C94AB080E94880870F3959FE1
:10119000C1F3950F50E0551F629FF001729FBB276E
:1011A000F00DB11D639FAA27F00DB11DAA1F649F0A
:1011B0006627B00DA11D661F829F2227B00DA11DBD
:1011C000621F739FB00DA11D621F839FA00D611D43
:1011D000221F749F3327A00D611D231F849F600D64
:1011E000211D822F762F6A2F11249F5750409AF08D
:1011F000F1F088234AF0EE0FFF1FBB1F661F771F19
:10120000881F91505040A9F79E3F510580F00C94E3
:101210001E090C94AB085F3FE4F3983ED4F3869527
:1012200077956795B795F795E7959F5FC1F7FE2B83
:10123000880F911D9695879597F9089597F99F675F
:1012400080E870E060E008959FEF80EC089500244E
:101250000A941616170618060906089500240A941B
:1012600012161306140605060895092E0394000CA1
:1012700011F4882352F0BB0F40F4BF2B11F460FF30
:1012800004C06F5F7F4F8F4F9F4F089597FB072ECE
:1012900016F4009407D077FD09D00E94A60907FC38
:1012A00005D03EF4909581959F4F08957095619576
:1012B0007F4F0895A1E21A2EAA1BBB1BFD010DC092
:1012C000AA1FBB1FEE1FFF1FA217B307E407F507F6
:1012D00020F0A21BB30BE40BF50B661F771F881FD2
:1012E000991F1A9469F760957095809590959B0168
:1012F000AC01BD01CF010895052E97FB1EF40094AB
:101300000E94930957FD07D00E945A0907FC03D099
:101310004EF40C94930950954095309521953F4F8C
:101320004F4F5F4F089590958095709561957F4FD1
:101330008F4F9F4F08950E94C009A59F900DB49FA5
:10134000900DA49F800D911D11240895AA1BBB1B15
:1013500051E107C0AA1FBB1FA617B70710F0A61BB5
:10136000B70B881F991F5A95A9F780959095BC01D6
:10137000CD010895EE0FFF1F0590F491E02D099423
:10138000A29FB001B39FC001A39F700D811D1124C6
:10139000911DB29F700D811D1124911D0895F89427
:1013A000FFCFFF2601260126012601260126012660
:1013B00001260126012601260126012601260126F5
:1013C00001260126012601260126012601260126E5
:1013D000012601DC0006012601260126014A015DE5
:1013E000015D015D0188014A014A012601060106ED
:1013F0000126010000DC000601F7002601F7004A83
:10140000015D015D010601060106010601260106D6
:1014100001260100000000DC00060126012601264D
:10142000015D01880188018801B801B801B801B8DF
:10143000018801B801260100002601A5005D015DBB
:10144000018801B8012601000026015D014A014A18
:10145000015D0126010400080004000800040008E2
:101460000008000800080004000800040008000448
:101470000008000800080008000400080004000834
:101480000004000800080008000800040004000828
:10149000000800040004000800080004000400081C
:1014A0000008000800040008000800080004000408
:1014B00000080008000400040008000800040004FC
:1014C00000080004000400080008000800080004E8
:1014D00000040008000800040004000800080004DC
:1014E00000040008000800080004000800080008C4
:1014F00000040004000400080004000800080008BC
:10150000000400040008000800000000002D018D08
:1015100000BA007A01EB00C900DD00260100005D81
:10152000012601000026018801260106012601008E
:1015300000B801260100002601D201B8015D012694
:1015400001B8014B022601060100000601DC004A39
:1015500001260100002601260108000800060010EF
:10156000001000100008000800080008000800062D
:101570000010001000100008000800080008000813
:101580000008001000100010001000080008000201
:101590000008000400040006010B02DC00B801E9A9
:1015A00000D2010000000006010B02DC00B801E9D6
:1015B00000D20100000000AF005D01930026019CF5
:1015C00000370100000000AF005D01930026019C80
:1015D0000037010000000037011501260115013711
:1015E000013701D000C4001501060172015D01A59B
:1015F00000D201B8019F013701F700E900DC00D0FB
:10160000000000000000000C000C000C000C000C9E
:10161000000C00060003000C000C000C000C000C79
:10162000000C00060003000C000C000C000C000C69
:10163000000C00060003000C000C000C000C000C59
:10164000000C000600060012001200120006000640
:10165000000600060006000600120012001200122A
:1016600000120012000A000A000A000A000A000A1A
:10167000000300030003004A01EE0193029302936A
:1016800002EE014A014A01EE01930293029302EE37
:10169000014A014A01EE01930293029302EE014ACC
:1016A000014A01EE019302930293024B024A01EEBA
:1016B00001930293029302EE014A014A01EE019363
:1016C0000293029302EE01BA024A01EE01930293E1
:1016D000029302EE014A014A01EE01930293029342
:1016E000024B0293024A014A014A012601F7004ACD
:1016F000014A014A01F7004A0126014A015D0188B9
:10170000015D014A014A014A014A01080008000836
:10171000000800080008000400080008000800088D
:10172000000800080004000800080008000800087D
:101730000008000400080008000800080004000475
:10174000000800080008000800080008000400085D
:10175000000800080008000800080004000800084D
:101760000008000800080008000100080008000840
:10177000000800040004000400080004000400083D
:101780000008000800080004000800080004000821
:101790000004000800080004000800040001000D17
:1017A0000A00486520697320612070697261746560
:1017B0000053656C6563746564202D3E2027486581
:1017C000206973206120506972617465272000537D
:1017D000656C6563746564202D3E20274372617AD1
:1017E000792046726F6727200053656C65637465C6
:1017F00064202D3E20274D6172696F20556E64650F
:1018000072576F726C6427200053656C6563746552
:1018100064202D3E2027546974616E69632720007F
:107E0000112484B714BE81FFF0D085E080938100F7
:107E100082E08093C00088E18093C10086E0809377
:107E2000C20080E18093C4008EE0C9D0259A86E02C
:107E300020E33CEF91E0309385002093840096BBD3
:107E4000B09BFECF1D9AA8958150A9F7CC24DD24C4
:107E500088248394B5E0AB2EA1E19A2EF3E0BF2EE7
:107E6000A2D0813461F49FD0082FAFD0023811F036
:107E7000013811F484E001C083E08DD089C08234E0
:107E800011F484E103C0853419F485E0A6D080C0E4
:107E9000853579F488D0E82EFF2485D0082F10E0AE
:107EA000102F00270E291F29000F111F8ED06801E7
:107EB0006FC0863521F484E090D080E0DECF843638
:107EC00009F040C070D06FD0082F6DD080E0C81688
:107ED00080E7D80618F4F601B7BEE895C0E0D1E017
:107EE00062D089930C17E1F7F0E0CF16F0E7DF06D8
:107EF00018F0F601B7BEE89568D007B600FCFDCFD4
:107F0000A601A0E0B1E02C9130E011968C91119780
:107F100090E0982F8827822B932B1296FA010C0160
:107F200087BEE89511244E5F5F4FF1E0A038BF0790
:107F300051F7F601A7BEE89507B600FCFDCF97BE46
:107F4000E89526C08437B1F42ED02DD0F82E2BD052
:107F50003CD0F601EF2C8F010F5F1F4F84911BD097
:107F6000EA94F801C1F70894C11CD11CFA94CF0C13
:107F7000D11C0EC0853739F428D08EE10CD085E9AC
:107F80000AD08FE07ACF813511F488E018D01DD067
:107F900080E101D065CF982F8091C00085FFFCCF94
:107FA0009093C60008958091C00087FFFCCF809118
:107FB000C00084FD01C0A8958091C6000895E0E648
:107FC000F0E098E1908380830895EDDF803219F02E
:107FD00088E0F5DFFFCF84E1DECF1F93182FE3DFCA
:107FE0001150E9F7F2DF1F91089580E0E8DFEE27F6
:047FF000FF270994CA
:027FFE00040479
:00000001FF
