S0160000566F6963655F5265636F726465722E7372656383
S11300000C9435010C94BB040C94E2040C945D0133
S11300100C945D010C945D010C945D010C945E04E0
S11300200C945D010C945D010C945D010C945D01D4
S11300300C945D010C945D010C945D010C945D01C4
S11300400C9409050C945D010C9497020C94CF0256
S11300500C945D010C945D010C945D010C945D01A4
S11300600C945B0A0C945D01670B6B0B6B0B6B0BB5
S11300706B0B6B0B6B0B6B0B7B0A6B0B6B0B6B0BBD
S11300806B0B6B0B6B0B6B0B7B0A6B0B6B0B6B0BAD
S11300906B0B6B0B6B0B6B0B830A6B0B6B0B6B0B95
S11300A06B0B6B0B6B0B6B0BA90A6B0B6B0B6B0B5F
S11300B06B0B6B0B6B0B6B0B830A6B0B6B0B6B0B75
S11300C06B0B6B0B6B0B6B0BAF0A6B0B6B0B6B0B39
S11300D06B0B6B0B6B0B6B0BB50A6B0B6B0B6B0B23
S11300E06B0B6B0B6B0B6B0BC70A6B0B6B0B6B0B01
S11300F06B0B6B0B6B0B6B0BF10A6B0B6B0B6B0BC7
S11301006B0B6B0B6B0B6B0BBB0A6B0B6B0B6B0BEC
S11301106B0B6B0B6B0B6B0BD50A6B0B6B0B6B0BC2
S11301206B0B6B0B6B0B6B0BF40A6B0B6B0B6B0B93
S11301306B0B6B0B6B0B6B0BF40A6B0B6B0B6B0B83
S11301406B0B6B0B6B0B6B0BF40A6B0B6B0B6B0B73
S11301506B0B6B0B6B0B6B0BF40A6B0B6B0B6B0B63
S11301606B0B6B0B6B0B6B0BFD0A6B0B6B0B6B0B4A
S11301706B0B6B0B6B0B6B0B2E0B6B0B6B0B6B0B08
S11301806B0B6B0B6B0B6B0BFD0A6B0B6B0B6B0B2A
S11301906B0B6B0B6B0B6B0B2E0B6B0B6B0B6B0BE8
S11301A06B0B6B0B6B0B6B0B150B6B0B6B0B6B0BF1
S11301B06B0B6B0B6B0B6B0B320B6B0B6B0B6B0BC4
S11301C06B0B6B0B6B0B6B0B320B6B0B6B0B6B0BB4
S11301D06B0B6B0B6B0B6B0B470B6B0B6B0B6B0B8F
S11301E06B0B6B0B6B0B6B0B610B6B0B6B0B6B0B65
S11301F06B0B6B0B6B0B6B0B610B020000000800AD
S113020002010000030407000000000000000001D8
S11302100204081020408001020408102001020496
S11302200810200404040404040404020202020268
S11302300203030303030300000000250028002B2E
S11302400000000000240027002A007C3C3E5E2BB6
S11302503D3F2F5B5D3B2C2A225C0000F5025003DE
S11302608B0C81110615DE2CE52C11241FBECFEF5B
S1130270D8E0DEBFCDBF12E0A0E0B1E0EEECF1E6E5
S113028002C005900D92AA37B107D9F726E0AAE774
S1130290B2E001C01D92A637B207E1F711E0C4E352
S11302A0D1E004C02197FE010E944C2ECE32D1072A
S11302B0C9F70E94DD2A0C94DA300C9400000E94E5
S11302C06730FC01218D30E0205C3F4F828DA90115
S11302D0481B5109CA018F7399270895FC01918D18
S11302E0828D981731F0828DE80FF11D858D90E095
S11302F008958FEF9FEF0895FC01918D828D9817DB
S113030061F0828DDF01A80FB11D5D968C91928DF5
S11303109F5F9F73928F90E008958FEF9FEF0895F2
S1130320FC01238D348D231738F08FE390E0821B7A
S11303309109830F911D0895832F90E0821B9109E9
S113034001970895FC01848DDF01A80FB11DA35A04
S1130350BF4F8C91248D30E02F5F3F4F2F73307847
S1130360332334F421503109206C3F6F2F5F3F4F0A
S1130370248FA689B7898C93A089B1898C918370C5
S113038080648C93938D848D981306C00288F389BE
S1130390E02D80818F7D808308951F93CF93DF9319
S11303A0EC01188D112329F1EA89FB89808185FDEF
S11303B007C0A889B9898C9186FD04C0812F03C028
S11303C0812F01C080E08823A1F00FB607FC05C08F
S11303D0908195FD03C080E001C080E0882321F373
S11303E0E889F989808185FFDFCFCE010E94A201CF
S11303F0DBCFDF91CF911F9108950F931F93CF937C
S1130400DF93EC0181E0888F9B8D8C8D981307C05E
S1130410E889F989808185FD04C080E003C080E01B
S113042001C081E0882391F08FB7F89491E099237B
S113043059F0EE89FF896083E889F9899081937086
S11304409064908390E0F3CF8FBF34C02B8D30E065
S11304502F5F3F4F2F733078332334F42150310909
S1130460206C3F6F2F5F3F4F162F022F8C8D081388
S11304700CC00FB607FCFACFE889F989808185FFA3
S1130480F5CFCE010E94A201F1CF8B8DFE01E80FC2
S1130490F11DE35AFF4F10839FB7F89481E088233E
S11304A041F00B8FEA89FB8980818062808380E040
S11304B0F6CF9FBF81E090E0DF91CF911F910F9124
S11304C0089580E090E008950895019779F56F3FCD
S11304D07F4F61F5EAE7F2E01382128288EE93E03F
S11304E0A0E0B0E084839583A683B78381E791E09D
S11304F09183808385EC90E09587848784EC90E0F9
S11305009787868780EC90E0918B808B81EC90E0DC
S1130510938B828B82EC90E0958B848B86EC90E0BD
S1130520978B868B118E128E138E148E08951F92C4
S11305300F920FB60F9211242F938F939F93AF9323
S1130540BF93EF93FF93E0918A02F0918B02808135
S113055082FD14C0EAE7F2E0A689B7892C91818D67
S11305608F5F8F73928D891771F0DF01E18DF0E059
S1130570E658FD4F258F59968C9305C0E091900263
S1130580F09191028081FF91EF91BF91AF919F9182
S11305908F912F910F900FBE0F901F9018951F925F
S11305A00F920FB60F9211242F933F934F935F93A3
S11305B06F937F938F939F93AF93BF93EF93FF9327
S11305C08AE792E00E94A201FF91EF91BF91AF915F
S11305D09F918F917F916F915F914F913F912F9157
S11305E00F900FBE0F901F9018956FEF7FEF81E073
S11305F090E00E94650208950895CF92DF92EF92F1
S1130600FF920F931F93CF93DF936C017B0100E064
S113061010E0C0E0D0E003301105A4F4F601E00FCF
S1130620F11F62814AE050E0C7010E941304C80F21
S1130630D91F6EE2C7010E949603C80FD91F0F5F2E
S11306401F4FE9CFF60165814AE050E0C7010E94DF
S113065013048C0F9D1FDF91CF911F910F91FF9079
S1130660EF90DF90CF9008950F93FC0183E891E021
S11306709183808362834383248305830F91089548
S11306800F93019759F46F3F7F4F41F400E020E04E
S113069040E060E087E193E00E9434030F91089505
S11306A06FEF7FEF81E090E00E9440030895CF92C6
S11306B0DF92EF92FF920F931F93CF93DF938C01FE
S11306C0DB01C0E0D0E07A0181E0E81AF108452BB3
S11306D0A1F0F80180819181FC01208131816D01BB
S11306E0FFEFCF1ADF0A6C91C801F9010995892B34
S11306F021F02196A701D601E6CFCE01DF91CF915B
S11307001F910F91FF90EF90DF90CF900895DB0140
S113071014964D915C9115976D917C91DC01ED914E
S1130720FC910280F381E02D09950895DC01ED919F
S1130730FC910190F081E02D099508958F929F928C
S1130740AF92BF92DF92EF92FF920F931F93CF93DA
S1130750DF93CDB7DEB7A1970FB6F894DEBF0FBE17
S1130760CDBF7C01CB01BA01D22E19A221E02D15F7
S113077020F00F2EFAE0DF2EF02D8E010F5D1F4FBB
S11307808D2C912CA12CB12CA50194010E942A2E10
S1130790E62F622F732F842F952F01501109EA3011
S11307A010F4E05D01C0E95CD801EC9361157105BA
S11307B08105910529F70115110591F0F8010190C2
S11307C00020E9F73197AF01401B510BD701ED91A0
S11307D0FC910280F381E02DB801C701099502C0A4
S11307E080E090E0A1960FB6F894DEBF0FBECDBFB7
S11307F0DF91CF911F910F91FF90EF90DF90BF9009
S1130800AF909F908F9008952115310549F4DC0134
S1130810ED91FC910190F081E02D642F09950895EC
S11308200E949E0308959A01462F50E060E070E014
S11308300E9404040895813039F018F0823051F098
S1130840089510926E000895EFE6F0E080818D7FA8
S113085080830895E0E7F0E080818D7F808381E0EC
S11308608093B000E1EBF0E08081887F8460808336
S11308701092B3000895CF93C82F20E030E01216F1
S113088013069CF0F901EA5FFE4F80818C130AC0C5
S1130890F901E650FE4F8491F901EA5FFE4F9FEFA4
S11308A0908304C02F5F3F4FEACF8FEF0E941B0459
S11308B060E08C2F0E94D406CF9108951F920F926E
S11308C00FB60F9211242F933F934F935F936F931F
S11308D07F938F939F93AF93BF93EF93FF938091F5
S11308E0200390912103A0912203B0912303892B2B
S11308F08A2B8B2B51F190911D03E0911E03F091F3
S11309001F03808189278083809120039091210394
S1130910A0912203B0912303181619061A061B0688
S1130920C4F48091200390912103A0912203B091FB
S113093023030197A109B109809320039093210314
S1130940A0932203B093230304C0809106010E9464
S11309503B04FF91EF91BF91AF919F918F917F9154
S11309606F915F914F913F912F910F900FBE0F9018
S11309701F90189508951F920F920FB60F9211248D
S11309802F933F934F935F936F937F938F939F9393
S1130990AF93BF93EF93FF93E0910701F0910801A8
S11309A00995FF91EF91BF91AF919F918F917F91A5
S11309B06F915F914F913F912F910F900FBE0F90C8
S11309C01F9018951F920F920FB60F9211242F9318
S11309D03F934F935F936F937F938F939F93AF93C3
S11309E0BF93EF93FF93E0910901F0910A010995F8
S11309F0FF91EF91BF91AF919F918F917F916F91F3
S1130A005F914F913F912F910F900FBE0F901F90C8
S1130A1018951F920F920FB60F9211240F931F93E4
S1130A202F933F934F935F936F937F938F939F93F2
S1130A30AF93BF93009125031091260320912703C0
S1130A403091280390912403B901A8014F5F5F4FAF
S1130A506F4F7F4F83E0890F8D3740F086E8890F11
S1130A60B901A8014E5F5F4F6F4F7F4F80932403FE
S1130A704093250350932603609327037093280320
S1130A808091290390912A03A0912B03B0912C0308
S1130A900196A11DB11D8093290390932A03A0936D
S1130AA02B03B0932C03BF91AF919F918F917F91B2
S1130AB06F915F914F913F912F911F910F910F90E3
S1130AC00FBE0F901F9018952FB7F89460912503CF
S1130AD07091260380912703909128032FBF0895D6
S1130AE03FB7F8948091290390912A03A0912B0396
S1130AF0B0912C0326B5A89B05C02F3F19F0019691
S1130B00A11DB11D3FBFBA2FA92F982F8827820F8F
S1130B10911DA11DB11DBC01CD01660F771F881F5A
S1130B20991F660F771F881F991F08958F929F92B0
S1130B30AF92BF92CF92DF92EF92FF926B017C0152
S1130B400E9470054B015C0120C00E94FC020BC096
S1130B5021E0C21AD108E108F10888EE880E83E08A
S1130B60981EA11CB11CC114D104E104F10469F064
S1130B700E947005DC01CB0188199909AA09BB09F7
S1130B80883E9340A105B10518F7C114D104E104CE
S1130B90F104D9F6FF90EF90DF90CF90BF90AF9023
S1130BA09F908F9008958230910538F0880F991F97
S1130BB0880F991F05970197F1F708958E3008F073
S1130BC08E5090910B0140E4949F90011124877002
S1130BD0282B20937C00EAE7F0E080818064808306
S1130BE080917A0086FDFCCF209178008091790075
S1130BF090E0982F8827822B08951F93CF93DF933B
S1130C00182FEB0161E00E949506209729F460E01B
S1130C10812F0E94D40656C0CF3FD10529F461E04C
S1130C20812F0E94D4064EC0E12FF0E0E550FE4F24
S1130C30E491E330B9F028F4E13051F0E23069F0A6
S1130C4035C0E73019F1E83049F1E43079F514C0E2
S1130C5084B5806884BDC7BD35C084B5806284BD59
S1130C60C8BD30C0E0E8F0E0808180688083D09324
S1130C708900C093880026C0E0E8F0E080818062AB
S1130C808083D0938B00C0938A001CC0E0EBF0E01B
S1130C90808180688083C093B30014C0E0EBF0E0EF
S1130CA0808180628083C093B4000CC0C038D105B9
S1130CB02CF460E0812F0E94D40604C061E0812FEF
S1130CC00E94D406DF91CF911F910895833069F07B
S1130CD028F48130B1F08230C1F008958730C9F032
S1130CE08830E9F0843001F506C0E0E8F0E0808166
S1130CF08F7780830895E0E8F0E080818F7D8083A2
S1130D00089584B58F7784BD089584B58F7D84BD9F
S1130D100895E0EBF0E080818F7780830895E0EB25
S1130D20F0E080818F7D80830895CF93DF9390E0FE
S1130D30FC01E15FFD4F2491FC01ED5DFD4F8491C9
S1130D40882379F190E0880F991FFC01EF5BFD4F38
S1130D50A591B491FC01E95CFD4FC591D491611159
S1130D600CC09FB7F8948C91E22FE0958E238C935E
S1130D702881E223E8839FBF14C0623061F49FB7E7
S1130D80F8948C91322F309583238C93E881E22B55
S1130D90E8839FBF06C08FB7F894EC91E22BEC93E5
S1130DA08FBFDF91CF9108951F93CF93DF93282FA7
S1130DB030E0F901E550FE4F8491F901E15FFD4F08
S1130DC01491F901ED5DFD4FC491CC23D1F0D62FE0
S1130DD081110E946606EC2FF0E0EE0FFF1FE95C24
S1130DE0FD4FA591B4918FB7F894D11106C09C9191
S1130DF0E12FE095E923EC9303C0EC91E12BEC9314
S1130E008FBFDF91CF911F910895FC018081918163
S1130E10009711F00E94182F0895CF93DF93EC01EF
S1130E2088819981009711F00E94182F19821882E5
S1130E301D821C821B821A82DF91CF9108950F9329
S1130E401F93CF93DF93EC018B016F5F7F4F8881FA
S1130E5099810E94A12F009731F0998388831B8385
S1130E600A8381E001C080E0DF91CF911F910F914F
S1130E700895CF93DF93FC0120813181232B29F046
S1130E80228133812617370770F4EC010E941F0773
S1130E90882361F08C819D81892B39F4E881F98163
S1130EA0108281E003C081E001C081E0DF91CF9135
S1130EB00895EF92FF920F931F93CF93DF93EC016A
S1130EC07B018A01BA010E943907811104C0CE0155
S1130ED00E940D0707C01D830C83B7018881998187
S1130EE00E948D30CE01DF91CF911F910F91FF9021
S1130EF0EF900895FC0111821082138212821582F0
S1130F0014826115710551F0FB0101900020E9F78D
S1130F103197AF01461B570B0E9459070895CF9391
S1130F20DF93EC01FB018617970761F06081718103
S1130F306115710529F0448155810E94590702C049
S1130F400E940D07CE01DF91CF910895FC0111821B
S1130F50108213821282158214820E948F070895D0
S1130F60CF93DF93EC016115710559F0FB010190FA
S1130F700020E9F73197AF01461B570B0E94590730
S1130F8002C00E940D07CE01DF91CF910895CF9347
S1130F90DF9300D0CDB7DEB7FC011182108213823B
S1130FA012821582148269831A82BE016F5F7F4F99
S1130FB00E94B0070F900F90DF91CF910895EF92A8
S1130FC0FF920F931F93CF93DF93FC01C481D581CC
S1130FD0C40FD51F61157105C1F0452BC1F07B010C
S1130FE08C01BE010E943907882391F0F801208109
S1130FF0318184819581B701820F931F0E948D30C6
S1131000F801D583C48381E003C080E001C081E09E
S1131010DF91CF911F910F91FF90EF900895CF939F
S1131020DF93EC01FB0144815581608171810E9451
S1131030DF07811103C0CE010E940D07CE01DF91AD
S1131040CF910895CF93DF93EC016115710571F091
S1131050FB0101900020E9F73197AF01461B570BC4
S11310600E94DF07882321F080E003C081E001C0F3
S113107081E0882319F0CE010E940D07CE01DF9193
S1131080CF910895FC01248135816217730720F400
S113109080819181009729F410922D038DE293E0D1
S11310A00895860F971F0895CF93CFB7F894809132
S11310B03103811127C0EDE2F2E08491E9E1F2E02D
S11310C09491E82FF0E0EE0FFF1FEF5BFD4FA59129
S11310D0B491EC91E92321F461E08AE00E94D40602
S11310E061E08AE00E9495068CB580618CBD8CB568
S11310F080648CBD61E08DE00E94950661E08BE028
S11311000E949506809131038F5F80933103CFBF96
S1131110CF9108951092A50381E08093A3031092C8
S1131120A20361E082E10E94D40661E083E10E94AF
S1131130D406E9EBF0E080818E7F808380818D7F0F
S1131140808388E48093B80085E48093BC0008958C
S1131150ECEBF0E080818A7B808360E082E10E9496
S1131160D40660E083E10E94D4060895AC01909116
S11311705403262F30E0290F311D21323105F4F4B8
S11311808091A5038430E1F490E00FC08091540372
S1131190292F30E0F901E80FF11DDA01A20FB31F86
S11311A08C91EA5AFC4F80839F5F961778F3809165
S11311B05403680F6093540380E0089581E0089518
S11311C082E00895909399038093980308959093EF
S11311D09B0380939A030895882321F085EC8093E0
S11311E0BC00089585E88093BC00089585EC809345
S11311F0BC001092A5030895EF92FF920F931F93E2
S1131200CF93DF9391E090939D03882371F0C8EB13
S1131210D0E0F8800AEB10E0F801E0800E94A80812
S11312200E948A08F801E082F882DF91CF911F9131
S11312300F91FF90EF9008954F925F926F927F927B
S11312408F929F92AF92BF92DF92EF92FF920F9391
S11312501F93CF93DF93413208F0D9C0122FD42FBC
S11312607B01D82E0E9470054B015C0127C0809140
S11312709E0390919F03A091A003B091A103892B99
S11312808A2B8B2BD9F00E947005DC01CB018819C5
S11312909909AA09BB0940909E0350909F0360904E
S11312A0A0037090A103481659066A067B0630F421
S11312B080919C030E94FC08C5E0AEC0C091A503C8
S11312C0C111D5CF82E08093A5030093A3038FEFD0
S11312D08093320310927703D093760390E00AC090
S11312E0E92FF0E0D701AE0FBF1F3C91E858FC4F47
S11312F030839F5F9D17A0F31092A4038D2D90E07F
S1131300880F991FD090A4038D298093A403809102
S1131310A2038130C9F51092A2030E9470054B010B
S11313205C018091A4038093BB0080919E03909103
S11313309F03A091A003B091A103892B8A2B8B2B2F
S1131340D9F00E947005DC01CB0188199909AA091A
S1131350BB0940909E0350909F036090A00370903F
S1131360A103481659066A067B0630F480919C0353
S11313700E94FC08C5E050C08091BC0083FDD1CF21
S113138085EC8093BC0003C085EE8093BC000E9472
S113139070054B015C0127C080919E0390919F03CF
S11313A0A091A003B091A103892B8A2B8B2BD9F098
S11313B00E947005DC01CB0188199909AA09BB09AF
S11313C040909E0350909F036090A0037090A103EF
S11313D0481659066A067B0630F480919C030E94E5
S11313E0FC08C5E019C0112321F08091A5038230C7
S11313F099F2809132038F3F79F0809132038032E9
S113140041F080913203803331F4C3E005C0C1E080
S113141003C0C2E001C0C4E08C2FDF91CF911F91C3
S11314200F91FF90EF90DF90BF90AF909F908F90BF
S11314307F906F905F904F90089585ED8093BC00EE
S113144040919E0350919F036091A0037091A1036A
S1131450495F5F4F6F4F7F4F689412F87695679599
S1131460579547951694D1F71FC080919E0390918C
S11314709F03A091A003B091A103892B8A2B8B2BEE
S113148099F0411551056105710549F085E38A9587
S1131490F1F70000415051096109710905C08091BB
S11314A09C030E94FC0808958091BC0084FDDDCF5C
S11314B01092A50308951F920F920FB60F92112454
S11314C02F933F934F935F936F937F938F939F9348
S11314D0AF93BF93EF93FF938091B900E82FE87F18
S11314E08E2F90E0893C910508F0F5C0FC01EC5C7E
S11314F0FF4F0C944C2E8091A4038093BB0081E099
S11315000E94EC08E8C090917703809176039817C5
S113151080F4E091770381E08E0F80937703F0E00D
S1131520E858FC4F80818093BB0081E00E94EC0866
S1131530D2C08091A303882319F00E941D0ACBC056
S113154081E08093A20384EA8093BC001092A503F7
S1131550C2C080E2809332030E941D0ABCC080E3B3
S1131560809332030E941D0AB6C088E3809332033D
S11315700E94F608B0C0E091770381E08E0F80935B
S11315807703F0E08091BB00E858FC4F8083909192
S1131590770380917603981720F481E00E94EC0889
S11315A09AC080E00E94EC0896C0E091770381E045
S11315B08E0F80937703F0E08091BB00E858FC4FD6
S11315C080838091A303882319F00E941D0A83C09D
S11315D081E08093A20384EA8093BC001092A50367
S11315E07AC00E941D0A77C083E08093A5031092FD
S11315F0330381E00E94EC086EC080913303803293
S113160080F4E091330381E08E0F80933303F0E0A4
S11316108091BB00EC5CFC4F808381E00E94EC086D
S11316205AC080E00E94EC0856C00E94F6088091DF
S11316303303803230F4E0913303F0E0EC5CFC4F90
S113164010826091330370E0E0919803F091990364
S113165084E393E00995109233033DC080E00E9437
S1131660EC0839C084E08093A503109255031092CE
S11316705403E0919A03F0919B03099580915403DC
S1131680811105C081E08093540310925603E091C8
S1131690550381E08E0F80935503F0E0EA5AFC4F26
S11316A080818093BB0090915503809154039817D7
S11316B020F481E00E94EC080EC080E00E94EC0857
S11316C00AC081E00E94EC081092A50304C01092A5
S11316D032030E941D0AFF91EF91BF91AF919F9138
S11316E08F917F916F915F914F913F912F910F90C7
S11316F00FBE0F901F9018958091DA0390E020910F
S1131700DB03821B910908959091DB038091DA0336
S1131710981750F4E92FF0E0E452FC4F208130E0B8
S11317209F5F9093DB0302C02FEF3FEFC901089541
S1131730E091DB038091DA03E81730F4F0E0E4523F
S1131740FC4F808190E008958FEF9FEF08950895F6
S1131750CF93DF93EC01E091B203F091B3033097A0
S1131760E1F09091DB038091DA039817B0F090E0F8
S1131770292F30E02617370754F4DE01A90FB11DD5
S11317804C91D901A452BC4F4C939F5FF1CFCB0134
S11317901092DB036093DA030995DF91CF910895EA
S11317A0E091B403F091B503309729F01092B80397
S11317B01092B70309950895CF92DF92EF92FF92AA
S11317C00F931F93CF93DF938C016B017A01809168
S11317D0B603882399F0C0E0D0E0CE15DF0590F47D
S11317E0D801ED91FC910190F081E02DD601AC0F70
S11317F0BD1F6C91C80109952196EFCF642FC601D6
S11318000E94B608C701DF91CF911F910F91FF90FD
S1131810EF90DF90CF900895CF93DF931F92CDB7D1
S1131820DEB7FC0169839091B6039923D9F09091B6
S1131830B703903238F081E090E09383828380E0B4
S113184090E017C08091B803E82FF0E0E754FC4F14
S1131850998190838F5F8093B8038093B70381E06D
S113186090E007C061E0CE0101960E94B60881E0D5
S113187090E00F90DF91CF910895FC0113821282C2
S113188088EE93E0A0E0B0E084839583A683B783D9
S113189085E991E0918380830895019739F46F3F3E
S11318A07F4F21F486EA93E00E943D0C0895109244
S11318B0DB031092DA031092B8031092B7030E946C
S11318C08A0880ED9BE00E94E70888EA9BE00E947A
S11318D0E208089581E08093B6036093D9031092DF
S11318E0B8031092B70308950F934091B703062FDE
S11318F021E069EB73E08091D9030E941C091092E6
S1131900B8031092B7031092B6030F91089561E0E3
S11319100E94740C08956FEF7FEF81E090E00E94C5
S11319204D0C0895CF93DF931F92CDB7DEB7698333
S1131930DC01ED91FC910280F381E02D41E050E067
S1131940BE016F5F7F4F09950F90DF91CF9108958E
S1131950DC0159968D919C915A97009741F0DC01D6
S1131960ED91FC910480F581E02D0995089580E0C6
S113197090E00895CF93DF93DC015996ED91FC91AB
S11319805A97309749F421E030E013963C932E9314
S1131990129780E090E013C0EC0113821282898DCB
S11319A09A8D0E94DC1BE98DFA8D22813381232BD1
S11319B031F081E090E09B838A8380E090E0DF91C6
S11319C0CF910895CF93DF931F92CDB7DEB7FC017B
S11319D0818D928D009779F041E050E0BE016F5FF8
S11319E07F4F0E946516019719F4898190E005C024
S11319F08FEF9FEF02C08FEF9FEF0F90DF91CF919A
S1131A000895EF92FF920F931F93CF93DF931F924A
S1131A10CDB7DEB7FC01818D928D009719F18F014E
S1131A2041E050E0BE016F5F7F4F0E946516019751
S1131A3019F4E980F12C03C0EE24EA94FE2C8FEF14
S1131A40E816F80689F0F801818D928DFC01428533
S1131A5053856485758541505109610971090E9456
S1131A60FF1702C0E12CF12CC7010F90DF91CF9139
S1131A701F910F91FF90EF900895FC01818D928D3D
S1131A80009719F061E00E94A0180895EF92FF9268
S1131A900F931F93CF93DF93EC017B018A011B8289
S1131AA01A8288EE93E0A0E0B0E08C839D83AE833D
S1131AB0BF8387EA91E0998388838DE190E00E9457
S1131AC0802E9A8F898F009779F02DE1F701DC0140
S1131AD001900D922A95E1F74CE050E0B801CE0157
S1131AE00C960E949430188EDF91CF911F910F9124
S1131AF0FF90EF900895FC011382128288EE93E028
S1131B00A0E0B0E084839583A683B78387EA91E05D
S1131B1091838083128E118E14860895FC01818D29
S1131B20928D009739F00E94FF1791E0811103C054
S1131B3090E001C090E0892F0895DC015996ED9161
S1131B40FC915A97309729F0628573858485958531
S1131B5008956FEF7FEFCB010895DC015996ED9165
S1131B60FC915A97309729F06389748985899689FD
S1131B70089560E070E0CB010895CF92DF92EF9278
S1131B80FF92CF93DF93FC01218D328D232BD9F06B
S1131B90EC010E94AD0D6B017C01CE010E949D0DF4
S1131BA0A7019601261B370B480B590BDA01C90113
S1131BB0811530E89307A105B10538F08FEF9FE751
S1131BC0A0E0B0E002C080E090E0DF91CF91FF9010
S1131BD0EF90DF90CF900895CF93DF93FC01818D38
S1131BE0928D009749F0EF010E94F318898D9A8D28
S1131BF00E94182F1A8E198EDF91CF910895DC015F
S1131C005996ED91FC915A97309731F0958181E086
S1131C10911103C080E0089580E008950197C9F40C
S1131C206F3F7F4FB1F4ECEFF3E01582168211861B
S1131C30138682E090E0A0E0B0E084879587A687D1
S1131C40B78713A215A614A68BEB91E093A782A7DE
S1131C5017A608951F93CF93DF93CDB7DEB76D9783
S1131C600FB6F894DEBF0FBECDBFAB011C821B8242
S1131C702BEB31E03A8329831E8221E0BC01CE01A3
S1131C8001960E94A41A11E0811101C010E088237A
S1131C9021F0CE0101960E94F318812F6D960FB6A4
S1131CA0F894DEBF0FBECDBFDF91CF911F91089591
S1131CB0442339F00E94B51B91E0811103C090E0E8
S1131CC001C091E0892F0895CF93DF93EC01DB01EC
S1131CD0ED91FC91DC01AE0FBF1F8C918F3209F4A2
S1131CE0319620E030E02C30310584F4DE01AE0F73
S1131CF0BF1F9C919F3251F0992341F0DA01A20F4A
S1131D00B31F31969C932F5F3F4FEDCFDA01A20FA3
S1131D10B31F1C92DE01AE0FBF1F8C918F3209F4EA
S1131D203196DB01ED93FC93EC0FFD1F908181E074
S1131D30911101C080E0DF91CF9108955F926F927D
S1131D407F928F929F92AF92BF92CF92DF92EF9247
S1131D50FF920F931F93CF93DF93CDB7DEB7C95490
S1131D60D1090FB6F894DEBF0FBECDBF4C016B0195
S1131D703A0159011C821B828BEB91E09A8389837F
S1131D801E8219A218A29F8F8E8F1BA22A961FAEA5
S1131D901EAE2A978B01CE0101967C01AE01455CF3
S1131DA05F4FBE01685B7F4FC4010E94640E582ED2
S1131DB041E048279501BE01655C7F4FC801F301EE
S1131DC00995811108C00C151D0551F1C8010E9427
S1131DD0F31880E02AC05520D9F021E0AE01455C1B
S1131DE05F4FB801C7010E94A41A582E0C151D0597
S1131DF019F0C8010E94F3185520A1F00C151D0517
S1131E0011F0C80102C0CE014E9687017C01C6CFF5
S1131E100C151D0549F0C8010E94F31881E005C0A6
S1131E2080E003C080E001C081E0C75BDF4F0FB6F4
S1131E30F894DEBF0FBECDBFDF91CF911F910F91FC
S1131E40FF90EF90DF90CF90BF90AF909F908F90D6
S1131E507F906F905F9008950F931F93CF93DF93BC
S1131E60EC01162F8FA5882321F0CE018A960E94BB
S1131E70F318412F61E0CE010E94B5128823E1F0EE
S1131E808E01045F1F4F41E0BE01C8010E947E2104
S1131E90811106C040E0BE01C8010E947E2101C03C
S1131EA081E0882359F0B801CE018A960E94081671
S1131EB0882331F081E005C080E003C080E001C0E8
S1131EC080E0DF91CF911F910F9108954F925F921F
S1131ED06F927F928F929F92AF92BF92CF92DF9236
S1131EE0EF92FF920F931F93CF93DF93CDB7DEB79B
S1131EF0C754D1090FB6F894DEBF0FBECDBF4C0155
S1131F003A0129011C821B828BEB91E09A8389831D
S1131F101E8219A218A29F8F8E8F1BA2645F7F4F0F
S1131F20CE0101960E94081673016E018EE1C80E5F
S1131F30D11CFE0131965F016FE270E0C7010E947F
S1131F4082300097F1F1F70120812F3221F4FFEF65
S1131F50EF1AFF0AF1CF0097A1F18E198D3008F026
S1131F608CE0082F10E0A801B701CE01CB960E94A7
S1131F709430EBE3F0E0EC0FFD1FE00FF11F108253
S1131F80C6010E94F31821E0AE01455C5F4FB50124
S1131F90C6010E94A41A811109C0F401138212829D
S1131FA08BEB91E091838083158263C0E00EF11E78
S1131FB0C5010E94F3189A2D8B2D5601C92ED82ED7
S1131FC0BBCFE618F708F201F182E08289E891E0DC
S1131FD0F40191838083F50182819381F4019383D9
S1131FE082838BEB91E091838083F5018481F401FA
S1131FF08483F5018581F4018583F50186819781C8
S1132000A085B185F40186839783A087B187F50104
S113201082859385A485B585F40182879387A487F7
S1132020B587F50186859785A089B189F4018687EE
S11320309787A08BB18BF5018289F401828BF5011E
S113204083899489A589B689F401838B948BA58BA4
S1132050B68BF5018789908DA18DB28DF401878BA4
S1132060908FA18FB28FF501838D948DF401948F9D
S1132070838FC401C95BDF4F0FB6F894DEBF0FBE78
S1132080CDBFDF91CF911F910F91FF90EF90DF9023
S1132090CF90BF90AF909F908F907F906F905F9004
S11320A04F900895DF92EF92FF920F931F93CF9377
S11320B0DF93CDB7DEB7C657D1090FB6F894DEBFAC
S11320C00FBECDBF7C018A01D22E9E01255C3F4FFD
S11320D0CE01CD960E94660F8BAD9CAD080F191FE3
S11320E0F8018081811157C021968EAD9FAD219753
S11320F099A388A38BEB91E09F8F8E8F22968FAD4F
S113210022978AA323968FAD23978BA327968CAD12
S11321109DADAEADBFAD27978CA39DA3AEA3BFA3CA
S11321202B968CAD9DADAEADBFAD2B9788A799A76F
S1132130AAA7BBA72F968CAD9DADAEADBFAD2F9713
S11321408CA79DA7AEA7BFA760968FAD609788ABFD
S113215064968CAD9DADAEADBFAD649789AB9AABC3
S1132160ABABBCAB68968CAD9DADAEADBFAD689767
S11321708DAB9EABAFABB8AF6A968EAD9FAD6A9791
S11321809AAF89AF45EB51E0BE01625E7F4FC70154
S11321900E94460D8EC06E961FAE1EAE6E978BEBE0
S11321A091E06C969FAF8EAF6C97A0961FAEA097F0
S11321B023968FAD2397811104C0C7010E947B0D24
S11321C078C02D2DA801BE01635C7F4FCE01865AD5
S11321D09F4F0E94A41A811104C0C7010E947B0D65
S11321E068C0CE01CD960E94F3188D2D867086307E
S11321F059F4E1964CAD5DAD6EAD7FADE197CE0186
S1132200865A9F4F0E94FF176E968EAD9FAD6E97B4
S11322109C838B838BEB91E09A8389836F968FAD3C
S11322206F978D83A0968FADA0978E83A4968CAD67
S11322309DADAEADBFADA4978F839887A987BA87AC
S1132240A8968CAD9DADAEADBFADA8978B879C878E
S1132250AD87BE87AC968CAD9DADAEADBFADAC9732
S11322608F87988BA98BBA8BAD968FADAD978B8BDF
S1132270E1968CAD9DADAEADBFADE1978C8B9D8BE2
S1132280AE8BBF8BE5968CAD9DADAEADBFADE59786
S1132290888F998FAA8FBB8FE7968EAD9FADE797F6
S11322A09D8F8C8FA801BE016F5F7F4FC7010E9475
S11322B0460DC701CA58DF4F0FB6F894DEBF0FBEF4
S11322C0CDBFDF91CF911F910F91FF90EF90DF90E1
S11322D00895FB01BC01665D7F4F20E030E04AE2D7
S11322E05EE0CF010E949E0E0895FB01BC01665D75
S11322F07F4F20E030E048E55EE0CF010E949E0E73
S113230008956FEF7FEF81E090E00E940E0E089534
S11323108EBD00000DB407FEFDCF8EB508958FEF7E
S11323208EBD00000DB407FEFDCF8EB50895019754
S113233041F46F3F7F4F29F4E6E4F4E080E58083C5
S11323401182089561E0FC0184810E94D406809189
S113235045048823A1F0109245048091300388231A
S113236071F09FB7F89480913003813029F4809103
S11323702E038DBB9FBF089580912E038FBF0895B8
S113238020914504211120C021E02093450430917F
S113239046042091470440913003442399F04FB7F9
S11323A0F89450913003513059F45DB350932E0397
S11323B06DB350912F03509556235DBB4FBF02C0A0
S11323C040932E033CBD2DBD60E0FC0184810E943E
S11323D0D4060895CF93DF93EC018E81882389F08E
S11323E08F8198859C012F5F3F4F38872F838230E0
S11323F0924018F40E948F11F3CFCE010E94A211D3
S11324001E82DF91CF910895673028F026E1FC0108
S1132410258380E008956230D1F028F4662349F0E2
S1132420613071F030C0643001F1C0F0653021F1E9
S11324302AC080E58093460481E080934704089590
S113244080E5809346041092470481E0089581E575
S11324508093460481E080934704089581E5809346
S113246046041092470481E0089582E5809346046F
S113247081E080934704089582E580934604109296
S1132480470481E0089583E580934604109247044D
S113249081E008950F931F93CF93DF93EB010E9484
S11324A064058B010E948F118F3F49F00E946405DF
S11324B0601B710B6C177D07A8F380E001C081E0FD
S11324C0DF91CF911F910F910895CF92DF92EF92F8
S11324D0FF920F931F93CF93DF938C01D62F690143
S11324E07A010E94EA11C8010E94C0116CE271E0F5
S11324F0C8010E944A128D2F80640E948811C8E18D
S1132500CC2374F0D701C6010C2E04C0B695A79550
S1132510979587950A94D2F70E948811C850F0CFF6
S1132520DD2311F08FEF01C085E9D83009F487E885
S11325300E948811C0E00E948F11F80182878823CD
S113254024F4CF3F21F490E003C090E001C091E077
S1132550992311F0CF5FEFCFDF91CF911F910F91AE
S1132560FF90EF90DF90CF9008958F929F92AF925B
S1132570BF92EF92FF920F931F93CF93DF93EC01DF
S1132580E62E1B8619861E821D824C830E946405DA
S11325908B0161E08C810E94950661E08C810E9430
S11325A0D4060E94540882E580934604109247049E
S11325B080913003882399F08FB7F8949091300379
S11325C0913059F49DB390932E032DB390912F0322
S11325D0909592239DBB8FBF02C080932E0382E50A
S11325E08CBD1DBCF12C89E08F1528F08FEF0E9463
S11325F08811F394F8CF80913003882371F09FB74A
S1132600F89480913003813029F480912E038DBB9E
S11326109FBF03C080912E038FBFCE010E94C011C3
S113262020E030E0A90160E0CE010E9465128A87B3
S1132630813051F00E946405601B710B613D77404D
S113264078F381E08D8369C02AEA31E040E050E00C
S113265068E0CE010E94651282FF03C081E08B878F
S113266011C0F12C83E08F1528F00E948F118A8706
S1132670F394F8CF8A858A3A19F082E08D834DC0AD
S113268082E08B878B85823031F4812C912C54012C
S11326906894B6F803C0812C912C540120E030E0FA
S11326A0A90167E3CE010E946512A501940169E2C4
S11326B0CE010E9465128A87882351F00E94640526
S11326C0601B710B613D774048F388E08D8325C022
S11326D08B858230D1F420E030E0A9016AE3CE0199
S11326E00E946512882319F086E08D8316C00E942B
S11326F08F11807C803C11F483E08B8710E01330D1
S113270020F40E948F111F5FFACFCE010E94A21104
S11327106E2DCE010E94041204C0CE010E94A211AB
S113272080E0DF91CF911F910F91FF90EF90BF90C8
S1132730AF909F908F9008950F931F93CF93DF9343
S1132740EC010E9464058B010E948F118A878F3FE0
S113275051F40E946405601B710B6D327140A0F34B
S11327608FE08D8304C08E3F39F08DE08D83CE01E0
S11327700E94A21180E001C081E0DF91CF911F91FE
S11327800F910895AF92BF92CF92DF92EF92FF9292
S11327900F931F93CF93DF93EC016901011511058A
S11327A009F46FC0C801820F931F8130924008F072
S11327B063C08E81882371F088819981AA81BB814D
S11327C084179507A607B70729F48F819885C8163B
S11327D0D90620F5488359836A837B838B858330AC
S11327E049F0032E39E0440F551F661F771F3A95B1
S11327F0D1F7302D9A01AB0161E1CE010E9465123F
S1132800882319F083E08D8337C0CE010E949C1386
S1132810882391F118861F8281E08E838F819885A9
S11328208C159D0540F40E948F118F819885019627
S113283098878F83F3CFC12CD12CC016D10658F4BE
S11328405701AC0CBD1C0E948F11F5018083FFEF72
S1132850CF1ADF0AF2CF8F819885080F191F1887C6
S11328600F838985882319F00115124060F0CE0189
S11328700E94EA1181E008C0CE010E94A21180E00A
S113288003C081E001C081E0DF91CF911F910F91DE
S1132890FF90EF90DF90CF90BF90AF900895EF92AC
S11328A0FF920F931F93790100E012E020E030E0E3
S11328B00E94C2131F910F91FF90EF900895EF9221
S11328C0FF920F931F93CF93DF937C01862F8A018E
S11328D00E948811C0E0D0E0C11582E0D80740F41E
S11328E0F801EC0FFD1F80810E9488112196F4CF1E
S11328F08FEF0E9488118FEF0E9488110E948F1120
S1132900F70182878F71853039F081E18583C701B2
S11329100E94A21180E001C081E0DF91CF911F915C
S11329200F91FF90EF900895EF92FF920F93CF9342
S1132930DF93EC017901411551056105710519F425
S113294082E18D8345C08B85833049F0032E39E0C5
S1132950440F551F661F771F3A95D1F7302D9A0102
S1132960AB0168E1CE010E946512882319F084E06E
S11329708D832EC0A7016EEFCE010E945F148823C1
S113298039F1002301F168E572E0CE010E944A1298
S1132990811103C085E18D831BC020E030E0A901D3
S11329A06DE0CE010E946512811105C00E948F1155
S11329B0811103C003C081E001C081E0882319F0C4
S11329C084E18D8305C0CE010E94A21181E004C080
S11329D0CE010E94A21180E0DF91CF910F91FF9070
S11329E0EF9008951F93CF93DF93EC010E94C011E1
S11329F00E948F11182FCE010E94A21181E01F3F67
S1132A0009F480E0DF91CF911F9108956FEF7FEF7C
S1132A1081E090E00E9497110895CF93DF93EC0139
S1132A209C012A5F3F4F41E050E060E070E08B8DF5
S1132A309C8D0E9414208823B9F08F89988DA98DCC
S1132A40BA8D892B8A2B8B2B59F48E819F81A88573
S1132A50B9858F8B988FA98FBA8F8C8180688C836E
S1132A608C8180628C8381E0DF91CF910895CF9235
S1132A70DF92EF92FF920F931F93CF938C010E94EA
S1132A800D15882309F454C0D8011696CD90DD9015
S1132A90ED90FC9019975B96ED91FC915C9786857F
S1132AA09785A089B18922E0C21AD108E108F1080A
S1132AB0058404C0CC0CDD1CEE1CFF1C0A94D2F768
S1132AC0C80ED91EEA1EFB1EC481CC2391F0D70187
S1132AD0C6018C0F911DA11DB11DBC01CD0161501A
S1132AE07109810991090E94361E882309F1C15098
S1132AF0ECCFD8015B96ED91FC915C9780E092E07D
S1132B00A0E0B0E0058404C0880F991FAA1FBB1F72
S1132B100A94D2F7F8014389548965897689840F28
S1132B20951FA61FB71F838B948BA58BB68B81E053
S1132B30CF911F910F91FF90EF90DF90CF90089568
S1132B40CF93DF93EC01462F6E857F858889998921
S1132B500E94FC1D882341F08A8920E2829FC001E3
S1132B6011248F5A9B4F02C080E090E0DF91CF91F7
S1132B700895CF93DF93DC0190E09B3048F4FB0190
S1132B80E90FF11D20E220839F5FF7CFDE0102C031
S1132B9040E057E0ED0121969C91992331F19E325A
S1132BA029F45A3049F148E05AE0F0CFEBE4F2E07E
S1132BB09F012F5F3F4F8491882321F0F9019813DF
S1132BC0F7CF1CC05417E0F09132E0F09F37E0F4E7
S1132BD081E0840FFB01E40FF11D2FE9290F2A3155
S1132BE008F490529083482FD1CFFB01908181E06B
S1132BF0903259F480E009C080E007C080E005C04D
S1132C0080E003C080E001C080E0DF91CF910895AF
S1132C100F931F93CF93DF93EC018D8181114FC0EC
S1132C208B01FB019789903119F582E08D831F8A0E
S1132C30188E198E1A8E808D918DA0E0B0E0880FC9
S1132C40991FAA1FBB1F880F991FAA1FBB1F880F9C
S1132C50991FAA1FBB1F880F991FAA1FBB1F880F8C
S1132C60991FAA1FBB1F8B8B9C8BAD8BBE8B15C072
S1132C70903231F583E08D83FB01428D538D648D59
S1132C80758D4F8B588F698F7A8F9E012D5E3F4FC4
S1132C90C8010E94EB1E882399F01C8F0B8F81E0E2
S1132CA08C831E821F82188619861A861B861C86B0
S1132CB01D861E861F86188A198A1A8A01C080E01A
S1132CC0DF91CF911F910F9108953F924F925F92A0
S1132CD06F927F928F929F92AF92BF92CF92DF9228
S1132CE0EF92FF920F931F93CF93DF9300D000D006
S1132CF0CDB7DEB74C016B015A834983FC01858152
S1132D00882331F0848180FD06C03324339404C0C9
S1132D103324339401C0312C311005C109811A8147
S1132D20C801A0E0B0E0F40103891489258936893B
S1132D30428553856485758528013901441A550AED
S1132D40660A770A481659066A067B0628F4C801FB
S1132D50841B950B9A83898369807A80611471043A
S1132D6009F4DEC0F40182859385A485B5852C0120
S1132D70F1E05F22F40125812230C9F4238D348DE2
S1132D80F901428D538D648D758D072E79E0B695CA
S1132D90A795979587957A95D1F7702D8A019B0110
S1132DA0080F191F2A1F3B1FC901B80154C0F401A1
S1132DB0038D148DF801B480BA94AC01BD01032EC7
S1132DC039E076956795579547953A95D1F7302D23
S1132DD0B42241145104F1F4B1101CC0892B8A2B84
S1132DE08B2B51F4F4018789908DA18DB28D86834C
S1132DF09783A087B1870EC0F4014681578160850F
S1132E00718594012A5F3F4FC8010E94601E882388
S1132E1009F48CC0F40186819781A085B185238D46
S1132E20348DF90146855785608971890297A10916
S1132E30B109058404C0880F991FAA1FBB1F0A94F7
S1132E40D2F7840F951FA61FB71FBC01CD016B0DD0
S1132E50711D811D911D20E032E05901A418B508AF
S1132E60A614B70408F05301F401248126FD04C01C
S1132E70A114F2E0BF0679F400910C0110910D0148
S1132E8020910E0130910F0160177107820793079B
S1132E9021F4232D03C0232D01C021E0222381F03E
S1132EA0760185019201AB01BC0180914F049091A0
S1132EB050040E94C2138823E1F1CA0CDB1C20C019
S1132EC040E00E94FC1D8823B9F182010F5A1B4F78
S1132ED01C830B8398012A0D3B1D4B815C81421797
S1132EE0530771F0FA018081F60180838A010F5F34
S1132EF01F4F1C830B83A6014F5F5F4F6A01EDCF09
S1132F00F40182859385A485B5858A0D9B1DA11D39
S1132F10B11D82879387A487B5876A187B081ECF63
S1132F2089819A810BC08FEF9FEF08C08FEF9FEFCD
S1132F3005C08FEF9FEF02C08FEF9FEF0F900F90B0
S1132F400F900F90DF91CF911F910F91FF90EF9011
S1132F50DF90CF90BF90AF909F908F907F906F90B5
S1132F605F904F903F900895FF920F931F93CF93DC
S1132F70DF931F92CDB7DEB7FC012581223098F193
S1132F808C014285538564857585689414F876951B
S1132F906795579547951694D1F7F42FFF70FF2E38
S1132FA041E050E0BE016F5F7F4F0E9465160197BC
S1132FB019F4898190E002C08FEF9FEF9923B4F058
S1132FC0F80182859385A485B5854F96A11DB11D11
S1132FD082879387A487B587F0E2FF9EC0011124FE
S1132FE08F5A9B4F05C080E090E002C080E090E0E3
S1132FF00F90DF91CF911F910F91FF9008958F92C1
S11330009F92AF92BF92CF92DF92EF92FF920F9373
S11330101F93CF93DF93EC018D81882359F00B89A3
S11330201C892D893E89041715072607370720F4C4
S113303091E003C091E001C090E0911173C082302F
S113304031F44A875B876C877D8781E06CC04115CA
S113305051056105710551F41E821F821886198677
S11330601A861B861C861D8681E05DC04A015B01B1
S11330700A851B852C853D856801790181E0C81A84
S1133080D108E108F108EB8DFC8D858590E0099667
S1133090082E04C0F694E794D794C7940A94D2F700
S11330A0415051096109710904C076956795579596
S11330B047958A95D2F74C155D056E057F0520F07E
S11330C0012B022B032B49F48F89988DA98DBA8D7E
S11330D08E839F83A887B98704C04C195D096E0944
S11330E07F096A017B0181E0C81AD108E108F1086F
S11330F0452B462B472B81F04E815F81688579856E
S11331009E012A5F3F4F8B8D9C8D0E94601EB701EC
S1133110A6018111E6CF07C08A869B86AC86BD8650
S113312081E001C080E0DF91CF911F910F91FF906A
S1133130EF90DF90CF90BF90AF909F908F900895C5
S1133140FF920F931F93CF93DF93FC018581882314
S113315009F443C0F62EEF0184818823A4F561E0CD
S1133160CF010E94A0158C01892BB1F18D81823091
S113317048F48B899C89AD89BE89F801848F958F29
S1133180A68FB78F8F89988DA98DBA8DF801938FEB
S1133190828F8F89988DA98DBA8DB58BA48BE09180
S11331A04804F0914904309759F0B8016A5E7F4FA2
S11331B0C80148960995F801808D918D938B828B77
S11331C08C818F778C83F11003C08C818F7E8C83EC
S11331D08F2D0E94D11D01C080E0DF91CF911F91FE
S11331E00F91FF900895CF93DF93EC0161E00E946B
S11331F0A018882311F01D8281E0DF91CF910895FA
S1133200CF93DF93FC012581213029F4248121FD12
S113321004C021E003C021E001C020E021114AC024
S1133220EC018C8182FF12C08A859B85AC85BD85AB
S11332304B895C896D897E8984179507A607B70732
S113324029F0CE010E94FF178823B9F180914F0421
S1133250909150040E94F214811132C08C8185FF38
S11332600AC060E0CE010E94A0188C818F7D8C83FF
S113327080E090E027C040914A0450914B04609153
S11332804C0470914D04452B462B472B31F080E0C4
S11332900E94AB1D80E090E015C080618C838A851C
S11332A09B85AC85BD859C01317080E092E0821BDA
S11332B0930B08C080E090E005C080E090E002C07D
S11332C080E090E0DF91CF9108954F925F926F92EA
S11332D07F928F929F92AF92BF92EF92FF920F9341
S11332E01F93CF93DF9300D000D0CDB7DEB7FC019E
S11332F08581813029F4848181FD04C081E003C08B
S113330081E001C080E0811199C083899489A589F5
S1133310B68984179507A607B70708F491C0892BC7
S11333208A2B8B2B09F48EC082849384A484B58465
S1133330481559056A057B0510F44A015B012A0109
S11333403B017F01CF010E94FF17882309F47BC052
S11333504114510461047104B1F4D70157964D919D
S11333605D916D917C915A975B968D919C915C9740
S11333700E942821882309F466C0F701178A108E59
S1133380118E128E42C0D70116964D915D916D91AA
S11333907C9119979E012F5F3F4F5B968D919C9175
S11333A05C970E94601E882371F149815A816B8168
S11333B07C81D7015B96ED91FC915C978789803184
S11333C029F488EF9FEFA0E0B0E004C088EF9FEFFE
S11333D0AFEFBFE0481759076A077B07B0F4CF0186
S11333E00E942821882379F0F7014681578160855E
S11333F071850FEF1FEF2FEF3FE0838D948D0E94B7
S1133400491F811102C080E01EC0D70153964D921E
S11334105D926D927C92569714968C911497806865
S113342014968C9361E0C7010E94A018882359F078
S1133430B501A401C7010E94FF1705C080E003C0C5
S113344080E001C081E00F900F900F900F90DF910A
S1133450CF911F910F91FF90EF90BF90AF909F90ED
S11334608F907F906F905F904F9008951F93CF93AC
S1133470DF93EC0180E2689FF0011124EF5AFB4FC7
S11334809385917121F0842F827409F054C0142F14
S11334906A8B80910C0190910D01A0910E01B09165
S11334A00F018E879F87A88BB98B84899589A0E0AB
S11334B0B0E0DC01992788278F8B988FA98FBA8F6A
S11334C0428D538D60E070E0482B592B6A2B7B2B87
S11334D04F8B588F698F7A8F2385287159F4848D87
S11334E0958DA68DB78D8B8B9C8BAD8BBE8B81E020
S11334F08D830DC0203109F59E012D5E3F4F8B8DCC
S11335009C8D0E94EB1E8823D9F084E08D83812F4B
S11335108F708C831E821F82188619861A861B86DA
S11335201C861D8616FF0BC040E050E0BA01CE0198
S11335300E94651905C080E003C080E001C081E0FD
S1133540DF91CF911F910895AF92BF92CF92DF92F6
S1133550EF92FF920F931F93CF93DF93CDB7DEB714
S11335602B970FB6F894DEBF0FBECDBFFC01C5800C
S1133570C110CAC0A22E8B017C01BE016F5F7F4FB8
S1133580CA010E94B915882309F4C0C0F801838DCB
S1133590948DF701948F838FF80116821782108619
S11335A011861286138614861586B12CF80142857D
S11335B053856485758583899489A589B689481757
S11335C059076A077B0708F044C0689414F8769595
S11335D06795579547951694D1F7F42FFF70DF2E12
S11335E0C8010E94B417009709F491C0FC0120811E
S11335F0222311F0253EB9F4B11010C0F701D28A8C
S113360040910C0150910D0160910E0170910F01D8
S113361046875787608B718BBB24B394FC018081F0
S11336208111C4CF16C04BE050E0BC01CE0101961D
S11336300E946C30892B09F0B9CF8A2D80738033B6
S113364009F465C04A2D6D2DC7010E94361AC82E93
S11336505EC08A2D8271823109F059C0BB2041F0CD
S113366061E0C7010E94A0158C01892B89F44FC029
S1133670F8018581823009F44AC0C8010E943715D7
S1133680C82E882309F443C0F701128A01E514E027
S113369080E2F80111928A95E9F78BE0FE013196F8
S11336A0D80101900D928A95E1F7E0914804F091D8
S11336B04904309739F0B801625F7F4FC8014096E2
S11336C0099509C081E298E2F801918B808B80E032
S11336D098E097878687F80180899189938B828BFC
S11336E0918F808F86859785978B868B81E00E944A
S11336F0D11DC82E882359F0F70162894A2DC701CC
S11337000E94361AC82E03C0C12C01C0C82E8C2DAD
S11337102B960FB6F894DEBF0FBECDBFDF91CF91CD
S11337201F910F91FF90EF90DF90CF90BF90AF90DB
S11337300895CF93DF93EC0140E050E0BA010E947A
S11337406519882379F061E0CE010E94A0150097E5
S113375041F025EEFC0120831D8281E00E94D11DF1
S113376001C080E0DF91CF910895CF93DF93CDB76F
S1133770DEB76D970FB6F894DEBF0FBECDBFAB01B9
S11337801C821B822BEB31E03A8329831E8222E0C8
S1133790BC01CE0101960E94A41A882321F0CE0117
S11337A001960E94991B6D960FB6F894DEBF0FBE6A
S11337B0CDBFDF91CF9108953F924F925F926F9268
S11337C07F928F929F92AF92BF92CF92DF92EF92AD
S11337D0FF920F931F93CF93DF9300D000D000D0BC
S11337E0CDB7DEB76C017B015E834D83DC0114969B
S11337F09C911497292F22952F7081E08227817044
S1133800382E15968C91813019F491FD03C003C0B4
S113381081E001C080E0811166C192FD03C08D800A
S11338209E8015C0F60182859385A485B58543895C
S113383054896589768984179507A607B70779F3AC
S1133840C6010E94FF17882309F44DC1E8CF8114F3
S1133850910409F41BC1D6011A960D911D912D9165
S11338603C911D975B96ED91FC915C97D901C80141
S1133870072E79E0B695A795979587957A95D1F710
S1133880702D74807A9478221170711054C00115CF
S1133890110509F050C0D60116964D915D916D91B8
S11338A07C9119974115510561057105B1F457963D
S11338B08D919D910D90BC91A02D0097A105B1050E
S11338C031F4C6010E940D15811135C00CC1F601F9
S11338D086839783A087B1872EC09E012F5F3F4FB9
S11338E0CF010E94601E811102C090E00BC189814A
S11338F09A81AB81BC81F601238D348DF90127892E
S1133900203129F448EF5FEF60E070E004C048EF35
S11339105FEF6FEF7FE084179507A607B70730F0D6
S1133920C6010E940D15811106C0DDC0F601868313
S11339309783A087B18780E092E05C01A01AB10A66
S11339408A149B0408F45401F60186819781A085AA
S1133950B185238D348DF901468557856089718938
S11339600297A109B109058404C0880F991FAA1FF1
S1133970BB1F0A94D2F7840F951FA61FB71F9C0183
S1133980AD01270D311D411D511D29013A01A1141D
S113399032E0B30641F580910C0190910D01A091A4
S11339A00E01B0910F01481659066A067B0659F4B8
S11339B08FEF9FEFDC0180930C0190930D01A09396
S11339C00E01B0930F01032D9701B301A201809161
S11339D04F04909150040E949414882309F483C0E6
S11339E04EEFF41A43C00115110531F5D6011A96AC
S11339F04D915D916D917C911D9753968D919D9103
S1133A000D90BC91A02D481759076A077B07A0F0B9
S1133A1081E00E94D11D882309F465C040920C0105
S1133A2050920D0160920E0170920F0180914E042C
S1133A30816080934E0408C041E0C301B2010E943A
S1133A40FC1D882309F44FC0F801EF5AFB4F9F0176
S1133A502A0D3B1DE217F30749F0D7018C918083AF
S1133A603196A7014F5F5F4F7A01F4CF8A189B0804
S1133A70F60182859385A485B5858A0D9B1DA11DBC
S1133A80B11D82879387A487B587E1CEF60182852D
S1133A909385A485B58543895489658976894817B2
S1133AA059076A077B0740F4838B948BA58BB68BED
S1133AB08481806884830DC0809148049091490476
S1133AC0892B39F02D813E81232B19F08481806864
S1133AD08483F601848183FF10C061E0C6010E94E3
S1133AE0A01881110DC081E090E0D60113969C933B
S1133AF08E93129780E090E005C08D819E8102C074
S1133B008D819E8126960FB6F894DEBF0FBECDBF81
S1133B10DF91CF911F910F91FF90EF90DF90CF90A5
S1133B20BF90AF909F908F907F906F905F904F90D9
S1133B303F900895CF93DF931F92CDB7DEB769838B
S1133B4041E050E0BE016F5F7F4F0E94DC1B0F908D
S1133B50DF91CF9108950F9340914A0450914B0403
S1133B6060914C0470914D04411551056105710536
S1133B70A9F0082F21E534E080914F04909150047E
S1133B800E949414882359F010924A0410924B0412
S1133B9010924C0410924D0481E001C081E00F9119
S1133BA008950F93CF9390914E049923F9F0C82F61
S1133BB040910C0150910D0160910E0170910F0123
S1133BC0082F21E534E080914F04909150040E9425
S1133BD09414882371F0CC2359F08C2F0E94AB1DD0
S1133BE0882339F010924E0481E003C081E001C0C3
S1133BF081E0CF910F910895CF92DF92EF92FF92DF
S1133C00CF936B017C01C42F80910C0190910D0125
S1133C10A0910E01B0910F018C159D05AE05BF0555
S1133C20C9F081E00E94D11D8823D1F021E534E060
S1133C30B701A60180914F04909150040E944F1443
S1133C40882371F0C0920C01D0920D01E0920E0114
S1133C50F0920F0180914E04C82BC0934E0481E072
S1133C60CF91FF90EF90DF90CF900895CF92DF92A5
S1133C70EF92FF926B017C0181E00E94D11D8823A9
S1133C80D1F080E090E0811522E0920730F4FC014D
S1133C90EF5AFB4F10820196F6CFC0920C01D092DE
S1133CA00D01E0920E01F0920F0180914E048160AB
S1133CB080934E0481E0FF90EF90DF90CF900895C1
S1133CC08F929F92AF92BF92CF92DF92EF92FF9228
S1133CD00F931F93CF93DF93FC01E90101851285B4
S1133CE0238534850F5F1F4F2F4F3F4F0417150750
S1133CF02607370708F461C083899489A589B689A2
S1133D002789203129F4852E962EA72EBB240AC09C
S1133D104A015B01689416F8B694A7949794879423
S1133D201694D1F76A017B018F01BC01CD01680DA6
S1133D30791D8A1D9B1D80900C0190900D01A0900F
S1133D400E01B0900F01681579058A059B0529F0CD
S1133D5040E00E94FC1D882389F1F80187898031A5
S1133D60A1F4B701A601552766277727440F551FED
S1133D70FA01EF5AFB4F80819181A0E0B0E0888383
S1133D809983AA83BB8381E019C0B701A6014F7749
S1133D90552766277727440F551F440F551FFA01EF
S1133DA0EF5AFB4F80819181A281B381BF708883D8
S1133DB09983AA83BB8381E001C080E0DF91CF9126
S1133DC01F910F91FF90EF90DF90CF90BF90AF9035
S1133DD09F908F9008958F929F92AF92BF92EF928F
S1133DE0FF920F931F93CF93DF9300D000D0CDB7F2
S1133DF0DEB78C0149835A836B837C837901812CE0
S1133E00912C540149815A816B817C819E012F5FE1
S1133E103F4FC8010E94601E882361F180E092E058
S1133E20A0E0B0E0F801058404C0880F991FAA1F20
S1133E30BB1F0A94D2F7880E991EAA1EBB1E898145
S1133E409A81AB81BC812789203129F448EF5FEF47
S1133E5060E070E004C048EF5FEF6FEF7FE084172D
S1133E609507A607B70770F2F70180829182A282B4
S1133E70B38281E00F900F900F900F90DF91CF915C
S1133E801F910F91FF90EF90BF90AF909F908F90F4
S1133E9008954F925F926F927F928F929F92AF920A
S1133EA0BF92CF92DF92EF92FF920F931F93CF9323
S1133EB0DF9300D000D000D0CDB7DEB7423051053B
S1133EC06105710508F494C0DC011996CD90DD906C
S1133ED0ED90FC901C97BFEFCB1ADB0AEB0AFB0AB0
S1133EE0C416D506E606F70608F484C0FC01438828
S1133EF0548865887688E789E03129F4852E962EE2
S1133F00A72EBB240AC04A015B01689416F8B69434
S1133F10A794979487941694D1F709831A832B83D3
S1133F203C836A017B019E838D83480C591C6A1C67
S1133F307B1C80910C0190910D01A0910E01B09118
S1133F400F01481659066A067B0641F040E0C3019A
S1133F50B2010E94FC1D882309F44FC0AD81BE81CB
S1133F6057968C91803179F4B701A60155276627BD
S1133F707727440F551FFA01EF5AFB4F89819A8125
S1133F809183808315C0B701A6014F775527662713
S1133F907727440F551F440F551FFA01EF5AFB4F63
S1133FA089819A81AB81BC8180839183A283B3830D
S1133FB080914E04816080934E04AD81BE815296FF
S1133FC08C9152978230C0F015968D919D910D90F1
S1133FD0BC91A02D480E591E6A1E7B1E40924A04B5
S1133FE050924B0460924C0470924D0481E005C0E1
S1133FF080E003C080E001C081E026960FB6F8940B
S1134000DEBF0FBECDBFDF91CF911F910F91FF9007
S1134010EF90DF90CF90BF90AF909F908F907F9064
S11340206F905F904F9008952F923F924F925F92BE
S11340306F927F928F929F92AF92BF92CF92DF92B4
S1134040EF92FF920F931F93CF93DF93CDB7DEB719
S11340502F970FB6F894DEBF0FBECDBF1C01498762
S11340605A876B877C873E872D87D9014D905D9059
S11340706D907C90411451046104710439F0BFEFD8
S11340804B1A5B0A6B0A7B0A1F8611C0FC01408035
S113409051806280738081E029853A854B855C85F7
S11340A0213031054105510509F080E08F87F10188
S11340B081859285A385B4859C01AD012F5F3F4F17
S11340C04F4F5F4F2D833E834F83588773016201A7
S11340D0812C912C5401F10181859285A385B485AD
S11340E088169906AA06BB0608F04AC02D813E81AF
S11340F04F8158852C153D054E055F0550F4C12CA4
S1134100D12C76016894C1F8412C512C3201689469
S113411041F89E012F5F3F4FB701A601C1010E94E4
S1134120601E882369F189819A81AB81BC81892BC6
S11341308A2B8B2B41F0260137013FEF431A530A98
S1134140630A730A12C0D701C60184199509A60926
S1134150B7090196A11DB11D29853A854B855C855A
S1134160281739074A075B0769F03FEF831A930A58
S1134170A30AB30A4FEFC41AD40AE40AF40AABCF71
S113418080E04DC00FEF1FEF2FEF3FE0B701A60116
S1134190C1010E94491F882309F441C04C145D04E5
S11341A06E047F0498F44601570151E0851A910882
S11341B0A108B10897018601B501A401C1010E94BB
S11341C0491F882361F175016401E8CFAD85BE857F
S11341D04D915D916D917C9141155105610571057C
S11341E039F093018201C1010E94491F8823B9F06B
S11341F0ED85FE854082518262827382FF85FF23B2
S113420069F02FEF421A520A620A720AD1014D92E2
S11342105D926D927C92139781E001C081E02F96AC
S11342200FB6F894DEBF0FBECDBFDF91CF911F91C3
S11342300F91FF90EF90DF90CF90BF90AF909F9041
S11342408F907F906F905F904F903F902F90089544
S1134250AF92BF92CF92DF92EF92FF920F931F9390
S1134260CF93DF9300D000D0CDB7DEB75C016A01F5
S11342707B0182E090E0A0E0B0E0F50180839183CF
S1134280A283B3839E012F5F3F4FB701A601C501EF
S11342900E94601E882311F100E010E09801B7012C
S11342A0A601C5010E94491F8823C1F0C980DA8094
S11342B0EB80FC80F5018789803129F488EF9FEF3A
S11342C0A0E0B0E004C088EF9FEFAFEFBFE0C816F6
S11342D0D906EA06FB06B0F281E001C080E00F9047
S11342E00F900F900F90DF91CF911F910F91FF903E
S11342F0EF90DF90CF90BF90AF9008954F925F9270
S11343006F927F928F929F92AF92BF92CF92DF92E1
S1134310EF92FF920F931F93CF93DF938C01C42FDF
S11343207093500460934F04442309F444C045300F
S113433008F029C140E060E070E0CB010E94FC1D60
S1134340882309F42BC14C2F50E041505109FA0144
S1134350E295F295F07FFE27E07FFE27E15FF94FBB
S113436080818F7709F011C1FA01E295F295F07F0F
S1134370FE27E07FFE27E55EF94FC080D180E28012
S1134380F38024E6C216D104E104F10408F406C162
S113439042955295507F5427407F5427FA01E95E95
S11343A0F94FC080D180E280F380C114D104E104CC
S11343B0F10421F4F3C0C12CD12C760140E0C701F3
S11343C0B6010E94FC1D882309F4E8C080915C04B6
S11343D090915D048115924009F0D9C080916104E7
S11343E0882309F4DBC020915F0430916004232BFF
S11343F009F4CFC060915E04662309F4CCC0E801DF
S11344008A8B6C831D86F8018585E82F21E030E0D6
S1134410082E02C0220F331F0A94E2F7462F50E001
S11344204217530741F091E0980FD8011D969C93D1
S1134430883048F3B2C02091670430916804211594
S1134440310519F040E050E008C020917504309126
S113445076044091770450917804E8012D833E83DB
S11344604F8358870F2EF1E5AF2EF4E0BF2EF02DC9
S1134470D5011E968D919C911F9726013701480EF8
S1134480591E611C711C4B8A5C8A6D8A7E8A519606
S11344908D909C905297998E888E50968C91A82FCF
S11344A0B0E00E94522EDC01CB01840D951DA61DA7
S11344B0B71D8A8F9B8FAC8FBD8FE401CC0FDD1F9E
S11344C0C295D295D07FDC27C07FDC27C150DE4F58
S11344D0CD2FDD27C6958C0F9D1FA11DB11DE801B1
S11344E08E879F87A88BB98BE5014B885C88411424
S11344F0510419F0612C712C08C040907104509043
S113450072046090730470907404C81AD90AEA0A99
S1134510FB0AC40CD51CE61CF71C04C0F694E794F3
S1134520D794C794EA95D2F7F801C186D286E38678
S1134530F486F5EFCF16FFE0DF06E104F10430F472
S11345408CE0D80157968C9381E028C0B5EFCB1648
S1134550BFEFDB06E104F10428F480E1E8018F8B6E
S113456081E01CC080917D0490917E04A0917F0421
S1134570B0918004F801828F938FA48FB58F80E26D
S1134580878B81E00BC080E009C080E007C080E039
S113459005C080E003C0862F01C080E0DF91CF9189
S11345A01F910F91FF90EF90DF90CF90BF90AF904D
S11345B09F908F907F906F905F904F900895FC0133
S11345C01382128287EC91E091838083648308953F
S11345D0CF93C62FFC01648186EA93E00E946A0CA3
S11345E06C2F6860E091A603F091A7030190F0811D
S11345F0E02D86EA93E0099586EA93E00E94870C11
S1134600CF9108950F931F93CF938C01C62F6460AD
S11346100E94E82281E090E00E94D3056C2F6B7F1A
S1134620C8010E94E82282E390E00E94D305CF9162
S11346301F910F9108951F93CF93DF93EC01162FD1
S11346400E94E822612FCE010E940223DF91CF91C4
S11346501F910895FF920F931F93CF93DF938C01C3
S1134660F42E862F807F90E1699FE0011124682F4A
S1134670642BC8010E941B236C2F6F29C8010E9460
S11346801B23DF91CF911F910F91FF90089540E07C
S113469061E00E942A2380ED97E00E94D3050895EB
S11346A040E062E00E942A2380ED97E00E94D30557
S11346B00895CF93DF93CDB7DEB728970FB6F8945C
S11346C0DEBF0FBECDBF9C0198E0E3E1F1E0DE0167
S11346D0119601900D929A95E1F7433008F041E06C
S11346E0E42FF0E0EE0FFF1F81E090E08C0F9D1FA0
S11346F0E80FF91F9081690F606840E0C9010E94CA
S11347002A2328960FB6F894DEBF0FBECDBFDF91E3
S1134710CF910895FC016681262F246026836C6066
S113472040E00E942A23089541E00E942A2381E068
S113473090E00895CF93DF93EC0186EA93E00E9422
S1134740570C88E08D8362E370E080E090E00E9483
S1134750960568E0CE010E94E82268EE73E080E0EE
S113476090E00E94960560E3CE010E941B2384E939
S113477091E10E94D30560E3CE010E941B2384E9EA
S113478091E10E94D30560E3CE010E941B2386E9D8
S113479090E00E94D30560E2CE010E941B236D814C
S11347A0606240E0CE010E942A2384E08E83CE0121
S11347B00E948A23CE010E94472382E08F8340E037
S11347C066E0CE010E942A23CE010E945023DF918D
S11347D0CF9108950F931F93CF93DF93EC018B0137
S11347E0019771F46F3F7F4F59F468EE71E089E5EA
S11347F096E00E947A0760E281E596E00E94DF225B
S1134800CD2B39F40F3F1F4F21F489E596E00E9428
S11348100507DF91CF911F910F91089589B180957C
S113482061F1883099F038F48230D1F0843061F04D
S11348308130A1F407C0803469F0803869F0803297
S113484069F406C083E70DC080E70BC08EE309C09E
S113485084E607C08DE605C08FE603C080E001C092
S11348608CE32FEF35EA9EE0215030409040E1F791
S113487000C000009FEF9BB9089580E00895CF9396
S1134880DF93EC0140E060E081E596E00E9459236B
S1134890BE0181E596E00E948703DF91CF910895E0
S11348A00F931F93CF93DF9300D000D000D0CDB7E8
S11348B0DEB78C0181E596E00E944723B801CE0162
S11348C001960E94A607CE0101960E943F24CE01C4
S11348D001960E94050726960FB6F894DEBF0FBE18
S11348E0CDBFDF91CF911F910F910895CF93DF93A7
S11348F0EC0141E060E081E596E00E945923BE01AD
S113490081E596E00E948703DF91CF910895CF93CC
S113491083E00E94DE05BC01990F880B990B0E946D
S11349201D2D20ED3FE34FE75EE30E94A92D0E9479
S1134930EC2CC62F81E00E94DE05BC01990F880B88
S1134940990B0E941D2D20ED3FE34FE75EE30E948B
S1134950A92D0E94EC2CCA3520F481E0809310012B
S113496009C0C43B20F482E08093100103C083E0BB
S1134970809310016A3528F4109271061092700623
S11349800DC0643B30F481E0809371061092700690
S113499005C01092710681E080937006CF9108954E
S11349A0EF92FF920F931F93CF93DF93CDB7DEB7B0
S11349B068970FB6F894DEBF0FBECDBF10926006A5
S11349C061E4CE010D960E94C707BE01635F7F4F6D
S11349D0CE0143960E94A60764E272E0CE0143969C
S11349E00E942208BC0189E596E00E948F07CE014F
S11349F043960E940507CE010D960E94050700E02C
S1134A000F2EF1E4FF2EF02D0F3009F445C08BE595
S1134A10F81609F441C06091590670915A068CEF5A
S1134A2093E00E9469118823B1F0EE24E394E00E30
S1134A3010E060E070E089E596E00E944208FC0125
S1134A408081F801EF59F94F8083809160068F5F70
S1134A50809360060E2DF3946F2DCE0101960E9473
S1134A60C707BE016F5F7F4FCE0107960E94A6075E
S1134A7064E272E0CE0107960E942208BC0189E537
S1134A8096E00E948F07CE0107960E940507CE018B
S1134A9001960E940507B8CF0F3040F4E02FF0E0F4
S1134AA0EF59F94F8FE580830F5FF6CF68960FB605
S1134AB0F894DEBF0FBECDBFDF91CF911F910F9150
S1134AC0FF90EF900895CF93DF93CDB7DEB7629751
S1134AD00FB6F894DEBF0FBECDBFE0915F06EF5F67
S1134AE0E0935F06F0E0EF59F94F80818F3511F4C0
S1134AF010925F06E0915F06F0E0EF59F94F608194
S1134B00CE0107960E94C707BE01695F7F4FCE01A1
S1134B100D960E94A60764E272E0CE010D960E94F3
S1134B202208BC0189E596E00E948F07CE010D960C
S1134B300E940507CE0107960E94050769E576E005
S1134B40CE0101960E94A607CE0101960E9476240A
S1134B50CE0101960E94050762960FB6F894DEBF57
S1134B600FBECDBFDF91CF910895CF93DF93CDB723
S1134B70DEB762970FB6F894DEBF0FBECDBF80914B
S1134B805F06811106C080916006815080935F06A4
S1134B9003C0815080935F06E0915F06F0E0EF5917
S1134BA0F94F6081CE0107960E94C707BE01695F75
S1134BB07F4FCE010D960E94A60764E272E0CE01FB
S1134BC00D960E942208BC0189E596E00E948F0799
S1134BD0CE010D960E940507CE0107960E94050797
S1134BE069E576E0CE0101960E94A607CE01019602
S1134BF00E947624CE0101960E94050762960FB6A4
S1134C00F894DEBF0FBECDBFDF91CF9108951F93FF
S1134C10CF93DF93CDB7DEB768970FB6F894DEBFB6
S1134C200FBECDBF61E4CE010D960E94C707BE0141
S1134C30635F7F4FCE0143960E94A60769E172E04D
S1134C40CE0143960E942208BC0189E596E00E94A9
S1134C508F07CE0143960E940507CE010D960E9450
S1134C60050711E46091590670915A068CEF93E0A0
S1134C700E946911882309F11F5F612FCE010196FB
S1134C800E94C707BE016F5F7F4FCE0107960E9447
S1134C90A60769E172E0CE0107960E942208BC01D2
S1134CA089E596E00E948F07CE0107960E940507CA
S1134CB0CE0101960E940507D5CF68960FB6F894E9
S1134CC0DEBF0FBECDBFDF91CF911F9108950F932B
S1134CD01F93CF93DF93CDB7DEB72A970FB6F8941F
S1134CE0DEBF0FBECDBF8C0140E150E06FEC71E040
S1134CF00E94BA0C8AE0EBE1F1E0DE01119601902A
S1134D000D928A95E1F74AE050E0BE016F5F7F4F54
S1134D10C8010E94BA0C19821A8280ED8B8380E349
S1134D208C831D821E8281E08F83188688E08987A8
S1134D301A864AE050E0BE016F5F7F4FC8010E94AF
S1134D40BA0C48E050E060EE71E0C8010E94BA0C71
S1134D502A960FB6F894DEBF0FBECDBFDF91CF9178
S1134D601F910F9108958F929F92AF92BF92CF920D
S1134D70DF92EF92FF920F931F93CF93DF9300D0B4
S1134D8000D0CDB7DEB78C010E94AD0D6B017C0164
S1134D904B015C0188E0881A9108A108B10844E03D
S1134DA050E060E070E0C8010E948E0D89829A8212
S1134DB0AB82BC8244E050E0BE016F5F7F4FC8010C
S1134DC00E94BA0C48E250E060E070E0C8010E9422
S1134DD08E0DD701C6018C97A109B10989839A83E5
S1134DE0AB83BC8344E050E0BE016F5F7F4FC801DA
S1134DF00E94BA0C0F900F900F900F90DF91CF91FB
S1134E001F910F91FF90EF90DF90CF90BF90AF90E4
S1134E109F908F9008959C012550310922303105CF
S1134E2030F08930910519F08A30910559F56034D4
S1134E30710591F03CF46130710561F068307105E1
S1134E4089F00895611581E0780741F06115744097
S1134E5039F0089581E007C083E005C084E003C011
S1134E6085E001C082E02230310528F495B5886FD1
S1134E70892385BD0895E1E8F0E09081886F892356
S1134E80808308958330910511F00B9769F56034A0
S1134E907105D9F054F468307105F9F06032710588
S1134EA091F06130710501F50CC0611581E078075E
S1134EB081F0611584E0780771F060387105A1F420
S1134EC006C081E00BC083E009C084E007C085E030
S1134ED005C086E003C087E001C082E0E1EBF0E0BA
S1134EE09081886F892380830895EF92FF920F93B6
S1134EF01F93CF93DF93CDB7DEB7C95CD1090FB64B
S1134F00F894DEBF0FBECDBF69EE71E0CE018D5BBC
S1134F109F4F0E947A0769E576E0CE018D5B9F4F33
S1134F200E940F08FC01608171818CEF93E00E9464
S1134F306911182FCE018D5B9F4F0E940507111137
S1134F4006C169EE71E0CE01CD960E947A0769E54B
S1134F5076E0CE01CD960E940F08FC01408151817C
S1134F6027E16CEF73E0CE018A569F4F0E945210E6
S1134F70CE01CD960E940507C856DF4F88819981DE
S1134F80C859D0409DA38CA3C656DF4F8881998110
S1134F90AA81BB81CA59D0408EA39FA3A8A7B9A751
S1134FA0C256DF4F88819981AA81BB81CE59D040F6
S1134FB08AA79BA7ACA7BDA787EA91E09BA38AA376
S1134FC08DE0E6E9F0E0EC0FFD1F3C96DE019E96D5
S1134FD001900D928A95E1F7C155DF4F888199813F
S1134FE0CF5AD0409CAF8BAFCE0182960E946726E9
S1134FF04091590650915A0621E06CEF73E0CE01BE
S113500085589F4F0E9452104CE250E060E070E0DF
S1135010CE0185589F4F0E948E0D82E3E5E2F1E0B8
S1135020DE01A75BBF4F01900D928A95E1F7E12C59
S113503001C0E02ECE0185589F4F0E94BD0D892BE3
S113504009F43FC001E00E0DF12CCE0185589F4FAD
S11350500E94E20CBC016F57710921E0210FE12F7E
S1135060F0E0EE0FFF1F89E490E08C0F9D1FE80F26
S1135070F91F40815181649FC001659F900D749F09
S1135080900D11246AE070E00E94162EE1EBF0E02E
S1135090EC0FFD1FEE0DFF1D61586083293111F0E7
S11350A0122F01C010E0093121F649E150E0BE01A0
S11350B06F547F4FCE018A569F4F0E94BA0C00E076
S11350C0B8CFC856DF4F88819981C859D0409A8794
S11350D08987C656DF4F88819981AA81BB81CA59C5
S11350E0D0408B879C87AD87BE87C256DF4F8881AF
S11350F09981AA81BB81CE59D0408F87988BA98B87
S1135100BA8B87EA91E098878F838DE0E6E9F0E037
S1135110EC0FFD1F3C96DE01539601900D928A958B
S1135120E1F7C155DF4F88819981CF5AD04099A3C7
S113513088A3CE0107960E94B326CE018A569F4FBC
S11351400E94EC0DCE0185589F4F0E94EC0D69EE34
S113515071E0CE0101960E947A0769E576E0CE01FE
S113516001960E940F08BC0189E596E00E948F0712
S1135170CE0101960E940507C753DF4F0FB6F8947E
S1135180DEBF0FBECDBFDF91CF911F910F91FF9076
S1135190EF9008951F93CF93DF93CDB7DEB7C55437
S11351A0D1090FB6F894DEBF0FBECDBF0E9487248D
S11351B080917106882381F06FEE71E0CE018596AF
S11351C00E947A07CE0185960E947624CE018596A8
S11351D00E9405070E9475274091590650915A066E
S11351E021E06CEF73E0CE018B960E945210CE0149
S11351F08B960E94FF0D811118C06AEF71E0CE01F9
S11352004F960E947A07CE014F960E947624CE01D3
S11352104F960E9405072FEF83ED90E321508040C5
S11352209040E1F700C00000BAC04CE250E060E0FA
S113523070E0CE018B960E948E0D60E072E0CE018C
S113524049960E947A07CE0149960E945024CE01C5
S113525049960E94050769E576E0CE0143960E94CF
S1135260A607CE0143960E947624CE0143960E945F
S11352700507809110018230C8F4CE018B960E94FC
S1135280BD0D892BE1F1CE018B960E94E20CBC018D
S113529089E00E94FD0525ED2A95F1F700000E94A2
S11352A00E24803751F72BC011E001C011E0CE016C
S11352B08B960E94BD0D892B11F10E940E2480371C
S11352C0F1F0113069F4CE018B960E94E20CBC011E
S11352D089E00E94FD0585ED8A95F1F7000004C080
S11352E0CE018B960E94E20C1F5F212F30E080914B
S11352F0100190E0019628173907C9F6D5CF60E070
S113530070E089E00E94FD0568E072E0CE010D9630
S11353100E947A07CE010D960E947624CE010D9646
S11353200E940507CE018B960E94EC0D80917106B8
S1135330811104C080917006882341F1E0915F06D9
S1135340F0E0EF59F94F6081CE0101960E94C70742
S1135350BE016F5F7F4FCE0107960E94A60764E2ED
S113536072E0CE0107960E942208BC0189E596E00E
S11353700E948F07CE0107960E940507CE01019671
S11353800E94050710927106109270069FEF23ED9C
S113539080E3915020408040E1F700C00000CB5BE7
S11353A0DF4F0FB6F894DEBF0FBECDBFDF91CF91B4
S11353B01F910895ACE7B0E090E69C93EAE7F0E033
S11353C094E890839C91892B8C9380818064808362
S11353D080917A0086FDFCCF8091790090E0089559
S11353E01F93CF93DF93CDB7DEB7C356D1090FB662
S11353F0F894DEBF0FBECDBF0E9407264091590628
S113540050915A0627E16CEF73E0CE01875B9F4F02
S11354100E945210CE01875B9F4F0E94FF0D8111A5
S11354201BC06AEF71E0CE018D5B9F4F0E947A072B
S1135430CE018D5B9F4F0E945024CE018D5B9F4F08
S11354400E9405072FEF83ED90E3215080409040A8
S1135450E1F700C00000A1C06EE272E0CE01CD967B
S11354600E947A07CE01CD960E945024CE01CD969B
S11354700E9405072D968EAD9FAD2D979DA38CA3FD
S113548061968CAD9DADAEADBFAD61978EA39FA36C
S1135490A8A7B9A765968CAD9DADAEADBFAD659718
S11354A08AA79BA7ACA7BDA787EA91E09BA38AA381
S11354B08DE0E9E4F0E0EC0FFD1F3C96DE019E96E2
S11354C001900D928A95E1F7A4968EAD9FADA497B5
S11354D09CAF8BAFCE0182960E94672680E090E05D
S11354E00E94DA29182F0E940E24833759F0612F65
S11354F0CE01875B9F4F0E94920C25E52A95F1F718
S11355000000ECCF2D968EAD9FAD2D979A8789879D
S113551061968CAD9DADAEADBFAD61978B879C8719
S1135520AD87BE8765968CAD9DADAEADBFAD6597BD
S11355308F87988BA98BBA8B87EA91E098878F83A2
S11355408DE0E9E4F0E0EC0FFD1F3C96DE0153969C
S113555001900D928A95E1F7A4968EAD9FADA49724
S113556099A388A3CE0107960E94B32668E372E04C
S1135570CE0101960E947A07CE0101960E94502422
S1135580CE0101960E9405078FEF93ED20E3815031
S113559090402040E1F700C00000CE01875B9F4FA0
S11355A00E94EC0DCD59DF4F0FB6F894DEBF0FBE4D
S11355B0CDBFDF91CF911F910895CF93DF93CDB7E6
S11355C0DEB7C656D1090FB6F894DEBF0FBECDBF05
S11355D0EAE7F0E080818B7F808380818260808332
S11355E08081816080831AB88FEF8BB987B1847F03
S11355F087B984B1826084B961E070E089E090E0A9
S11356000E940B2781E596E00E949A236AE08CEFC2
S113561093E00E942C0F811112C06AEF71E0CE0159
S11356208F599F4F0E947A07CE018F599F4F0E9436
S11356305024CE018F599F4F0E940507FFCF0E942F
S1135640D0242FEF83ED90E3215080409040E1F788
S113565000C000000E940E248111809312018091E9
S11356601201833759F4809111018A3639F40E946A
S1135670F0290E94D02489E68093120180911201BE
S1135680803709F081C0809111018A3609F07CC00D
S11356908BE68093110189E6809312018091600664
S11356A081111EC08AE6809311016EE372E0CE017F
S11356B0855A9F4F0E947A07CE01855A9F4F0E94B8
S11356C05024CE01855A9F4F0E9405072FEF83ED8A
S11356D090E3215080409040E1F700C0000054C0A6
S11356E068E472E0CE018B5A9F4F0E947A07CE0184
S11356F08B5A9F4F0E945024CE018B5A9F4F0E9479
S113570005072FEF83ED90E3215080409040E1F7AF
S113571000C00000E0915F06F0E0EF59F94F6081AE
S1135720CE01875B9F4F0E94C707BE01675B7F4F17
S1135730CE01815B9F4F0E94A60764E272E0CE0116
S1135740815B9F4F0E942208BC0189E596E00E947C
S11357508F07CE01815B9F4F0E940507CE01875BB7
S11357609F4F0E94050769E576E0CE018D5B9F4F50
S11357700E94A607CE018D5B9F4F0E947624CE0126
S11357808D5B9F4F0E940507809111018B3609F0B4
S1135790F6C080911201803741F50E94CA2868E45E
S11357A072E0CE01CD960E947A07CE01CD960E947A
S11357B05024CE01CD960E9405072FEF83EC99E08B
S11357C0215080409040E1F700C0000069E576E098
S11357D0CE01C7960E94A607CE01C7960E947624E2
S11357E0CE01C7960E940507C7C08E3319F40E94E4
S11357F06325C2C08C3319F40E94B525BDC083371C
S113580021F48AE680931101B7C0843609F0B4C04C
S113581066E572E0CE01C1960E947A07CE01C19678
S11358200E945024CE01C1960E9405070E940E24B6
S1135830843611F56091590670915A068CEF93E005
S11358400E94751162E672E0CE018B960E947A077F
S1135850CE018B960E945024CE018B960E940507A0
S11358600E94D0242FEF83ED90E32150804090409C
S1135870E1F700C0000019C08037C1F66EE572E0A0
S1135880CE0185960E947A07CE0185960E94502407
S1135890CE0185960E9405072FEF83ED90E32150FA
S11358A080409040E1F700C00000809160068111C3
S11358B01AC06EE372E0CE014F960E947A07CE01C1
S11358C04F960E945024CE014F960E9405072FEF59
S11358D083ED90E3215080409040E1F700C0000048
S11358E08AE68093110180915F0690916006891386
S11358F003C0815080935F0668E472E0CE0149964C
S11359000E947A07CE0149960E945024CE014996FE
S11359100E940507E0915F06F0E0EF59F94F6081BE
S1135920CE010D960E94C707BE01635F7F4FCE0173
S113593043960E94A60764E272E0CE0143960E9459
S11359402208BC0189E596E00E948F07CE014396A8
S11359500E940507CE010D960E94050769E576E0D1
S1135960CE0107960E94A607CE0107960E947624D0
S1135970CE0107960E94050789E680931201809163
S11359801201893609F066CE809111018A3609F038
S113599061CE6AE672E0CE0101960E947A07CE01DA
S11359A001960E945024CE0101960E9405070E9490
S11359B00E248823E1F3809312014CCE6FEF7FEF26
S11359C081E090E00E94EA2308956FEF7FEF80E08A
S11359D090E00E94EA2308950E94882D88F09F5742
S11359E098F0B92F9927B751B0F0E1F0660F771FFF
S11359F0881F991F1AF0BA95C9F714C0B13091F0F5
S1135A000E94A22DB1E008950C94A22D672F782F47
S1135A108827B85F39F0B93FCCF3869577956795B9
S1135A20B395D9F73EF490958095709561957F4F25
S1135A308F4F9F4F0895E89409C097FB3EF49095CB
S1135A408095709561957F4F8F4F9F4F9923A9F053
S1135A50F92F96E9BB279395F695879577956795E2
S1135A60B795F111F8CFFAF4BB0F11F460FF1BC026
S1135A706F5F7F4F8F4F9F4F16C0882311F096E9B9
S1135A8011C0772321F09EE8872F762F05C0662367
S1135A9071F096E8862F70E060E02AF09A95660F20
S1135AA0771F881FDAF7880F9695879597F90895D9
S1135AB097F99F6780E870E060E008959FEF80ECBD
S1135AC0089500240A941616170618060906089560
S1135AD000240A9412161306140605060895092EC6
S1135AE00394000C11F4882352F0BB0F40F4BF2B35
S1135AF011F460FF04C06F5F7F4F8F4F9F4F089575
S1135B0057FD9058440F551F59F05F3F71F047956A
S1135B10880F97FB991F61F09F3F79F0879508954F
S1135B20121613061406551FF2CF4695F1DF08C06E
S1135B30161617061806991FF1CF8695710561058B
S1135B4008940895E894BB2766277727CB0197F933
S1135B5008950E94BC2D0C946F2D0E94612D38F085
S1135B600E94682D20F0952311F00C94582D0C946C
S1135B705E2D11240C94A32D0E94802D70F3959F0B
S1135B80C1F3950F50E0551F629FF001729FBB2730
S1135B90F00DB11D639FAA27F00DB11DAA1F649FCC
S1135BA06627B00DA11D661F829F2227B00DA11D7F
S1135BB0621F739FB00DA11D621F839FA00D611D05
S1135BC0221F749F3327A00D611D231F849F600D26
S1135BD0211D822F762F6A2F11249F5750409AF04F
S1135BE0F1F088234AF0EE0FFF1FBB1F661F771FDB
S1135BF0881F91505040A9F79E3F510580F00C94A6
S1135C00582D0C94A32D5F3FE4F3983ED4F386956E
S1135C1077956795B795F795E7959F5FC1F7FE2B45
S1135C20880F911D9695879597F9089597FB072EF0
S1135C3016F4009407D077FD09D00E945D2E07FC6E
S1135C4005D03EF4909581959F4F08957095619588
S1135C507F4F0895A1E21A2EAA1BBB1BFD010DC0A4
S1135C60AA1FBB1FEE1FFF1FA217B307E407F50708
S1135C7020F0A21BB30BE40BF50B661F771F881FE4
S1135C80991F1A9469F760957095809590959B017A
S1135C90AC01BD01CF010895EE0FFF1F0590F491F3
S1135CA0E02D09940E94712EA59F900DB49F900D34
S1135CB0A49F800D911D11240895AA1BBB1B51E1C3
S1135CC007C0AA1FBB1FA617B70710F0A61BB70B68
S1135CD0881F991F5A95A9F780959095BC01CD010D
S1135CE00895A29FB001B39FC001A39F700D811DB1
