S0160000566F6963655F5265636F726465722E7372656383
S11300000C9431010C9459010C9459010C9459012C
S11300100C9459010C9459010C9459010C945901F4
S11300200C9459010C9459010C9459010C945901E4
S11300300C9459010C9459010C9459010C945901D4
S11300400C9405250C9459010C9459010C945901F4
S11300500C9459010C9459010C9459010C945901B4
S11300600C944D040C94590159055D055D055D051D
S11300705D055D055D055D056D045D055D055D055D
S11300805D055D055D055D056D045D055D055D054D
S11300905D055D055D055D0575045D055D055D0535
S11300A05D055D055D055D059B045D055D055D05FF
S11300B05D055D055D055D0575045D055D055D0515
S11300C05D055D055D055D05A1045D055D055D05D9
S11300D05D055D055D055D05A7045D055D055D05C3
S11300E05D055D055D055D05B9045D055D055D05A1
S11300F05D055D055D055D05E3045D055D055D0567
S11301005D055D055D055D05AD045D055D055D058C
S11301105D055D055D055D05C7045D055D055D0562
S11301205D055D055D055D05E6045D055D055D0533
S11301305D055D055D055D05E6045D055D055D0523
S11301405D055D055D055D05E6045D055D055D0513
S11301505D055D055D055D05E6045D055D055D0503
S11301605D055D055D055D05EF045D055D055D05EA
S11301705D055D055D055D0520055D055D055D05A8
S11301805D055D055D055D05EF045D055D055D05CA
S11301905D055D055D055D0520055D055D055D0588
S11301A05D055D055D055D0507055D055D055D0591
S11301B05D055D055D055D0524055D055D055D0564
S11301C05D055D055D055D0524055D055D055D0554
S11301D05D055D055D055D0539055D055D055D052F
S11301E05D055D055D055D0553055D055D055D0505
S11301F05D055D055D055D05530500000008000211
S113020001000003040700000000000000000102D8
S11302100408102040800102040810200102040890
S1130220102004040404040404040202020202026E
S113023003030303030300000000250028002B0030
S113024000000000240027002A007C3C3E5E2B3D79
S11302503F2F5B5D3B2C2A225C007D067E0B030F47
S1130260FE2411241FBECFEFD8E0DEBFCDBF12E0C5
S1130270A0E0B1E0E4E6F2E502C005900D92AC33F3
S1130280B107D9F725E0ACE3B2E001C01D92A13972
S1130290B207E1F711E0C1E3D1E004C02197FE0108
S11302A00E94AF27CD32D107C9F70E94E2230C94F4
S11302B030290C9400000E94042980E090E0089505
S11302C00895CF92DF92EF92FF920F931F93CF93F3
S11302D0DF938C01DB01C0E0D0E07A0181E0E81A11
S11302E0F108452BA1F0F80180819181FC01208166
S11302F031816D01FFEFCF1ADF0A6C91C801F9015A
S11303000995892B21F02196A701D601E6CFCE01CC
S1130310DF91CF911F910F91FF90EF90DF90CF90DD
S113032008956115710581F0FB0101900020E9F742
S11303303197AF01461B570BDC01ED91FC91028014
S1130340F381E02D0995089580E090E008958330CD
S113035069F028F48130B1F08230C1F0089587301B
S1130360C9F08830E9F0843001F506C0E0E8F0E037
S113037080818F7780830895E0E8F0E080818F7D2D
S11303808083089584B58F7784BD089584B58F7D67
S113039084BD0895E0EBF0E080818F778083089539
S11303A0E0EBF0E080818F7D80830895CF93DF932D
S11303B090E0FC01E25FFD4F2491FC01EE5DFD4FF6
S11303C08491882379F190E0880F991FFC01E05C07
S11303D0FD4FA591B491FC01EA5CFD4FC591D49108
S11303E061110CC09FB7F8948C91E22FE0958E2395
S11303F08C932881E223E8839FBF14C0623061F4A8
S11304009FB7F8948C91322F309583238C93E88195
S1130410E22BE8839FBF06C08FB7F894EC91E22BE0
S1130420EC938FBFDF91CF9108951F93CF93DF9308
S1130430282F30E0F901E650FE4F8491F901E25F84
S1130440FD4F1491F901EE5DFD4FC491CC23D1F021
S1130450D62F81110E94A701EC2FF0E0EE0FFF1FB1
S1130460EA5CFD4FA591B4918FB7F894D11106C001
S11304709C91E12FE095E923EC9303C0EC91E12BEF
S1130480EC938FBFDF91CF911F910895CF93CFB796
S1130490F89480913F02811127C0ECE2F2E084914C
S11304A0E8E1F2E09491E82FF0E0EE0FFF1FE05C4A
S11304B0FD4FA591B491EC91E92321F461E08AE028
S11304C00E94150261E08AE00E94D6018CB5806129
S11304D08CBD8CB580648CBD61E08DE00E94D6013A
S11304E061E08BE00E94D60180913F028F5F809390
S11304F03F02CFBFCF9108951092B30281E0809361
S1130500B1021092B00261E082E10E94150261E042
S113051083E10E941502E9EBF0E080818E7F808305
S113052080818D7F808388E48093B80085E4809304
S1130530BC000895ECEBF0E080818A7B808360E06E
S113054082E10E94150260E083E10E941502089591
S1130550AC0190916202262F30E0290F311D213227
S11305603105F4F48091B3028430E1F490E00FC0DB
S113057080916202292F30E0F901E80FF11DDA01C0
S1130580A20FB31F8C91EC59FD4F80839F5F961788
S113059078F380916202680F6093620280E00895AC
S11305A081E0089582E008959093A7028093A602C3
S11305B008959093A9028093A8020895882321F0B6
S11305C085EC8093BC00089585E88093BC00089571
S11305D085EC8093BC001092B3020895EF92FF92D1
S11305E00F931F93CF93DF9391E09093AB028823F3
S11305F071F0C8EBD0E0F8800AEB10E0F801E0807D
S11306000E949A020E947C02F801E082F882DF9143
S1130610CF911F910F91FF90EF9008954F925F92A9
S11306206F927F928F929F92AF92BF92DF92EF92DE
S1130630FF920F931F93CF93DF93413208F0D9C0F9
S1130640122FD42F7B01D82E0E946C254B015C0104
S113065027C08091AC029091AD02A091AE02B091FE
S1130660AF02892B8A2B8B2BD9F00E946C25DC01DD
S1130670CB0188199909AA09BB094090AC02509092
S1130680AD026090AE027090AF02481659066A0639
S11306907B0630F48091AA020E94EE02C5E0AEC04F
S11306A0C091B302C111D5CF82E08093B30200930D
S11306B0B1028FEF8093400210928502D09384029E
S11306C090E00AC0E92FF0E0D701AE0FBF1F3C91C4
S11306D0EA57FD4F30839F5F9D17A0F31092B2023B
S11306E08D2D90E0880F991FD090B2028D298093B0
S11306F0B2028091B0028130C9F51092B0020E941A
S11307006C254B015C018091B2028093BB00809107
S1130710AC029091AD02A091AE02B091AF02892BD0
S11307208A2B8B2BD9F00E946C25DC01CB01881914
S11307309909AA09BB094090AC025090AD0260909F
S1130740AE027090AF02481659066A067B0630F472
S11307508091AA020E94EE02C5E050C08091BC00C4
S113076083FDD1CF85EC8093BC0003C085EE8093DC
S1130770BC000E946C254B015C0127C08091AC0237
S11307809091AD02A091AE02B091AF02892B8A2B59
S11307908B2BD9F00E946C25DC01CB0188199909B7
S11307A0AA09BB094090AC025090AD026090AE0221
S11307B07090AF02481659066A067B0630F48091A1
S11307C0AA020E94EE02C5E019C0112321F0809113
S11307D0B302823099F2809140028F3F79F0809188
S11307E04002803241F080914002803331F4C3E012
S11307F005C0C1E003C0C2E001C0C4E08C2FDF919A
S1130800CF911F910F91FF90EF90DF90BF90AF9029
S11308109F908F907F906F905F904F90089585ED9B
S11308208093BC004091AC025091AD026091AE0245
S11308307091AF02495F5F4F6F4F7F4F689412F81A
S113084076956795579547951694D1F71FC0809173
S1130850AC029091AD02A091AE02B091AF02892B8F
S11308608A2B8B2B99F0411551056105710549F0CF
S113087085E38A95F1F70000415051096109710936
S113088005C08091AA020E94EE0208958091BC00E6
S113089084FDDDCF1092B30208951F920F920FB61C
S11308A00F9211242F933F934F935F936F937F93F2
S11308B08F939F93AF93BF93EF93FF938091B9006E
S11308C0E82FE87F8E2F90E0893C910508F0F5C071
S11308D0FC01EC5CFF4F0C94AF278091B202809333
S11308E0BB0081E00E94DE02E8C090918502809105
S11308F08402981780F4E091850281E08E0F809342
S11309008502F0E0EA57FD4F80818093BB0081E0CF
S11309100E94DE02D2C08091B102882319F00E94A5
S11309200F04CBC081E08093B00284EA8093BC00C2
S11309301092B302C2C080E2809340020E940F046E
S1130940BCC080E3809340020E940F04B6C088E3D9
S1130950809340020E94E802B0C0E091850281E0E9
S11309608E0F80938502F0E08091BB00EA57FD4F23
S113097080839091850280918402981720F481E00D
S11309800E94DE029AC080E00E94DE0296C0E091DE
S1130990850281E08E0F80938502F0E08091BB0098
S11309A0EA57FD4F80838091B102882319F00E9499
S11309B00F0483C081E08093B00284EA8093BC007A
S11309C01092B3027AC00E940F0477C083E0809330
S11309D0B3021092410281E00E94DE026EC0809157
S11309E04102803280F4E091410281E08E0F8093D5
S11309F04102F0E08091BB00EE5BFD4F808381E01B
S1130A000E94DE025AC080E00E94DE0256C00E94AC
S1130A10E80280914102803230F4E0914102F0E03A
S1130A20EE5BFD4F10826091410270E0E091A602FE
S1130A30F091A70282E492E00995109241023DC030
S1130A4080E00E94DE0239C084E08093B3021092F9
S1130A50630210926202E091A802F091A902099542
S1130A6080916202811105C081E08093620210923C
S1130A706402E091630281E08E0F80936302F0E0F0
S1130A80EC59FD4F80818093BB009091630280916B
S1130A906202981720F481E00E94DE020EC080E01A
S1130AA00E94DE020AC081E00E94DE021092B302BC
S1130AB004C0109240020E940F04FF91EF91BF9175
S1130AC0AF919F918F917F916F915F914F913F91E2
S1130AD02F910F900FBE0F901F9018958091E802F0
S1130AE090E02091E902821B910908959091E90216
S1130AF08091E802981750F4E92FF0E0E651FD4F99
S1130B00208130E09F5F9093E90202C02FEF3FEF16
S1130B10C9010895E091E9028091E802E81730F4F0
S1130B20F0E0E651FD4F808190E008958FEF9FEF54
S1130B3008950895CF93DF93EC01E091C002F09102
S1130B40C1023097E1F09091E9028091E802981790
S1130B50B0F090E0292F30E02617370754F4DE0177
S1130B60A90FB11D4C91D901A651BD4F4C939F5F64
S1130B70F1CFCB011092E9026093E8020995DF916D
S1130B80CF910895E091C202F091C302309729F009
S1130B901092C6021092C50209950895CF92DF9271
S1130BA0EF92FF920F931F93CF93DF938C016B010E
S1130BB07A018091C402882399F0C0E0D0E0CE1578
S1130BC0DF0590F4D801ED91FC910190F081E02DC6
S1130BD0D601AC0FBD1F6C91C80109952196EFCFCA
S1130BE0642FC6010E94A802C701DF91CF911F9113
S1130BF00F91FF90EF90DF90CF900895CF93DF9304
S1130C001F92CDB7DEB7FC0169839091C40299238A
S1130C10D9F09091C502903238F081E090E093834E
S1130C20828380E090E017C08091C602E82FF0E054
S1130C30E953FD4F998190838F5F8093C60280931F
S1130C40C50281E090E007C061E0CE0101960E94F8
S1130C50A80281E090E00F90DF91CF910895FC010C
S1130C601382128288EE93E0A0E0B0E0848395833F
S1130C70A683B78387E791E09183808308950197E2
S1130C8039F46F3F7F4F21F484EB92E00E942F06EA
S1130C9008951092E9021092E8021092C60210928E
S1130CA0C5020E947C0282EC95E00E94D9028AE986
S1130CB095E00E94D402089581E08093C402609379
S1130CC0E7021092C6021092C50208950F93409154
S1130CD0C502062F21E067EC72E08091E7020E94D2
S1130CE00E031092C6021092C5021092C4020F9114
S1130CF0089561E00E94660608956FEF7FEF81E03A
S1130D0090E00E943F060895CF93DF931F92CDB7E2
S1130D10DEB76983DC01ED91FC910280F381E02D63
S1130D2041E050E0BE016F5F7F4F09950F90DF9166
S1130D30CF910895DC0159968D919C915A97009713
S1130D4041F0DC01ED91FC910480F581E02D0995E1
S1130D50089580E090E00895CF93DF93DC015996E5
S1130D60ED91FC915A97309749F421E030E01396C5
S1130D703C932E93129780E090E013C0EC01138211
S1130D801282898D9A8D0E94D915E98DFA8D22815E
S1130D903381232B31F081E090E09B838A8380E0D0
S1130DA090E0DF91CF910895CF93DF931F92CDB759
S1130DB0DEB7FC01818D928D009779F041E050E01F
S1130DC0BE016F5F7F4F0E946210019719F4898101
S1130DD090E005C08FEF9FEF02C08FEF9FEF0F9061
S1130DE0DF91CF910895EF92FF920F931F93CF93CA
S1130DF0DF931F92CDB7DEB7FC01818D928D0097F2
S1130E0019F18F0141E050E0BE016F5F7F4F0E94F6
S1130E106210019719F4E980F12C03C0EE24EA94DE
S1130E20FE2C8FEFE816F80689F0F801818D928D7B
S1130E30FC014285538564857585415051096109DA
S1130E4071090E94FC1102C0E12CF12CC7010F9022
S1130E50DF91CF911F910F91FF90EF900895FC01C6
S1130E60818D928D009719F061E00E949D12089582
S1130E70EF92FF920F931F93CF93DF93EC017B01CB
S1130E808A011B821A8288EE93E0A0E0B0E08C8392
S1130E909D83AE83BF8389E891E0998388838DE144
S1130EA090E00E94E3279A8F898F009779F02DE1D3
S1130EB0F701DC0101900D922A95E1F74CE050E036
S1130EC0B801CE010C960E942129188EDF91CF9192
S1130ED01F910F91FF90EF900895FC0113821282ED
S1130EE088EE93E0A0E0B0E084839583A683B78383
S1130EF089E891E091838083128E118E148608957F
S1130F00FC01818D928D009719F00E946210089562
S1130F1080E090E00895FC01818D928D009739F076
S1130F200E94FC1191E0811103C090E001C090E0A7
S1130F30892F0895DC015996ED91FC915A973097C9
S1130F4029F0628573858485958508956FEF7FEF19
S1130F50CB010895DC015996ED91FC915A97309795
S1130F6029F06389748985899689089560E070E021
S1130F70CB010895CF92DF92EF92FF92CF93DF934C
S1130F80FC01218D328D232BD9F0EC010E94AA079C
S1130F906B017C01CE010E949A07A7019601261BD2
S1130FA0370B480B590BDA01C901811530E8930757
S1130FB0A105B10538F08FEF9FE7A0E0B0E002C0D3
S1130FC080E090E0DF91CF91FF90EF90DF90CF90A1
S1130FD00895CF93DF93FC01818D928D009749F0A2
S1130FE0EF010E94F012898D9A8D0E947B281A8E3F
S1130FF0198EDF91CF910895DC015996ED91FC9102
S11310005A97309731F0958181E0911103C080E0C7
S1131010089580E008950197C9F46F3F7F4FB1F4BC
S1131020EAE0F3E0158216821186138682E090E0EE
S1131030A0E0B0E084879587A687B78713A215A69A
S113104014A68DE991E093A782A717A608951F938C
S1131050CF93DF93CDB7DEB76D970FB6F894DEBFAD
S11310600FBECDBFAB011C821B822DE931E03A8358
S113107029831E8221E0BC01CE0101960E94A114A5
S113108011E0811101C010E0882321F0CE01019606
S11310900E94F012812F6D960FB6F894DEBF0FBE3A
S11310A0CDBFDF91CF911F910895442339F00E9461
S11310B0B21591E0811103C090E001C091E0892F45
S11310C00895CF93DF93EC01DB01ED91FC91DC01FA
S11310D0AE0FBF1F8C918F3209F4319620E030E0BF
S11310E02C30310584F4DE01AE0FBF1F9C919F327A
S11310F051F0992341F0DA01A20FB31F31969C936A
S11311002F5F3F4FEDCFDA01A20FB31F1C92DE0118
S1131110AE0FBF1F8C918F3209F43196DB01ED9332
S1131120FC93EC0FFD1F908181E0911101C080E0E0
S1131130DF91CF9108955F926F927F928F929F92E9
S1131140AF92BF92CF92DF92EF92FF920F931F93D1
S1131150CF93DF93CDB7DEB7C954D1090FB6F89456
S1131160DEBF0FBECDBF4C016B013A0159011C8299
S11311701B828DE991E09A8389831E8219A218A2A9
S11311809F8F8E8F1BA22A961FAE1EAE2A978B01AD
S1131190CE0101967C01AE01455C5F4FBE01685BE8
S11311A07F4FC4010E946108582E41E048279501F1
S11311B0BE01655C7F4FC801F3010995811108C028
S11311C00C151D0551F1C8010E94F01280E02AC0DF
S11311D05520D9F021E0AE01455C5F4FB801C7014D
S11311E00E94A114582E0C151D0519F0C8010E9467
S11311F0F0125520A1F00C151D0511F0C80102C014
S1131200CE014E9687017C01C6CF0C151D0549F011
S1131210C8010E94F01281E005C080E003C080E0B4
S113122001C081E0C75BDF4F0FB6F894DEBF0FBE8D
S1131230CDBFDF91CF911F910F91FF90EF90DF9081
S1131240CF90BF90AF909F908F907F906F905F9062
S113125008950F931F93CF93DF93EC01162F8FA55F
S1131260882321F0CE018A960E94F012412F61E07A
S1131270CE010E94B20C8823E1F08E01045F1F4F5F
S113128041E0BE01C8010E947B1B811106C040E001
S1131290BE01C8010E947B1B01C081E0882359F074
S11312A0B801CE018A960E940510882331F081E0AE
S11312B005C080E003C080E001C080E0DF91CF91F1
S11312C01F910F9108954F925F926F927F928F9228
S11312D09F92AF92BF92CF92DF92EF92FF920F93C1
S11312E01F93CF93DF93CDB7DEB7C754D1090FB6A1
S11312F0F894DEBF0FBECDBF4C013A0129011C8218
S11313001B828DE991E09A8389831E8219A218A217
S11313109F8F8E8F1BA2645F7F4FCE0101960E9428
S1131320051073016E018EE1C80ED11CFE013196C9
S11313305F016FE270E0C7010E9416290097F1F186
S1131340F70120812F3221F4FFEFEF1AFF0AF1CFCA
S11313500097A1F18E198D3008F08CE0082F10E071
S1131360A801B701CE01CB960E942129EBE3F0E05E
S1131370EC0FFD1FE00FF11F1082C6010E94F01256
S113138021E0AE01455C5F4FB501C6010E94A11486
S1131390811109C0F401138212828DE991E09183D5
S11313A08083158263C0E00EF11EC5010E94F01215
S11313B09A2D8B2D5601C92ED82EBBCFE618F708CF
S11313C0F201F182E0828BE691E0F4019183808363
S11313D0F50182819381F401938382838DE991E005
S11313E091838083F5018481F4018483F5018581EF
S11313F0F4018583F50186819781A085B185F40187
S113140086839783A087B187F50182859385A48518
S1131410B585F40182879387A487B587F50186850E
S11314209785A089B189F40186879787A08BB18BB2
S1131430F5018289F401828BF50183899489A58958
S1131440B689F401838B948BA58BB68BF5018789C0
S1131450908DA18DB28DF401878B908FA18FB28F67
S1131460F501838D948DF401948F838FC401C95B3E
S1131470DF4F0FB6F894DEBF0FBECDBFDF91CF9123
S11314801F910F91FF90EF90DF90CF90BF90AF909E
S11314909F908F907F906F905F904F900895DF9210
S11314A0EF92FF920F931F93CF93DF93CDB7DEB7E5
S11314B0C657D1090FB6F894DEBF0FBECDBF7C016D
S11314C08A01D22E9E01255C3F4FCE01CD960E940B
S11314D063098BAD9CAD080F191FF8018081811140
S11314E057C021968EAD9FAD219799A388A38DE90E
S11314F091E09F8F8E8F22968FAD22978AA3239699
S11315008FAD23978BA327968CAD9DADAEADBFADAC
S113151027978CA39DA3AEA3BFA32B968CAD9DADA3
S1131520AEADBFAD2B9788A799A7AAA7BBA72F9647
S11315308CAD9DADAEADBFAD2F978CA79DA7AEA7CB
S1131540BFA760968FAD609788AB64968CAD9DAD58
S1131550AEADBFAD649789AB9AABABABBCAB689691
S11315608CAD9DADAEADBFAD68978DAB9EABAFAB53
S1131570B8AF6A968EAD9FAD6A979AAF89AF47E9C7
S113158051E0BE01625E7F4FC7010E9438078EC0E2
S11315906E961FAE1EAE6E978DE991E06C969FAF6E
S11315A08EAF6C97A0961FAEA09723968FAD23970E
S11315B0811104C0C7010E946D0778C02D2DA801B8
S11315C0BE01635C7F4FCE01865A9F4F0E94A114D7
S11315D0811104C0C7010E946D0768C0CE01CD9679
S11315E00E94F0128D2D8670863059F4E1964CAD30
S11315F05DAD6EAD7FADE197CE01865A9F4F0E94DF
S1131600FC116E968EAD9FAD6E979C838B838DE996
S113161091E09A8389836F968FAD6F978D83A0969F
S11316208FADA0978E83A4968CAD9DADAEADBFADAE
S1131630A4978F839887A987BA87A8968CAD9DAD08
S1131640AEADBFADA8978B879C87AD87BE87AC96A0
S11316508CAD9DADAEADBFADAC978F87988BA98B8C
S1131660BA8BAD968FADAD978B8BE1968CAD9DAD5E
S1131670AEADBFADE1978C8B9D8BAE8BBF8BE596EA
S11316808CAD9DADAEADBFADE597888F998FAA8F18
S1131690BB8FE7968EAD9FADE7979D8F8C8FA8018A
S11316A0BE016F5F7F4FC7010E943807C701CA5848
S11316B0DF4F0FB6F894DEBF0FBECDBFDF91CF91E1
S11316C01F910F91FF90EF90DF900895FB01BC01F3
S11316D0665D7F4F20E030E047E258E0CF010E9492
S11316E09B080895FB01BC01665D7F4F20E030E05C
S11316F045E558E0CF010E949B0808956FEF7FEF06
S113170081E090E00E940B0808958EBD00000DB4A6
S113171007FEFDCF8EB508958FEF8EBD00000DB48A
S113172007FEFDCF8EB50895019741F46F3F7F4FBB
S113173029F4E4E5F3E080E580831182089561E013
S1131740FC0184810E941502809153038823A1F037
S11317501092530380913E02882371F09FB7F8944E
S113176080913E02813029F480913C028DBB9FBF61
S1131770089580913C028FBF089520915303211155
S113178020C021E02093530330915403209155034A
S113179040913E02442399F04FB7F89450913E0291
S11317A0513059F45DB350933C026DB350913D02F6
S11317B0509556235DBB4FBF02C040933C023CBDD5
S11317C02DBD60E0FC0184810E9415020895CF9331
S11317D0DF93EC018E81882389F08F8198859C01A9
S11317E02F5F3F4F38872F838230924018F40E9436
S11317F08C0BF3CFCE010E949F0B1E82DF91CF9101
S11318000895673028F026E1FC01258380E00895DF
S11318106230D1F028F4662349F0613071F030C0B1
S1131820643001F1C0F0653021F12AC080E5809375
S1131830540381E080935503089580E58093540315
S11318401092550381E0089581E58093540381E06B
S113185080935503089581E58093540310925503B2
S113186081E0089582E58093540381E080935503D9
S1131870089582E5809354031092550381E00895FE
S113188083E5809354031092550381E008950F93E8
S11318901F93CF93DF93EB010E9460258B010E947D
S11318A08C0B8F3F49F00E946025601B710B6C17F5
S11318B07D07A8F380E001C081E0DF91CF911F9103
S11318C00F910895CF92DF92EF92FF920F931F939F
S11318D0CF93DF938C01D62F69017A010E94E70B25
S11318E0C8010E94BD0B6CE271E0C8010E94470C64
S11318F08D2F80640E94850BC8E1CC2374F0D7013E
S1131900C6010C2E04C0B695A795979587950A94A1
S1131910D2F70E94850BC850F0CFDD2311F08FEF72
S113192001C085E9D83009F487E80E94850BC0E03E
S11319300E948C0BF8018287882324F4CF3F21F482
S113194090E003C090E001C091E0992311F0CF5FD3
S1131950EFCFDF91CF911F910F91FF90EF90DF9028
S1131960CF9008958F929F92AF92BF92EF92FF9281
S11319700F931F93CF93DF93EC01E62E1B861986FA
S11319801E821D824C830E9460258B0161E08C8144
S11319900E94D60161E08C810E9415020E944602D9
S11319A082E5809354031092550380913E0288236C
S11319B099F08FB7F89490913E02913059F49DB309
S11319C090933C022DB390913D02909592239DBB40
S11319D08FBF02C080933C0282E58CBD1DBCF12CFC
S11319E089E08F1528F08FEF0E94850BF394F8CFD0
S11319F080913E02882371F09FB7F89480913E0253
S1131A00813029F480913C028DBB9FBF03C080913B
S1131A103C028FBFCE010E94BD0B20E030E0A90143
S1131A2060E0CE010E94620C8A87813051F00E94EE
S1131A306025601B710B613D774078F381E08D83F5
S1131A4069C02AEA31E040E050E068E0CE010E943B
S1131A50620C82FF03C081E08B8711C0F12C83E00C
S1131A608F1528F00E948C0B8A87F394F8CF8A850F
S1131A708A3A19F082E08D834DC082E08B878B8592
S1131A80823031F4812C912C54016894B6F803C04F
S1131A90812C912C540120E030E0A90167E3CE01B0
S1131AA00E94620CA501940169E2CE010E94620CBD
S1131AB08A87882351F00E946025601B710B613D69
S1131AC0774048F388E08D8325C08B858230D1F43C
S1131AD020E030E0A9016AE3CE010E94620C882371
S1131AE019F086E08D8316C00E948C0B807C803CAC
S1131AF011F483E08B8710E0133020F40E948C0BE8
S1131B001F5FFACFCE010E949F0B6E2DCE010E9463
S1131B10010C04C0CE010E949F0B80E0DF91CF91A5
S1131B201F910F91FF90EF90BF90AF909F908F9077
S1131B3008950F931F93CF93DF93EC010E946025C8
S1131B408B010E948C0B8A878F3F51F40E94602581
S1131B50601B710B6D327140A0F38FE08D8304C064
S1131B608E3F39F08DE08D83CE010E949F0B80E083
S1131B7001C081E0DF91CF911F910F910895AF9241
S1131B80BF92CF92DF92EF92FF920F931F93CF9366
S1131B90DF93EC0169010115110509F46FC0C80157
S1131BA0820F931F8130924008F063C08E81882396
S1131BB071F088819981AA81BB8184179507A60752
S1131BC0B70729F48F819885C816D90620F548836C
S1131BD059836A837B838B85833049F0032E39E0F4
S1131BE0440F551F661F771F3A95D1F7302D9A0180
S1131BF0AB0161E1CE010E94620C882319F083E0FD
S1131C008D8337C0CE010E94990D882391F11886E7
S1131C101F8281E08E838F8198858C159D0540F409
S1131C200E948C0B8F819885019698878F83F3CFC0
S1131C30C12CD12CC016D10658F45701AC0CBD1CD4
S1131C400E948C0BF5018083FFEFCF1ADF0AF2CFDD
S1131C508F819885080F191F18870F83898588231A
S1131C6019F00115124060F0CE010E94E70B81E0EB
S1131C7008C0CE010E949F0B80E003C081E001C038
S1131C8081E0DF91CF911F910F91FF90EF90DF9052
S1131C90CF90BF90AF900895EF92FF920F931F9350
S1131CA0790100E012E020E030E00E94BF0D1F91B6
S1131CB00F91FF90EF900895EF92FF920F931F936F
S1131CC0CF93DF937C01862F8A010E94850BC0E0AD
S1131CD0D0E0C11582E0D80740F4F801EC0FFD1FF5
S1131CE080810E94850B2196F4CF8FEF0E94850B93
S1131CF08FEF0E94850B0E948C0BF70182878F71F6
S1131D00853039F081E18583C7010E949F0B80E013
S1131D1001C081E0DF91CF911F910F91FF90EF906F
S1131D200895EF92FF920F93CF93DF93EC01790123
S1131D30411551056105710519F482E18D8345C092
S1131D408B85833049F0032E39E0440F551F661FFD
S1131D50771F3A95D1F7302D9A01AB0168E1CE0196
S1131D600E94620C882319F084E08D832EC0A701A1
S1131D706EEFCE010E945C0E882339F1002301F13D
S1131D8068E572E0CE010E94470C811103C085E131
S1131D908D831BC020E030E0A9016DE0CE010E94DC
S1131DA0620C811105C00E948C0B811103C003C019
S1131DB081E001C081E0882319F084E18D8305C0AE
S1131DC0CE010E949F0B81E004C0CE010E949F0BB4
S1131DD080E0DF91CF910F91FF90EF9008951F93D2
S1131DE0CF93DF93EC010E94BD0B0E948C0B182F44
S1131DF0CE010E949F0B81E01F3F09F480E0DF9138
S1131E00CF911F9108956FEF7FEF81E090E00E94E2
S1131E10940B0895CF93DF93EC019C012A5F3F4F0D
S1131E2041E050E060E070E08B8D9C8D0E94111ABF
S1131E308823B9F08F89988DA98DBA8D892B8A2B27
S1131E408B2B59F48E819F81A885B9858F8B988FB0
S1131E50A98FBA8F8C8180688C838C8180628C83FB
S1131E6081E0DF91CF910895CF92DF92EF92FF92BC
S1131E700F931F93CF938C010E940A0F882309F4B8
S1131E8054C0D8011696CD90DD90ED90FC90199732
S1131E905B96ED91FC915C9786859785A089B189C5
S1131EA022E0C21AD108E108F108058404C0CC0C70
S1131EB0DD1CEE1CFF1C0A94D2F7C80ED91EEA1EC4
S1131EC0FB1EC481CC2391F0D701C6018C0F911D58
S1131ED0A11DB11DBC01CD01615071098109910998
S1131EE00E943318882309F1C150ECCFD8015B96C6
S1131EF0ED91FC915C9780E092E0A0E0B0E0058475
S1131F0004C0880F991FAA1FBB1F0A94D2F7F801B7
S1131F104389548965897689840F951FA61FB71F45
S1131F20838B948BA58BB68B81E0CF911F910F91FE
S1131F30FF90EF90DF90CF900895CF93DF93EC0163
S1131F40462F6E857F85888999890E94F917882391
S1131F5041F08A8920E2829FC0011124815A9C4F5A
S1131F6002C080E090E0DF91CF910895CF93DF939A
S1131F70DC0190E09B3048F4FB01E90FF11D20E205
S1131F8020839F5FF7CFDE0102C040E057E0ED0100
S1131F9021969C91992331F19E3229F45A3049F1CA
S1131FA048E05AE0F0CFEAE4F2E09F012F5F3F4FB0
S1131FB08491882321F0F9019813F7CF1CC054179A
S1131FC0E0F09132E0F09F37E0F481E0840FFB0110
S1131FD0E40FF11D2FE9290F2A3108F49052908360
S1131FE0482FD1CFFB01908181E0903259F480E0F9
S1131FF009C080E007C080E005C080E003C080E045
S113200001C080E0DF91CF9108950F931F93CF9388
S1132010DF93EC018D8181114FC08B01FB01978906
S1132020903119F582E08D831F8A188E198E1A8ECD
S1132030808D918DA0E0B0E0880F991FAA1FBB1F6F
S1132040880F991FAA1FBB1F880F991FAA1FBB1FA8
S1132050880F991FAA1FBB1F880F991FAA1FBB1F98
S11320608B8B9C8BAD8BBE8B15C0903231F583E08E
S11320708D83FB01428D538D648D758D4F8B588FED
S1132080698F7A8F9E012D5E3F4FC8010E94E81828
S1132090882399F01C8F0B8F81E08C831E821F8212
S11320A0188619861A861B861C861D861E861F8620
S11320B0188A198A1A8A01C080E0DF91CF911F9192
S11320C00F9108953F924F925F926F927F928F92F9
S11320D09F92AF92BF92CF92DF92EF92FF920F93B3
S11320E01F93CF93DF9300D000D0CDB7DEB74C0160
S11320F06B015A834983FC018581882331F08481F3
S113210080FD06C03324339404C03324339401C0C7
S1132110312C311005C109811A81C801A0E0B0E059
S1132120F401038914892589368942855385648598
S1132130758528013901441A550A660A770A481632
S113214059066A067B0628F4C801841B950B9A83FA
S1132150898369807A806114710409F4DEC0F40112
S113216082859385A485B5852C01F1E05F22F40175
S113217025812230C9F4238D348DF901428D538D8C
S1132180648D758D072E79E0B695A79597958795FB
S11321907A95D1F7702D8A019B01080F191F2A1F08
S11321A03B1FC901B80154C0F401038D148DF8011B
S11321B0B480BA94AC01BD01032E39E076956795DD
S11321C0579547953A95D1F7302DB42241145104CF
S11321D0F1F4B1101CC0892B8A2B8B2B51F4F40120
S11321E08789908DA18DB28D86839783A087B187CF
S11321F00EC0F401468157816085718594012A5F80
S11322003F4FC8010E945D18882309F48CC0F40173
S113221086819781A085B185238D348DF90146850A
S11322205785608971890297A109B109058404C0A1
S1132230880F991FAA1FBB1F0A94D2F7840F951FFA
S1132240A61FB71FBC01CD016B0D711D811D911D12
S113225020E032E05901A418B508A614B70408F028
S11322605301F401248126FD04C0A114F2E0BF0649
S113227079F4009106011091070120910801309131
S11322800901601771078207930721F4232D03C006
S1132290232D01C021E0222381F0760185019201E2
S11322A0AB01BC0180915D0390915E030E94BF0D60
S11322B08823E1F1CA0CDB1C20C040E00E94F9171E
S11322C08823B9F18201015A1C4F1C830B839801A6
S11322D02A0D3B1D4B815C814217530771F0FA01B3
S11322E08081F60180838A010F5F1F4F1C830B835B
S11322F0A6014F5F5F4F6A01EDCFF401828593859C
S1132300A485B5858A0D9B1DA11DB11D8287938768
S1132310A487B5876A187B081ECF89819A810BC070
S11323208FEF9FEF08C08FEF9FEF05C08FEF9FEFF8
S113233002C08FEF9FEF0F900F900F900F90DF91DF
S1132340CF911F910F91FF90EF90DF90CF90BF90AE
S1132350AF909F908F907F906F905F904F903F9041
S11323600895FF920F931F93CF93DF931F92CDB7DE
S1132370DEB7FC012581223098F18C01428553851A
S113238064857585689414F876956795579547958F
S11323901694D1F7F42FFF70FF2E41E050E0BE01F8
S11323A06F5F7F4F0E946210019719F4898190E05A
S11323B002C08FEF9FEF9923B4F0F80182859385D3
S11323C0A485B5854F96A11DB11D82879387A487E7
S11323D0B587F0E2FF9EC0011124815A9C4F05C0CD
S11323E080E090E002C080E090E00F90DF91CF9118
S11323F01F910F91FF9008958F929F92AF92BF9279
S1132400CF92DF92EF92FF920F931F93CF93DF93BC
S1132410EC018D81882359F00B891C892D893E8913
S1132420041715072607370720F491E003C091E04D
S113243001C090E0911173C0823031F44A875B8708
S11324406C877D8781E06CC041155105610571057C
S113245051F41E821F82188619861A861B861C86D2
S11324601D8681E05DC04A015B010A851B852C85C0
S11324703D856801790181E0C81AD108E108F108B5
S1132480EB8DFC8D858590E00996082E04C0F694AA
S1132490E794D794C7940A94D2F74150510961093B
S11324A0710904C076956795579547958A95D2F733
S11324B04C155D056E057F0520F0012B022B032BC7
S11324C049F48F89988DA98DBA8D8E839F83A887AF
S11324D0B98704C04C195D096E097F096A017B0143
S11324E081E0C81AD108E108F108452B462B472B97
S11324F081F04E815F81688579859E012A5F3F4F17
S11325008B8D9C8D0E945D18B701A6018111E6CFC9
S113251007C08A869B86AC86BD8681E001C080E0C8
S1132520DF91CF911F910F91FF90EF90DF90CF90AB
S1132530BF90AF909F908F900895FF920F931F9339
S1132540CF93DF93FC018581882309F443C0F62EE1
S1132550EF0184818823A4F561E0CF010E949D0FDF
S11325608C01892BB1F18D81823048F48B899C894F
S1132570AD89BE89F801848F958FA68FB78F8F8917
S1132580988DA98DBA8DF801938F828F8F89988D3C
S1132590A98DBA8DB58BA48BE0915603F0915703A6
S11325A0309759F0B8016A5E7F4FC8014896099583
S11325B0F801808D918D938B828B8C818F778C83A6
S11325C0F11003C08C818F7E8C838F2D0E94CE17D7
S11325D001C080E0DF91CF911F910F91FF9008958A
S11325E0CF93DF93EC0161E00E949D12882311F0E8
S11325F01D8281E0DF91CF910895CF93DF93FC0199
S11326002581213029F4248121FD04C021E003C067
S113261021E001C020E021114AC0EC018C8182FF3D
S113262012C08A859B85AC85BD854B895C896D8983
S11326307E8984179507A607B70729F0CE010E9463
S1132640FC118823B9F180915D0390915E030E948F
S1132650EF0E811132C08C8185FF0AC060E0CE018B
S11326600E949D128C818F7D8C8380E090E027C036
S1132670409158035091590360915A0370915B0340
S1132680452B462B472B31F080E00E94A81780E0B1
S113269090E015C080618C838A859B85AC85BD855F
S11326A09C01317080E092E0821B930B08C080E0B3
S11326B090E005C080E090E002C080E090E0DF910F
S11326C0CF9108954F925F926F927F928F929F92D3
S11326D0AF92BF92EF92FF920F931F93CF93DF932A
S11326E000D000D0CDB7DEB7FC018581813029F45C
S11326F0848181FD04C081E003C081E001C080E0E9
S1132700811199C083899489A589B689841795070D
S1132710A607B70708F491C0892B8A2B8B2B09F4E1
S11327208EC082849384A484B584481559056A05AF
S11327307B0510F44A015B012A013B017F01CF01B3
S11327400E94FC11882309F47BC0411451046104E4
S11327507104B1F4D70157964D915D916D917C91BF
S11327605A975B968D919C915C970E94251B8823B8
S113277009F466C0F701178A108E118E128E42C0BA
S1132780D70116964D915D916D917C9119979E019B
S11327902F5F3F4F5B968D919C915C970E945D18D3
S11327A0882371F149815A816B817C81D7015B96C1
S11327B0ED91FC915C978789803129F488EF9FEF34
S11327C0A0E0B0E004C088EF9FEFAFEFBFE0481790
S11327D059076A077B07B0F4CF010E94251B8823A1
S11327E079F0F70146815781608571850FEF1FEFFE
S11327F02FEF3FE0838D948D0E944619811102C012
S113280080E01EC0D70153964D925D926D927C92EA
S1132810569714968C911497806814968C9361E063
S1132820C7010E949D12882359F0B501A401C70174
S11328300E94FC1105C080E003C080E001C081E07B
S11328400F900F900F900F90DF91CF911F910F91E8
S1132850FF90EF90BF90AF909F908F907F906F907C
S11328605F904F9008951F93CF93DF93EC0180E224
S1132870689FF0011124E15AFC4F9385917121F076
S1132880842F827409F054C0142F6A8B809106013E
S113289090910701A0910801B09109018E879F874B
S11328A0A88BB98B84899589A0E0B0E0DC019927D5
S11328B088278F8B988FA98FBA8F428D538D60E0B4
S11328C070E0482B592B6A2B7B2B4F8B588F698FC9
S11328D07A8F2385287159F4848D958DA68DB78DB3
S11328E08B8B9C8BAD8BBE8B81E08D830DC0203197
S11328F009F59E012D5E3F4F8B8D9C8D0E94E8183B
S11329008823D9F084E08D83812F8F708C831E827D
S11329101F82188619861A861B861C861D8616FF3A
S11329200BC040E050E0BA01CE010E94621305C022
S113293080E003C080E001C081E0DF91CF911F916E
S11329400895AF92BF92CF92DF92EF92FF920F93CE
S11329501F93CF93DF93CDB7DEB72B970FB6F894C1
S1132960DEBF0FBECDBFFC01C580C110CAC0A22E00
S11329708B017C01BE016F5F7F4FCA010E94B60FBD
S1132980882309F4C0C0F801838D948DF701948FD6
S1132990838FF80116821782108611861286138699
S11329A014861586B12CF801428553856485758596
S11329B083899489A589B689481759076A077B07CB
S11329C008F044C0689414F8769567955795479530
S11329D01694D1F7F42FFF70DF2EC8010E94B111B5
S11329E0009709F491C0FC012081222311F0253EB7
S11329F0B9F4B11010C0F701D28A40910601509188
S1132A000701609108017091090146875787608B1F
S1132A10718BBB24B394FC0180818111C4CF16C097
S1132A204BE050E0BC01CE0101960E940929892B9C
S1132A3009F0B9CF8A2D8073803309F465C04A2D1B
S1132A406D2DC7010E943314C82E5EC08A2D827179
S1132A50823109F059C0BB2041F061E0C7010E94F6
S1132A609D0F8C01892B89F44FC0F8018581823038
S1132A7009F44AC0C8010E94340FC82E882309F4FF
S1132A8043C0F701128A0FE513E080E2F8011192C6
S1132A908A95E9F78BE0FE013196D80101900D92F9
S1132AA08A95E1F7E0915603F0915703309739F096
S1132AB0B801625F7F4FC8014096099509C081E261
S1132AC098E2F801918B808B80E098E09787868765
S1132AD0F80180899189938B828B918F808F868571
S1132AE09785978B868B81E00E94CE17C82E88230A
S1132AF059F0F70162894A2DC7010E943314C82E88
S1132B0003C0C12C01C0C82E8C2D2B960FB6F8948F
S1132B10DEBF0FBECDBFDF91CF911F910F91FF900C
S1132B20EF90DF90CF90BF90AF900895CF93DF9355
S1132B30EC0140E050E0BA010E946213882379F06E
S1132B4061E0CE010E949D0F009741F025EEFC014B
S1132B5020831D8281E00E94CE1701C080E0DF91B6
S1132B60CF910895CF93DF93CDB7DEB76D970FB6AE
S1132B70F894DEBF0FBECDBFAB011C821B822DE9D2
S1132B8031E03A8329831E8222E0BC01CE01019602
S1132B900E94A114882321F0CE0101960E9496156B
S1132BA06D960FB6F894DEBF0FBECDBFDF91CF9107
S1132BB008953F924F925F926F927F928F929F926D
S1132BC0AF92BF92CF92DF92EF92FF920F931F9337
S1132BD0CF93DF9300D000D000D0CDB7DEB76C0127
S1132BE07B015E834D83DC0114969C911497292FFD
S1132BF022952F7081E082278170382E15968C9152
S1132C00813019F491FD03C003C081E001C080E06C
S1132C10811166C192FD03C08D809E8015C0F601AE
S1132C2082859385A485B585438954896589768988
S1132C3084179507A607B70779F3C6010E94FC110C
S1132C40882309F44DC1E8CF8114910409F41BC110
S1132C50D6011A960D911D912D913C911D975B966D
S1132C60ED91FC915C97D901C801072E79E0B695E6
S1132C70A795979587957A95D1F7702D74807A9456
S1132C8078221170711054C00115110509F050C05B
S1132C90D60116964D915D916D917C9119974115D0
S1132CA0510561057105B1F457968D919D910D9073
S1132CB0BC91A02D0097A105B10531F4C6010E9475
S1132CC00A0F811135C00CC1F60186839783A08752
S1132CD0B1872EC09E012F5F3F4FCF010E945D1828
S1132CE0811102C090E00BC189819A81AB81BC81C2
S1132CF0F601238D348DF9012789203129F448EF19
S1132D005FEF60E070E004C048EF5FEF6FEF7FE0DB
S1132D1084179507A607B70730F0C6010E940A0F6B
S1132D20811106C0DDC0F60186839783A087B18731
S1132D3080E092E05C01A01AB10A8A149B0408F4B2
S1132D405401F60186819781A085B185238D348D48
S1132D50F90146855785608971890297A109B109EE
S1132D60058404C0880F991FAA1FBB1F0A94D2F7B9
S1132D70840F951FA61FB71F9C01AD01270D311DA0
S1132D80411D511D29013A01A11432E0B30641F558
S1132D908091060190910701A0910801B091090169
S1132DA0481659066A067B0659F48FEF9FEFDC013B
S1132DB08093060190930701A0930801B093090141
S1132DC0032D9701B301A20180915D0390915E03ED
S1132DD00E94910E882309F483C04EEFF41A43C075
S1132DE00115110531F5D6011A964D915D916D913C
S1132DF07C911D9753968D919D910D90BC91A02D22
S1132E00481759076A077B07A0F081E00E94CE1794
S1132E10882309F465C0409206015092070160922C
S1132E2008017092090180915C03816080935C03C6
S1132E3008C041E0C301B2010E94F917882309F4D4
S1132E404FC0F801E15AFC4F9F012A0D3B1DE217C8
S1132E50F30749F0D7018C9180833196A7014F5F26
S1132E605F4F7A01F4CF8A189B08F6018285938517
S1132E70A485B5858A0D9B1DA11DB11D82879387ED
S1132E80A487B587E1CEF60182859385A485B585AF
S1132E904389548965897689481759076A077B07E6
S1132EA040F4838B948BA58BB68B84818068848358
S1132EB00DC08091560390915703892B39F02D81D1
S1132EC03E81232B19F0848180688483F6018481F8
S1132ED083FF10C061E0C6010E949D1281110DC0E4
S1132EE081E090E0D60113969C938E93129780E034
S1132EF090E005C08D819E8102C08D819E812696C1
S1132F000FB6F894DEBF0FBECDBFDF91CF911F91F6
S1132F100F91FF90EF90DF90CF90BF90AF909F9074
S1132F208F907F906F905F904F903F900895CF93D4
S1132F30DF931F92CDB7DEB7698341E050E0BE0155
S1132F406F5F7F4F0E94D9150F90DF91CF91089545
S1132F500F93409158035091590360915A03709113
S1132F605B034115510561057105A9F0082F2FE593
S1132F7033E080915D0390915E030E94910E88235B
S1132F8059F0109258031092590310925A03109258
S1132F905B0381E001C081E00F9108950F93CF930B
S1132FA090915C039923F9F0C82F40910601509148
S1132FB007016091080170910901082F2FE533E0A2
S1132FC080915D0390915E030E94910E882371F0BD
S1132FD0CC2359F08C2F0E94A817882339F0109223
S1132FE05C0381E003C081E001C081E0CF910F91D7
S1132FF00895CF92DF92EF92FF92CF936B017C0101
S1133000C42F8091060190910701A0910801B0910D
S113301009018C159D05AE05BF05C9F081E00E942C
S1133020CE178823D1F02FE533E0B701A6018091B4
S11330305D0390915E030E944C0E882371F0C09250
S11330400601D0920701E0920801F09209018091F3
S11330505C03C82BC0935C0381E0CF91FF90EF9099
S1133060DF90CF900895CF92DF92EF92FF926B01A1
S11330707C0181E00E94CE178823D1F080E090E0AB
S1133080811522E0920730F4FC01E15AFC4F1082D2
S11330900196F6CFC0920601D0920701E092080192
S11330A0F092090180915C03816080935C0381E06C
S11330B0FF90EF90DF90CF9008958F929F92AF9200
S11330C0BF92CF92DF92EF92FF920F931F93CF9311
S11330D0DF93FC01E90101851285238534850F5FA7
S11330E01F4F2F4F3F4F041715072607370708F4C4
S11330F061C083899489A589B6892789203129F4F7
S1133100852E962EA72EBB240AC04A015B01689423
S113311016F8B694A794979487941694D1F76A01F5
S11331207B018F01BC01CD01680D791D8A1D9B1D9A
S11331308090060190900701A0900801B0900901C9
S1133140681579058A059B0529F040E00E94F91766
S1133150882389F1F80187898031A1F4B701A60198
S1133160552766277727440F551FFA01E15AFC4F6C
S113317080819181A0E0B0E088839983AA83BB8396
S113318081E019C0B701A6014F7755276627772735
S1133190440F551F440F551FFA01E15AFC4F80811B
S11331A09181A281B381BF7088839983AA83BB83F1
S11331B081E001C080E0DF91CF911F910F91FF90DA
S11331C0EF90DF90CF90BF90AF909F908F90089535
S11331D08F929F92AF92BF92EF92FF920F931F93A1
S11331E0CF93DF9300D000D0CDB7DEB78C014983F5
S11331F05A836B837C837901812C912C54014981FE
S11332005A816B817C819E012F5F3F4FC8010E94D0
S11332105D18882361F180E092E0A0E0B0E0F8015D
S1133220058404C0880F991FAA1FBB1F0A94D2F7F4
S1133230880E991EAA1EBB1E89819A81AB81BC810E
S11332402789203129F448EF5FEF60E070E004C083
S113325048EF5FEF6FEF7FE084179507A607B70786
S113326070F2F70180829182A282B38281E00F9092
S11332700F900F900F90DF91CF911F910F91FF90BE
S1133280EF90BF90AF909F908F9008954F925F9270
S11332906F927F928F929F92AF92BF92CF92DF9262
S11332A0EF92FF920F931F93CF93DF9300D000D040
S11332B000D0CDB7DEB7423051056105710508F481
S11332C094C0DC011996CD90DD90ED90FC901C9794
S11332D0BFEFCB1ADB0AEB0AFB0AC416D506E606D7
S11332E0F70608F484C0FC0143885488658876880E
S11332F0E789E03129F4852E962EA72EBB240AC037
S11333004A015B01689416F8B694A794979487943D
S11333101694D1F709831A832B833C836A017B01BA
S11333209E838D83480C591C6A1C7B1C809106016A
S113333090910701A0910801B0910901481659061E
S11333406A067B0641F040E0C301B2010E94F9170E
S1133350882309F44FC0AD81BE8157968C9180318A
S113336079F4B701A601552766277727440F551F1F
S1133370FA01E15AFC4F89819A819183808315C0B7
S1133380B701A6014F77552766277727440F551FA6
S1133390440F551FFA01E15AFC4F89819A81AB8190
S11333A0BC8180839183A283B38380915C03816019
S11333B080935C03AD81BE8152968C91529782308A
S11333C0C0F015968D919D910D90BC91A02D480E45
S11333D0591E6A1E7B1E40925803509259036092F4
S11333E05A0370925B0381E005C080E003C080E073
S11333F001C081E026960FB6F894DEBF0FBECDBFA4
S1133400DF91CF911F910F91FF90EF90DF90CF90BC
S1133410BF90AF909F908F907F906F905F904F90F0
S113342008952F923F924F925F926F927F928F9264
S11334309F92AF92BF92CF92DF92EF92FF920F933F
S11334401F93CF93DF93CDB7DEB72F970FB6F894C2
S1133450DEBF0FBECDBF1C0149875A876B877C87AF
S11334603E872D87D9014D905D906D907C904114DD
S113347051046104710439F0BFEF4B1A5B0A6B0A03
S11334807B0A1F8611C0FC014080518062807380DA
S113349081E029853A854B855C85213031054105DC
S11334A0510509F080E08F87F10181859285A3851C
S11334B0B4859C01AD012F5F3F4F4F4F5F4F2D836C
S11334C03E834F83588773016201812C912C5401F0
S11334D0F10181859285A385B48588169906AA068B
S11334E0BB0608F04AC02D813E814F8158852C15BA
S11334F03D054E055F0550F4C12CD12C760168942E
S1133500C1F8412C512C3201689441F89E012F5F7F
S11335103F4FB701A601C1010E945D18882369F1DC
S113352089819A81AB81BC81892B8A2B8B2B41F0B9
S1133530260137013FEF431A530A630A730A12C084
S1133540D701C60184199509A609B7090196A11DD9
S1133550B11D29853A854B855C85281739074A07AB
S11335605B0769F03FEF831A930AA30AB30A4FEF8C
S1133570C41AD40AE40AF40AABCF80E04DC00FEFBA
S11335801FEF2FEF3FE0B701A601C1010E944619CA
S1133590882309F441C04C145D046E047F0498F43C
S11335A04601570151E0851A9108A108B108970115
S11335B08601B501A401C1010E944619882361F165
S11335C075016401E8CFAD85BE854D915D916D9126
S11335D07C91411551056105710539F09301820112
S11335E0C1010E9446198823B9F0ED85FE85408209
S11335F0518262827382FF85FF2369F02FEF421AA2
S1133600520A620A720AD1014D925D926D927C92C5
S1133610139781E001C081E02F960FB6F894DEBFC6
S11336200FBECDBFDF91CF911F910F91FF90EF900F
S1133630DF90CF90BF90AF909F908F907F906F90CE
S11336405F904F903F902F900895AF92BF92CF928A
S1133650DF92EF92FF920F931F93CF93DF9300D0EB
S113366000D0CDB7DEB75C016A017B0182E090E057
S1133670A0E0B0E0F50180839183A283B3839E012F
S11336802F5F3F4FB701A601C5010E945D18882333
S113369011F100E010E09801B701A601C5010E94F4
S11336A046198823C1F0C980DA80EB80FC80F501DB
S11336B08789803129F488EF9FEFA0E0B0E004C04F
S11336C088EF9FEFAFEFBFE0C816D906EA06FB0606
S11336D0B0F281E001C080E00F900F900F900F9046
S11336E0DF91CF911F910F91FF90EF90DF90CF90DA
S11336F0BF90AF9008954F925F926F927F928F9296
S11337009F92AF92BF92CF92DF92EF92FF920F936C
S11337101F93CF93DF938C01C42F70935E03609348
S11337205D03442309F444C0453008F029C140E056
S113373060E070E0CB010E94F917882309F42BC1E3
S11337404C2F50E041505109FA01E295F295F07F77
S1133750FE27E07FFE27E35EFA4F80818F7709F032
S113376011C1FA01E295F295F07FFE27E07FFE2772
S1133770E75DFA4FC080D180E280F38024E6C21670
S1133780D104E104F10408F406C142955295507F36
S11337905427407F5427FA01EB5DFA4FC080D18053
S11337A0E280F380C114D104E104F10421F4F3C0F4
S11337B0C12CD12C760140E0C701B6010E94F91753
S11337C0882309F4E8C080916A0390916B03811502
S11337D0924009F0D9C080916F03882309F4DBC0BB
S11337E020916D0330916E03232B09F4CFC06091B7
S11337F06C03662309F4CCC0E8018A8B6C831D86B4
S1133800F8018585E82F21E030E0082E02C0220F60
S1133810331F0A94E2F7462F50E04217530741F052
S113382091E0980FD8011D969C93883048F3B2C05C
S113383020917503309176032115310519F040E08C
S113384050E008C0209183033091840340918503A4
S113385050918603E8012D833E834F8358870F2EB2
S1133860FFE5AF2EF3E0BF2EF02DD5011E968D910E
S11338709C911F9726013701480E591E611C711C2B
S11338804B8A5C8A6D8A7E8A51968D909C90529761
S1133890998E888E50968C91A82FB0E00E94B527FF
S11338A0DC01CB01840D951DA61DB71D8A8F9B8F4E
S11338B0AC8FBD8FE401CC0FDD1FC295D295D07FB4
S11338C0DC27C07FDC27C150DE4FCD2FDD27C69516
S11338D08C0F9D1FA11DB11DE8018E879F87A88BAA
S11338E0B98BE5014B885C884114510419F0612CB3
S11338F0712C08C040907F03509080036090810336
S113390070908203C81AD90AEA0AFB0AC40CD51CAF
S1133910E61CF71C04C0F694E794D794C794EA9580
S1133920D2F7F801C186D286E386F486F5EFCF1686
S1133930FFE0DF06E104F10430F48CE0D80157968F
S11339408C9381E028C0B5EFCB16BFEFDB06E10412
S1133950F10428F480E1E8018F8B81E01CC08091A0
S11339608B0390918C03A0918D03B0918E03F80189
S1133970828F938FA48FB58F80E2878B81E00BC0F9
S113398080E009C080E007C080E005C080E003C09B
S1133990862F01C080E0DF91CF911F910F91FF909E
S11339A0EF90DF90CF90BF90AF909F908F907F90DB
S11339B06F905F904F900895FC011382128289EA00
S11339C091E09183808364830895CF93C62FFC0193
S11339D0648184EB92E00E945C066C2F6860E09145
S11339E0B402F091B5020190F081E02D84EB92E0F5
S11339F0099584EB92E00E947906CF9108950F9384
S1133A001F93CF938C01C62F64600E94E51C85E050
S1133A108A95F1F700006C2F6B7FC8010E94E51CAA
S1133A2087EC90E00197F1F700C00000CF911F915F
S1133A300F9108951F93CF93DF93EC01162F0E94EB
S1133A40E51C612FCE010E94FF1CDF91CF911F91D5
S1133A500895FF920F931F93CF93DF938C01F42E5D
S1133A60862F807F90E1699FE0011124682F642BE9
S1133A70C8010E941A1D6C2F6F29C8010E941A1DCB
S1133A80DF91CF911F910F91FF90089540E061E085
S1133A900E94291D8FE39FE10197F1F700C0000008
S1133AA0089540E062E00E94291D8FE39FE10197A1
S1133AB0F1F700C000000895CF93DF93CDB7DEB7D0
S1133AC028970FB6F894DEBF0FBECDBF9C0198E0D7
S1133AD0EDE0F1E0DE01119601900D929A95E1F787
S1133AE0433008F041E0E42FF0E0EE0FFF1F81E0E7
S1133AF090E08C0F9D1FE80FF91F9081690F60689B
S1133B0040E0C9010E94291D28960FB6F894DEBF33
S1133B100FBECDBFDF91CF910895FC016681262FA2
S1133B20246026836C6040E00E94291D089541E0D2
S1133B300E94291D81E090E00895CF93DF93EC016A
S1133B4084EB92E00E94490688E08D832FEF80E7A2
S1133B5092E0215080409040E1F700C0000068E00E
S1133B60CE010E94E51C2FEF83ED90E321508040AD
S1133B709040E1F700C0000060E3CE010E941A1DEE
S1133B808FE496E40197F1F700C0000060E3CE01F2
S1133B900E941A1D8FE496E40197F1F700C000001B
S1133BA060E3CE010E941A1D87E592E00197F1F7C8
S1133BB000C0000060E2CE010E941A1D6D816062A7
S1133BC040E0CE010E94291D84E08E83CE010E9434
S1133BD08D1DCE010E94461D82E08F8340E066E089
S1133BE0CE010E94291DCE010E94511DDF91CF916B
S1133BF00895019741F46F3F7F4F29F467E28FE501
S1133C0095E00E94DC1C089589B1809561F18830AB
S1133C1099F038F48230D1F0843061F08130A1F42D
S1133C2007C0803469F0803869F0803269F406C0D6
S1133C308FE50DC083E70BC08CE309C080E707C0A4
S1133C408EE305C084E603C080E001C08AE22FEF62
S1133C5035EA9EE0215030409040E1F700C000007A
S1133C609FEF9BB9089580E00895CF93DF93EC0113
S1133C708FE595E00E94461D40E060E08FE595E009
S1133C800E945C1DBE018FE595E00E949101DF91C9
S1133C90CF910895CF93DF93EC0141E060E08FE58D
S1133CA095E00E945C1DBE018FE595E00E949101A4
S1133CB0DF91CF910895CF93DF931092720581E441
S1133CC080936705C0E0D1E4CF30D9F0DB35C9F08B
S1133CD067E675E08AE093E00E94660B882369F04A
S1133CE0EC2FF0E080916705ED58FA4F80838091C6
S1133CF072058F5F80937205CF5FDF5FD093670596
S1133D00E3CFCF3040F4EC2FF0E0ED58FA4F8FE5DD
S1133D108083CF5FF6CFDF91CF910895E091710555
S1133D20EF5FE0937105F0E0ED58FA4F80818F3535
S1133D3011F410927105E0917105F0E0ED58FA4F1D
S1133D40808180936705089580917105811106C073
S1133D508091720581508093710503C081508093D6
S1133D607105E0917105F0E0ED58FA4F8081809380
S1133D7067050895CF9381E480936705C1E467E6FE
S1133D8075E08AE093E00E94660B882321F0CF5F00
S1133D90C0936705F4CFCF9108950F931F93CF93EA
S1133DA0DF93CDB7DEB72A970FB6F894DEBF0FBE08
S1133DB0CDBF8C0140E150E061EB71E00E94AC06A4
S1133DC08AE0E5E1F1E0DE01119601900D928A9519
S1133DD0E1F74AE050E0BE016F5F7F4FC8010E94E7
S1133DE0AC0619821A8280ED8B8380E38C831D825A
S1133DF01E8281E08F83188688E089871A864AE0CC
S1133E0050E0BE016F5F7F4FC8010E94AC0648E0DE
S1133E1050E062EC71E0C8010E94AC062A960FB62D
S1133E20F894DEBF0FBECDBFDF91CF911F910F91EC
S1133E3008958F929F92AF92BF92CF92DF92EF92AA
S1133E40FF920F931F93CF93DF9300D000D0CDB791
S1133E50DEB78C010E94AA076B017C014B015C0157
S1133E6088E0881A9108A108B10844E050E060E0B5
S1133E7070E0C8010E948B0789829A82AB82BC825F
S1133E8044E050E0BE016F5F7F4FC8010E94AC0662
S1133E9048E250E060E070E0C8010E948B07D7015F
S1133EA0C6018C97A109B10989839A83AB83BC832A
S1133EB044E050E0BE016F5F7F4FC8010E94AC0632
S1133EC00F900F900F900F90DF91CF911F910F9152
S1133ED0FF90EF90DF90CF90BF90AF909F908F9026
S1133EE008954F925F926F927F928F929F92AF92BA
S1133EF0BF92CF92DF92EF92FF920F931F93CF93D3
S1133F00DF93CDB7DEB7CA5AD1090FB6F894DEBF36
S1133F100FBECDBF8C0186E1EFE1F1E0DE01D79663
S1133F2001900D928A95E1F727E147E655E06AE0B2
S1133F3073E0CE018F589F4F0E944F0AE5968EADD5
S1133F409FADE5979F8F8E8FE9968CAD9DADAEADFD
S1133F50BFADE99788A399A3AAA3BBA3ED968CADA3
S1133F609DADAEADBFADED978CA39DA3AEA3BFA396
S1133F7089E891E09D8F8C8F8DE0E1E7F0E0EC0F14
S1133F80FD1F3C96DE01989601900D928A95E1F70B
S1133F90C657DF4F88819981CA58D0409EAB8DABFC
S1133FA0CE014C960E94CD1E21E0A8016AE073E088
S1133FB0CE0184579F4F0E944F0ACE0184579F4FD2
S1133FC00E94AA072B013C014BE050E0BE01635B59
S1133FD07F4FCE0184579F4F0E94800749E150E0F4
S1133FE0BE01685A7F4FCE0184579F4F0E948007BD
S1133FF0E12C411451046104710409F4AAC089E15B
S1134000E8120BC049E150E0BE01685A7F4FCE016F
S113401084579F4F0E948007E12CF12C0F2E812C96
S1134020912CFEEFAF2EF2E4BF2EF02D99E09F15F8
S113403008F456C00F2D10E00F2EFDE4CF2ED12C26
S1134040F02DCC0EDD1EC00ED11EF601608170E095
S113405080E090E00E94A02620E030E04EEF52E4A1
S11340600E949225C955DF4F688379838A839B8395
S1134070C75AD040F801EE0FFF1F81E090E08C0F8B
S11340809D1FE80FF91F66A977A9072E000C880B5E
S1134090990B0E94A226C955DF4F288139814A8194
S11340A05B81C75AD0400E942E2720E030E04AE7C7
S11340B054E40E94FF259B01AC01C501B4010E9498
S11340C093254B015C010F5F1F4FEDE4F0E0EC0F13
S11340D0FD1FE00FF11F8081F6018083F394A6CFCA
S11340E068966FAD689770E080E090E00E94A0262B
S11340F020E030E04EEF52E40E94922520E030E0D0
S1134100A9010E942E2720E030E04AE754E40E94EF
S1134110FF259B01AC01C501B4010E94932511E068
S11341201E0DE8E5F0E0EC0FFD1FEE0DF11D208102
S113413068962FAF68970E947126CE018F589F4FC3
S11341400E948406F1E04F1A510861087108E12EBB
S113415050CFE5968EAD9FADE5979C838B83E99612
S11341608CAD9DADAEADBFADE9978D839E83AF831E
S1134170B887ED968CAD9DADAEADBFADED9789879B
S11341809A87AB87BC8789E891E09A8389838DE01D
S1134190E1E7F0E0EC0FFD1F3C96DE011D96019077
S11341A00D928A95E1F7C657DF4F88819981CA58E5
S11341B0D0409B8F8A8FCE0101960E94191FCE0199
S11341C08F589F4F0E94E907CE0184579F4F0E944A
S11341D0E907C655DF4F0FB6F894DEBF0FBECDBF5B
S11341E0DF91CF911F910F91FF90EF90DF90CF90CF
S11341F0BF90AF909F908F907F906F905F904F9003
S11342000895EF92FF920F931F93CF93DF93CDB74F
S1134210DEB7C758D1090FB6F894DEBF0FBECDBFC5
S1134220BE016F5F7F4F86E0FB0111928A95E9F72B
S113423083E589838EE28B8382E48C8389E48D8396
S11342408EE48E83E0917105F0E0ED58FA4F8081A1
S11342508A838AE093E00E94660B81117AC08BEC1A
S113426091E00E944A1E27E1AE014F5F5F4F6AE072
S113427073E0CE018C5A9F4F0E944F0A21E047E61B
S113428055E06AE073E0CE01C9960E944F0A4CE201
S113429050E060E070E0CE01C9960E948B0782E393
S11342A0E5E3F1E0DE01179601900D928A95E1F7BE
S11342B0E12C10E001C0E02ECE01C9960E94BA079D
S11342C0892BF1F101E00E0DF12CCE01C9960E946B
S11342D0D406BC016F57710921E0210FE12FF0E0F2
S11342E0EE0FFF1F81E090E08C0F9D1FE80FF91F78
S11342F046815781649FC001659F900D749F900D06
S113430011246AE070E00E949B27EFE6F0E0EC0FD6
S1134310FD1FEE0DFF1D61586083293111F0122F2E
S113432001C010E0093139F649E150E0BE0161599C
S11343307F4FCE018C5A9F4F0E94AC0600E0BBCF4A
S1134340CE018C5A9F4F0E94E907CE01C9960E9464
S1134350E907E7E6F5E083E5808388E4818389E47F
S1134360828386E4838384E58483A0917105B0E02D
S1134370AD58BA4F8C9185838EE2868387E5878317
S113438081E4808786E58187BF018AE093E00E940B
S1134390660B811104C0CE0101960E94711FC9579A
S11343A0DF4F0FB6F894DEBF0FBECDBFDF91CF91C4
S11343B01F910F91FF90EF900895ECE7F0E090814A
S11343C0892B8083EAE7F0E0808180648083809198
S11343D07A0086FDFCCFECE7F0E08081807F80836B
S11343E08091790008951F93CF93DF93CDB7DEB703
S11343F0C155D1090FB6F894DEBF0FBECDBF0E94E0
S1134400BA1E27E147E655E06AE073E0CE01C7969D
S11344100E944F0ACE01C7960E94FC0781110EC06C
S113442086ED91E00E94351E2FEF83ED90E321503D
S113443080409040E1F700C0000080C08CED91E026
S11344400E94351E89AD9AAD9F8F8E8F8BAD9CAD2A
S1134450ADADBEAD88A399A3AAA3BBA323968CAD8F
S11344609DADAEADBFAD23978CA39DA3AEA3BFA35B
S113447089E891E09D8F8C8F8DE0FE01ED5BFF4F0D
S1134480DE01989601900D928A95E1F762968EADC1
S11344909FAD62979EAB8DABCE014C960E94CD1E14
S11344A080E090E00E94DD21182F0E94041E8337D3
S11344B051F0612FCE01C7960E94840625E52A9506
S11344C0F1F70000EDCF89AD9AAD9C838B838BAD62
S11344D09CADADADBEAD8D839E83AF83B88723966F
S11344E08CAD9DADAEADBFAD239789879A87AB8761
S11344F0BC8789E891E09A8389838DE0FE01ED5BB6
S1134500FF4FDE011D9601900D928A95E1F76296A8
S11345108EAD9FAD62979B8F8A8FCE0101960E94CC
S1134520191F86EE91E00E94351E8FEF93ED20E374
S1134530815090402040E1F700C00000CE01C796B2
S11345400E94E907CF5ADF4F0FB6F894DEBF0FBEC3
S1134550CDBFDF91CF911F910895CF9383E090E079
S11345600E94DD21C82F81E090E00E94DD21CA3540
S113457020F491E090930A0109C0C43B20F492E036
S113458090930A0103C093E090930A018A3528F4BA
S113459010928305109282050DC0843B30F481E0B3
S11345A0809383051092820505C01092830581E0F3
S11345B080938205CF9108951F93CF93DF93CDB756
S11345C0DEB76B970FB6F894DEBF0FBECDBF0E9467
S11345D0AD2280918305882331F08BEC91E00E9419
S11345E04A1E0E94012121E047E655E06AE073E09B
S11345F0CE0101960E944F0ACE0101960E94FC074B
S113460081110EC086ED91E00E944A1E2FEF83EDCA
S113461090E3215080409040E1F700C000008DC03D
S11346204CE250E060E070E0CE0101960E948B07FE
S11346308CEE91E00E94351E87E695E00E944A1EAA
S113464080910A018230C8F4CE0101960E94BA0713
S1134650892BE1F1CE0101960E94D4069093890042
S11346608093880025ED2A95F1F700000E94041E2E
S1134670803751F72BC011E001C011E0CE01019643
S11346800E94BA07892B11F10E94041E8037F1F0B1
S1134690113069F4CE0101960E94D40690938900EA
S11346A08093880085ED8A95F1F7000004C0CE015F
S11346B001960E94D4061F5F212F30E080910A01E9
S11346C090E0019628173907C9F6D5CF10928900D2
S11346D01092880084EF91E00E944A1ECE01019658
S11346E00E94E90780918305811104C080918205AD
S11346F08823D1F0E0917105F0E0ED58FA4F808104
S1134700E7E6F5E080838EE2818387E5828381E4B6
S1134710838386E584831582168217821086118628
S113472010928305109282059FEF23ED80E3915050
S113473020408040E1F700C000006B960FB6F8946B
S1134740DEBF0FBECDBFDF91CF911F910895789446
S113475084B5826084BD84B5816084BD85B5826082
S113476085BD85B5816085BDEEE6F0E08081816020
S11347708083E1E8F0E01082808181608083A0E89A
S1134780B0E08C9181608C938C9180688C93808153
S113479088608083E1EBF0E0808184608083E0EBDB
S11347A0F0E0808181608083EAE7F0E080818460CA
S11347B0808380818068808380E680937C0010926F
S11347C0C10008950E94A723E7E6F5E08EE2818305
S11347D087E5828381E4838386E584831AB88FEF37
S11347E08BB987B1847F87B984B1826084B9109210
S11347F08900109288008FE595E00E949D1D6AE073
S11348008AE093E00E942909811105C086ED91E0B8
S11348100E94351EFFCF0E945B1E2FEF83ED90E3B5
S1134820215080409040E1F700C0000080910C01CD
S1134830833759F480910B018A3639F40E94F321AD
S11348400E945B1E89E680930C0180910C018037E5
S1134850C1F580910B018A36A1F58BE680930B019B
S113486089E680930C0180917205811111C08AE65A
S113487080930B0180E092E00E94351E2FEF83EDC0
S113488090E3215080409040E1F700C0000019C03F
S11348908AE092E00E94351E2FEF83ED90E32150D1
S11348A080409040E1F700C00000E0917105F0E025
S11348B0ED58FA4F80818093670587E695E00E9462
S11348C04A1E80910B018B3609F083C00E94041E9E
S11348D08823E1F380930C01803739F40E94DC22B1
S11348E08AE092E00E94351E6DC08E3319F40E9456
S11348F08E1E68C08C3319F40E94A41E63C08337D3
S113490039F48AE680930B0189E680930C015AC03E
S1134910843609F057C088E192E00E94351E0E9457
S1134920041E8436F9F467E675E08AE093E00E9499
S1134930720B84E292E00E94351E0E945B1E8091FD
S1134940710590917205891303C08150809371059C
S11349502FEF83ED90E3215080409040E1F700C0B9
S113496000000FC08037D9F680E292E00E94351E25
S11349702FEF83ED90E3215080409040E1F700C099
S1134980000080917205811111C080E092E00E94C4
S1134990351E2FEF83ED90E3215080409040E1F7E6
S11349A000C000008AE680930B010CC08AE092E00C
S11349B00E94351EE0917105F0E0ED58FA4F8081B8
S11349C08093670587E695E00E944A1E89E68093F6
S11349D00C0180910C01893609F028CF80910B01DC
S11349E08A3609F023CF8CE292E00E94351E0E94A1
S11349F0041E8823E1F380930C0118CF6FEF7FEF3F
S1134A0081E090E00E94F91D08951F920F920FB665
S1134A100F9211240F931F932F933F934F935F9300
S1134A206F937F938F939F93AF93BF93009185056B
S1134A301091860520918705309188059091840511
S1134A40B901A8014F5F5F4F6F4F7F4F83E0890F1C
S1134A508D3740F086E8890FB901A8014E5F5F4F9A
S1134A606F4F7F4F8093840540938505509386054F
S1134A7060938705709388058091890590918A05D4
S1134A80A0918B05B0918C050196A11DB11D809359
S1134A90890590938A05A0938B05B0938C05BF91EB
S1134AA0AF919F918F917F916F915F914F913F91C2
S1134AB02F911F910F910F900FBE0F901F9018957B
S1134AC02FB7F894609185057091860580918705CC
S1134AD0909188052FBF08953FB7F8948091890578
S1134AE090918A05A0918B05B0918C0526B5A89B61
S1134AF005C02F3F19F00196A11DB11D3FBFBA2F6C
S1134B00A92F982F8827820F911DA11DB11DBC01CB
S1134B10CD01660F771F881F991F660F771F881FA7
S1134B20991F08955058BB27AA270E94AA250C94C0
S1134B30F4260E94E62638F00E94ED2620F039F48F
S1134B409F3F19F426F40C94E3260EF4E095E7FB5A
S1134B500C94DD26E92F0E94052758F3BA17620743
S1134B6073078407950720F079F4A6F50C9427279A
S1134B700EF4E0950B2EBA2FA02D0B01B901900174
S1134B800C01CA01A0011124FF27591B99F0593FB8
S1134B9050F4503E68F11A16F040A22F232F342F00
S1134BA04427585FF3CF469537952795A795F0404E
S1134BB05395C9F77EF41F16BA0B620B730B840B63
S1134BC0BAF09150A1F0FF0FBB1F661F771F881F1B
S1134BD0C2F70EC0BA0F621F731F841F48F4879573
S1134BE077956795B795F7959E3F08F0B0CF939565
S1134BF0880F08F09927EE0F9795879508950E94DE
S1134C0013260C94F4260E94ED2658F00E94E62602
S1134C1040F029F45F3F29F00C94DD2651110C94E7
S1134C2028270C94E3260E94052768F39923B1F3FF
S1134C30552391F3951B550BBB27AA2762177307BE
S1134C40840738F09F5F5F4F220F331F441FAA1F52
S1134C50A9F335D00E2E3AF0E0E832D0915050400E
S1134C60E695001CCAF72BD0FE2F29D0660F771FBC
S1134C70881FBB1F261737074807AB07B0E809F0A2
S1134C80BB0B802DBF01FF2793585F4F3AF09E3F27
S1134C90510578F00C94DD260C9428275F3FE4F34B
S1134CA0983ED4F3869577956795B795F7959F5F6A
S1134CB0C9F7880F911D9695879597F90895E1E0B6
S1134CC0660F771F881FBB1F621773078407BA0715
S1134CD020F0621B730B840BBA0BEE1F88F7E09570
S1134CE008950E940D2788F09F5798F0B92F9927AF
S1134CF0B751B0F0E1F0660F771F881F991F1AF0C3
S1134D00BA95C9F714C0B13091F00E942727B1E0D9
S1134D1008950C942727672F782F8827B85F39F0D8
S1134D20B93FCCF3869577956795B395D9F73EF45B
S1134D3090958095709561957F4F8F4F9F4F089503
S1134D40E89409C097FB3EF4909580957095619521
S1134D507F4F8F4F9F4F9923A9F0F92F96E9BB27D7
S1134D609395F695879577956795B795F111F8CF53
S1134D70FAF4BB0F11F460FF1BC06F5F7F4F8F4FBE
S1134D809F4F16C0882311F096E911C0772321F0B4
S1134D909EE8872F762F05C0662371F096E8862F4C
S1134DA070E060E02AF09A95660F771F881FDAF7A3
S1134DB0880F9695879597F9089597F99F6780E8E6
S1134DC070E060E008959FEF80EC089500240A9459
S1134DD01616170618060906089500240A941216D2
S1134DE01306140605060895092E0394000C11F405
S1134DF0882352F0BB0F40F4BF2B11F460FF04C0B2
S1134E006F5F7F4F8F4F9F4F089557FD9058440F0A
S1134E10551F59F05F3F71F04795880F97FB991F15
S1134E2061F09F3F79F087950895121613061406D2
S1134E30551FF2CF4695F1DF08C01616170618065F
S1134E40991FF1CF86957105610508940895E8943A
S1134E50BB2766277727CB0197F908950E9441273E
S1134E600C94F4260E94E62638F00E94ED2620F0E9
S1134E70952311F00C94DD260C94E32611240C9454
S1134E8028270E94052770F3959FC1F3950F50E0E2
S1134E90551F629FF001729FBB27F00DB11D639FE8
S1134EA0AA27F00DB11DAA1F649F6627B00DA11D8E
S1134EB0661F829F2227B00DA11D621F739FB00D34
S1134EC0A11D621F839FA00D611D221F749F3327A4
S1134ED0A00D611D231F849F600D211D822F762F3D
S1134EE06A2F11249F5750409AF0F1F088234AF01A
S1134EF0EE0FFF1FBB1F661F771F881F9150504086
S1134F00A9F79E3F510580F00C94DD260C942827C8
S1134F105F3FE4F3983ED4F3869577956795B7950C
S1134F20F795E7959F5FC1F7FE2B880F911D969526
S1134F30879597F9089597FB072E16F4009407D0E8
S1134F4077FD09D00E94C02707FC05D03EF4909558
S1134F5081959F4F0895709561957F4F0895EE0F49
S1134F60FF1F0590F491E02D09940E94D427A59F7A
S1134F70900DB49F900DA49F800D911D1124089550
S1134F80AA1BBB1B51E107C0AA1FBB1FA617B7076B
S1134F9010F0A61BB70B881F991F5A95A9F7809587
S1134FA09095BC01CD010895A29FB001B39FC001AB
S1134FB0A39F700D811D1124911DB29F700D811D41
S1134FC01124911D08950F931F93CF93DF93823083
S1134FD0910510F482E090E0E0918F05F091900546
S1134FE020E030E0A0E0B0E0309719F14081518139
S1134FF00281138148175907C8F08417950769F48B
S1135000109731F012960C93129713961C9327C0A5
S113501000938F051093900522C02115310519F0D6
S11350204217530718F49A01BD01EF01DF01F8019B
S1135030DBCF21153105F9F0281B390B243031055C
S113504080F48A819B816115710521F0FB019383B2
S1135050828304C09093900580938F05FE0132965D
S113506044C0FE01E20FF31F819391932250310952
S1135070398328833AC020918D0530918E05232BE6
S113508041F4209102013091030130938E05209365
S11350908D0520910001309101012115310541F464
S11350A02DB73EB74091040150910501241B350BE7
S11350B0E0918D05F0918E05E217F307A0F42E1B05
S11350C03F0B2817390778F0AC014E5F5F4F241768
S11350D0350748F04E0F5F1F50938E0540938D05A2
S11350E08193919302C0E0E0F0E0CF01DF91CF9192
S11350F01F910F910895CF93DF93009709F481C016
S1135100FC01329713821282A0918F05B091900511
S1135110109781F420813181820F931F20918D0596
S113512030918E052817390751F5F0938E05E093D9
S11351308D0567C0ED0120E030E0CE17DF0740F4B5
S11351404A815B819E0141155105F1F0EA01F5CFD9
S1135150D383C28340815181840F951FC817D90717
S113516059F488819981840F951F029691838083D5
S11351708A819B81938382832115310529F4F093DD
S11351809005E0938F053DC0E901FB83EA834991D3
S11351905991C40FD51FEC17FD0761F480819181EB
S11351A0840F951F0296E9019983888382819381F4
S11351B09B838A83E0E0F0E012968D919C91139793
S11351C0009719F0FD01DC01F7CF8D919C911197A7
S11351D09D012E5F3F4F820F931F20918D053091CB
S11351E08E052817390769F4309729F41092900531
S11351F010928F0502C013821282B0938E05A09381
S11352008D05DF91CF91089581E090E0F8940C949E
S11352103029FB01DC0104C08D910190801921F437
S113522041505040C8F7881B990B0895FC018191A7
S1135230861721F08823D9F7992708953197CF014C
S11352400895FB01DC014150504048F001900D925B
S11352500020C9F701C01D9241505040E0F7089565
S1075260F894FFCFEC
S1135264000091052000FFFFFFFF016A6900004070
S113527400140054001000000001000100D43000A8
S11352840001000500FCFFD0FF9803D0FFFCFF05DC
S113529400010000000A000A0009000700050003D9
S11352A4000100FEFFFCFFFAFFF8FFF7FFF6FFF62C
S11352B4FFF7FFF8FFFAFFFCFFFEFF010003000500
S11352C400070009000A00000000005B0161015DA1
S11352D401600100000000FE05CE055D0199056E24
S11352E40576058A05000000008406AC069A062F9C
S11352F407BA07D406F3062F0000000000971761CD
S113530401FD12600100000000971D61015D016050
S113531401524946462020202057415645666D7463
S1135324200064617461202020200050726F636542
S11353347373696E67004572726F72005265636FAE
S11353447264696E6700536176656400506C6179B8
S1135354696E6700456E64206F6620706C61790025
S11353644E6F20547261636B7300526561647920DB
S1135374746F20506C61790044656C6574653F00FA
S11353844E6F742044656C6574656400566F69637C
S10F539465205265636F7264657200004E
S9030000FC
