S0160000566F6963655F5265636F726465722E7372656383
S11300000C9431010C9459010C9459010C9459012C
S11300100C9459010C9459010C9459010C945901F4
S11300200C9459010C9459010C9459010C945901E4
S11300300C9459010C9459010C9459010C945901D4
S11300400C94A7010C9459010C9459010C94590176
S11300500C9459010C9459010C9459010C945901B4
S11300600C9474230C9459018024842484248424BF
S1130070842484248424842494238424842484242D
S1130080842484248424842494238424842484241D
S113009084248424842484249C2384248424842405
S11300A08424842484248424C223842484248424CF
S11300B084248424842484249C23842484248424E5
S11300C08424842484248424C823842484248424A9
S11300D08424842484248424CE2384248424842493
S11300E08424842484248424E02384248424842471
S11300F084248424842484240A2484248424842436
S11301008424842484248424D4238424842484245C
S11301108424842484248424EE2384248424842432
S113012084248424842484240D2484248424842402
S113013084248424842484240D24842484248424F2
S113014084248424842484240D24842484248424E2
S113015084248424842484240D24842484248424D2
S113016084248424842484241624842484248424B9
S11301708424842484248424472484248424842478
S11301808424842484248424162484248424842499
S11301908424842484248424472484248424842458
S11301A084248424842484242E2484248424842461
S11301B084248424842484244B2484248424842434
S11301C084248424842484244B2484248424842424
S11301D084248424842484246024842484248424FF
S11301E084248424842484247A24842484248424D5
S11301F084248424842484247A24000000080002B3
S113020001000003040700000000000000000102D8
S11302100408102040800102040810200102040890
S1130220102004040404040404040202020202026E
S113023003030303030300000000250028002B0030
S113024000000000240027002A007C3C3E5E2B3D79
S11302503F2F5B5D3B2C2A225C000E0B0F10941386
S1130260A42511241FBECFEFD8E0DEBFCDBF12E01E
S1130270A0E0B1E0E6E9F2E502C005900D92AC33EE
S1130280B107D9F725E0ACE3B2E001C01D92AE3866
S1130290B207E1F711E0C1E3D1E004C02197FE0108
S11302A00E94C827CD32D107C9F70E94F2090C94E5
S11302B049290C9400000E941D2980E090E00895D3
S11302C00895CF92DF92EF92FF920F931F93CF93F3
S11302D0DF938C01DB01C0E0D0E07A0181E0E81A11
S11302E0F108452BA1F0F80180819181FC01208166
S11302F031816D01FFEFCF1ADF0A6C91C801F9015A
S11303000995892B21F02196A701D601E6CFCE01CC
S1130310DF91CF911F910F91FF90EF90DF90CF90DD
S113032008956115710581F0FB0101900020E9F742
S11303303197AF01461B570BDC01ED91FC91028014
S1130340F381E02D0995089580E090E008951F92CF
S11303500F920FB60F9211240F931F932F933F9375
S11303604F935F936F937F938F939F93AF93BF93B9
S113037000913D0210913E0220913F0230914002D3
S113038090913C02B901A8014F5F5F4F6F4F7F4FBF
S113039083E0890F8D3740F086E8890FB901A80101
S11303A04E5F5F4F6F4F7F4F80933C0240933D02FF
S11303B050933E0260933F02709340028091410249
S11303C090914202A0914302B09144020196A11D72
S11303D0B11D8093410290934202A0934302B093D3
S11303E04402BF91AF919F918F917F916F915F91E3
S11303F04F913F912F911F910F910F900FBE0F902E
S11304001F9018952FB7F89460913D0270913E02A9
S113041080913F02909140022FBF08953FB7F89416
S11304208091410290914202A0914302B091440212
S113043026B5A89B05C02F3F19F00196A11DB11D3B
S11304403FBFBA2FA92F982F8827820F911DA11D76
S1130450B11DBC01CD01660F771F881F991F660F60
S1130460771F881F991F0895833069F028F481301D
S1130470B1F08230C1F008958730C9F08830E9F0D6
S1130480843001F506C0E0E8F0E080818F77808356
S11304900895E0E8F0E080818F7D8083089584B53D
S11304A08F7784BD089584B58F7D84BD0895E0EB76
S11304B0F0E080818F7780830895E0EBF0E0808125
S11304C08F7D80830895CF93DF9390E0FC01E25FFA
S11304D0FD4F2491FC01EE5DFD4F8491882379F159
S11304E090E0880F991FFC01E05CFD4FA591B49149
S11304F0FC01EA5CFD4FC591D49161110CC09FB71A
S1130500F8948C91E22FE0958E238C932881E2233A
S1130510E8839FBF14C0623061F49FB7F8948C9154
S1130520322F309583238C93E881E22BE8839FBF9D
S113053006C08FB7F894EC91E22BEC938FBFDF9158
S1130540CF9108951F93CF93DF93282F30E0F901C3
S1130550E650FE4F8491F901E25FFD4F1491F901D9
S1130560EE5DFD4FC491CC23D1F0D62F81110E94B2
S11305703402EC2FF0E0EE0FFF1FEA5CFD4FA59173
S1130580B4918FB7F894D11106C09C91E12FE095F6
S1130590E923EC9303C0EC91E12BEC938FBFDF9143
S11305A0CF911F910895FC011382128287E791E095
S11305B09183808364830895CF93C62FFC01648163
S11305C084E395E00E9483256C2F6860E0913405F4
S11305D0F09135050190F081E02D84E395E00995D3
S11305E084E395E00E94A025CF9108950F931F9373
S11305F0CF938C01C62F64600E94DC0285E08A954B
S1130600F1F700006C2F6B7FC8010E94DC0287ECBD
S113061090E00197F1F700C00000CF911F910F9176
S113062008951F93CF93DF93EC01162F0E94DC02F1
S1130630612FCE010E94F602DF91CF911F910895A0
S1130640FF920F931F93CF93DF938C01F42E862F89
S1130650807F90E1699FE0011124682F642BC80119
S11306600E9411036C2F6F29C8010E941103DF91AE
S1130670CF911F910F91FF90089540E061E00E9497
S113068020038FE39FE10197F1F700C00000089574
S113069040E062E00E9420038FE39FE10197F1F7BD
S11306A000C000000895CF93DF93CDB7DEB728973D
S11306B00FB6F894DEBF0FBECDBF9C0198E0EDE00D
S11306C0F1E0DE01119601900D929A95E1F7433025
S11306D008F041E0E42FF0E0EE0FFF1F81E090E02E
S11306E08C0F9D1FE80FF91F9081690F606840E02F
S11306F0C9010E94200328960FB6F894DEBF0FBEEE
S1130700CDBFDF91CF910895FC016681262F24602F
S113071026836C6040E00E942003089541E00E941B
S1130720200381E090E00895CF93DF93EC0184E30C
S113073095E00E94702588E08D832FEF80E792E09A
S1130740215080409040E1F700C0000068E0CE01F5
S11307500E94DC022FEF83ED90E321508040904013
S1130760E1F700C0000060E3CE010E9411038FE4B2
S113077096E40197F1F700C0000060E3CE010E9407
S113078011038FE496E40197F1F700C0000060E3E1
S1130790CE010E94110387E592E00197F1F700C0B2
S11307A0000060E2CE010E9411036D81606240E0AE
S11307B0CE010E94200384E08E83CE010E94840334
S11307C0CE010E943D0382E08F8340E066E0CE01CB
S11307D00E942003CE010E944803DF91CF91089527
S11307E0019741F46F3F7F4F29F467E285E492E07B
S11307F00E94D302089589B1809561F1883099F0FF
S113080038F48230D1F0843061F08130A1F407C033
S1130810803469F0803869F0803269F406C08FE56D
S11308200DC083E70BC08CE309C080E707C08EE3EB
S113083005C084E603C080E001C08AE22FEF35EAF8
S11308409EE0215030409040E1F700C000009FEF4F
S11308509BB9089580E00895CF93DF93EC0185E47C
S113086092E00E943D0340E060E085E492E00E9453
S11308705303BE0185E492E00E949101DF91CF9180
S11308800895CF93DF93EC0141E060E085E492E0CA
S11308900E945303BE0185E492E00E949101DF911E
S11308A0CF910895CF93DF931092550281E4809302
S11308B04D02C0E0D1E4CF30D9F0DB35C9F06DE4AE
S11308C072E087E692E00E94F70F882369F0EC2F2C
S11308D0F0E080914D02EA5AFD4F808380915502E9
S11308E08F5F80935502CF5FDF5FD0934D02E3CFDC
S11308F0CF3040F4EC2FF0E0EA5AFD4F8FE58083CF
S1130900CF5FF6CFDF91CF910895E0915402EF5F6E
S1130910E0935402F0E0EA5AFD4F80818F3511F4E0
S113092010925402E0915402F0E0EA5AFD4F8081A3
S113093080934D02089580915402811106C08091E4
S1130940550281508093540203C081508093540215
S1130950E0915402F0E0EA5AFD4F808180934D0209
S11309600895CF9381E480934D02C1E46DE472E075
S113097087E692E00E94F70F882321F0CF5FC093AF
S11309804D02F4CFCF9108950F931F93CF93DF932C
S1130990CDB7DEB72A970FB6F894DEBF0FBECDBF32
S11309A08C0140E150E06FE771E00E943D0B8AE06A
S11309B0E5E1F1E0DE01119601900D928A95E1F7EF
S11309C04AE050E0BE016F5F7F4FC8010E943D0BBB
S11309D019821A8280ED8B8380E38C831D821E82B0
S11309E081E08F83188688E089871A864AE050E080
S11309F0BE016F5F7F4FC8010E943D0B48E050E08D
S1130A0060E971E0C8010E943D0B2A960FB6F89484
S1130A10DEBF0FBECDBFDF91CF911F910F9108951F
S1130A208F929F92AF92BF92CF92DF92EF92FF92FA
S1130A300F931F93CF93DF9300D000D0CDB7DEB7D1
S1130A408C010E943B0C6B017C014B015C0188E032
S1130A50881A9108A108B10844E050E060E070E011
S1130A60C8010E941C0C89829A82AB82BC8244E039
S1130A7050E0BE016F5F7F4FC8010E943D0B48E20A
S1130A8050E060E070E0C8010E941C0CD701C60170
S1130A908C97A109B10989839A83AB83BC8344E011
S1130AA050E0BE016F5F7F4FC8010E943D0B0F9065
S1130AB00F900F900F90DF91CF911F910F91FF90A6
S1130AC0EF90DF90CF90BF90AF909F908F9008955C
S1130AD0EF92FF920F931F93CF93DF93CDB7DEB7BF
S1130AE0C158D1090FB6F894DEBF0FBECDBF8C013B
S1130AF0BC0187E692E00E94F70F811176C027E1DE
S1130B00A80167E672E0CE01825B9F4F0E94E00E6F
S1130B1021E04DE452E067E672E0CE01C3960E9404
S1130B20E00E4CE250E060E070E0CE01C3960E941B
S1130B301C0C82E3EFE1F1E0DE01119601900D92CD
S1130B408A95E1F7E12C10E001C0E02ECE01C396B6
S1130B500E944B0C892BF1F101E00E0DF12CCE011A
S1130B60C3960E94650BBC016F57710921E0210FE8
S1130B70E12FF0E0EE0FFF1F81E090E08C0F9D1F4E
S1130B80E80FF91F40815181649FC001659F900D5A
S1130B90749F900D11246AE070E00E94B427E9E686
S1130BA0F0E0EC0FFD1FEE0DFF1D6158608329314D
S1130BB011F0122F01C010E0093139F649E150E07B
S1130BC0BE0167597F4FCE01825B9F4F0E943D0B50
S1130BD000E0BBCFCE01825B9F4F0E947A0CCE0116
S1130BE0C3960E947A0C81E001C080E0EDE4F2E05B
S1130BF093E59083A0915402B0E0AA5ABD4F9C9112
S1130C0091839EE2928397E5938391E4948396E59E
S1130C109583CF57DF4F0FB6F894DEBF0FBECDBF1D
S1130C20DF91CF911F910F91FF90EF9008954F9214
S1130C305F926F927F928F929F92AF92BF92CF9268
S1130C40DF92EF92FF920F931F93CF93DF93CDB771
S1130C50DEB7CC5FD1090FB6F894DEBF0FBECDBFAF
S1130C6080916602882309F494C180916502811100
S1130C7090C1FE01EE50FF4F87E0DF011D928A957F
S1130C80E9F783E580838EE2828382E4838389E4C7
S1130C9084838EE48583A0915402B0E0AA5ABD4FA8
S1130CA08C918183CF010E946805882309F471C166
S1130CB086E1E1E5F1E0DE01AF52BF4F01900D9214
S1130CC08A95E1F727E14DE452E067E672E0CE0150
S1130CD08A549F4F0E94E00EC854DF4F8881998147
S1130CE0C85BD0409F8F8E8FC654DF4F8881998117
S1130CF0AA81BB81CA5BD04088A399A3AAA3BBA342
S1130D00C254DF4F88819981AA81BB81CE5BD040D8
S1130D108CA39DA3AEA3BFA38DE092E09D8F8C8F87
S1130D208DE0E6EBF0E0EC0FFD1F3C96DE019896BB
S1130D3001900D928A95E1F7C153DF4F8881998123
S1130D40CF5CD0409EAB8DABCE014C960E94C404C8
S1130D5021E0AE014E505F4F67E672E0CE0185564A
S1130D609F4F0E94E00ECE0185569F4F0E943B0C80
S1130D702B013C014BE050E0BE0169517F4FCE0195
S1130D8085569F4F0E94110C44E650E0BE01695CF9
S1130D907F4FCE0185569F4F0E94110CE12C4114C8
S1130DA051046104710409F4AEC0B4E6EB120BC043
S1130DB044E650E0BE01695C7F4FCE0185569F4FEB
S1130DC00E94110CE12CF12C0F2E812C912CFEEFA2
S1130DD0AF2EF2E4BF2EF02DE9E0EF1508F456C073
S1130DE00F2D10E00F2EF7EECF2ED12CF02DCC0EC0
S1130DF0DD1EC00ED11ED6016C9170E080E090E043
S1130E000E94B92620E030E04EEF52E40E94AB2568
S1130E10C750DF4F688379838A839B83C95FD0403F
S1130E20F801EE0FFF1F81ED90E08C0F9D1FE80F7E
S1130E30F91F60817181072E000C880B990B0E94A9
S1130E40BB26C750DF4F288139814A815B81C95F46
S1130E50D0400E94472720E030E04AE754E40E9453
S1130E6018269B01AC01C501B4010E94AC254B01BD
S1130E705C010F5F1F4FE7EEF0E0EC0FFD1FE00F8A
S1130E80F11F8081D6018C93F394A6CFCF50DF4F0E
S1130E906881C15FD04070E080E090E00E94B92694
S1130EA020E030E04EEF52E40E94AB2520E030E039
S1130EB0A9010E94472720E030E04AE754E40E9459
S1130EC018269B01AC01C501B4010E94AC2511E0B8
S1130ED01E0DE7E3F0E0EC0FFD1FEE0DF11D208188
S1130EE0CF50DF4F2883C15FD0400E948A26CE01B5
S1130EF08A549F4F0E94150BB1E04B1A51086108A8
S1130F007108E12E4CCFC854DF4F88819981C85BAA
S1130F10D0409C838B83C654DF4F88819981AA81FA
S1130F20BB81CA5BD0408D839E83AF83B887C25494
S1130F30DF4F88819981AA81BB81CE5BD0408987AC
S1130F409A87AB87BC878DE092E09A8389838DE092
S1130F50E6EBF0E0EC0FFD1F3C96DE011D960190E0
S1130F600D928A95E1F7C153DF4F88819981CF5C57
S1130F70D0409B8F8A8FCE0101960E941005CE012E
S1130F808A549F4F0E947A0CCE0185569F4F0E942F
S1130F907A0CC450DF4F0FB6F894DEBF0FBECDBF3E
S1130FA0DF91CF911F910F91FF90EF90DF90CF9041
S1130FB0BF90AF909F908F907F906F905F904F9075
S1130FC00895ECE7F0E09081892B8083EAE7F0E074
S1130FD080818064808380917A0086FDFCCFECE779
S1130FE0F0E08081807F80838091790008951F9351
S1130FF0CF93DF93CDB7DEB7C155D1090FB6F894BF
S1131000DEBF0FBECDBF0E94B10427E14DE452E024
S113101067E672E0CE01C7960E94E00ECE01C79645
S11310200E948D0C81110EC089E991E00E942C046C
S11310302FEF83ED90E3215080409040E1F700C012
S1131040000080C08FE991E00E942C0489AD9AAD24
S11310509F8F8E8F8BAD9CADADADBEAD88A399A394
S1131060AAA3BBA323968CAD9DADAEADBFAD239714
S11310708CA39DA3AEA3BFA38DE092E09D8F8C8F24
S11310808DE0FE01ED5BFF4FDE01989601900D921D
S11310908A95E1F762968EAD9FAD62979EAB8DAB5C
S11310A0CE014C960E94C40480E090E00E94E107C7
S11310B0182F0E94FB03833751F0612FCE01C7968E
S11310C00E94150B25E52A95F1F70000EDCF89ADB7
S11310D09AAD9C838B838BAD9CADADADBEAD8D8342
S11310E09E83AF83B88723968CAD9DADAEADBFAD67
S11310F0239789879A87AB87BC878DE092E09A8390
S113110089838DE0FE01ED5BFF4FDE011D960190AA
S11311100D928A95E1F762968EAD9FAD62979B8F93
S11311208A8FCE0101960E94100589EA91E00E94FF
S11311302C048FEF93ED20E3815090402040E1F7A1
S113114000C00000CE01C7960E947A0CCF5ADF4F30
S11311500FB6F894DEBF0FBECDBFDF91CF911F91C4
S11311600895CF9383E090E00E94E107C82F81E0C7
S113117090E00E94E107CA3520F491E090930601C3
S113118009C0C43B20F492E09093060103C093E0AD
S113119090930601811105C01092660210926502B7
S11311A01DC0803430F481E08093660210926502A1
S11311B015C0882334F01092660281E080936502A2
S11311C00DC0803C30F41092660282E08093650288
S11311D005C01092660283E080936502CF91089562
S11311E01F93CF93DF93CDB7DEB76B970FB6F89409
S11311F0DEBF0FBECDBF0E94B10880916602882376
S113120031F08FEA91E00E9441040E94170621E028
S11312104DE452E067E672E0CE0101960E94E00ED2
S1131220CE0101960E948D0C81110EC089E991E0D6
S11312300E9441042FEF83ED90E3215080409040C1
S1131240E1F700C0000089C04CE250E060E070E0CB
S1131250CE0101960E941C0C8AEB91E00E942C04A2
S11312608DE492E00E944104809106018230C8F42A
S1131270CE0101960E944B0C892BE1F1CE0101961F
S11312800E94650B909389008093880025ED2A9530
S1131290F1F700000E94FB03803751F72BC011E0E7
S11312A001C011E0CE0101960E944B0C892B11F173
S11312B00E94FB038037F1F0113069F4CE010196EE
S11312C00E94650B909389008093880085ED8A9530
S11312D0F1F7000004C0CE0101960E94650B1F5F68
S11312E0212F30E08091060190E0019628173907FC
S11312F0C9F6D5CF109289001092880082EC91E053
S11313000E944104CE0101960E947A0C80916602EB
S1131310811104C0809165028823B1F0E0915402E8
S1131320F0E0EA5AFD4F8081EDE4F2E080838EE242
S1131330818387E5828381E4838386E584831582C0
S113134010926602109265029FEF23ED80E39150A4
S113135020408040E1F700C000006B960FB6F8947F
S1131360DEBF0FBECDBFDF91CF911F91089578945A
S113137084B5826084BD84B5816084BD85B5826096
S113138085BD85B5816085BDEEE6F0E08081816034
S11313908083E1E8F0E01082808181608083A0E8AE
S11313A0B0E08C9181608C938C9180688C93808167
S11313B088608083E1EBF0E0808184608083E0EBEF
S11313C0F0E0808181608083EAE7F0E080818460DE
S11313D0808380818068808380E680937C00109283
S11313E0C10008950E94B709EDE4F2E08EE2818322
S11313F087E5828381E4838386E584831AB88FEF4B
S11314008BB987B1847F87B984B1826084B9109223
S113141089001092880085E492E00E9494036AE0B7
S113142087E692E00E94BA0D811105C089E991E036
S11314300E942C04FFCF0E9452042FEF83ED90E30F
S1131440215080409040E1F700C0000080910801E5
S1131450833759F4809107018A3639F40E94F707DB
S11314600E94520489E68093080180910801803724
S1131470C1F5809107018A36A1F58BE680930701B7
S113148089E68093080180915502811111C08AE692
S1131490809307018EEC91E00E942C042FEF83EDE2
S11314A090E3215080409040E1F700C0000019C053
S11314B088ED91E00E942C042FEF83ED90E32150FE
S11314C080409040E1F700C00000E0915402F0E059
S11314D0EA5AFD4F808180934D028DE492E00E9490
S11314E04104809107018B3609F083C00E94FB03FD
S11314F08823E1F380930801803739F40E94F008CF
S113150088ED91E00E942C046DC08E3319F40E9482
S1131510850468C08C3319F40E949B0463C083372C
S113152039F48AE68093070189E6809308015AC05A
S1131530843609F057C086EE91E00E942C040E9484
S1131540FB038436F9F46DE472E087E692E00E94CE
S1131550031082EF91E00E942C040E9452048091B7
S1131560540290915502891303C081508093540210
S11315702FEF83ED90E3215080409040E1F700C0CD
S113158000000FC08037D9F68EEE91E00E942C0443
S11315902FEF83ED90E3215080409040E1F700C0AD
S11315A0000080915502811111C08EEC91E00E94DF
S11315B02C042FEF83ED90E3215080409040E1F71D
S11315C000C000008AE6809307010CC088ED91E01A
S11315D00E942C04E0915402F0E0EA5AFD4F80810D
S11315E080934D028DE492E00E94410489E6809349
S11315F0080180910801893609F028CF80910701FC
S11316008A3609F023CF8AEF91E00E942C040E94CD
S1131610FB038823E1F38093080118CF6FEF7FEF7A
S113162081E090E00E94F0030895CF93DF931F922E
S1131630CDB7DEB76983DC01ED91FC910280F381C3
S1131640E02D41E050E0BE016F5F7F4F09950F90A0
S1131650DF91CF910895DC0159968D919C915A9711
S1131660009741F0DC01ED91FC910480F581E02DBF
S11316700995089580E090E00895CF93DF93DC010D
S11316805996ED91FC915A97309749F421E030E056
S113169013963C932E93129780E090E013C0EC01D4
S11316A013821282898D9A8D0E946A1AE98DFA8DAD
S11316B022813381232B31F081E090E09B838A8364
S11316C080E090E0DF91CF910895CF93DF931F9254
S11316D0CDB7DEB7FC01818D928D009779F041E0A2
S11316E050E0BE016F5F7F4F0E94F314019719F41D
S11316F0898190E005C08FEF9FEF02C08FEF9FEFCD
S11317000F90DF91CF910895EF92FF920F931F9363
S1131710CF93DF931F92CDB7DEB7FC01818D928DFD
S1131720009719F18F0141E050E0BE016F5F7F4FD8
S11317300E94F314019719F4E980F12C03C0EE24FC
S1131740EA94FE2C8FEFE816F80689F0F801818DF3
S1131750928DFC01428553856485758541505109FC
S1131760610971090E948D1602C0E12CF12CC70198
S11317700F90DF91CF911F910F91FF90EF900895FB
S1131780FC01818D928D009719F061E00E942E1763
S11317900895EF92FF920F931F93CF93DF93EC0181
S11317A07B018A011B821A8288EE93E0A0E0B0E0FC
S11317B08C839D83AE83BF838DE092E0998388837D
S11317C08DE190E00E94FC279A8F898F009779F031
S11317D02DE1F701DC0101900D922A95E1F74CE02F
S11317E050E0B801CE010C960E943A29188EDF9180
S11317F0CF911F910F91FF90EF900895FC011382F8
S1131800128288EE93E0A0E0B0E084839583A683FF
S1131810B7838DE092E091838083128E118E1486BB
S11318200895FC01818D928D009719F00E94F314A4
S1131830089580E090E00895FC01818D928D0097D9
S113184039F00E948D1691E0811103C090E001C02F
S113185090E0892F0895DC015996ED91FC915A97F7
S1131860309729F0628573858485958508956FEF97
S11318707FEFCB010895DC015996ED91FC915A97C5
S1131880309729F06389748985899689089560E081
S113189070E0CB010895CF92DF92EF92FF92CF9345
S11318A0DF93FC01218D328D232BD9F0EC010E94B2
S11318B03B0C6B017C01CE010E942B0CA70196010D
S11318C0261B370B480B590BDA01C901811530E887
S11318D09307A105B10538F08FEF9FE7A0E0B0E0D2
S11318E002C080E090E0DF91CF91FF90EF90DF9015
S11318F0CF900895CF93DF93FC01818D928D009753
S113190049F0EF010E948117898D9A8D0E949428D5
S11319101A8E198EDF91CF910895DC015996ED91BD
S1131920FC915A97309731F0958181E0911103C071
S113193080E0089580E008950197C9F46F3F7F4FD8
S1131940B1F4E7E6F2E0158216821186138682E08E
S113195090E0A0E0B0E084879587A687B78713A2BC
S113196015A614A681E292E093A782A717A608956C
S11319701F93CF93DF93CDB7DEB76D970FB6F8946F
S1131980DEBF0FBECDBFAB011C821B8221E232E061
S11319903A8329831E8221E0BC01CE0101960E9474
S11319A0321911E0811101C010E0882321F0CE0129
S11319B001960E948117812F6D960FB6F894DEBFB1
S11319C00FBECDBFDF91CF911F910895442339F00D
S11319D00E94431A91E0811103C090E001C091E09C
S11319E0892F0895CF93DF93EC01DB01ED91FC91F6
S11319F0DC01AE0FBF1F8C918F3209F4319620E0C9
S1131A0030E02C30310584F4DE01AE0FBF1F9C9111
S1131A109F3251F0992341F0DA01A20FB31F31969E
S1131A209C932F5F3F4FEDCFDA01A20FB31F1C929F
S1131A30DE01AE0FBF1F8C918F3209F43196DB01AA
S1131A40ED93FC93EC0FFD1F908181E0911101C097
S1131A5080E0DF91CF9108955F926F927F928F9291
S1131A609F92AF92BF92CF92DF92EF92FF920F9329
S1131A701F93CF93DF93CDB7DEB7C954D1090FB607
S1131A80F894DEBF0FBECDBF4C016B013A01590182
S1131A901C821B8281E292E09A8389831E8219A2AE
S1131AA018A29F8F8E8F1BA22A961FAE1EAE2A9756
S1131AB08B01CE0101967C01AE01455C5F4FBE01F6
S1131AC0685B7F4FC4010E94F20C582E41E0482706
S1131AD09501BE01655C7F4FC801F3010995811131
S1131AE008C00C151D0551F1C8010E94811780E042
S1131AF02AC05520D9F021E0AE01455C5F4FB80102
S1131B00C7010E943219582E0C151D0519F0C80181
S1131B100E9481175520A1F00C151D0511F0C80174
S1131B2002C0CE014E9687017C01C6CF0C151D055F
S1131B3049F0C8010E94811781E005C080E003C01C
S1131B4080E001C081E0C75BDF4F0FB6F894DEBFD1
S1131B500FBECDBFDF91CF911F910F91FF90EF90FA
S1131B60DF90CF90BF90AF909F908F907F906F90B9
S1131B705F9008950F931F93CF93DF93EC01162F7B
S1131B808FA5882321F0CE018A960E948117412FC8
S1131B9061E0CE010E9443118823E1F08E01045FCD
S1131BA01F4F41E0BE01C8010E940C20811106C0F4
S1131BB040E0BE01C8010E940C2001C081E08823DE
S1131BC059F0B801CE018A960E949614882331F008
S1131BD081E005C080E003C080E001C080E0DF91C7
S1131BE0CF911F910F9108954F925F926F927F92C0
S1131BF08F929F92AF92BF92CF92DF92EF92FF9219
S1131C000F931F93CF93DF93CDB7DEB7C754D1099A
S1131C100FB6F894DEBF0FBECDBF4C013A012901C7
S1131C201C821B8281E292E09A8389831E8219A21C
S1131C3018A29F8F8E8F1BA2645F7F4FCE010196E7
S1131C400E94961473016E018EE1C80ED11CFE0130
S1131C5031965F016FE270E0C7010E942F2900975F
S1131C60F1F1F70120812F3221F4FFEFEF1AFF0A7F
S1131C70F1CF0097A1F18E198D3008F08CE0082F78
S1131C8010E0A801B701CE01CB960E943A29EBE3FC
S1131C90F0E0EC0FFD1FE00FF11F1082C6010E945F
S1131CA0811721E0AE01455C5F4FB501C6010E947A
S1131CB03219811109C0F4011382128281E292E087
S1131CC091838083158263C0E00EF11EC5010E94DA
S1131CD081179A2D8B2D5601C92ED82EBBCFE6180D
S1131CE0F708F201F182E0828BE691E0F40191833E
S1131CF08083F50182819381F4019383828381E25D
S1131D0092E091838083F5018481F4018483F50159
S1131D108581F4018583F50186819781A085B1854C
S1131D20F40186839783A087B187F5018285938523
S1131D30A485B585F40182879387A487B587F501C7
S1131D4086859785A089B189F40186879787A08BBA
S1131D50B18BF5018289F401828BF5018389948921
S1131D60A589B689F401838B948BA58BB68BF50179
S1131D708789908DA18DB28DF401878B908FA18F6F
S1131D80B28FF501838D948DF401948F838FC401F8
S1131D90C95BDF4F0FB6F894DEBF0FBECDBFDF9136
S1131DA0CF911F910F91FF90EF90DF90CF90BF9054
S1131DB0AF909F908F907F906F905F904F90089519
S1131DC0DF92EF92FF920F931F93CF93DF93CDB7E0
S1131DD0DEB7C657D1090FB6F894DEBF0FBECDBF2C
S1131DE07C018A01D22E9E01255C3F4FCE01CD9607
S1131DF00E94F40D8BAD9CAD080F191FF801808172
S1131E00811157C021968EAD9FAD219799A388A3C8
S1131E1081E292E09F8F8E8F22968FAD22978AA3C4
S1131E2023968FAD23978BA327968CAD9DADAEAD36
S1131E30BFAD27978CA39DA3AEA3BFA32B968CAD58
S1131E409DADAEADBFAD2B9788A799A7AAA7BBA799
S1131E502F968CAD9DADAEADBFAD2F978CA79DA732
S1131E60AEA7BFA760968FAD609788AB64968CAD24
S1131E709DADAEADBFAD649789AB9AABABABBCAB1C
S1131E8068968CAD9DADAEADBFAD68978DAB9EAB86
S1131E90AFABB8AF6A968EAD9FAD6A979AAF89AF74
S1131EA04BE152E0BE01625E7F4FC7010E94C90B45
S1131EB08EC06E961FAE1EAE6E9781E292E06C9657
S1131EC09FAF8EAF6C97A0961FAEA09723968FAD51
S1131ED02397811104C0C7010E94FE0B78C02D2DE9
S1131EE0A801BE01635C7F4FCE01865A9F4F0E94BA
S1131EF03219811104C0C7010E94FE0B68C0CE01D3
S1131F00CD960E9481178D2D8670863059F4E19606
S1131F104CAD5DAD6EAD7FADE197CE01865A9F4F5E
S1131F200E948D166E968EAD9FAD6E979C838B83AB
S1131F3081E292E09A8389836F968FAD6F978D8348
S1131F40A0968FADA0978E83A4968CAD9DADAEADBB
S1131F50BFADA4978F839887A987BA87A8968CADBD
S1131F609DADAEADBFADA8978B879C87AD87BE876F
S1131F70AC968CAD9DADAEADBFADAC978F87988B55
S1131F80A98BBA8BAD968FADAD978B8BE1968CAD4B
S1131F909DADAEADBFADE1978C8B9D8BAE8BBF8BF2
S1131FA0E5968CAD9DADAEADBFADE597888F998FAD
S1131FB0AA8FBB8FE7968EAD9FADE7979D8F8C8FD1
S1131FC0A801BE016F5F7F4FC7010E94C90BC70103
S1131FD0CA58DF4F0FB6F894DEBF0FBECDBFDF91F6
S1131FE0CF911F910F91FF90EF90DF900895FB0127
S1131FF0BC01665D7F4F20E030E048EB5CE0CF0140
S11320000E942C0D0895FB01BC01665D7F4F20E00A
S113201030E046EE5CE0CF010E942C0D08956FEF96
S11320207FEF81E090E00E949C0C08958EBD00003B
S11320300DB407FEFDCF8EB508958FEF8EBD000061
S11320400DB407FEFDCF8EB50895019741F46F3F9F
S11320507F4F29F4E1EBF2E080E58083118208955B
S113206061E0FC0184810E94A2028091B002882375
S1132070A1F01092B0028091BE04882371F09FB742
S1132080F8948091BE04813029F48091BC048DBB06
S11320909FBF08958091BC048FBF08952091B00222
S11320A0211120C021E02093B0023091B10220918F
S11320B0B2024091BE04442399F04FB7F894509172
S11320C0BE04513059F45DB35093BC046DB35091C8
S11320D0BD04509556235DBB4FBF02C04093BC0462
S11320E03CBD2DBD60E0FC0184810E94A2020895E4
S11320F0CF93DF93EC018E81882389F08F819885BB
S11321009C012F5F3F4F38872F838230924018F411
S11321100E941D10F3CFCE010E9430101E82DF9169
S1132120CF910895673028F026E1FC01258380E0F3
S113213008956230D1F028F4662349F0613071F0DB
S113214030C0643001F1C0F0653021F12AC080E56F
S11321508093B10281E08093B202089580E5809378
S1132160B1021092B20281E0089581E58093B10238
S113217081E08093B202089581E58093B1021092C8
S1132180B20281E0089582E58093B10281E08093F8
S1132190B202089582E58093B1021092B20281E006
S11321A0089583E58093B1021092B20281E008950C
S11321B00F931F93CF93DF93EB010E9402028B01D5
S11321C00E941D108F3F49F00E940202601B710B98
S11321D06C177D07A8F380E001C081E0DF91CF9107
S11321E01F910F910895CF92DF92EF92FF920F9378
S11321F01F93CF93DF938C01D62F69017A010E943C
S11322007810C8010E944E106CE271E0C8010E946F
S1132210D8108D2F80640E941610C8E1CC2374F06E
S1132220D701C6010C2E04C0B695A795979587953E
S11322300A94D2F70E941610C850F0CFDD2311F093
S11322408FEF01C085E9D83009F487E80E941610A1
S1132250C0E00E941D10F8018287882324F4CF3F38
S113226021F490E003C090E001C091E0992311F0C3
S1132270CF5FEFCFDF91CF911F910F91FF90EF9040
S1132280DF90CF9008958F929F92AF92BF92EF927A
S1132290FF920F931F93CF93DF93EC01E62E1B86DF
S11322A019861E821D824C830E9402028B0161E00A
S11322B08C810E94630261E08C810E94A2020E94D0
S11322C06D2182E58093B1021092B2028091BE0426
S11322D0882399F08FB7F8949091BE04913059F403
S11322E09DB39093BC042DB39091BD04909592231B
S11322F09DBB8FBF02C08093BC0482E58CBD1DBC16
S1132300F12C89E08F1528F08FEF0E941610F394BA
S1132310F8CF8091BE04882371F09FB7F894809120
S1132320BE04813029F48091BC048DBB9FBF03C0DF
S11323308091BC048FBFCE010E944E1020E030E09B
S1132340A90160E0CE010E94F3108A87813051F028
S11323500E940202601B710B613D774078F381E0BB
S11323608D8369C02AEA31E040E050E068E0CE01A4
S11323700E94F31082FF03C081E08B8711C0F12C0F
S113238083E08F1528F00E941D108A87F394F8CFFC
S11323908A858A3A19F082E08D834DC082E08B876A
S11323A08B85823031F4812C912C54016894B6F8D9
S11323B003C0812C912C540120E030E0A90167E393
S11323C0CE010E94F310A501940169E2CE010E949E
S11323D0F3108A87882351F00E940202601B710B5C
S11323E0613D774048F388E08D8325C08B8582303A
S11323F0D1F420E030E0A9016AE3CE010E94F31099
S1132400882319F086E08D8316C00E941D10807CFD
S1132410803C11F483E08B8710E0133020F40E9499
S11324201D101F5FFACFCE010E9430106E2DCE0119
S11324300E94921004C0CE010E94301080E0DF910F
S1132440CF911F910F91FF90EF90BF90AF909F900D
S11324508F9008950F931F93CF93DF93EC010E9405
S113246002028B010E941D108A878F3F51F40E9443
S11324700202601B710B6D327140A0F38FE08D83FB
S113248004C08E3F39F08DE08D83CE010E94301060
S113249080E001C081E0DF91CF911F910F910895F9
S11324A0AF92BF92CF92DF92EF92FF920F931F935E
S11324B0CF93DF93EC0169010115110509F46FC095
S11324C0C801820F931F8130924008F063C08E814F
S11324D0882371F088819981AA81BB81841795072B
S11324E0A607B70729F48F819885C816D90620F561
S11324F0488359836A837B838B85833049F0032E19
S113250039E0440F551F661F771F3A95D1F7302DD8
S11325109A01AB0161E1CE010E94F310882319F006
S113252083E08D8337C0CE010E942A12882391F163
S113253018861F8281E08E838F8198858C159D0576
S113254040F40E941D108F819885019698878F838F
S1132550F3CFC12CD12CC016D10658F45701AC0CC2
S1132560BD1C0E941D10F5018083FFEFCF1ADF0A06
S1132570F2CF8F819885080F191F18870F838985DB
S1132580882319F00115124060F0CE010E947810E2
S113259081E008C0CE010E94301080E003C081E0D9
S11325A001C081E0DF91CF911F910F91FF90EF90D7
S11325B0DF90CF90BF90AF900895EF92FF920F936A
S11325C01F93790100E012E020E030E00E945012F5
S11325D01F910F91FF90EF900895EF92FF920F9348
S11325E01F93CF93DF937C01862F8A010E941610DC
S11325F0C0E0D0E0C11582E0D80740F4F801EC0F48
S1132600FD1F80810E9416102196F4CF8FEF0E9447
S113261016108FEF0E9416100E941D10F70182877A
S11326208F71853039F081E18583C7010E943010B4
S113263080E001C081E0DF91CF911F910F91FF9065
S1132640EF900895EF92FF920F93CF93DF93EC01F5
S11326507901411551056105710519F482E18D83F4
S113266045C08B85833049F0032E39E0440F551F54
S1132670661F771F3A95D1F7302D9A01AB0168E1B7
S1132680CE010E94F310882319F084E08D832EC0BC
S1132690A7016EEFCE010E94ED12882339F10023C9
S11326A001F168E572E0CE010E94D810811103C0E7
S11326B085E18D831BC020E030E0A9016DE0CE01EF
S11326C00E94F310811105C00E941D10811103C0E6
S11326D003C081E001C081E0882319F084E18D8387
S11326E005C0CE010E94301081E004C0CE010E94DA
S11326F0301080E0DF91CF910F91FF90EF9008951B
S11327001F93CF93DF93EC010E944E100E941D1083
S1132710182FCE010E94301081E01F3F09F480E0A1
S1132720DF91CF911F9108956FEF7FEF81E090E0EB
S11327300E9425100895CF93DF93EC019C012A5F3A
S11327403F4F41E050E060E070E08B8D9C8D0E9433
S1132750A21E8823B9F08F89988DA98DBA8D892BF3
S11327608A2B8B2B59F48E819F81A885B9858F8BF9
S1132770988FA98FBA8F8C8180688C838C818062BA
S11327808C8381E0DF91CF910895CF92DF92EF9215
S1132790FF920F931F93CF938C010E949B13882366
S11327A009F454C0D8011696CD90DD90ED90FC90BC
S11327B019975B96ED91FC915C9786859785A08926
S11327C0B18922E0C21AD108E108F108058404C0E5
S11327D0CC0CDD1CEE1CFF1C0A94D2F7C80ED91ECB
S11327E0EA1EFB1EC481CC2391F0D701C6018C0FD5
S11327F0911DA11DB11DBC01CD016150710981095B
S113280091090E94C41C882309F1C150ECCFD8015E
S11328105B96ED91FC915C9780E092E0A0E0B0E0E3
S1132820058404C0880F991FAA1FBB1F0A94D2F7FE
S1132830F8014389548965897689840F951FA61FF9
S1132840B71F838B948BA58BB68B81E0CF911F919F
S11328500F91FF90EF90DF90CF900895CF93DF9387
S1132860EC01462F6E857F85888999890E948A1C90
S1132870882341F08A8920E2829FC0011124845474
S11328809D4F02C080E090E0DF91CF910895CF93F7
S1132890DF93DC0190E09B3048F4FB01E90FF11D6C
S11328A020E220839F5FF7CFDE0102C040E057E0C3
S11328B0ED0121969C91992331F19E3229F45A30ED
S11328C049F148E05AE0F0CFEAE4F2E09F012F5FDB
S11328D03F4F8491882321F0F9019813F7CF1CC04E
S11328E05417E0F09132E0F09F37E0F481E0840F78
S11328F0FB01E40FF11D2FE9290F2A3108F490524E
S11329009083482FD1CFFB01908181E0903259F41C
S113291080E009C080E007C080E005C080E003C01B
S113292080E001C080E0DF91CF9108950F931F9361
S1132930CF93DF93EC018D8181114FC08B01FB019B
S11329409789903119F582E08D831F8A188E198E2C
S11329501A8E808D918DA0E0B0E0880F991FAA1F78
S1132960BB1F880F991FAA1FBB1F880F991FAA1F7F
S1132970BB1F880F991FAA1FBB1F880F991FAA1F6F
S1132980BB1F8B8B9C8BAD8BBE8B15C0903231F5EE
S113299083E08D83FB01428D538D648D758D4F8B48
S11329A0588F698F7A8F9E012D5E3F4FC8010E9418
S11329B0791D882399F01C8F0B8F81E08C831E82F4
S11329C01F82188619861A861B861C861D861E86FB
S11329D01F86188A198A1A8A01C080E0DF91CF9174
S11329E01F910F9108953F924F925F926F927F9241
S11329F08F929F92AF92BF92CF92DF92EF92FF920B
S1132A000F931F93CF93DF9300D000D0CDB7DEB7E1
S1132A104C016B015A834983FC018581882331F081
S1132A20848180FD06C03324339404C0332433945A
S1132A3001C0312C311005C109811A81C801A0E0FF
S1132A40B0E0F401038914892589368942855385C8
S1132A506485758528013901441A550A660A770A7E
S1132A60481659066A067B0628F4C801841B950B90
S1132A709A83898369807A806114710409F4DEC0C1
S1132A80F40182859385A485B5852C01F1E05F224C
S1132A90F40125812230C9F4238D348DF901428D4E
S1132AA0538D648D758D072E79E0B695A79597950E
S1132AB087957A95D1F7702D8A019B01080F191F0C
S1132AC02A1F3B1FC901B80154C0F401038D148DA2
S1132AD0F801B480BA94AC01BD01032E39E07695B7
S1132AE06795579547953A95D1F7302DB4224114FF
S1132AF05104F1F4B1101CC0892B8A2B8B2B51F497
S1132B00F4018789908DA18DB28D86839783A087E8
S1132B10B1870EC0F40146815781608571859401A7
S1132B202A5F3F4FC8010E94EE1C882309F48CC021
S1132B30F40186819781A085B185238D348DF901B7
S1132B4046855785608971890297A109B109058471
S1132B5004C0880F991FAA1FBB1F0A94D2F7840FC1
S1132B60951FA61FB71FBC01CD016B0D711D811DE3
S1132B70911D20E032E05901A418B508A614B70449
S1132B8008F05301F401248126FD04C0A114F2E0ED
S1132B90BF0679F40091090110910A0120910B01FB
S1132BA030910C01601771078207930721F4232DDC
S1132BB003C0232D01C021E0222381F07601850189
S1132BC09201AB01BC018091BA029091BB020E94B8
S1132BD050128823E1F1CA0CDB1C20C040E00E94A3
S1132BE08A1C8823B9F1820104541D4F1C830B8372
S1132BF098012A0D3B1D4B815C814217530771F0EC
S1132C00FA018081F60180838A010F5F1F4F1C83C4
S1132C100B83A6014F5F5F4F6A01EDCFF4018285FC
S1132C209385A485B5858A0D9B1DA11DB11D828741
S1132C309387A487B5876A187B081ECF89819A81F8
S1132C400BC08FEF9FEF08C08FEF9FEF05C08FEF92
S1132C509FEF02C08FEF9FEF0F900F900F900F9098
S1132C60DF91CF911F910F91FF90EF90DF90CF9064
S1132C70BF90AF909F908F907F906F905F904F9098
S1132C803F900895FF920F931F93CF93DF931F926A
S1132C90CDB7DEB7FC012581223098F18C01428545
S1132CA0538564857585689414F87695679557956A
S1132CB047951694D1F7F42FFF70FF2E41E050E0B2
S1132CC0BE016F5F7F4F0E94F314019719F489814D
S1132CD090E002C08FEF9FEF9923B4F0F801828552
S1132CE09385A485B5854F96A11DB11D82879387D1
S1132CF0A487B587F0E2FF9EC001112484549D4F40
S1132D0005C080E090E002C080E090E00F90DF9189
S1132D10CF911F910F91FF9008958F929F92AF9240
S1132D20BF92CF92DF92EF92FF920F931F93CF93B4
S1132D30DF93EC018D81882359F00B891C892D893F
S1132D403E89041715072607370720F491E003C0CE
S1132D5091E001C090E0911173C0823031F44A8750
S1132D605B876C877D8781E06CC0411551056105E7
S1132D70710551F41E821F82188619861A861B86D5
S1132D801C861D8681E05DC04A015B010A851B85A6
S1132D902C853D856801790181E0C81AD108E108D4
S1132DA0F108EB8DFC8D858590E00996082E04C012
S1132DB0F694E794D794C7940A94D2F741505109F2
S1132DC06109710904C076956795579547958A9569
S1132DD0D2F74C155D056E057F0520F0012B022B03
S1132DE0032B49F48F89988DA98DBA8D8E839F8387
S1132DF0A887B98704C04C195D096E097F096A0167
S1132E007B0181E0C81AD108E108F108452B462B63
S1132E10472B81F04E815F81688579859E012A5F09
S1132E203F4F8B8D9C8D0E94EE1CB701A601811132
S1132E30E6CF07C08A869B86AC86BD8681E001C04A
S1132E4080E0DF91CF911F910F91FF90EF90DF9081
S1132E50CF90BF90AF909F908F900895FF920F9363
S1132E601F93CF93DF93FC018581882309F443C02A
S1132E70F62EEF0184818823A4F561E0CF010E943E
S1132E802E148C01892BB1F18D81823048F48B8909
S1132E909C89AD89BE89F801848F958FA68FB78FE1
S1132EA08F89988DA98DBA8DF801938F828F8F8920
S1132EB0988DA98DBA8DB58BA48BE091B302F09156
S1132EC0B402309759F0B8016A5E7F4FC801489642
S1132ED00995F801808D918D938B828B8C818F77EE
S1132EE08C83F11003C08C818F7E8C838F2D0E9484
S1132EF05F1C01C080E0DF91CF911F910F91FF9083
S1132F000895CF93DF93EC0161E00E942E1788238C
S1132F1011F01D8281E0DF91CF910895CF93DF936B
S1132F20FC012581213029F4248121FD04C021E004
S1132F3003C021E001C020E021114AC0EC018C81D2
S1132F4082FF12C08A859B85AC85BD854B895C89CF
S1132F506D897E8984179507A607B70729F0CE01E6
S1132F600E948D168823B9F18091BA029091BB0218
S1132F700E948013811132C08C8185FF0AC060E0F9
S1132F80CE010E942E178C818F7D8C8380E090E08F
S1132F9027C04091B5025091B6026091B70270917A
S1132FA0B802452B462B472B31F080E00E94391C98
S1132FB080E090E015C080618C838A859B85AC8518
S1132FC0BD859C01317080E092E0821B930B08C0A8
S1132FD080E090E005C080E090E002C080E090E0F6
S1132FE0DF91CF9108954F925F926F927F928F926B
S1132FF09F92AF92BF92EF92FF920F931F93CF9342
S1133000DF9300D000D0CDB7DEB7FC0185818130DD
S113301029F4848181FD04C081E003C081E001C002
S113302080E0811199C083899489A589B689841720
S11330309507A607B70708F491C0892B8A2B8B2B19
S113304009F48EC082849384A484B58448155905F8
S11330506A057B0510F44A015B012A013B017F01EB
S1133060CF010E948D16882309F47BC041145104BA
S113307061047104B1F4D70157964D915D916D913E
S11330807C915A975B968D919C915C970E94B61F98
S1133090882309F466C0F701178A108E118E128EE8
S11330A042C0D70116964D915D916D917C9119970F
S11330B09E012F5F3F4F5B968D919C915C970E9480
S11330C0EE1C882371F149815A816B817C81D7017F
S11330D05B96ED91FC915C978789803129F488EFA8
S11330E09FEFA0E0B0E004C088EF9FEFAFEFBFE038
S11330F0481759076A077B07B0F4CF010E94B61F2F
S1133100882379F0F70146815781608571850FEF37
S11331101FEF2FEF3FE0838D948D0E94D71D811107
S113312002C080E01EC0D70153964D925D926D920D
S11331307C92569714968C911497806814968C936D
S113314061E0C7010E942E17882359F0B501A4013C
S1133150C7010E948D1605C080E003C080E001C055
S113316081E00F900F900F900F90DF91CF911F91FE
S11331700F91FF90EF90BF90AF909F908F907F90B2
S11331806F905F904F9008951F93CF93DF93EC015E
S113319080E2689FF0011124E454FD4F93859171FE
S11331A021F0842F827409F054C0142F6A8B80910B
S11331B0090190910A01A0910B01B0910C018E8735
S11331C09F87A88BB98B84899589A0E0B0E0DC0146
S11331D0992788278F8B988FA98FBA8F428D538D0B
S11331E060E070E0482B592B6A2B7B2B4F8B588F58
S11331F0698F7A8F2385287159F4848D958DA68DD6
S1133200B78D8B8B9C8BAD8BBE8B81E08D830DC07A
S1133210203109F59E012D5E3F4F8B8D9C8D0E94C0
S1133220791D8823D9F084E08D83812F8F708C835E
S11332301E821F82188619861A861B861C861D8686
S113324016FF0BC040E050E0BA01CE010E94F31714
S113325005C080E003C080E001C081E0DF91CF9130
S11332601F910895AF92BF92CF92DF92EF92FF9297
S11332700F931F93CF93DF93CDB7DEB72B970FB682
S1133280F894DEBF0FBECDBFFC01C580C110CAC01B
S1133290A22E8B017C01BE016F5F7F4FCA010E9489
S11332A04714882309F4C0C0F801838D948DF70175
S11332B0948F838FF80116821782108611861286E6
S11332C0138614861586B12CF801428553856485CE
S11332D0758583899489A589B689481759076A072A
S11332E07B0708F044C0689414F876956795579561
S11332F047951694D1F7F42FFF70DF2EC8010E9472
S11333004216009709F491C0FC012081222311F098
S1133310253EB9F4B11010C0F701D28A40910901D9
S113332050910A0160910B0170910C0146875787F7
S1133330608B718BBB24B394FC0180818111C4CF59
S113334016C04BE050E0BC01CE0101960E94222938
S1133350892B09F0B9CF8A2D8073803309F465C0B5
S11333604A2D6D2DC7010E94C418C82E5EC08A2D37
S11333708271823109F059C0BB2041F061E0C7017C
S11333800E942E148C01892B89F44FC0F801858189
S1133390823009F44AC0C8010E94C513C82E88238C
S11333A009F443C0F701128A0CEB12E080E2F80141
S11333B011928A95E9F78BE0FE013196D8010190CC
S11333C00D928A95E1F7E091B302F091B40230973F
S11333D039F0B801625F7F4FC8014096099509C072
S11333E081E298E2F801918B808B80E098E09787E6
S11333F08687F80180899189938B828B918F808F46
S113340086859785978B868B81E00E945F1CC82EEA
S1133410882359F0F70162894A2DC7010E94C41814
S1133420C82E03C0C12C01C0C82E8C2D2B960FB6FC
S1133430F894DEBF0FBECDBFDF91CF911F910F91E6
S1133440FF90EF90DF90CF90BF90AF900895CF930F
S1133450DF93EC0140E050E0BA010E94F3178823A7
S113346079F061E0CE010E942E14009741F025EE20
S1133470FC0120831D8281E00E945F1C01C080E06A
S1133480DF91CF910895CF93DF93CDB7DEB76D97DA
S11334900FB6F894DEBF0FBECDBFAB011C821B82FA
S11334A021E232E03A8329831E8222E0BC01CE016C
S11334B001960E943219882321F0CE0101960E94C0
S11334C0271A6D960FB6F894DEBF0FBECDBFDF91FD
S11334D0CF9108953F924F925F926F927F928F9215
S11334E09F92AF92BF92CF92DF92EF92FF920F938F
S11334F01F93CF93DF9300D000D000D0CDB7DEB7B9
S11335006C017B015E834D83DC0114969C911497BE
S1133510292F22952F7081E082278170382E1596ED
S11335208C91813019F491FD03C003C081E001C086
S113353080E0811166C192FD03C08D809E8015C01C
S1133540F60182859385A485B58543895489658967
S1133550768984179507A607B70779F3C6010E94F1
S11335608D16882309F44DC1E8CF8114910409F420
S11335701BC1D6011A960D911D912D913C911D9759
S11335805B96ED91FC915C97D901C801072E79E017
S1133590B695A795979587957A95D1F7702D7480F0
S11335A07A9478221170711054C00115110509F034
S11335B050C0D60116964D915D916D917C911997ED
S11335C04115510561057105B1F457968D919D9191
S11335D00D90BC91A02D0097A105B10531F4C60151
S11335E00E949B13811135C00CC1F6018683978319
S11335F0A087B1872EC09E012F5F3F4FCF010E944D
S1133600EE1C811102C090E00BC189819A81AB81CB
S1133610BC81F601238D348DF9012789203129F4E9
S113362048EF5FEF60E070E004C048EF5FEF6FEFDA
S11336307FE084179507A607B70730F0C6010E94FC
S11336409B13811106C0DDC0F60186839783A08792
S1133650B18780E092E05C01A01AB10A8A149B044D
S113366008F45401F60186819781A085B185238DE4
S1133670348DF90146855785608971890297A109BE
S1133680B109058404C0880F991FAA1FBB1F0A949F
S1133690D2F7840F951FA61FB71F9C01AD01270DFC
S11336A0311D411D511D29013A01A11432E0B30617
S11336B041F58091090190910A01A0910B01B0910B
S11336C00C01481659066A067B0659F48FEF9FEFE2
S11336D0DC018093090190930A01A0930B01B0933C
S11336E00C01032D9701B301A2018091BA029091BC
S11336F0BB020E942213882309F483C04EEFF41AFC
S113370043C00115110531F5D6011A964D915D910D
S11337106D917C911D9753968D919D910D90BC91C7
S1133720A02D481759076A077B07A0F081E00E9483
S11337305F1C882309F465C04092090150920A0174
S113374060920B0170920C018091B90281608093A8
S1133750B90208C041E0C301B2010E948A1C882357
S113376009F44FC0F801E454FD4F9F012A0D3B1D9D
S1133770E217F30749F0D7018C9180833196A701B2
S11337804F5F5F4F7A01F4CF8A189B08F601828558
S11337909385A485B5858A0D9B1DA11DB11D8287C6
S11337A09387A487B587E1CEF60182859385A485A6
S11337B0B5854389548965897689481759076A0705
S11337C07B0740F4838B948BA58BB68B84818068B4
S11337D084830DC08091B3029091B402892B39F097
S11337E02D813E81232B19F0848180688483F60126
S11337F0848183FF10C061E0C6010E942E178111ED
S11338000DC081E090E0D60113969C938E9312979D
S113381080E090E005C08D819E8102C08D819E81F3
S113382026960FB6F894DEBF0FBECDBFDF91CF91C1
S11338301F910F91FF90EF90DF90CF90BF90AF90CA
S11338409F908F907F906F905F904F903F900895DE
S1133850CF93DF931F92CDB7DEB7698341E050E089
S1133860BE016F5F7F4F0E946A1A0F90DF91CF9164
S113387008950F934091B5025091B6026091B7023A
S11338807091B8024115510561057105A9F0082F21
S11338902CEB32E08091BA029091BB020E94221379
S11338A0882359F01092B5021092B6021092B70212
S11338B01092B80281E001C081E00F9108950F9346
S11338C0CF939091B9029923F9F0C82F409109013F
S11338D050910A0160910B0170910C01082F2CEB9F
S11338E032E08091BA029091BB020E942213882395
S11338F071F0CC2359F08C2F0E94391C882339F0A5
S11339001092B90281E003C081E001C081E0CF914F
S11339100F910895CF92DF92EF92FF92CF936B01B4
S11339207C01C42F8091090190910A01A0910B019F
S1133930B0910C018C159D05AE05BF05C9F081E061
S11339400E945F1C8823D1F02CEB32E0B701A60162
S11339508091BA029091BB020E94DD12882371F01B
S1133960C0920901D0920A01E0920B01F0920C017D
S11339708091B902C82BC093B90281E0CF91FF9026
S1133980EF90DF90CF900895CF92DF92EF92FF9265
S11339906B017C0181E00E945F1C8823D1F080E0F0
S11339A090E0811522E0920730F4FC01E454FD4FCD
S11339B010820196F6CFC0920901D0920A01E092DA
S11339C00B01F0920C018091B90281608093B902DD
S11339D081E0FF90EF90DF90CF9008958F929F92B7
S11339E0AF92BF92CF92DF92EF92FF920F931F9309
S11339F0CF93DF93FC01E90101851285238534858A
S1133A000F5F1F4F2F4F3F4F041715072607370728
S1133A1008F461C083899489A589B68927892031EE
S1133A2029F4852E962EA72EBB240AC04A015B01D9
S1133A30689416F8B694A794979487941694D1F73B
S1133A406A017B018F01BC01CD01680D791D8A1DBE
S1133A509B1D8090090190900A01A0900B01B090E9
S1133A600C01681579058A059B0529F040E00E9440
S1133A708A1C882389F1F80187898031A1F4B70170
S1133A80A601552766277727440F551FFA01E454EA
S1133A90FD4F80819181A0E0B0E088839983AA835F
S1133AA0BB8381E019C0B701A6014F77552766276C
S1133AB07727440F551F440F551FFA01E454FD4F57
S1133AC080819181A281B381BF7088839983AA8305
S1133AD0BB8381E001C080E0DF91CF911F910F9102
S1133AE0FF90EF90DF90CF90BF90AF909F908F901A
S1133AF008958F929F92AF92BF92EF92FF920F938D
S1133B001F93CF93DF9300D000D0CDB7DEB78C01E5
S1133B1049835A836B837C837901812C912C5401D2
S1133B2049815A816B817C819E012F5F3F4FC8017F
S1133B300E94EE1C882361F180E092E0A0E0B0E0F6
S1133B40F801058404C0880F991FAA1FBB1F0A949B
S1133B50D2F7880E991EAA1EBB1E89819A81AB8159
S1133B60BC812789203129F448EF5FEF60E070E0E1
S1133B7004C048EF5FEF6FEF7FE084179507A60757
S1133B80B70770F2F70180829182A282B38281E04A
S1133B900F900F900F900F90DF91CF911F910F9185
S1133BA0FF90EF90BF90AF909F908F9008954F92A9
S1133BB05F926F927F928F929F92AF92BF92CF92B9
S1133BC0DF92EF92FF920F931F93CF93DF9300D076
S1133BD000D000D0CDB7DEB7423051056105710584
S1133BE008F494C0DC011996CD90DD90ED90FC9022
S1133BF01C97BFEFCB1ADB0AEB0AFB0AC416D506E7
S1133C00E606F70608F484C0FC01438854886588F6
S1133C107688E789E03129F4852E962EA72EBB24D9
S1133C200AC04A015B01689416F8B694A794979465
S1133C3087941694D1F709831A832B833C836A01F2
S1133C407B019E838D83480C591C6A1C7B1C8091CC
S1133C50090190910A01A0910B01B0910C01481641
S1133C6059066A067B0641F040E0C301B2010E9496
S1133C708A1C882309F44FC0AD81BE8157968C916C
S1133C80803179F4B701A601552766277727440FB9
S1133C90551FFA01E454FD4F89819A8191838083F1
S1133CA015C0B701A6014F77552766277727440F1C
S1133CB0551F440F551FFA01E454FD4F89819A8121
S1133CC0AB81BC8180839183A283B3838091B90249
S1133CD081608093B902AD81BE8152968C915297D6
S1133CE08230C0F015968D919D910D90BC91A02DC0
S1133CF0480E591E6A1E7B1E4092B5025092B602AF
S1133D006092B7027092B80281E005C080E003C0FF
S1133D1080E001C081E026960FB6F894DEBF0FBEA6
S1133D20CDBFDF91CF911F910F91FF90EF90DF9066
S1133D30CF90BF90AF909F908F907F906F905F9047
S1133D404F9008952F923F924F925F926F927F927D
S1133D508F929F92AF92BF92CF92DF92EF92FF9297
S1133D600F931F93CF93DF93CDB7DEB72F970FB683
S1133D70F894DEBF0FBECDBF1C0149875A876B87FD
S1133D807C873E872D87D9014D905D906D907C9006
S1133D90411451046104710439F0BFEF4B1A5B0AFA
S1133DA06B0A7B0A1F8611C0FC014080518062802F
S1133DB0738081E029853A854B855C852130310506
S1133DC04105510509F080E08F87F10181859285D5
S1133DD0A385B4859C01AD012F5F3F4F4F4F5F4FCB
S1133DE02D833E834F83588773016201812C912C6C
S1133DF05401F10181859285A385B48588169906BD
S1133E00AA06BB0608F04AC02D813E814F81588521
S1133E102C153D054E055F0550F4C12CD12C7601BF
S1133E206894C1F8412C512C3201689441F89E01E8
S1133E302F5F3F4FB701A601C1010E94EE1C8823EA
S1133E4069F189819A81AB81BC81892B8A2B8B2B67
S1133E5041F0260137013FEF431A530A630A730AFC
S1133E6012C0D701C60184199509A609B70901969C
S1133E70A11DB11D29853A854B855C852817390715
S1133E804A075B0769F03FEF831A930AA30AB30A50
S1133E904FEFC41AD40AE40AF40AABCF80E04DC051
S1133EA00FEF1FEF2FEF3FE0B701A601C1010E9402
S1133EB0D71D882309F441C04C145D046E047F04AB
S1133EC098F44601570151E0851A9108A108B108F8
S1133ED097018601B501A401C1010E94D71D882361
S1133EE061F175016401E8CFAD85BE854D915D91A9
S1133EF06D917C91411551056105710539F093016E
S1133F008201C1010E94D71D8823B9F0ED85FE8589
S1133F104082518262827382FF85FF2369F02FEF12
S1133F20421A520A620A720AD1014D925D926D924E
S1133F307C92139781E001C081E02F960FB6F8942C
S1133F40DEBF0FBECDBFDF91CF911F910F91FF90C8
S1133F50EF90DF90CF90BF90AF909F908F907F9025
S1133F606F905F904F903F902F900895AF92BF92C3
S1133F70CF92DF92EF92FF920F931F93CF93DF9331
S1133F8000D000D0CDB7DEB75C016A017B0182E0CE
S1133F9090E0A0E0B0E0F50180839183A283B38335
S1133FA09E012F5F3F4FB701A601C5010E94EE1C81
S1133FB0882311F100E010E09801B701A601C501C2
S1133FC00E94D71D8823C1F0C980DA80EB80FC8071
S1133FD0F5018789803129F488EF9FEFA0E0B0E0F4
S1133FE004C088EF9FEFAFEFBFE0C816D906EA061A
S1133FF0FB06B0F281E001C080E00F900F900F90BB
S11340000F90DF91CF911F910F91FF90EF90DF9070
S1134010CF90BF90AF9008954F925F926F927F922E
S11340208F929F92AF92BF92CF92DF92EF92FF92C4
S11340300F931F93CF93DF938C01C42F7093BB0214
S11340406093BA02442309F444C0453008F029C1FE
S113405040E060E070E0CB010E948A1C882309F4F0
S11340602BC14C2F50E041505109FA01E295F295D1
S1134070F07FFE27E07FFE27E658FB4F80818F7795
S113408009F011C1FA01E295F295F07FFE27E07F75
S1134090FE27EA57FB4FC080D180E280F38024E6FC
S11340A0C216D104E104F10408F406C14295529504
S11340B0507F5427407F5427FA01EE57FB4FC080AE
S11340C0D180E280F380C114D104E104F10421F42D
S11340D0F3C0C12CD12C760140E0C701B6010E9487
S11340E08A1C882309F4E8C08091C7029091C80211
S11340F08115924009F0D9C08091CC02882309F43B
S1134100DBC02091CA023091CB02232B09F4CFC02B
S11341106091C902662309F4CCC0E8018A8B6C83E0
S11341201D86F8018585E82F21E030E0082E02C0C5
S1134130220F331F0A94E2F7462F50E04217530729
S113414041F091E0980FD8011D969C93883048F374
S1134150B2C02091D2023091D3022115310519F059
S113416040E050E008C02091E0023091E10240912B
S1134170E2025091E302E8012D833E834F83588786
S11341800F2EFCEBAF2EF2E0BF2EF02DD5011E96C4
S11341908D919C911F9726013701480E591E611C71
S11341A0711C4B8A5C8A6D8A7E8A51968D909C9094
S11341B05297998E888E50968C91A82FB0E00E94C9
S11341C0CE27DC01CB01840D951DA61DB71D8A8F5A
S11341D09B8FAC8FBD8FE401CC0FDD1FC295D295B0
S11341E0D07FDC27C07FDC27C150DE4FCD2FDD27F9
S11341F0C6958C0F9D1FA11DB11DE8018E879F8759
S1134200A88BB98BE5014B885C884114510419F0E3
S1134210612C712C08C04090DC025090DD0260904B
S1134220DE027090DF02C81AD90AEA0AFB0AC40C3B
S1134230D51CE61CF71C04C0F694E794D794C794E5
S1134240EA95D2F7F801C186D286E386F486F5EFC3
S1134250CF16FFE0DF06E104F10430F48CE0D8016E
S113426057968C9381E028C0B5EFCB16BFEFDB06E1
S1134270E104F10428F480E1E8018F8B81E01CC0A3
S11342808091E8029091E902A091EA02B091EB02D8
S1134290F801828F938FA48FB58F80E2878B81E0A2
S11342A00BC080E009C080E007C080E005C080E06A
S11342B003C0862F01C080E0DF91CF911F910F9141
S11342C0FF90EF90DF90CF90BF90AF909F908F9032
S11342D07F906F905F904F900895CF93CFB7F894ED
S11342E08091BF04811127C0ECE2F2E08491E8E1FF
S11342F0F2E09491E82FF0E0EE0FFF1FE05CFD4F39
S1134300A591B491EC91E92321F461E08AE00E9443
S1134310A20261E08AE00E9463028CB580618CBDD8
S11343208CB580648CBD61E08DE00E94630261E025
S11343308BE00E9463028091BF048F5F8093BF046F
S1134340CFBFCF9108951092330581E0809331055A
S11343501092300561E082E10E94A20261E083E1F3
S11343600E94A202E9EBF0E080818E7F808380814D
S11343708D7F808388E48093B80085E48093BC00BB
S11343800895ECEBF0E080818A7B808360E082E139
S11343900E94A20260E083E10E94A2020895AC019F
S11343A09091E204262F30E0290F311D213231058E
S11343B0F4F4809133058430E1F490E00FC08091EF
S11343C0E204292F30E0F901E80FF11DDA01A20F10
S11343D0B31F8C91EC51FB4F80839F5F961778F34A
S11343E08091E204680F6093E20480E0089581E024
S11343F0089582E0089590932705809326050895F3
S113440090932905809328050895882321F085EC4D
S11344108093BC00089585E88093BC00089585ECE2
S11344208093BC00109233050895EF92FF920F938E
S11344301F93CF93DF9391E090932B05882371F022
S1134440C8EBD0E0F8800AEB10E0F801E0800E94AD
S1134450C1210E94A321F801E082F882DF91CF916B
S11344601F910F91FF90EF9008954F925F926F927A
S11344707F928F929F92AF92BF92DF92EF92FF92C0
S11344800F931F93CF93DF93413208F0D9C0122FBB
S1134490D42F7B01D82E0E940E024B015C0127C051
S11344A080912C0590912D05A0912E05B0912F059A
S11344B0892B8A2B8B2BD9F00E940E02DC01CB01B5
S11344C088199909AA09BB0940902C0550902D051B
S11344D060902E0570902F05481659066A067B06D3
S11344E030F480912A050E941522C5E0AEC0C09127
S11344F03305C111D5CF82E0809333050093310594
S11345008FEF8093C00410920505D093040590E0CA
S11345100AC0E92FF0E0D701AE0FBF1F3C91EA5F5C
S1134520FA4F30839F5F9D17A0F3109232058D2DB3
S113453090E0880F991FD09032058D298093320521
S1134540809130058130C9F5109230050E940E0229
S11345504B015C01809132058093BB0080912C0556
S113456090912D05A0912E05B0912F05892B8A2BB2
S11345708B2BD9F00E940E02DC01CB01881999091A
S1134580AA09BB0940902C0550902D0560902E057A
S113459070902F05481659066A067B0630F4809100
S11345A02A050E941522C5E050C08091BC0083FDFD
S11345B0D1CF85EC8093BC0003C085EE8093BC0012
S11345C00E940E024B015C0127C080912C05909142
S11345D02D05A0912E05B0912F05892B8A2B8B2BAD
S11345E0D9F00E940E02DC01CB0188199909AA09AD
S11345F0BB0940902C0550902D0560902E057090BD
S11346002F05481659066A067B0630F480912A0560
S11346100E941522C5E019C0112321F080913305B1
S1134620823099F28091C0048F3F79F08091C00468
S1134630803241F08091C004803331F4C3E005C07E
S1134640C1E003C0C2E001C0C4E08C2FDF91CF9170
S11346501F910F91FF90EF90DF90BF90AF909F90CC
S11346608F907F906F905F904F90089585ED809329
S1134670BC0040912C0550912D0560912E05709140
S11346802F05495F5F4F6F4F7F4F689412F87695FF
S11346906795579547951694D1F71FC080912C05BF
S11346A090912D05A0912E05B0912F05892B8A2B71
S11346B08B2B99F0411551056105710549F085E38E
S11346C08A95F1F70000415051096109710905C04B
S11346D080912A050E94152208958091BC0084FDD2
S11346E0DDCF1092330508951F920F920FB60F92EB
S11346F011242F933F934F935F936F937F938F93E3
S11347009F93AF93BF93EF93FF938091B900E82FEA
S1134710E87F8E2F90E0893C910508F0F5C0FC01FC
S1134720EC5CFF4F0C94C827809132058093BB004A
S113473081E00E940522E8C090910505809104055E
S1134740981780F4E091050581E08E0F80930505AC
S1134750F0E0EA5FFA4F80818093BB0081E00E9421
S11347600522D2C080913105882319F00E94362396
S1134770CBC081E08093300584EA8093BC00109222
S11347803305C2C080E28093C0040E943623BCC0BB
S113479080E38093C0040E943623B6C088E38093EC
S11347A0C0040E940F22B0C0E091050581E08E0F85
S11347B080930505F0E08091BB00EA5FFA4F8083A7
S11347C09091050580910405981720F481E00E94DA
S11347D005229AC080E00E94052296C0E09105055A
S11347E081E08E0F80930505F0E08091BB00EA5FC5
S11347F0FA4F808380913105882319F00E94362373
S113480083C081E08093300584EA8093BC001092D9
S113481033057AC00E94362377C083E08093330542
S11348201092C10481E00E9405226EC08091C104EF
S1134830803280F4E091C10481E08E0F8093C10442
S1134840F0E08091BB00EE53FB4F808381E00E9437
S113485005225AC080E00E94052256C00E940F2201
S11348608091C104803230F4E091C104F0E0EE5351
S1134870FB4F10826091C10470E0E0912605F09135
S1134880270582EC94E009951092C1043DC080E0B4
S11348900E94052239C084E0809333051092E3041A
S11348A01092E204E0912805F09129050995809180
S11348B0E204811105C081E08093E2041092E404D3
S11348C0E091E30481E08E0F8093E304F0E0EC5187
S11348D0FB4F80818093BB009091E3048091E204BC
S11348E0981720F481E00E9405220EC080E00E9407
S11348F005220AC081E00E9405221092330504C0FB
S11349001092C0040E943623FF91EF91BF91AF91A2
S11349109F918F917F916F915F914F913F912F91D3
S11349200F900FBE0F901F9018958091680590E02E
S113493020916905821B91090895909169058091E0
S11349406805981750F4E92FF0E0E659FA4F2081F2
S113495030E09F5F9093690502C02FEF3FEFC901DC
S11349600895E091690580916805E81730F4F0E056
S1134970E659FA4F808190E008958FEF9FEF0895F4
S11349800895CF93DF93EC01E0914005F091410548
S11349903097E1F090916905809168059817B0F01F
S11349A090E0292F30E02617370754F4DE01A90FD1
S11349B0B11D4C91D901A659BA4F4C939F5FF1CFC9
S11349C0CB0110926905609368050995DF91CF9139
S11349D00895E0914205F0914305309729F0109233
S11349E046051092450509950895CF92DF92EF92FE
S11349F0FF920F931F93CF93DF938C016B017A0186
S1134A0080914405882399F0C0E0D0E0CE15DF05FD
S1134A1090F4D801ED91FC910190F081E02DD60144
S1134A20AC0FBD1F6C91C80109952196EFCF642F7F
S1134A30C6010E94CF21C701DF91CF911F910F9131
S1134A40FF90EF90DF90CF900895CF93DF931F9264
S1134A50CDB7DEB7FC016983909144059923D9F061
S1134A6090914505903238F081E090E09383828301
S1134A7080E090E017C080914605E82FF0E0E95B04
S1134A80FA4F998190838F5F809346058093450503
S1134A9081E090E007C061E0CE0101960E94CF2141
S1134AA081E090E00F90DF91CF910895FC01138293
S1134AB0128288EE93E0A0E0B0E084839583A6831D
S1134AC0B7838DE292E0918380830895019739F44E
S1134AD06F3F7F4F21F484E395E00E9456250895AB
S1134AE010926905109268051092460510924505CA
S1134AF00E94A32189EE94E20E94002281EC94E2B8
S1134B000E94FB21089581E080934405609367052A
S1134B10109246051092450508950F93409145055E
S1134B20062F21E067E475E0809167050E94352235
S1134B301092460510924505109244050F91089570
S1134B4061E00E948D2508956FEF7FEF81E090E092
S1134B500E94662508955058BB27AA270E94C325A2
S1134B600C940D270E94FF2638F00E94062720F09F
S1134B7039F49F3F19F426F40C94FC260EF4E095C6
S1134B80E7FB0C94F626E92F0E941E2758F3BA1768
S1134B90620773078407950720F079F4A6F50C944F
S1134BA040270EF4E0950B2EBA2FA02D0B01B9016E
S1134BB090010C01CA01A0011124FF27591B99F08F
S1134BC0593F50F4503E68F11A16F040A22F232F9B
S1134BD0342F4427585FF3CF469537952795A795EB
S1134BE0F0405395C9F77EF41F16BA0B620B730B92
S1134BF0840BBAF09150A1F0FF0FBB1F661F771F03
S1134C00881FC2F70EC0BA0F621F731F841F48F4B7
S1134C10879577956795B795F7959E3F08F0B0CF40
S1134C209395880F08F09927EE0F97958795089527
S1134C300E942C260C940D270E94062758F00E94EF
S1134C40FF2640F029F45F3F29F00C94F626511119
S1134C500C9441270C94FC260E941E2768F3992388
S1134C60B1F3552391F3951B550BBB27AA27621764
S1134C707307840738F09F5F5F4F220F331F441F71
S1134C80AA1FA9F335D00E2E3AF0E0E832D09150A5
S1134C905040E695001CCAF72BD0FE2F29D0660F92
S1134CA0771F881FBB1F261737074807AB07B0E8D5
S1134CB009F0BB0B802DBF01FF2793585F4F3AF0DB
S1134CC09E3F510578F00C94F6260C9441275F3FE3
S1134CD0E4F3983ED4F3869577956795B795F79561
S1134CE09F5FC9F7880F911D9695879597F9089549
S1134CF0E1E0660F771F881FBB1F621773078407E5
S1134D00BA0720F0621B730B840BBA0BEE1F88F7F3
S1134D10E09508950E94262788F09F5798F0B92FB0
S1134D209927B751B0F0E1F0660F771F881F991FDC
S1134D301AF0BA95C9F714C0B13091F00E94402717
S1134D40B1E008950C944027672F782F8827B85F27
S1134D5039F0B93FCCF3869577956795B395D9F734
S1134D603EF490958095709561957F4F8F4F9F4F3E
S1134D700895E89409C097FB3EF49095809570954A
S1134D8061957F4F8F4F9F4F9923A9F0F92F96E993
S1134D90BB279395F695879577956795B795F11108
S1134DA0F8CFFAF4BB0F11F460FF1BC06F5F7F4FA5
S1134DB08F4F9F4F16C0882311F096E911C07723B7
S1134DC021F09EE8872F762F05C0662371F096E8C0
S1134DD0862F70E060E02AF09A95660F771F881F8F
S1134DE0DAF7880F9695879597F9089597F99F674D
S1134DF080E870E060E008959FEF80EC089500245F
S1134E000A941616170618060906089500240A942B
S1134E1012161306140605060895092E0394000CB1
S1134E2011F4882352F0BB0F40F4BF2B11F460FF40
S1134E3004C06F5F7F4F8F4F9F4F089557FD905869
S1134E40440F551F59F05F3F71F04795880F97FB4A
S1134E50991F61F09F3F79F0879508951216130604
S1134E601406551FF2CF4695F1DF08C01616170633
S1134E701806991FF1CF8695710561050894089568
S1134E80E894BB2766277727CB0197F908950E94FA
S1134E905A270C940D270E94FF2638F00E940627FB
S1134EA020F0952311F00C94F6260C94FC26112482
S1134EB00C9441270E941E2770F3959FC1F3950F10
S1134EC050E0551F629FF001729FBB27F00DB11D8A
S1134ED0639FAA27F00DB11DAA1F649F6627B00D1A
S1134EE0A11D661F829F2227B00DA11D621F739F03
S1134EF0B00DA11D621F839FA00D611D221F749F11
S1134F003327A00D611D231F849F600D211D822F57
S1134F10762F6A2F11249F5750409AF0F1F088237E
S1134F204AF0EE0FFF1FBB1F661F771F881F9150AB
S1134F305040A9F79E3F510580F00C94F6260C943E
S1134F4041275F3FE4F3983ED4F3869577956795C0
S1134F50B795F795E7959F5FC1F7FE2B880F911DD5
S1134F609695879597F9089597FB072E16F4009464
S1134F7007D077FD09D00E94D92707FC05D03EF45D
S1134F80909581959F4F0895709561957F4F0895F1
S1134F90EE0FFF1F0590F491E02D09940E94ED2778
S1134FA0A59F900DB49F900DA49F800D911D112479
S1134FB00895AA1BBB1B51E107C0AA1FBB1FA6175C
S1134FC0B70710F0A61BB70B881F991F5A95A9F7AE
S1134FD080959095BC01CD010895A29FB001B39F27
S1134FE0C001A39F700D811D1124911DB29F700DEE
S1134FF0811D1124911D08950F931F93CF93DF9367
S11350008230910510F482E090E0E0918C05F091FB
S11350108D0520E030E0A0E0B0E0309719F1408148
S113502051810281138148175907C8F084179507E5
S113503069F4109731F012960C93129713961C93FF
S113504027C000938C0510938D0522C021153105CE
S113505019F04217530718F49A01BD01EF01DF015B
S1135060F801DBCF21153105F9F0281B390B243069
S1135070310580F48A819B816115710521F0FB0162
S11350809383828304C090938D0580938C05FE01E5
S1135090329644C0FE01E20FF31F81939193225094
S11350A03109398328833AC020918A0530918B05D0
S11350B0232B41F4209102013091030130938B059D
S11350C020938A05209100013091010121153105B9
S11350D041F42DB73EB74091040150910501241BC2
S11350E0350BE0918A05F0918B05E217F307A0F4E4
S11350F02E1B3F0B2817390778F0AC014E5F5F4F2A
S11351002417350748F04E0F5F1F50938B054093CB
S11351108A058193919302C0E0E0F0E0CF01DF9132
S1135120CF911F910F910895CF93DF93009709F4C6
S113513081C0FC01329713821282A0918C05B09138
S11351408D05109781F420813181820F931F209166
S11351508A0530918B052817390751F5F0938B0593
S1135160E0938A0567C0ED0120E030E0CE17DF0749
S113517040F44A815B819E0141155105F1F0EA0139
S1135180F5CFD383C28340815181840F951FC81703
S1135190D90759F488819981840F951F02969183C8
S11351A080838A819B81938382832115310529F42D
S11351B0F0938D05E0938C053DC0E901FB83EA8300
S11351C049915991C40FD51FEC17FD0761F48081F3
S11351D09181840F951F0296E901998388838281C6
S11351E093819B838A83E0E0F0E012968D919C91F9
S11351F01397009719F0FD01DC01F7CF8D919C9175
S113520011979D012E5F3F4F820F931F20918A05B6
S113521030918B052817390769F4309729F41092D7
S11352208D0510928C0502C013821282B0938B05F7
S1135230A0938A05DF91CF91089581E090E0F894DE
S11352400C944929FB01DC0104C08D910190801963
S113525021F441505040C8F7881B990B0895FC0174
S11352608191861721F08823D9F7992708953197DA
S1135270CF010895FB01DC014150504048F00190FA
S11352800D920020C9F701C01D9241505040E0F733
S10952900895F894FFCF1D
S113529600008E052000016A69FFFFFFFF00004041
S11352A600140054001000000001000100D4300A6C
S11352B6000A0009000700050003000100FEFFFCC8
S11352C6FFFAFFF8FFF7FFF6FFF6FFF7FFF8FFFA1E
S11352D6FFFCFFFEFF010003000500070009000AAA
S11352E600000001000500FCFFD0FF9803D0FFFC7E
S11352F6FF050001000000000000005B0161015D84
S1135306016001000000008E0361015D016001522D
S11353164946462020202057415645666D74200094
S11353266461746120202020004572726F720052FD
S113533665636F7264696E670053617665640050D5
S1135346726F63657373696E6700506C6179696E19
S11353566700456E64206F6620706C6179004E6F3D
S113536620547261636B7300526561647920746FB3
S113537620506C61790044656C6574653F004E6F1E
S1135386742044656C6574656400566F69636520B2
S11353965265636F726465720000000000150B3D70
S11353A60B2B0BC00B4B0C650B840B2F0000000062
S11353B600281C61018E176001000000002525F5F8
S10F53C6245D01C02495249D24B1240022
S9030000FC
