S0160000566F6963655F5265636F726465722E7372656383
S11300000C9431010C9459010C9459010C9459012C
S11300100C9459010C9459010C9459010C945901F4
S11300200C9459010C9459010C9459010C945901E4
S11300300C9459010C9459010C9459010C945901D4
S11300400C94A7010C9459010C9459010C94590176
S11300500C9459010C9459010C9459010C945901B4
S11300600C9460250C9459016C2670267026702619
S113007070267026702670268025702670267026BD
S113008070267026702670268025702670267026AD
S11300907026702670267026882570267026702695
S11300A07026702670267026AE257026702670265F
S11300B07026702670267026882570267026702675
S11300C07026702670267026B42570267026702639
S11300D07026702670267026BA2570267026702623
S11300E07026702670267026CC2570267026702601
S11300F07026702670267026F625702670267026C7
S11301007026702670267026C025702670267026EC
S11301107026702670267026DA25702670267026C2
S11301207026702670267026F92570267026702693
S11301307026702670267026F92570267026702683
S11301407026702670267026F92570267026702673
S11301507026702670267026F92570267026702663
S11301607026702670267026022670267026702649
S11301707026702670267026332670267026702608
S11301807026702670267026022670267026702629
S113019070267026702670263326702670267026E8
S11301A070267026702670261A26702670267026F1
S11301B070267026702670263726702670267026C4
S11301C070267026702670263726702670267026B4
S11301D070267026702670264C267026702670268F
S11301E07026702670267026662670267026702665
S11301F0702670267026702666260000000800020D
S113020001000003040700000000000000000102D8
S11302100408102040800102040810200102040890
S1130220102004040404040404040202020202026E
S113023003030303030300000000250028002B0030
S113024000000000240027002A007C3C3E5E2B3D79
S11302503F2F5B5D3B2C2A225C00FA0CFB118015BE
S1130260902711241FBECFEFD8E0DEBFCDBF12E030
S1130270A0E0B1E0EEE6F6E502C005900D92A238EA
S1130280B107D9F725E0A2E8B2E001C01D92A23D72
S1130290B207E1F711E0C1E3D1E004C02197FE0108
S11302A00E94B429CD32D107C9F70E94E20B0C9405
S11302B0352B0C9400000E94092B80E090E00895F7
S11302C00895CF92DF92EF92FF920F931F93CF93F3
S11302D0DF938C01DB01C0E0D0E07A0181E0E81A11
S11302E0F108452BA1F0F80180819181FC01208166
S11302F031816D01FFEFCF1ADF0A6C91C801F9015A
S11303000995892B21F02196A701D601E6CFCE01CC
S1130310DF91CF911F910F91FF90EF90DF90CF90DD
S113032008956115710581F0FB0101900020E9F742
S11303303197AF01461B570BDC01ED91FC91028014
S1130340F381E02D0995089580E090E008951F92CF
S11303500F920FB60F9211240F931F932F933F9375
S11303604F935F936F937F938F939F93AF93BF93B9
S113037000918302109184022091850230918602BB
S113038090918202B901A8014F5F5F4F6F4F7F4F79
S113039083E0890F8D3740F086E8890FB901A80101
S11303A04E5F5F4F6F4F7F4F809382024093830273
S11303B05093840260938502709386028091870231
S11303C090918802A0918902B0918A020196A11DA0
S11303D0B11D8093870290938802A0938902B09301
S11303E08A02BF91AF919F918F917F916F915F919D
S11303F04F913F912F911F910F910F900FBE0F902E
S11304001F9018952FB7F89460918302709184021D
S113041080918502909186022FBF08953FB7F8948A
S11304208091870290918802A0918902B0918A02FA
S113043026B5A89B05C02F3F19F00196A11DB11D3B
S11304403FBFBA2FA92F982F8827820F911DA11D76
S1130450B11DBC01CD01660F771F881F991F660F60
S1130460771F881F991F0895833069F028F481301D
S1130470B1F08230C1F008958730C9F08830E9F0D6
S1130480843001F506C0E0E8F0E080818F77808356
S11304900895E0E8F0E080818F7D8083089584B53D
S11304A08F7784BD089584B58F7D84BD0895E0EB76
S11304B0F0E080818F7780830895E0EBF0E0808125
S11304C08F7D80830895CF93DF9390E0FC01E25FFA
S11304D0FD4F2491FC01EE5DFD4F8491882379F159
S11304E090E0880F991FFC01E05CFD4FA591B49149
S11304F0FC01EA5CFD4FC591D49161110CC09FB71A
S1130500F8948C91E22FE0958E238C932881E2233A
S1130510E8839FBF14C0623061F49FB7F8948C9154
S1130520322F309583238C93E881E22BE8839FBF9D
S113053006C08FB7F894EC91E22BEC938FBFDF9158
S1130540CF9108951F93CF93DF93282F30E0F901C3
S1130550E650FE4F8491F901E25FFD4F1491F901D9
S1130560EE5DFD4FC491CC23D1F0D62F81110E94B2
S11305703402EC2FF0E0EE0FFF1FEA5CFD4FA59173
S1130580B4918FB7F894D11106C09C91E12FE095F6
S1130590E923EC9303C0EC91E12BEC938FBFDF9143
S11305A0CF911F910895FC01138212828FEA91E08A
S11305B09183808364830895CF93C62FFC01648163
S11305C088E795E00E946F276C2F6860E0917805BA
S11305D0F09179050190F081E02D88E795E0099587
S11305E088E795E00E948C27CF9108950F931F937D
S11305F0CF938C01C62F64600E94DC0285E08A954B
S1130600F1F700006C2F6B7FC8010E94DC0287ECBD
S113061090E00197F1F700C00000CF911F910F9176
S113062008951F93CF93DF93EC01162F0E94DC02F1
S1130630612FCE010E94F602DF91CF911F910895A0
S1130640FF920F931F93CF93DF938C01F42E862F89
S1130650807F90E1699FE0011124682F642BC80119
S11306600E9411036C2F6F29C8010E941103DF91AE
S1130670CF911F910F91FF90089540E061E00E9497
S113068020038FE39FE10197F1F700C00000089574
S113069040E062E00E9420038FE39FE10197F1F7BD
S11306A000C000000895CF93DF93CDB7DEB728973D
S11306B00FB6F894DEBF0FBECDBF9C0198E0EDE00D
S11306C0F1E0DE01119601900D929A95E1F7433025
S11306D008F041E0E42FF0E0EE0FFF1F81E090E02E
S11306E08C0F9D1FE80FF91F9081690F606840E02F
S11306F0C9010E94200328960FB6F894DEBF0FBEEE
S1130700CDBFDF91CF910895FC016681262F24602F
S113071026836C6040E00E942003089541E00E941B
S1130720200381E090E00895CF93DF93EC0188E704
S113073095E00E945C2788E08D832FEF80E792E0AC
S1130740215080409040E1F700C0000068E0CE01F5
S11307500E94DC022FEF83ED90E321508040904013
S1130760E1F700C0000060E3CE010E9411038FE4B2
S113077096E40197F1F700C0000060E3CE010E9407
S113078011038FE496E40197F1F700C0000060E3E1
S1130790CE010E94110387E592E00197F1F700C0B2
S11307A0000060E2CE010E9411036D81606240E0AE
S11307B0CE010E94200384E08E83CE010E94840334
S11307C0CE010E943D0382E08F8340E066E0CE01CB
S11307D00E942003CE010E944803DF91CF91089527
S11307E0019741F46F3F7F4F29F467E28BE892E071
S11307F00E94D302089589B1809561F1883099F0FF
S113080038F48230D1F0843061F08130A1F407C033
S1130810803469F0803869F0803269F406C08FE56D
S11308200DC083E70BC08CE309C080E707C08EE3EB
S113083005C084E603C080E001C08AE22FEF35EAF8
S11308409EE0215030409040E1F700C000009FEF4F
S11308509BB9089580E00895CF93DF93EC018BE872
S113086092E00E943D0340E060E08BE892E00E9449
S11308705303BE018BE892E00E949101DF91CF9176
S11308800895CF93DF93EC0141E060E08BE892E0C0
S11308900E945303BE018BE892E00E949101DF9114
S11308A0CF910895CF93DF9310929B0281E48093BC
S11308B09302C0E0D1E4CF30D9F0DB35C9F063E96D
S11308C072E08BEA92E00E94E311882369F0EC2F36
S11308D0F0E080919302E456FD4F808380919B0267
S11308E08F5F80939B02CF5FDF5FD0939302E3CF50
S11308F0CF3040F4EC2FF0E0E456FD4F8FE58083D9
S1130900CF5FF6CFDF91CF910895E0919A02EF5F28
S1130910E0939A02F0E0E456FD4F80818F3511F4A4
S113092010929A02E0919A02F0E0E456FD4F808121
S113093080939302089580919A02811106C0809158
S11309409B02815080939A0203C0815080939A0243
S1130950E0919A02F0E0E456FD4F80818093930287
S11309600895CF9381E480939302C1E463E972E034
S11309708BEA92E00E94E311882321F0CF5FC093B9
S11309809302F4CFCF91089563E972E08BEA92E089
S11309900E94EF11E3E9F2E083E58083A0919A02DB
S11309A0B0E0A456BD4F8C9181838EE2828387E5AB
S11309B0838381E4848386E58583BF018BEA92E0A7
S11309C00E94E311882331F063E972E08BEA92E03C
S11309D00E94EF1188E48093930263E972E08BEA4A
S11309E092E00E94E311882331F063E972E08BEA1C
S11309F092E00E94EF118CE48093930263E972E029
S1130A008BEA92E00E94E311882331F063E972E0FB
S1130A108BEA92E00E94EF1182E48093930263E9EF
S1130A2072E08BEA92E00E94E311882331F063E9DB
S1130A3072E08BEA92E00E94EF11E0919A02F0E0FA
S1130A40E456FD4F8081E3E9F2E080838EE2818306
S1130A5087E5828381E4838386E584831582089510
S1130A600F931F93CF93DF93CDB7DEB72A970FB6BB
S1130A70F894DEBF0FBECDBF8C0140E150E067EBC0
S1130A8071E00E94290D8AE0E5E1F1E0DE011196B2
S1130A9001900D928A95E1F74AE050E0BE016F5F44
S1130AA07F4FC8010E94290D19821A8280ED8B8321
S1130AB080E38C831D821E8281E08F83188688E008
S1130AC089871A864AE050E0BE016F5F7F4FC801F4
S1130AD00E94290D48E050E068EC71E0C8010E94D2
S1130AE0290D2A960FB6F894DEBF0FBECDBFDF9155
S1130AF0CF911F910F9108958F929F92AF92BF92C1
S1130B00CF92DF92EF92FF920F931F93CF93DF93D5
S1130B1000D000D0CDB7DEB78C010E94270E6B0148
S1130B207C014B015C0188E0881A9108A108B10896
S1130B3044E050E060E070E0C8010E94080E898241
S1130B409A82AB82BC8244E050E0BE016F5F7F4F6B
S1130B50C8010E94290D48E250E060E070E0C8013D
S1130B600E94080ED701C6018C97A109B109898397
S1130B709A83AB83BC8344E050E0BE016F5F7F4F38
S1130B80C8010E94290D0F900F900F900F90DF91D4
S1130B90CF911F910F91FF90EF90DF90CF90BF9076
S1130BA0AF909F908F900895EF92FF920F931F93B1
S1130BB0CF93DF93CDB7DEB7CA56D1090FB6F894F9
S1130BC0DEBF0FBECDBF8C0127E141ED51E06BEAE2
S1130BD072E0CE0101960E94CC1021E0A8016BEADC
S1130BE072E0CE014C960E94CC104CE250E060E0E2
S1130BF070E0CE014C960E94080E8AE1EFE1F1E02C
S1130C00DE01AF5ABF4F01900D928A95E1F7E12CB6
S1130C1010E001C0E02ECE014C960E94370E892BC5
S1130C20E9F101E00E0DF12CCE014C960E94510D1C
S1130C30BC016F57710921E0210FE12FF0E0EE0FA5
S1130C40FF1F81E590E08C0F9D1FE80FF91F408185
S1130C505181649FC001659F900D749F900D112474
S1130C606AE070E00E94A029E7E3F0E0EC0FFD1FCA
S1130C70EE0DFF1D615860832D3011F0122F01C05D
S1130C8010E00A3139F64AE150E0BE01695C7F4F59
S1130C90CE0101960E94290D00E0BCCFCE01019641
S1130CA00E94660ECE014C960E94660EC659DF4F16
S1130CB00FB6F894DEBF0FBECDBFDF91CF911F9169
S1130CC00F91FF90EF9008952F923F925F926F9251
S1130CD07F928F929F92AF92BF92CF92DF92EF92C8
S1130CE0FF920F931F93CF93DF93CDB7DEB7CD5F02
S1130CF0D1090FB6F894DEBF0FBECDBF5C016B0106
S1130D00F42E19012DB73EB7C450DF4F3983288321
S1130D10CC5FD040842F90E03C0131E0631A71082D
S1130D20ADB7BEB7A81BB90B0FB6F894BEBF0FBEC4
S1130D30ADBF0DB71EB70F5F1F4F4801CE018854DA
S1130D409F4F0E94EA0D80919302833509F04FC0B2
S1130D5021E041ED51E06BEA72E0CE018E5A9F4FE3
S1130D600E94CC1066968EAD9FAD6697C654DF4F39
S1130D7099838883CA5BD0406A968CAD9DADAEAD35
S1130D80BFAD6A97C454DF4F88839983AA83BB831A
S1130D90CC5BD0406E968CAD9DADAEADBFAD6E97C5
S1130DA0C054DF4F88839983AA83BB83C05CD0403F
S1130DB0E2E5F0E0EC0FFD1F3C968CE090E0A8EB40
S1130DC0B0E0AC0FBD1F1C968F3F2FEF920721F0B0
S1130DD021912D930197F8CFAD968EAD9FADAD9730
S1130DE0CF52DF4F99838883C15DD04048C021E052
S1130DF0A6016BEA72E0CE01C7960E94CC1089ADC1
S1130E009AADC654DF4F99838883CA5BD0408BADBB
S1130E109CADADADBEADC454DF4F88839983AA8326
S1130E20BB83CC5BD04023968CAD9DADAEADBFAD46
S1130E302397C054DF4F88839983AA83BB83C05C04
S1130E40D040A7E3B0E0AC0FBD1F1C968CE090E04F
S1130E50E8EBF0E0EC0FFD1F3C968F3F3FEF93076C
S1130E6021F02D9121930197F8CF62968EAD9FAD1D
S1130E706297CF52DF4F99838883C15DD04027E1C9
S1130E8043E952E06BEA72E0CE018D529F4F0E941B
S1130E90CC10CB52DF4F88819981C55DD0409F8FA4
S1130EA08E8FC952DF4F88819981AA81BB81C75D2A
S1130EB0D04088A399A3AAA3BBA3C552DF4F8881BE
S1130EC09981AA81BB81CB5DD0408CA39DA3AEA3A5
S1130ED0BFA384E592E09D8F8C8F8DE0E3EDF0E07D
S1130EE0EC0FFD1F3C96DE01989601900D928A95B9
S1130EF0E1F7C451DF4F88819981CC5ED0409EAB2D
S1130F008DABCE014C960E943005CE0188549F4F84
S1130F100E94270ECA50DF4F688379838A839B839C
S1130F20C65FD0408F2D90E0C650DF4F99838883F1
S1130F30CA5FD040AC01B801CE0188549F4F0E94D3
S1130F40FD0D4BE450E0BE0163597F4FCE01885440
S1130F509F4F0E94FD0DE12CCE2CCA50DF4F88819B
S1130F609981AA81BB81C65FD040892B8A2B8B2BA8
S1130F7009F410C19BE4C9120BC04BE450E0BE015C
S1130F8063597F4FCE0188549F4F0E94FD0DC12CA1
S1130F90D12C80E090E0AEEFB2E4CE50DF4F8883F6
S1130FA09983AA83BB83C25FD0405D2CDC2C052DC2
S1130FB010E0061517050CF068C07401E00EF11E70
S1130FC0D7016C9170E080E090E00E94A52820E0B9
S1130FD030E04EEF52E40E949727C251DF4F6883FE
S1130FE079838A839B83CE5ED040F801EE0FFF1F86
S1130FF0EA0DFB1D60817181072E000C880B990B93
S11310000E94A728C251DF4F288139814A815B8120
S1131010CE5ED0400E943329C251DF4F688379836A
S11310208A839B83CE5ED040B101032C000C880BD5
S1131030990B0E94A7289B01AC01C251DF4F688124
S113104079818A819B81CE5ED0400E9404289B01D5
S1131050AC01CE50DF4F688179818A819B81C25F68
S1131060D0400E949827CE50DF4F688379838A83CB
S11310709B83C25FD0400F5F1F4FF401E00FF11F4D
S11310808081F7018083539492CF8401060D171D4C
S1131090D8016C9170E080E090E00E94A52820E0E7
S11310A030E04EEF52E40E949727C251DF4F68832D
S11310B079838A839B83CE5ED040C650DF4FE8811C
S11310C0F981CA5FD040E150F048EE0FFF1FEA0DEE
S11310D0FB1D60817181072E000C880B990B0E9407
S11310E0A728C251DF4F288139814A815B81CE5EB6
S11310F0D0400E943329C251DF4F688379838A83A9
S11311009B83CE5ED040B101032C000C880B990B5D
S11311100E94A7289B01AC01C251DF4F68817981ED
S11311208A819B81CE5ED0400E9404289B01AC0141
S1131130CE50DF4F688179818A819B81C25FD04024
S11311400E949827FF24F394FD0CEDE6F0E0EC0FE9
S1131150FD1FED0DF11D2081F80120830E947628EA
S1131160CE018D529F4F0E94010DCA50DF4F8881DE
S11311709981AA81BB81C65FD0400197A109B109B9
S1131180CA50DF4F88839983AA83BB83C65FD0404C
S1131190CF2CE3CECB52DF4F88819981C55DD040FF
S11311A09C838B83C952DF4F88819981AA81BB813B
S11311B0C75DD0408D839E83AF83B887C552DF4F10
S11311C088819981AA81BB81CB5DD04089879A8728
S11311D0AB87BC8784E592E09A8389838DE0E3ED55
S11311E0F0E0EC0FFD1F3C96DE011D9601900D9280
S11311F08A95E1F7C451DF4F88819981CC5ED04054
S11312009B8F8A8FCE0101960E947C05CE018D5260
S11312109F4F0E94660ECE0188549F4F0E94660E17
S113122061ED71E08BEA92E00E94E311882331F0D2
S113123061ED71E08BEA92E00E94EF11C450DF4F40
S1131240A881B981CC5FD0400FB6F894BEBF0FBE61
S1131250ADBFC350DF4F0FB6F894DEBF0FBECDBF96
S1131260DF91CF911F910F91FF90EF90DF90CF907E
S1131270BF90AF909F908F907F906F905F903F90C2
S11312802F9008951F93CF93DF93CDB7DEB7EA97DE
S11312900FB6F894DEBF0FBECDBF182FFE013196F6
S11312A086E0DF011D928A95E9F73EE23A8327E55D
S11312B02B8391E49C8386E58D83E0919A02F0E090
S11312C0E456FD4F40814983E3E9F2E01083418312
S11312D03283238394838583BF018BEA92E00E9447
S11312E0E311811154C0133511F0183429F586E146
S11312F0E9E3F1E0DE01179601900D928A95E1F79A
S1131300133579F4CE0101960E94D40528EE33E01A
S11313104BE0BE016F5F7F4FCE0107960E946406CB
S113132036C024EF31E04BE0BE016F5F7F4FCE014A
S113133007960E9464062BC01234A1F484E3EFE400
S1131340F1E0DE01179601900D928A95E1F724EF02
S113135031E04AE1BE016F5F7F4FCE0107960E94E4
S1131360640615C01C3499F48CE1E3E8F1E0DE0175
S1131370179601900D928A95E1F72AEF30E04EE03E
S1131380BE016F5F7F4FCE0107960E946406EA9606
S11313900FB6F894DEBF0FBECDBFDF91CF911F9182
S11313A008950F931F93CF93DF9300D000D000D004
S11313B0CDB7DEB78AED91E00E942C04FE01319690
S11313C086E0DF011D928A95E9F780E289838B83A9
S11313D08C8381E38A8388E58D8318E501E30E9489
S11313E0FB03803731F4005300930601183529F5C7
S11313F02BC08E3359F4183581F0183481F01C3425
S113140081F0123481F0133589F40FC08C3371F4F8
S1131410033309F400E30F5F09C018E407C01CE4B8
S113142005C012E403C013E501C018E50A831D8357
S1131430CE0101960E944104D2CF80EE91E00E9439
S11314402C04812F0E94420926960FB6F894DEBF21
S11314500FBECDBFDF91CF911F910F9108951F93C0
S1131460CF93DF93CDB7DEB76B970FB6F894DEBF9B
S11314700FBECDBF0E94D1098BEE91E00E942C04D7
S113148021E043E952E06BEA72E0CE0101960E944A
S1131490CC10CE0101960E94790E81110EC083EF0B
S11314A091E00E9441042FEF83ED90E321508040AE
S11314B09040E1F700C000005EC04CE250E060E004
S11314C070E0CE0101960E94080E83E992E00E942A
S11314D04104809106018230C8F4CE0101960E9435
S11314E0370E892BE1F1CE0101960E94510D9093A4
S11314F089008093880025ED2A95F1F700000E9469
S1131500FB03803751F72BC011E001C011E0CE017D
S113151001960E94370E892B11F10E94FB0380373C
S1131520F1F0113069F4CE0101960E94510D9093AF
S113153089008093880085ED8A95F1F7000004C046
S1131540CE0101960E94510D1F5F212F30E0809142
S1131550060190E0019628173907C9F6D5CF1092F5
S113156089001092880089EF91E00E944104CE0125
S113157001960E94660E9FEF23ED80E39150204078
S11315808040E1F700C00000E0919A02F0E0E456E8
S1131590FD4F8081E3E9F2E080838EE2818387E579
S11315A0828381E4838386E5848315826B960FB6F8
S11315B0F894DEBF0FBECDBFDF91CF911F91089588
S11315C0ECE7F0E09081892B8083EAE7F0E080810A
S11315D08064808380917A0086FDFCCFECE7F0E0A4
S11315E08081807F80838091790008951F93CF93B9
S11315F0DF93CDB7DEB7C155D1090FB6F894DEBF7E
S11316000FBECDBF0E94B10427E143E952E06BEA6B
S113161072E0CE01C7960E94CC10CE01C7960E94FC
S1131620790E811105C083EF91E00E942C0480C0E3
S113163085E092E00E942C0489AD9AAD9F8F8E8F35
S11316408BAD9CADADADBEAD88A399A3AAA3BBA33E
S113165023968CAD9DADAEADBFAD23978CA39DA35A
S1131660AEA3BFA384E592E09D8F8C8F8DE0FE0135
S1131670ED5BFF4FDE01989601900D928A95E1F79C
S113168062968EAD9FAD62979EAB8DABCE014C96AC
S11316900E94300580E090E00E94E00A182F0E942A
S11316A0FB03833751F0612FCE01C7960E94010DD1
S11316B025E52A95F1F70000EDCF89AD9AAD9C831D
S11316C08B838BAD9CADADADBEAD8D839E83AF835F
S11316D0B88723968CAD9DADAEADBFAD23978987FA
S11316E09A87AB87BC8784E592E09A8389838DE0EF
S11316F0FE01ED5BFF4FDE011D9601900D928A9570
S1131700E1F762968EAD9FAD62979B8F8A8FCE0173
S113171001960E947C058FE092E00E942C048FEFDA
S113172093ED20E3815090402040E1F700C0000099
S1131730CE01C7960E94660ECF5ADF4F0FB6F894BB
S1131740DEBF0FBECDBFDF91CF911F910895789476
S113175084B5826084BD84B5816084BD85B58260B2
S113176085BD85B5816085BDEEE6F0E08081816050
S11317708083E1E8F0E01082808181608083A0E8CA
S1131780B0E08C9181608C938C9180688C93808183
S113179088608083E1EBF0E0808184608083E0EB0B
S11317A0F0E0808181608083EAE7F0E080818460FA
S11317B0808380818068808380E680937C0010929F
S11317C0C10008950E94A70BE3E9F2E08EE2818351
S11317D087E5828381E4838386E584831AB88FEF67
S11317E08BB987B18E7F87B984B1826084B9109236
S11317F08900109288008BE892E00E9494036AE0CA
S11318008BEA92E00E94A60F811105C083EF91E05C
S11318100E942C04FFCF0E9452042FEF83ED90E32B
S1131820215080409040E1F700C000008091080101
S1131830833759F4809107018A3639F40E94F60AF5
S11318400E94520489E68093080180910801803740
S1131850C1F5809107018A36A1F58BE680930701D3
S113186089E68093080180919B02811111C08AE668
S11318708093070185E192E00E942C042FEF83ED11
S113188090E3215080409040E1F700C0000019C06F
S11318908FE192E00E942C042FEF83ED90E321501E
S11318A080409040E1F700C00000E0919A02F0E02F
S11318B0E456FD4F80818093930283E992E00E9475
S11318C04104809107018B3609F07FC00E94FB031D
S11318D08823E1F380930801803739F40E942F0AAA
S11318E08FE192E00E942C0469C08E3319F40E94A7
S11318F0850464C08C3319F40E949B045FC0833751
S113190039F48AE68093070189E68093080156C07A
S1131910843609F053C08DE292E00E942C040E94A8
S1131920FB038436D9F40E94C40489E392E00E9444
S11319302C040E94520480919A0290919B02891374
S113194003C0815080939A022FEF83ED90E32150DE
S113195080409040E1F700C000000FC08037F9F6E6
S113196085E392E00E942C042FEF83ED90E3215055
S113197080409040E1F700C0000080919B028111FB
S113198011C085E192E00E942C042FEF83ED90E3D7
S1131990215080409040E1F700C000008AE6809327
S11319A007010CC08FE192E00E942C04E0919A029E
S11319B0F0E0E456FD4F80818093930283E992E046
S11319C00E94410489E680930801809108018936C8
S11319D009F02CCF809107018A3609F027CF81E4E2
S11319E092E00E942C040E94FB038823E1F380937D
S11319F008011CCF6FEF7FEF81E090E00E94F003BD
S1131A000895CF93DF931F92CDB7DEB76983DC01CE
S1131A10ED91FC910280F381E02D41E050E0BE01A4
S1131A206F5F7F4F09950F90DF91CF910895DC018F
S1131A3059968D919C915A97009741F0DC01ED9154
S1131A40FC910480F581E02D0995089580E090E0F3
S1131A500895CF93DF93DC015996ED91FC915A9749
S1131A60309749F421E030E013963C932E9312977B
S1131A7080E090E013C0EC0113821282898D9A8D6C
S1131A800E94561CE98DFA8D22813381232B31F07B
S1131A9081E090E09B838A8380E090E0DF91CF91A6
S1131AA00895CF93DF931F92CDB7DEB7FC01818DEC
S1131AB0928D009779F041E050E0BE016F5F7F4F57
S1131AC00E94DF16019719F4898190E005C08FEF19
S1131AD09FEF02C08FEF9FEF0F90DF91CF9108959A
S1131AE0EF92FF920F931F93CF93DF931F92CDB783
S1131AF0DEB7FC01818D928D009719F18F0141E0D1
S1131B0050E0BE016F5F7F4F0E94DF16019719F40A
S1131B10E980F12C03C0EE24EA94FE2C8FEFE81642
S1131B20F80689F0F801818D928DFC014285538578
S1131B306485758541505109610971090E947918BC
S1131B4002C0E12CF12CC7010F90DF91CF911F91BE
S1131B500F91FF90EF900895FC01818D928D009775
S1131B6019F061E00E941A190895EF92FF920F9301
S1131B701F93CF93DF93EC017B018A011B821A82AE
S1131B8088EE93E0A0E0B0E08C839D83AE83BF83B6
S1131B9084E592E0998388838DE190E00E94E829AE
S1131BA09A8F898F009779F02DE1F701DC0101907C
S1131BB00D922A95E1F74CE050E0B801CE010C9665
S1131BC00E94262B188EDF91CF911F910F91FF90C9
S1131BD0EF900895FC011382128288EE93E0A0E056
S1131BE0B0E084839583A683B78384E592E09183F0
S1131BF08083128E118E14860895FC01818D928D3E
S1131C00009719F00E94DF16089580E090E008958F
S1131C10FC01818D928D009739F00E94791891E032
S1131C20811103C090E001C090E0892F0895DC0188
S1131C305996ED91FC915A97309729F062857385F6
S1131C408485958508956FEF7FEFCB010895DC01BE
S1131C505996ED91FC915A97309729F063897489CC
S1131C6085899689089560E070E0CB010895CF924C
S1131C70DF92EF92FF92CF93DF93FC01218D328D9F
S1131C80232BD9F0EC010E94270E6B017C01CE01BD
S1131C900E94170EA7019601261B370B480B590B00
S1131CA0DA01C901811530E89307A105B10538F0BF
S1131CB08FEF9FE7A0E0B0E002C080E090E0DF910A
S1131CC0CF91FF90EF90DF90CF900895CF93DF9363
S1131CD0FC01818D928D009749F0EF010E946D19EE
S1131CE0898D9A8D0E94802A1A8E198EDF91CF9148
S1131CF00895DC015996ED91FC915A97309731F093
S1131D00958181E0911103C080E0089580E00895F9
S1131D100197C9F46F3F7F4FB1F4EBEAF2E015820B
S1131D2016821186138682E090E0A0E0B0E08487FA
S1131D309587A687B78713A215A614A688E692E00E
S1131D4093A782A717A608951F93CF93DF93CDB7C8
S1131D50DEB76D970FB6F894DEBF0FBECDBFAB01F3
S1131D601C821B8228E632E03A8329831E8221E00A
S1131D70BC01CE0101960E941E1B11E0811101C01D
S1131D8010E0882321F0CE0101960E946D19812F65
S1131D906D960FB6F894DEBF0FBECDBFDF91CF9125
S1131DA01F910895442339F00E942F1C91E0811162
S1131DB003C090E001C091E0892F0895CF93DF9391
S1131DC0EC01DB01ED91FC91DC01AE0FBF1F8C91A6
S1131DD08F3209F4319620E030E02C30310584F460
S1131DE0DE01AE0FBF1F9C919F3251F0992341F049
S1131DF0DA01A20FB31F31969C932F5F3F4FEDCFB3
S1131E00DA01A20FB31F1C92DE01AE0FBF1F8C912B
S1131E108F3209F43196DB01ED93FC93EC0FFD1F37
S1131E20908181E0911101C080E0DF91CF9108950C
S1131E305F926F927F928F929F92AF92BF92CF9256
S1131E40DF92EF92FF920F931F93CF93DF93CDB75F
S1131E50DEB7C954D1090FB6F894DEBF0FBECDBFAB
S1131E604C016B013A0159011C821B8288E692E005
S1131E709A8389831E8219A218A29F8F8E8F1BA218
S1131E802A961FAE1EAE2A978B01CE0101967C01C5
S1131E90AE01455C5F4FBE01685B7F4FC4010E9489
S1131EA0DE0E582E41E048279501BE01655C7F4F48
S1131EB0C801F3010995811108C00C151D0551F1E4
S1131EC0C8010E946D1980E02AC05520D9F021E094
S1131ED0AE01455C5F4FB801C7010E941E1B582E1E
S1131EE00C151D0519F0C8010E946D195520A1F0AB
S1131EF00C151D0511F0C80102C0CE014E968701D4
S1131F007C01C6CF0C151D0549F0C8010E946D194E
S1131F1081E005C080E003C080E001C081E0C75BD0
S1131F20DF4F0FB6F894DEBF0FBECDBFDF91CF9168
S1131F301F910F91FF90EF90DF90CF90BF90AF90E3
S1131F409F908F907F906F905F9008950F931F9351
S1131F50CF93DF93EC01162F8FA5882321F0CE01B8
S1131F608A960E946D19412F61E0CE010E942F13C1
S1131F708823E1F08E01045F1F4F41E0BE01C801D8
S1131F800E94F821811106C040E0BE01C8010E94F0
S1131F90F82101C081E0882359F0B801CE018A9666
S1131FA00E948216882331F081E005C080E003C0DE
S1131FB080E001C080E0DF91CF911F910F910895DF
S1131FC04F925F926F927F928F929F92AF92BF9245
S1131FD0CF92DF92EF92FF920F931F93CF93DF93F1
S1131FE0CDB7DEB7C754D1090FB6F894DEBF0FBE24
S1131FF0CDBF4C013A0129011C821B8288E692E084
S11320009A8389831E8219A218A29F8F8E8F1BA286
S1132010645F7F4FCE0101960E94821673016E01A8
S11320208EE1C80ED11CFE0131965F016FE270E0B3
S1132030C7010E941B2B0097F1F1F70120812F3279
S113204021F4FFEFEF1AFF0AF1CF0097A1F18E19E7
S11320508D3008F08CE0082F10E0A801B701CE0104
S1132060CB960E94262BEBE3F0E0EC0FFD1FE00F74
S1132070F11F1082C6010E946D1921E0AE01455C7A
S11320805F4FB501C6010E941E1B811109C0F401F6
S11320901382128288E692E091838083158263C062
S11320A0E00EF11EC5010E946D199A2D8B2D56016B
S11320B0C92ED82EBBCFE618F708F201F182E082D0
S11320C083EA91E0F40191838083F5018281938115
S11320D0F4019383828388E692E091838083F501FF
S11320E08481F4018483F5018581F4018583F501FC
S11320F086819781A085B185F40186839783A08723
S1132100B187F50182859385A485B585F40182871D
S11321109387A487B587F50186859785A089B189BA
S1132120F40186879787A08BB18BF5018289F4012E
S1132130828BF50183899489A589B689F401838BFF
S1132140948BA58BB68BF5018789908DA18DB28D6B
S1132150F401878B908FA18FB28FF501838D948DBD
S1132160F401948F838FC401C95BDF4F0FB6F894D9
S1132170DEBF0FBECDBFDF91CF911F910F91FF90B6
S1132180EF90DF90CF90BF90AF909F908F907F9013
S11321906F905F904F900895DF92EF92FF920F93AC
S11321A01F93CF93DF93CDB7DEB7C657D1090FB6D0
S11321B0F894DEBF0FBECDBF7C018A01D22E9E01F2
S11321C0255C3F4FCE01CD960E94E00F8BAD9CADB8
S11321D0080F191FF8018081811157C021968EAD17
S11321E09FAD219799A388A388E692E09F8F8E8F55
S11321F022968FAD22978AA323968FAD23978BA324
S113220027968CAD9DADAEADBFAD27978CA39DA396
S1132210AEA3BFA32B968CAD9DADAEADBFAD2B973A
S113222088A799A7AAA7BBA72F968CAD9DADAEADE5
S1132230BFAD2F978CA79DA7AEA7BFA760968FAD04
S1132240609788AB64968CAD9DADAEADBFAD649721
S113225089AB9AABABABBCAB68968CAD9DADAEAD68
S1132260BFAD68978DAB9EABAFABB8AF6A968EAD82
S11322709FAD6A979AAF89AF42E652E0BE01625EB3
S11322807F4FC7010E94B50D8EC06E961FAE1EAE65
S11322906E9788E692E06C969FAF8EAF6C97A0968F
S11322A01FAEA09723968FAD2397811104C0C70159
S11322B00E94EA0D78C02D2DA801BE01635C7F4FFA
S11322C0CE01865A9F4F0E941E1B811104C0C70174
S11322D00E94EA0D68C0CE01CD960E946D198D2D25
S11322E08670863059F4E1964CAD5DAD6EAD7FAD30
S11322F0E197CE01865A9F4F0E9479186E968EAD53
S11323009FAD6E979C838B8388E692E09A83898342
S11323106F968FAD6F978D83A0968FADA0978E83A8
S1132320A4968CAD9DADAEADBFADA4978F839887B9
S1132330A987BA87A8968CAD9DADAEADBFADA89761
S11323408B879C87AD87BE87AC968CAD9DADAEADBB
S1132350BFADAC978F87988BA98BBA8BAD968FAD99
S1132360AD978B8BE1968CAD9DADAEADBFADE197D6
S11323708C8B9D8BAE8BBF8BE5968CAD9DADAEAD3E
S1132380BFADE597888F998FAA8FBB8FE7968EADE7
S11323909FADE7979D8F8C8FA801BE016F5F7F4F24
S11323A0C7010E94B50DC701CA58DF4F0FB6F89494
S11323B0DEBF0FBECDBFDF91CF911F910F91FF9074
S11323C0EF90DF900895FB01BC01665D7F4F20E034
S11323D030E044EA5EE0CF010E94180F0895FB014B
S11323E0BC01665D7F4F20E030E042ED5EE0CF014E
S11323F00E94180F08956FEF7FEF81E090E00E9434
S1132400880E08958EBD00000DB407FEFDCF8EB575
S113241008958FEF8EBD00000DB407FEFDCF8EB57D
S11324200895019741F46F3F7F4F29F4E5EFF2E0FF
S113243080E580831182089561E0FC0184810E941B
S1132440A2028091F4028823A1F01092F4028091F8
S11324500205882371F09FB7F894809102058130BA
S113246029F4809100058DBB9FBF089580910005DC
S11324708FBF08952091F402211120C021E0209300
S1132480F4023091F5022091F602409102054423B2
S113249099F04FB7F89450910205513059F45DB357
S11324A0509300056DB350910105509556235DBBC3
S11324B04FBF02C0409300053CBD2DBD60E0FC0150
S11324C084810E94A2020895CF93DF93EC018E8150
S11324D0882389F08F8198859C012F5F3F4F38872F
S11324E02F838230924018F40E940912F3CFCE0158
S11324F00E941C121E82DF91CF910895673028F04C
S113250026E1FC01258380E008956230D1F028F4AF
S1132510662349F0613071F030C0643001F1C0F0DD
S1132520653021F12AC080E58093F50281E0809333
S1132530F602089580E58093F5021092F60281E098
S1132540089581E58093F50281E08093F602089571
S113255081E58093F5021092F60281E0089582E508
S11325608093F50281E08093F602089582E58093DA
S1132570F5021092F60281E0089583E58093F50256
S11325801092F60281E008950F931F93CF93DF9387
S1132590EB010E9402028B010E9409128F3F49F055
S11325A00E940202601B710B6C177D07A8F380E088
S11325B001C081E0DF91CF911F910F910895CF92D7
S11325C0DF92EF92FF920F931F93CF93DF938C01CF
S11325D0D62F69017A010E946412C8010E943A123E
S11325E06CE271E0C8010E94C4128D2F80640E94C5
S11325F00212C8E1CC2374F0D701C6010C2E04C02A
S1132600B695A795979587950A94D2F70E940212DA
S1132610C850F0CFDD2311F08FEF01C085E9D83029
S113262009F487E80E940212C0E00E940912F8012E
S11326308287882324F4CF3F21F490E003C090E004
S113264001C091E0992311F0CF5FEFCFDF91CF91DB
S11326501F910F91FF90EF90DF90CF9008958F928C
S11326609F92AF92BF92EF92FF920F931F93CF93DB
S1132670DF93EC01E62E1B8619861E821D824C8395
S11326800E9402028B0161E08C810E94630261E07E
S11326908C810E94A2020E94592382E58093F50254
S11326A01092F60280910205882399F08FB7F8946E
S11326B090910205913059F49DB3909300052DB388
S11326C090910105909592239DBB8FBF02C080938A
S11326D0000582E58CBD1DBCF12C89E08F1528F026
S11326E08FEF0E940212F394F8CF809102058823A1
S11326F071F09FB7F89480910205813029F480919C
S113270000058DBB9FBF03C0809100058FBFCE0124
S11327100E943A1220E030E0A90160E0CE010E945C
S1132720DF128A87813051F00E940202601B710B14
S1132730613D774078F381E08D8369C02AEA31E016
S113274040E050E068E0CE010E94DF1282FF03C047
S113275081E08B8711C0F12C83E08F1528F00E9453
S113276009128A87F394F8CF8A858A3A19F082E0AD
S11327708D834DC082E08B878B85823031F4812C30
S1132780912C54016894B6F803C0812C912C540107
S113279020E030E0A90167E3CE010E94DF12A50129
S11327A0940169E2CE010E94DF128A87882351F0E6
S11327B00E940202601B710B613D774048F388E080
S11327C08D8325C08B858230D1F420E030E0A901CF
S11327D06AE3CE010E94DF12882319F086E08D831C
S11327E016C00E940912807C803C11F483E08B8720
S11327F010E0133020F40E9409121F5FFACFCE01BB
S11328000E941C126E2DCE010E947E1204C0CE01C5
S11328100E941C1280E0DF91CF911F910F91FF90D5
S1132820EF90BF90AF909F908F9008950F931F9358
S1132830CF93DF93EC010E9402028B010E940912E4
S11328408A878F3F51F40E940202601B710B6D3224
S11328507140A0F38FE08D8304C08E3F39F08DE08A
S11328608D83CE010E941C1280E001C081E0DF91C3
S1132870CF911F910F910895AF92BF92CF92DF92A3
S1132880EF92FF920F931F93CF93DF93EC016901B3
S11328900115110509F46FC0C801820F931F81301F
S11328A0924008F063C08E81882371F088819981F9
S11328B0AA81BB8184179507A607B70729F48F81DE
S11328C09885C816D90620F5488359836A837B8383
S11328D08B85833049F0032E39E0440F551F661F62
S11328E0771F3A95D1F7302D9A01AB0161E1CE0102
S11328F00E94DF12882319F083E08D8337C0CE0154
S11329000E941614882391F118861F8281E08E8319
S11329108F8198858C159D0540F40E9409128F8142
S11329209885019698878F83F3CFC12CD12CC0163C
S1132930D10658F45701AC0CBD1C0E940912F501D4
S11329408083FFEFCF1ADF0AF2CF8F819885080FBB
S1132950191F18870F838985882319F001151240E0
S113296060F0CE010E94641281E008C0CE010E9492
S11329701C1280E003C081E001C081E0DF91CF91AF
S11329801F910F91FF90EF90DF90CF90BF90AF9089
S11329900895EF92FF920F931F93790100E012E0E4
S11329A020E030E00E943C141F910F91FF90EF90C3
S11329B00895EF92FF920F931F93CF93DF937C01BF
S11329C0862F8A010E940212C0E0D0E0C11582E085
S11329D0D80740F4F801EC0FFD1F80810E94021219
S11329E02196F4CF8FEF0E9402128FEF0E94021201
S11329F00E940912F70182878F71853039F081E1D5
S1132A008583C7010E941C1280E001C081E0DF9130
S1132A10CF911F910F91FF90EF900895EF92FF9245
S1132A200F93CF93DF93EC017901411551056105B3
S1132A30710519F482E18D8345C08B85833049F09B
S1132A40032E39E0440F551F661F771F3A95D1F7BF
S1132A50302D9A01AB0168E1CE010E94DF12882378
S1132A6019F084E08D832EC0A7016EEFCE010E9481
S1132A70D914882339F1002301F168E572E0CE010D
S1132A800E94C412811103C085E18D831BC020E024
S1132A9030E0A9016DE0CE010E94DF12811105C072
S1132AA00E940912811103C003C081E001C081E0CA
S1132AB0882319F084E18D8305C0CE010E941C1285
S1132AC081E004C0CE010E941C1280E0DF91CF910E
S1132AD00F91FF90EF9008951F93CF93DF93EC0134
S1132AE00E943A120E940912182FCE010E941C1251
S1132AF081E01F3F09F480E0DF91CF911F91089599
S1132B006FEF7FEF81E090E00E9411120895CF9360
S1132B10DF93EC019C012A5F3F4F41E050E060E00D
S1132B2070E08B8D9C8D0E948E208823B9F08F8954
S1132B30988DA98DBA8D892B8A2B8B2B59F48E8174
S1132B409F81A885B9858F8B988FA98FBA8F8C8127
S1132B5080688C838C8180628C8381E0DF91CF914B
S1132B600895CF92DF92EF92FF920F931F93CF932A
S1132B708C010E948715882309F454C0D801169645
S1132B80CD90DD90ED90FC9019975B96ED91FC91C2
S1132B905C9786859785A089B18922E0C21AD108FD
S1132BA0E108F108058404C0CC0CDD1CEE1CFF1CFC
S1132BB00A94D2F7C80ED91EEA1EFB1EC481CC2388
S1132BC091F0D701C6018C0F911DA11DB11DBC014F
S1132BD0CD0161507109810991090E94B01E8823B9
S1132BE009F1C150ECCFD8015B96ED91FC915C9753
S1132BF080E092E0A0E0B0E0058404C0880F991F53
S1132C00AA1FBB1F0A94D2F7F80143895489658926
S1132C107689840F951FA61FB71F838B948BA58B72
S1132C20B68B81E0CF911F910F91FF90EF90DF90D1
S1132C30CF900895CF93DF93EC01462F6E857F8567
S1132C40888999890E94761E882341F08A8920E226
S1132C50829FC001112480509D4F02C080E090E00B
S1132C60DF91CF910895CF93DF93DC0190E09B3007
S1132C7048F4FB01E90FF11D20E220839F5FF7CFA9
S1132C80DE0102C040E057E0ED0121969C919923BA
S1132C9031F19E3229F45A3049F148E05AE0F0CF3C
S1132CA0EAE4F2E09F012F5F3F4F8491882321F0F3
S1132CB0F9019813F7CF1CC05417E0F09132E0F0FB
S1132CC09F37E0F481E0840FFB01E40FF11D2FE94D
S1132CD0290F2A3108F490529083482FD1CFFB0159
S1132CE0908181E0903259F480E009C080E007C00F
S1132CF080E005C080E003C080E001C080E0DF9197
S1132D00CF9108950F931F93CF93DF93EC018D819F
S1132D1081114FC08B01FB019789903119F582E035
S1132D208D831F8A188E198E1A8E808D918DA0E046
S1132D30B0E0880F991FAA1FBB1F880F991FAA1FF5
S1132D40BB1F880F991FAA1FBB1F880F991FAA1F9B
S1132D50BB1F880F991FAA1FBB1F8B8B9C8BAD8B2E
S1132D60BE8B15C0903231F583E08D83FB01428D1B
S1132D70538D648D758D4F8B588F698F7A8F9E011B
S1132D802D5E3F4FC8010E94651F882399F01C8F58
S1132D900B8F81E08C831E821F82188619861A8607
S1132DA01B861C861D861E861F86188A198A1A8A07
S1132DB001C080E0DF91CF911F910F9108953F9260
S1132DC04F925F926F927F928F929F92AF92BF9237
S1132DD0CF92DF92EF92FF920F931F93CF93DF93E3
S1132DE000D000D0CDB7DEB74C016B015A834983C4
S1132DF0FC018581882331F0848180FD06C0332461
S1132E00339404C03324339401C0312C311005C1F0
S1132E1009811A81C801A0E0B0E0F4010389148992
S1132E20258936894285538564857585280139014C
S1132E30441A550A660A770A481659066A067B0632
S1132E4028F4C801841B950B9A83898369807A804E
S1132E506114710409F4DEC0F40182859385A485AC
S1132E60B5852C01F1E05F22F40125812230C9F4FB
S1132E70238D348DF901428D538D648D758D072E0C
S1132E8079E0B695A795979587957A95D1F7702DA2
S1132E908A019B01080F191F2A1F3B1FC901B80192
S1132EA054C0F401038D148DF801B480BA94AC01BC
S1132EB0BD01032E39E076956795579547953A9568
S1132EC0D1F7302DB42241145104F1F4B1101CC0D7
S1132ED0892B8A2B8B2B51F4F4018789908DA18D3A
S1132EE0B28D86839783A087B1870EC0F401468193
S1132EF057816085718594012A5F3F4FC8010E9404
S1132F00DA1E882309F48CC0F40186819781A08598
S1132F10B185238D348DF901468557856089718982
S1132F200297A109B109058404C0880F991FAA1F3B
S1132F30BB1F0A94D2F7840F951FA61FB71FBC01AD
S1132F40CD016B0D711D811D911D20E032E05901F1
S1132F50A418B508A614B70408F05301F401248199
S1132F6026FD04C0A114F2E0BF0679F40091090122
S1132F7010910A0120910B0130910C016017710727
S1132F808207930721F4232D03C0232D01C021E0E0
S1132F90222381F0760185019201AB01BC0180916D
S1132FA0FE029091FF020E943C148823E1F1CA0CB6
S1132FB0DB1C20C040E00E94761E8823B9F1820108
S1132FC000501D4F1C830B8398012A0D3B1D4B8120
S1132FD05C814217530771F0FA018081F601808306
S1132FE08A010F5F1F4F1C830B83A6014F5F5F4F46
S1132FF06A01EDCFF40182859385A485B5858A0D98
S11330009B1DA11DB11D82879387A487B5876A186C
S11330107B081ECF89819A810BC08FEF9FEF08C078
S11330208FEF9FEF05C08FEF9FEF02C08FEF9FEFF1
S11330300F900F900F900F90DF91CF911F910F91F0
S1133040FF90EF90DF90CF90BF90AF909F908F90C4
S11330507F906F905F904F903F900895FF920F93F1
S11330601F93CF93DF931F92CDB7DEB7FC01258169
S1133070223098F18C014285538564857585689466
S113308014F876956795579547951694D1F7F42FCC
S1133090FF70FF2E41E050E0BE016F5F7F4F0E9442
S11330A0DF16019719F4898190E002C08FEF9FEF3A
S11330B09923B4F0F80182859385A485B5854F964C
S11330C0A11DB11D82879387A487B587F0E2FF9E77
S11330D0C001112480509D4F05C080E090E002C0E3
S11330E080E090E00F90DF91CF911F910F91FF90BE
S11330F008958F929F92AF92BF92CF92DF92EF92F8
S1133100FF920F931F93CF93DF93EC018D8188235C
S113311059F00B891C892D893E8904171507260748
S1133120370720F491E003C091E001C090E09111D1
S113313073C0823031F44A875B876C877D8781E076
S11331406CC0411551056105710551F41E821F8241
S1133150188619861A861B861C861D8681E05DC02A
S11331604A015B010A851B852C853D85680179012F
S113317081E0C81AD108E108F108EB8DFC8D858542
S113318090E00996082E04C0F694E794D794C79467
S11331900A94D2F7415051096109710904C0769526
S11331A06795579547958A95D2F74C155D056E0539
S11331B07F0520F0012B022B032B49F48F89988D76
S11331C0A98DBA8D8E839F83A887B98704C04C19B3
S11331D05D096E097F096A017B0181E0C81AD10883
S11331E0E108F108452B462B472B81F04E815F8186
S11331F0688579859E012A5F3F4F8B8D9C8D0E9447
S1133200DA1EB701A6018111E6CF07C08A869B8624
S1133210AC86BD8681E001C080E0DF91CF911F9133
S11332200F91FF90EF90DF90CF90BF90AF909F9061
S11332308F900895FF920F931F93CF93DF93FC0118
S11332408581882309F443C0F62EEF018481882305
S1133250A4F561E0CF010E941A168C01892BB1F10B
S11332608D81823048F48B899C89AD89BE89F801AF
S1133270848F958FA68FB78F8F89988DA98DBA8DDE
S1133280F801938F828F8F89988DA98DBA8DB58B14
S1133290A48BE091F702F091F802309759F0B8014D
S11332A06A5E7F4FC80148960995F801808D918D1B
S11332B0938B828B8C818F778C83F11003C08C81EC
S11332C08F7E8C838F2D0E944B1E01C080E0DF9186
S11332D0CF911F910F91FF900895CF93DF93EC014D
S11332E061E00E941A19882311F01D8281E0DF91A8
S11332F0CF910895CF93DF93FC012581213029F4E8
S1133300248121FD04C021E003C021E001C020E0AC
S113331021114AC0EC018C8182FF12C08A859B85F1
S1133320AC85BD854B895C896D897E898417950739
S1133330A607B70729F0CE010E9479188823B9F1AE
S11333408091FE029091FF020E946C15811132C09F
S11333508C8185FF0AC060E0CE010E941A198C811D
S11333608F7D8C8380E090E027C04091F9025091DA
S1133370FA026091FB027091FC02452B462B472B0D
S113338031F080E00E94251E80E090E015C080614D
S11333908C838A859B85AC85BD859C01317080E0DA
S11333A092E0821B930B08C080E090E005C080E0AF
S11333B090E002C080E090E0DF91CF9108954F92B9
S11333C05F926F927F928F929F92AF92BF92EF9291
S11333D0FF920F931F93CF93DF9300D000D0CDB70C
S11333E0DEB7FC018581813029F4848181FD04C02C
S11333F081E003C081E001C080E0811199C083892C
S11334009489A589B68984179507A607B70708F490
S113341091C0892B8A2B8B2B09F48EC082849384D0
S1133420A484B584481559056A057B0510F44A013E
S11334305B012A013B017F01CF010E947918882397
S113344009F47BC04114510461047104B1F4D7013F
S113345057964D915D916D917C915A975B968D91A4
S11334609C915C970E94A221882309F466C0F7010D
S1133470178A108E118E128E42C0D70116964D9166
S11334805D916D917C9119979E012F5F3F4F5B96E3
S11334908D919C915C970E94DA1E882371F1498179
S11334A05A816B817C81D7015B96ED91FC915C978D
S11334B08789803129F488EF9FEFA0E0B0E004C051
S11334C088EF9FEFAFEFBFE0481759076A077B0704
S11334D0B0F4CF010E94A221882379F0F70146813C
S11334E05781608571850FEF1FEF2FEF3FE0838DCC
S11334F0948D0E94C31F811102C080E01EC0D701B9
S113350053964D925D926D927C92569714968C913F
S11335101497806814968C9361E0C7010E941A196D
S1133520882359F0B501A401C7010E94791805C088
S113353080E003C080E001C081E00F900F900F9005
S11335400F90DF91CF911F910F91FF90EF90BF905B
S1133550AF909F908F907F906F905F904F90089561
S11335601F93CF93DF93EC0180E2689FF001112455
S1133570E050FD4F9385917121F0842F827409F0FE
S113358054C0142F6A8B8091090190910A01A09173
S11335900B01B0910C018E879F87A88BB98B84890E
S11335A09589A0E0B0E0DC01992788278F8B988F5C
S11335B0A98FBA8F428D538D60E070E0482B592B50
S11335C06A2B7B2B4F8B588F698F7A8F23852871B9
S11335D059F4848D958DA68DB78D8B8B9C8BAD8B7B
S11335E0BE8B81E08D830DC0203109F59E012D5ED7
S11335F03F4F8B8D9C8D0E94651F8823D9F084E0FA
S11336008D83812F8F708C831E821F82188619866A
S11336101A861B861C861D8616FF0BC040E050E0F0
S1133620BA01CE010E94DF1905C080E003C080E02A
S113363001C081E0DF91CF911F910895AF92BF92B5
S1133640CF92DF92EF92FF920F931F93CF93DF936A
S1133650CDB7DEB72B970FB6F894DEBF0FBECDBF44
S1133660FC01C580C110CAC0A22E8B017C01BE0121
S11336706F5F7F4FCA010E943316882309F4C0C0CC
S1133680F801838D948DF701948F838FF80116824E
S11336901782108611861286138614861586B12C1D
S11336A0F801428553856485758583899489A58944
S11336B0B689481759076A077B0708F044C068941D
S11336C014F876956795579547951694D1F7F42F86
S11336D0FF70DF2EC8010E942E18009709F491C0D4
S11336E0FC012081222311F0253EB9F4B11010C051
S11336F0F701D28A4091090150910A0160910B01AE
S113370070910C0146875787608B718BBB24B394EF
S1133710FC0180818111C4CF16C04BE050E0BC0194
S1133720CE0101960E940E2B892B09F0B9CF8A2D68
S11337308073803309F465C04A2D6D2DC7010E9442
S1133740B01AC82E5EC08A2D8271823109F059C028
S1133750BB2041F061E0C7010E941A168C01892B3D
S113376089F44FC0F8018581823009F44AC0C80148
S11337700E94B115C82E882309F443C0F701128AA8
S113378000E013E080E2F80111928A95E9F78BE0FA
S1133790FE013196D80101900D928A95E1F7E091EE
S11337A0F702F091F802309739F0B801625F7F4F69
S11337B0C8014096099509C081E298E2F801918B0D
S11337C0808B80E098E097878687F80180899189CB
S11337D0938B828B918F808F86859785978B868B31
S11337E081E00E944B1EC82E882359F0F70162899C
S11337F04A2DC7010E94B01AC82E03C0C12C01C0B3
S1133800C82E8C2D2B960FB6F894DEBF0FBECDBFFD
S1133810DF91CF911F910F91FF90EF90DF90CF90A8
S1133820BF90AF900895CF93DF93EC0140E050E058
S1133830BA010E94DF19882379F061E0CE010E9469
S11338401A16009741F025EEFC0120831D8281E0C9
S11338500E944B1E01C080E0DF91CF910895CF9369
S1133860DF93CDB7DEB76D970FB6F894DEBF0FBE0A
S1133870CDBFAB011C821B8228E632E03A83298348
S11338801E8222E0BC01CE0101960E941E1B8823E9
S113389021F0CE0101960E94131C6D960FB6F89488
S11338A0DEBF0FBECDBFDF91CF9108953F924F92FF
S11338B05F926F927F928F929F92AF92BF92CF92BC
S11338C0DF92EF92FF920F931F93CF93DF9300D079
S11338D000D000D0CDB7DEB76C017B015E834D8391
S11338E0DC0114969C911497292F22952F7081E066
S11338F082278170382E15968C91813019F491FDB0
S113390003C003C081E001C080E0811166C192FD63
S113391003C08D809E8015C0F60182859385A485A1
S1133920B585438954896589768984179507A607DF
S1133930B70779F3C6010E947918882309F44DC1A9
S1133940E8CF8114910409F41BC1D6011A960D9194
S11339501D912D913C911D975B96ED91FC915C9787
S1133960D901C801072E79E0B695A7959795879553
S11339707A95D1F7702D74807A9478221170711031
S113398054C00115110509F050C0D60116964D9189
S11339905D916D917C9119974115510561057105F2
S11339A0B1F457968D919D910D90BC91A02D0097E7
S11339B0A105B10531F4C6010E948715811135C0F6
S11339C00CC1F60186839783A087B1872EC09E0120
S11339D02F5F3F4FCF010E94DA1E811102C090E099
S11339E00BC189819A81AB81BC81F601238D348D11
S11339F0F9012789203129F448EF5FEF60E070E096
S1133A0004C048EF5FEF6FEF7FE084179507A607C8
S1133A10B70730F0C6010E948715811106C0DDC0CA
S1133A20F60186839783A087B18780E092E05C01EA
S1133A30A01AB10A8A149B0408F45401F601868181
S1133A409781A085B185238D348DF90146855785ED
S1133A50608971890297A109B109058404C0880F9E
S1133A60991FAA1FBB1F0A94D2F7840F951FA61F84
S1133A70B71F9C01AD01270D311D411D511D2901A9
S1133A803A01A11432E0B30641F580910901909105
S1133A900A01A0910B01B0910C01481659066A065F
S1133AA07B0659F48FEF9FEFDC018093090190931B
S1133AB00A01A0930B01B0930C01032D9701B301EC
S1133AC0A2018091FE029091FF020E940E158823AC
S1133AD009F483C04EEFF41A43C00115110531F502
S1133AE0D6011A964D915D916D917C911D975396D7
S1133AF08D919D910D90BC91A02D481759076A078F
S1133B007B07A0F081E00E944B1E882309F465C066
S1133B104092090150920A0160920B0170920C01CB
S1133B208091FD0281608093FD0208C041E0C301E1
S1133B30B2010E94761E882309F44FC0F801E050B8
S1133B40FD4F9F012A0D3B1DE217F30749F0D701F2
S1133B508C9180833196A7014F5F5F4F7A01F4CF38
S1133B608A189B08F60182859385A485B5858A0DFC
S1133B709B1DA11DB11D82879387A487B587E1CEC4
S1133B80F60182859385A485B58543895489658921
S1133B907689481759076A077B0740F4838B948B0F
S1133BA0A58BB68B8481806884830DC08091F702D5
S1133BB09091F802892B39F02D813E81232B19F045
S1133BC0848180688483F601848183FF10C061E06E
S1133BD0C6010E941A1981110DC081E090E0D6013E
S1133BE013969C938E93129780E090E005C08D818C
S1133BF09E8102C08D819E8126960FB6F894DEBF09
S1133C000FBECDBFDF91CF911F910F91FF90EF9029
S1133C10DF90CF90BF90AF909F908F907F906F90E8
S1133C205F904F903F900895CF93DF931F92CDB74D
S1133C30DEB7698341E050E0BE016F5F7F4F0E94B1
S1133C40561C0F90DF91CF9108950F934091F90284
S1133C505091FA026091FB027091FC0241155105EA
S1133C6061057105A9F0082F20E033E08091FE0280
S1133C709091FF020E940E15882359F01092F902C8
S1133C801092FA021092FB021092FC0281E001C031
S1133C9081E00F9108950F93CF939091FD029923A2
S1133CA0F9F0C82F4091090150910A0160910B016C
S1133CB070910C01082F20E033E08091FE02909176
S1133CC0FF020E940E15882371F0CC2359F08C2F2B
S1133CD00E94251E882339F01092FD0281E003C062
S1133CE081E001C081E0CF910F910895CF92DF92DE
S1133CF0EF92FF92CF936B017C01C42F8091090155
S1133D0090910A01A0910B01B0910C018C159D05B5
S1133D10AE05BF05C9F081E00E944B1E8823D1F097
S1133D2020E033E0B701A6018091FE029091FF02EA
S1133D300E94C914882371F0C0920901D0920A012B
S1133D40E0920B01F0920C018091FD02C82BC0930C
S1133D50FD0281E0CF91FF90EF90DF90CF90089526
S1133D60CF92DF92EF92FF926B017C0181E00E947F
S1133D704B1E8823D1F080E090E0811522E0920769
S1133D8030F4FC01E050FD4F10820196F6CFC09252
S1133D900901D0920A01E0920B01F0920C0180918A
S1133DA0FD0281608093FD0281E0FF90EF90DF903F
S1133DB0CF9008958F929F92AF92BF92CF92DF924D
S1133DC0EF92FF920F931F93CF93DF93FC01E901CE
S1133DD001851285238534850F5F1F4F2F4F3F4F79
S1133DE0041715072607370708F461C083899489E7
S1133DF0A589B6892789203129F4852E962EA72EE8
S1133E00BB240AC04A015B01689416F8B694A794CF
S1133E10979487941694D1F76A017B018F01BC01B2
S1133E20CD01680D791D8A1D9B1D8090090190901C
S1133E300A01A0900B01B0900C01681579058A0560
S1133E409B0529F040E00E94761E882389F1F80141
S1133E5087898031A1F4B701A60155276627772702
S1133E60440F551FFA01E050FD4F80819181A0E07D
S1133E70B0E088839983AA83BB8381E019C0B7012A
S1133E80A6014F77552766277727440F551F440F00
S1133E90551FFA01E050FD4F80819181A281B381C9
S1133EA0BF7088839983AA83BB8381E001C080E0CB
S1133EB0DF91CF911F910F91FF90EF90DF90CF9002
S1133EC0BF90AF909F908F9008958F929F92AF92E2
S1133ED0BF92EF92FF920F931F93CF93DF9300D083
S1133EE000D0CDB7DEB78C0149835A836B837C83C2
S1133EF07901812C912C540149815A816B817C81F7
S1133F009E012F5F3F4FC8010E94DA1E882361F192
S1133F1080E092E0A0E0B0E0F801058404C0880FDE
S1133F20991FAA1FBB1F0A94D2F7880E991EAA1EB6
S1133F30BB1E89819A81AB81BC812789203129F4F8
S1133F4048EF5FEF60E070E004C048EF5FEF6FEFB1
S1133F507FE084179507A607B70770F2F701808200
S1133F609182A282B38281E00F900F900F900F9004
S1133F70DF91CF911F910F91FF90EF90BF90AF9081
S1133F809F908F9008954F925F926F927F928F923D
S1133F909F92AF92BF92CF92DF92EF92FF920F93D4
S1133FA01F93CF93DF9300D000D000D0CDB7DEB7FE
S1133FB0423051056105710508F494C0DC0119967D
S1133FC0CD90DD90ED90FC901C97BFEFCB1ADB0AEF
S1133FD0EB0AFB0AC416D506E606F70608F484C005
S1133FE0FC014388548865887688E789E03129F4A0
S1133FF0852E962EA72EBB240AC04A015B01689425
S113400016F8B694A794979487941694D1F70983D5
S11340101A832B833C836A017B019E838D83480C26
S1134020591C6A1C7B1C8091090190910A01A09182
S11340300B01B0910C01481659066A067B0641F043
S113404040E0C301B2010E94761E882309F44FC0E8
S1134050AD81BE8157968C91803179F4B701A60168
S1134060552766277727440F551FFA01E050FD4F67
S113407089819A819183808315C0B701A6014F7706
S1134080552766277727440F551F440F551FFA01FC
S1134090E050FD4F89819A81AB81BC8180839183FB
S11340A0A283B3838091FD0281608093FD02AD8180
S11340B0BE8152968C9152978230C0F015968D91A4
S11340C09D910D90BC91A02D480E591E6A1E7B1E19
S11340D04092F9025092FA026092FB027092FC0242
S11340E081E005C080E003C080E001C081E0269645
S11340F00FB6F894DEBF0FBECDBFDF91CF911F91F5
S11341000F91FF90EF90DF90CF90BF90AF909F9072
S11341108F907F906F905F904F9008952F923F9271
S11341204F925F926F927F928F929F92AF92BF92C3
S1134130CF92DF92EF92FF920F931F93CF93DF936F
S1134140CDB7DEB72F970FB6F894DEBF0FBECDBF45
S11341501C0149875A876B877C873E872D87D90145
S11341604D905D906D907C904114510461047104F4
S113417039F0BFEF4B1A5B0A6B0A7B0A1F8611C02A
S1134180FC01408051806280738081E029853A85FA
S11341904B855C85213031054105510509F080E0EE
S11341A08F87F10181859285A385B4859C01AD013A
S11341B02F5F3F4F4F4F5F4F2D833E834F83588771
S11341C073016201812C912C5401F1018185928546
S11341D0A385B48588169906AA06BB0608F04AC0CA
S11341E02D813E814F8158852C153D054E055F0577
S11341F050F4C12CD12C76016894C1F8412C512C77
S11342003201689441F89E012F5F3F4FB701A60128
S1134210C1010E94DA1E882369F189819A81AB81E8
S1134220BC81892B8A2B8B2B41F0260137013FEF70
S1134230431A530A630A730A12C0D701C6018419C8
S11342409509A609B7090196A11DB11D29853A85CD
S11342504B855C85281739074A075B0769F03FEFF0
S1134260831A930AA30AB30A4FEFC41AD40AE40ABE
S1134270F40AABCF80E04DC00FEF1FEF2FEF3FE00C
S1134280B701A601C1010E94C31F882309F441C0DC
S11342904C145D046E047F0498F44601570151E008
S11342A0851A9108A108B10897018601B501A401F6
S11342B0C1010E94C31F882361F175016401E8CF25
S11342C0AD85BE854D915D916D917C9141155105F2
S11342D06105710539F093018201C1010E94C31F78
S11342E08823B9F0ED85FE85408251826282738213
S11342F0FF85FF2369F02FEF421A520A620A720AFD
S1134300D1014D925D926D927C92139781E001C030
S113431081E02F960FB6F894DEBF0FBECDBFDF91BC
S1134320CF911F910F91FF90EF90DF90CF90BF90AE
S1134330AF909F908F907F906F905F904F903F9041
S11343402F900895AF92BF92CF92DF92EF92FF9297
S11343500F931F93CF93DF9300D000D0CDB7DEB778
S11343605C016A017B0182E090E0A0E0B0E0F5012D
S113437080839183A283B3839E012F5F3F4FB70154
S1134380A601C5010E94DA1E882311F100E010E0A5
S11343909801B701A601C5010E94C31F8823C1F07B
S11343A0C980DA80EB80FC80F5018789803129F4AB
S11343B088EF9FEFA0E0B0E004C088EF9FEFAFEF7D
S11343C0BFE0C816D906EA06FB06B0F281E001C0D8
S11343D080E00F900F900F900F90DF91CF911F917D
S11343E00F91FF90EF90DF90CF90BF90AF90089522
S11343F04F925F926F927F928F929F92AF92BF92F1
S1134400CF92DF92EF92FF920F931F93CF93DF939C
S11344108C01C42F7093FF026093FE02442309F4BD
S113442044C0453008F029C140E060E070E0CB01B1
S11344300E94761E882309F42BC14C2F50E0415072
S11344405109FA01E295F295F07FFE27E07FFE27FD
S1134450E254FB4F80818F7709F011C1FA01E29594
S1134460F295F07FFE27E07FFE27E653FB4FC080E6
S1134470D180E280F38024E6C216D104E104F10481
S113448008F406C142955295507F5427407F542723
S1134490FA01EA53FB4FC080D180E280F380C1145B
S11344A0D104E104F10421F4F3C0C12CD12C760130
S11344B040E0C701B6010E94761E882309F4E8C0D3
S11344C080910B0390910C038115924009F0D9C09F
S11344D080911003882309F4DBC020910E033091EE
S11344E00F03232B09F4CFC060910D03662309F455
S11344F0CCC0E8018A8B6C831D86F8018585E82F82
S113450021E030E0082E02C0220F331F0A94E2F7A4
S1134510462F50E04217530741F091E0980FD8011D
S11345201D969C93883048F3B2C0209116033091B5
S113453017032115310519F040E050E008C020911F
S11345402403309125034091260350912703E80169
S11345502D833E834F8358870F2EF0E0AF2EF3E078
S1134560BF2EF02DD5011E968D919C911F9726018B
S11345703701480E591E611C711C4B8A5C8A6D8A76
S11345807E8A51968D909C905297998E888E5096E3
S11345908C91A82FB0E00E94BA29DC01CB01840DD4
S11345A0951DA61DB71D8A8F9B8FAC8FBD8FE4010F
S11345B0CC0FDD1FC295D295D07FDC27C07FDC27CE
S11345C0C150DE4FCD2FDD27C6958C0F9D1FA11D39
S11345D0B11DE8018E879F87A88BB98BE5014B88B5
S11345E05C884114510419F0612C712C08C040906E
S11345F02003509021036090220370902303C81A73
S1134600D90AEA0AFB0AC40CD51CE61CF71C04C030
S1134610F694E794D794C794EA95D2F7F801C18643
S1134620D286E386F486F5EFCF16FFE0DF06E104D9
S1134630F10430F48CE0D80157968C9381E028C0C3
S1134640B5EFCB16BFEFDB06E104F10428F480E1FB
S1134650E8018F8B81E01CC080912C0390912D0385
S1134660A0912E03B0912F03F801828F938FA48F12
S1134670B58F80E2878B81E00BC080E009C080E0C9
S113468007C080E005C080E003C0862F01C080E041
S1134690DF91CF911F910F91FF90EF90DF90CF901A
S11346A0BF90AF909F908F907F906F905F904F904E
S11346B00895CF93CFB7F89480910305811127C053
S11346C0ECE2F2E08491E8E1F2E09491E82FF0E08A
S11346D0EE0FFF1FE05CFD4FA591B491EC91E9232F
S11346E021F461E08AE00E94A20261E08AE00E9473
S11346F063028CB580618CBD8CB580648CBD61E037
S11347008DE00E94630261E08BE00E94630280916D
S113471003058F5F80930305CFBFCF910895109257
S1134720770581E0809375051092740561E082E15C
S11347300E94A20261E083E10E94A202E9EBF0E0A0
S113474080818E7F808380818D7F808388E48093C5
S1134750B80085E48093BC000895ECEBF0E0808120
S11347608A7B808360E082E10E94A20260E083E1B0
S11347700E94A2020895AC0190912605262F30E0F4
S1134780290F311D21323105F4F4809177058430ED
S1134790E1F490E00FC080912605292F30E0F90163
S11347A0E80FF11DDA01A20FB31F8C91E85DFA4FF7
S11347B080839F5F961778F380912605680F609336
S11347C0260580E0089581E0089582E0089590939D
S11347D06B0580936A05089590936D0580936C052D
S11347E00895882321F085EC8093BC00089585E822
S11347F08093BC00089585EC8093BC0010927705EB
S11348000895EF92FF920F931F93CF93DF9391E05C
S113481090936F05882371F0C8EBD0E0F8800AEB21
S113482010E0F801E0800E94AD230E948F23F8017C
S1134830E082F882DF91CF911F910F91FF90EF906A
S113484008954F925F926F927F928F929F92AF9250
S1134850BF92DF92EF92FF920F931F93CF93DF9358
S1134860413208F0D9C0122FD42F7B01D82E0E94D8
S11348700E024B015C0127C0809170059091710577
S1134880A0917205B0917305892B8A2B8B2BD9F0DB
S11348900E940E02DC01CB0188199909AA09BB09FF
S11348A0409070055090710560907205709073058A
S11348B0481659066A067B0630F480916E050E94FC
S11348C00124C5E0AEC0C0917705C111D5CF82E007
S11348D080937705009375058FEF809304051092FC
S11348E04905D093480590E00AC0E92FF0E0D701CC
S11348F0AE0FBF1F3C91E65BFA4F30839F5F9D175D
S1134900A0F3109276058D2D90E0880F991FD0901A
S113491076058D2980937605809174058130C9F5DB
S1134920109274050E940E024B015C018091760581
S11349308093BB008091700590917105A0917205E0
S1134940B0917305892B8A2B8B2BD9F00E940E0210
S1134950DC01CB0188199909AA09BB0940907005AB
S11349605090710560907205709073054816590651
S11349706A067B0630F480916E050E940124C5E02E
S113498050C08091BC0083FDD1CF85EC8093BC00E6
S113499003C085EE8093BC000E940E024B015C01B3
S11349A027C08091700590917105A0917205B09116
S11349B07305892B8A2B8B2BD9F00E940E02DC0104
S11349C0CB0188199909AA09BB0940907005509038
S11349D071056090720570907305481659066A0651
S11349E07B0630F480916E050E940124C5E019C055
S11349F0112321F080917705823099F2809104058A
S1134A008F3F79F080910405803241F08091040554
S1134A10803331F4C3E005C0C1E003C0C2E001C08B
S1134A20C4E08C2FDF91CF911F910F91FF90EF90F5
S1134A30DF90BF90AF909F908F907F906F905F902A
S1134A404F90089585ED8093BC004091700550917E
S1134A5071056091720570917305495F5F4F6F4FE7
S1134A607F4F689412F876956795579547951694F5
S1134A70D1F71FC08091700590917105A0917205C6
S1134A80B0917305892B8A2B8B2B99F04115510515
S1134A906105710549F085E38A95F1F700004150FD
S1134AA051096109710905C080916E050E940124B4
S1134AB008958091BC0084FDDDCF109277050895A0
S1134AC01F920F920FB60F9211242F933F934F937F
S1134AD05F936F937F938F939F93AF93BF93EF9362
S1134AE0FF938091B900E82FE87F8E2F90E0893CF6
S1134AF0910508F0F5C0FC01EC5CFF4F0C94B4295F
S1134B00809176058093BB0081E00E94F123E8C088
S1134B109091490580914805981780F4E0914905E2
S1134B2081E08E0F80934905F0E0E65BFA4F8081C7
S1134B308093BB0081E00E94F123D2C0809175056F
S1134B40882319F00E942225CBC081E0809374054C
S1134B5084EA8093BC0010927705C2C080E28093FF
S1134B6004050E942225BCC080E3809304050E94B2
S1134B702225B6C088E3809304050E94FB23B0C0BD
S1134B80E091490581E08E0F80934905F0E0809122
S1134B90BB00E65BFA4F80839091490580914805FC
S1134BA0981720F481E00E94F1239AC080E00E94CB
S1134BB0F12396C0E091490581E08E0F8093490569
S1134BC0F0E08091BB00E65BFA4F8083809175052D
S1134BD0882319F00E94222583C081E08093740504
S1134BE084EA8093BC00109277057AC00E94222543
S1134BF077C083E0809377051092050581E00E94D9
S1134C00F1236EC080910505803280F4E0910505A2
S1134C1081E08E0F80930505F0E08091BB00EA5F90
S1134C20FA4F808381E00E94F1235AC080E00E9401
S1134C30F12356C00E94FB2380910505803230F495
S1134C40E0910505F0E0EA5FFA4F108260910505F6
S1134C5070E0E0916A05F0916B0586E095E00995B6
S1134C60109205053DC080E00E94F12339C084E024
S1134C70809377051092270510922605E0916C0524
S1134C80F0916D05099580912605811105C081E09B
S1134C908093260510922805E091270581E08E0F68
S1134CA080932705F0E0E85DFA4F80818093BB0094
S1134CB09091270580912605981720F481E00E94A1
S1134CC0F1230EC080E00E94F1230AC081E00E941B
S1134CD0F1231092770504C0109204050E94222546
S1134CE0FF91EF91BF91AF919F918F917F916F91C0
S1134CF05F914F913F912F910F900FBE0F901F9096
S1134D0018958091AC0590E02091AD05821B910926
S1134D1008959091AD058091AC05981750F4E92F52
S1134D20F0E0E255FA4F208130E09F5F9093AD05AB
S1134D3002C02FEF3FEFC9010895E091AD058091C6
S1134D40AC05E81730F4F0E0E255FA4F808190E0CA
S1134D5008958FEF9FEF08950895CF93DF93EC01AB
S1134D60E0918405F09185053097E1F09091AD05CF
S1134D708091AC059817B0F090E0292F30E0261709
S1134D80370754F4DE01A90FB11D4C91D901A25586
S1134D90BA4F4C939F5FF1CFCB011092AD05609356
S1134DA0AC050995DF91CF910895E0918605F091C6
S1134DB08705309729F010928A0510928905099584
S1134DC00895CF92DF92EF92FF920F931F93CF93A8
S1134DD0DF938C016B017A0180918805882399F017
S1134DE0C0E0D0E0CE15DF0590F4D801ED91FC9140
S1134DF00190F081E02DD601AC0FBD1F6C91C8016C
S1134E0009952196EFCF642FC6010E94BB23C701E9
S1134E10DF91CF911F910F91FF90EF90DF90CF9092
S1134E200895CF93DF931F92CDB7DEB7FC0169835A
S1134E30909188059923D9F090918905903238F0A2
S1134E4081E090E09383828380E090E017C08091BA
S1134E508A05E82FF0E0E557FA4F998190838F5F38
S1134E6080938A058093890581E090E007C061E022
S1134E70CE0101960E94BB2381E090E00F90DF9168
S1134E80CF910895FC011382128288EE93E0A0E092
S1134E90B0E084839583A683B78384E792E091830B
S1134EA080830895019739F46F3F7F4F21F488E799
S1134EB095E00E94422708951092AD051092AC052A
S1134EC010928A05109289050E948F2385ED96E23F
S1134ED00E94EC238DEA96E20E94E723089581E084
S1134EE0809388056093AB0510928A05109289051A
S1134EF008950F9340918905062F21E06BE875E032
S1134F008091AB050E94212410928A051092890594
S1134F10109288050F91089561E00E947927089501
S1134F206FEF7FEF81E090E00E9452270895505880
S1134F30BB27AA270E94AF270C94F9280E94EB28CC
S1134F4038F00E94F22820F039F49F3F19F426F437
S1134F500C94E8280EF4E095E7FB0C94E228E92F82
S1134F600E940A2958F3BA17620773078407950742
S1134F7020F079F4A6F50C942C290EF4E0950B2E70
S1134F80BA2FA02D0B01B90190010C01CA01A00197
S1134F901124FF27591B99F0593F50F4503E68F1F2
S1134FA01A16F040A22F232F342F4427585FF3CF33
S1134FB0469537952795A795F0405395C9F77EF404
S1134FC01F16BA0B620B730B840BBAF09150A1F04D
S1134FD0FF0FBB1F661F771F881FC2F70EC0BA0FD3
S1134FE0621F731F841F48F4879577956795B7955B
S1134FF0F7959E3F08F0B0CF9395880F08F0992756
S1135000EE0F9795879508950E9418280C94F92817
S11350100E94F22858F00E94EB2840F029F45F3FE8
S113502029F00C94E22851110C942D290C94E828B1
S11350300E940A2968F39923B1F3552391F3951B30
S1135040550BBB27AA2762177307840738F09F5FA5
S11350505F4F220F331F441FAA1FA9F335D00E2E12
S11350603AF0E0E832D091505040E695001CCAF77F
S11350702BD0FE2F29D0660F771F881FBB1F261742
S113508037074807AB07B0E809F0BB0B802DBF0119
S1135090FF2793585F4F3AF09E3F510578F00C94E8
S11350A0E2280C942D295F3FE4F3983ED4F38695CF
S11350B077956795B795F7959F5FC9F7880F911D09
S11350C09695879597F90895E1E0660F771F881FF5
S11350D0BB1F621773078407BA0720F0621B730BA8
S11350E0840BBA0BEE1F88F7E09508950E941229ED
S11350F088F09F5798F0B92F9927B751B0F0E1F095
S1135100660F771F881F991F1AF0BA95C9F714C044
S1135110B13091F00E942C29B1E008950C942C290F
S1135120672F782F8827B85F39F0B93FCCF386957D
S113513077956795B395D9F73EF4909580957095DA
S113514061957F4F8F4F9F4F0895E89409C097FB57
S11351503EF490958095709561957F4F8F4F9F4F4A
S11351609923A9F0F92F96E9BB279395F69587958E
S113517077956795B795F111F8CFFAF4BB0F11F451
S113518060FF1BC06F5F7F4F8F4F9F4F16C08823F8
S113519011F096E911C0772321F09EE8872F762F2E
S11351A005C0662371F096E8862F70E060E02AF06F
S11351B09A95660F771F881FDAF7880F969587955B
S11351C097F9089597F99F6780E870E060E0089583
S11351D09FEF80EC089500240A941616170618060B
S11351E00906089500240A941216130614060506E7
S11351F00895092E0394000C11F4882352F0BB0F78
S113520040F4BF2B11F460FF04C06F5F7F4F8F4FDA
S11352109F4F089557FD9058440F551F59F05F3F15
S113522071F04795880F97FB991F61F09F3F79F0C4
S113523087950895121613061406551FF2CF469546
S1135240F1DF08C0161617061806991FF1CF8695C8
S11352507105610508940895E894BB2766277727AC
S1135260CB0197F908950E9446290C94F9280E94CD
S1135270EB2838F00E94F22820F0952311F00C94CA
S1135280E2280C94E82811240C942D290E940A2960
S113529070F3959FC1F3950F50E0551F629FF00185
S11352A0729FBB27F00DB11D639FAA27F00DB11D9E
S11352B0AA1F649F6627B00DA11D661F829F222727
S11352C0B00DA11D621F739FB00DA11D621F839FAE
S11352D0A00D611D221F749F3327A00D611D231F84
S11352E0849F600D211D822F762F6A2F11249F57D2
S11352F050409AF0F1F088234AF0EE0FFF1FBB1FD5
S1135300661F771F881F91505040A9F79E3F510593
S113531080F00C94E2280C942D295F3FE4F3983E2E
S1135320D4F3869577956795B795F795E7959F5F3D
S1135330C1F7FE2B880F911D9695879597F90895CF
S113534097FB072E16F4009407D077FD09D00E942E
S1135350C52907FC05D03EF4909581959F4F08958B
S1135360709561957F4F0895EE0FFF1F0590F4919E
S1135370E02D09940E94D929A59F900DB49F900D0A
S1135380A49F800D911D11240895AA1BBB1B51E1FC
S113539007C0AA1FBB1FA617B70710F0A61BB70BA1
S11353A0881F991F5A95A9F780959095BC01CD0146
S11353B00895A29FB001B39FC001A39F700D811DEA
S11353C01124911DB29F700D811D1124911D08950A
S11353D00F931F93CF93DF938230910510F482E0F3
S11353E090E0E091D005F091D10520E030E0A0E01C
S11353F0B0E0309719F1408151810281138148173F
S11354005907C8F08417950769F4109731F012967C
S11354100C93129713961C9327C00093D0051093F6
S1135420D10522C02115310519F04217530718F48C
S11354309A01BD01EF01DF01F801DBCF2115310530
S1135440F9F0281B390B2430310580F48A819B81C3
S11354506115710521F0FB019383828304C090934D
S1135460D1058093D005FE01329644C0FE01E20FBF
S1135470F31F8193919322503109398328833AC0D1
S11354802091CE053091CF05232B41F420910201C8
S1135490309103013093CF052093CE052091000174
S11354A0309101012115310541F42DB73EB74091EA
S11354B0040150910501241B350BE091CE05F091B8
S11354C0CF05E217F307A0F42E1B3F0B281739076B
S11354D078F0AC014E5F5F4F2417350748F04E0F4C
S11354E05F1F5093CF054093CE058193919302C0E3
S11354F0E0E0F0E0CF01DF91CF911F910F9108958B
S1135500CF93DF93009709F481C0FC013297138293
S11355101282A091D005B091D105109781F4208119
S11355203181820F931F2091CE053091CF0528172A
S1135530390751F5F093CF05E093CE0567C0ED012F
S113554020E030E0CE17DF0740F44A815B819E0102
S113555041155105F1F0EA01F5CFD383C2834081AF
S11355605181840F951FC817D90759F488819981EF
S1135570840F951F0296918380838A819B819383F4
S113558082832115310529F4F093D105E093D005E8
S11355903DC0E901FB83EA8349915991C40FD51FAA
S11355A0EC17FD0761F480819181840F951F0296A9
S11355B0E90199838883828193819B838A83E0E0D4
S11355C0F0E012968D919C911397009719F0FD01CC
S11355D0DC01F7CF8D919C9111979D012E5F3F4F78
S11355E0820F931F2091CE053091CF0528173907DC
S11355F069F4309729F41092D1051092D00502C0B5
S113560013821282B093CF05A093CE05DF91CF9180
S1135610089581E090E0F8940C94352BFB01DC01B3
S113562004C08D910190801921F441505040C8F775
S1135630881B990B0895FC018191861721F088231A
S1135640D9F7992708953197CF010895FB01DC011B
S11356504150504048F001900D920020C9F701C01C
S11156601D9241505040E0F70895F894FFCF9A
S113566E0000D2052000016A69FFFFFFFF00004021
S113567E00140054001000000001000100D4300A90
S113568E00080005000000FCFFF8FFF7FFF7FFFA23
S113569EFFFFFF030007000900DCFFBAFF99FF7D3F
S11356AEFF6AFF37036AFF7DFF99FFBAFFDCFF0035
S11356BE0000000000050013001D000A00D4FF9630
S11356CEFF87FFCEFF4D00B500B5004D00CEFF871E
S11356DEFF96FFD4FF0A001D001300050000000012
S11356EE000000420044004600480049004A004AB7
S11356FE004A004A004900480046004400420000A7
S113570E0000005B0161015D016001000000008E7C
S113571E0361015D01600152494646202020205755
S113572E415645666D74200064617461202020200A
S113573E0074656D702E62696E0053434C204D00EB
S113574E50726F63657373696E6700506C6179692B
S113575E6E67004572726F7200456E64206F66202C
S113576E706C6179005265636F7264696E67005381
S113577E61766564004E6F20547261636B730052E0
S113578E6561647920746F20506C61790044656C96
S113579E6574653F004E6F742044656C6574656472
S11357AE00566F696365205265636F72646572009B
S11357BE00000000010D290D170DAC0D370E510D13
S11357CE700D2F0000000000141E61017A19600193
S11357DE000000001127E1265D01AC2681268926F2
S10557EE9D26F2
S9030000FC
