:100000000C9431010C9459010C9459010C94590130
:100010000C9459010C9459010C9459010C945901F8
:100020000C9459010C9459010C9459010C945901E8
:100030000C9459010C9459010C9459010C945901D8
:100040000C94A7010C9459010C9459010C9459017A
:100050000C9459010C9459010C9459010C945901B8
:100060000C9464250C945901702674267426742609
:1000700074267426742674268425742674267426A1
:100080007426742674267426842574267426742691
:1000900074267426742674268C2574267426742679
:1000A0007426742674267426B22574267426742643
:1000B00074267426742674268C2574267426742659
:1000C0007426742674267426B8257426742674261D
:1000D0007426742674267426BE2574267426742607
:1000E0007426742674267426D025742674267426E5
:1000F0007426742674267426FA25742674267426AB
:100100007426742674267426C425742674267426D0
:100110007426742674267426DE25742674267426A6
:100120007426742674267426FD2574267426742677
:100130007426742674267426FD2574267426742667
:100140007426742674267426FD2574267426742657
:100150007426742674267426FD2574267426742647
:10016000742674267426742606267426742674262D
:1001700074267426742674263726742674267426EC
:10018000742674267426742606267426742674260D
:1001900074267426742674263726742674267426CC
:1001A00074267426742674261E26742674267426D5
:1001B00074267426742674263B26742674267426A8
:1001C00074267426742674263B2674267426742698
:1001D0007426742674267426502674267426742673
:1001E00074267426742674266A2674267426742649
:1001F00074267426742674266A26000000080002FD
:1002000001000003040700000000000000000102DC
:100210000408102040800102040810200102040894
:100220001020040404040404040402020202020272
:1002300003030303030300000000250028002B0034
:1002400000000000240027002A007C3C3E5E2B3D7D
:100250003F2F5B5D3B2C2A225C00FE0CFF118415B6
:10026000942711241FBECFEFD8E0DEBFCDBF12E030
:10027000A0E0B1E0E6E7F6E502C005900D92A037F8
:10028000B107D9F725E0A0E7B2E001C01D92A03C7C
:10029000B207E1F711E0C1E3D1E004C02197FE010C
:1002A0000E94B829CD32D107C9F70E94E20B0C9405
:1002B000392B0C9400000E940D2B80E090E00895F3
:1002C0000895CF92DF92EF92FF920F931F93CF93F7
:1002D000DF938C01DB01C0E0D0E07A0181E0E81A15
:1002E000F108452BA1F0F80180819181FC0120816A
:1002F00031816D01FFEFCF1ADF0A6C91C801F9015E
:100300000995892B21F02196A701D601E6CFCE01D0
:10031000DF91CF911F910F91FF90EF90DF90CF90E1
:1003200008956115710581F0FB0101900020E9F746
:100330003197AF01461B570BDC01ED91FC91028018
:10034000F381E02D0995089580E090E008951F92D3
:100350000F920FB60F9211240F931F932F933F9379
:100360004F935F936F937F938F939F93AF93BF93BD
:100370000091710210917202209173023091740207
:1003800090917002B901A8014F5F5F4F6F4F7F4F8F
:1003900083E0890F8D3740F086E8890FB901A80105
:1003A0004E5F5F4F6F4F7F4F80937002409371029B
:1003B000509372026093730270937402809175027D
:1003C00090917602A0917702B09178020196A11DDA
:1003D000B11D8093750290937602A0937702B0933B
:1003E0007802BF91AF919F918F917F916F915F91B3
:1003F0004F913F912F911F910F910F900FBE0F9032
:100400001F9018952FB7F894609171027091720245
:1004100080917302909174022FBF08953FB7F894B2
:100420008091750290917602A0917702B091780246
:1004300026B5A89B05C02F3F19F00196A11DB11D3F
:100440003FBFBA2FA92F982F8827820F911DA11D7A
:10045000B11DBC01CD01660F771F881F991F660F64
:10046000771F881F991F0895833069F028F4813021
:10047000B1F08230C1F008958730C9F08830E9F0DA
:10048000843001F506C0E0E8F0E080818F7780835A
:100490000895E0E8F0E080818F7D8083089584B541
:1004A0008F7784BD089584B58F7D84BD0895E0EB7A
:1004B000F0E080818F7780830895E0EBF0E0808129
:1004C0008F7D80830895CF93DF9390E0FC01E25FFE
:1004D000FD4F2491FC01EE5DFD4F8491882379F15D
:1004E00090E0880F991FFC01E05CFD4FA591B4914D
:1004F000FC01EA5CFD4FC591D49161110CC09FB71E
:10050000F8948C91E22FE0958E238C932881E2233E
:10051000E8839FBF14C0623061F49FB7F8948C9158
:10052000322F309583238C93E881E22BE8839FBFA1
:1005300006C08FB7F894EC91E22BEC938FBFDF915C
:10054000CF9108951F93CF93DF93282F30E0F901C7
:10055000E650FE4F8491F901E25FFD4F1491F901DD
:10056000EE5DFD4FC491CC23D1F0D62F81110E94B6
:100570003402EC2FF0E0EE0FFF1FEA5CFD4FA59177
:10058000B4918FB7F894D11106C09C91E12FE095FA
:10059000E923EC9303C0EC91E12BEC938FBFDF9147
:1005A000CF911F910895FC01138212828DE891E092
:1005B0009183808364830895CF93C62FFC01648167
:1005C00086E695E00E9473276C2F6860E0916605CF
:1005D000F09167050190F081E02D86E695E00995A0
:1005E00086E695E00E949027CF9108950F931F9380
:1005F000CF938C01C62F64600E94DC0285E08A954F
:10060000F1F700006C2F6B7FC8010E94DC0287ECC1
:1006100090E00197F1F700C00000CF911F910F917A
:1006200008951F93CF93DF93EC01162F0E94DC02F5
:10063000612FCE010E94F602DF91CF911F910895A4
:10064000FF920F931F93CF93DF938C01F42E862F8D
:10065000807F90E1699FE0011124682F642BC8011D
:100660000E9411036C2F6F29C8010E941103DF91B2
:10067000CF911F910F91FF90089540E061E00E949B
:1006800020038FE39FE10197F1F700C00000089578
:1006900040E062E00E9420038FE39FE10197F1F7C1
:1006A00000C000000895CF93DF93CDB7DEB7289741
:1006B0000FB6F894DEBF0FBECDBF9C0198E0EDE011
:1006C000F1E0DE01119601900D929A95E1F7433029
:1006D00008F041E0E42FF0E0EE0FFF1F81E090E032
:1006E0008C0F9D1FE80FF91F9081690F606840E033
:1006F000C9010E94200328960FB6F894DEBF0FBEF2
:10070000CDBFDF91CF910895FC016681262F246033
:1007100026836C6040E00E942003089541E00E941F
:10072000200381E090E00895CF93DF93EC0186E60B
:1007300095E00E94602788E08D832FEF80E792E0AC
:10074000215080409040E1F700C0000068E0CE01F9
:100750000E94DC022FEF83ED90E321508040904017
:10076000E1F700C0000060E3CE010E9411038FE4B6
:1007700096E40197F1F700C0000060E3CE010E940B
:1007800011038FE496E40197F1F700C0000060E3E5
:10079000CE010E94110387E592E00197F1F700C0B6
:1007A000000060E2CE010E9411036D81606240E0B2
:1007B000CE010E94200384E08E83CE010E94840338
:1007C000CE010E943D0382E08F8340E066E0CE01CF
:1007D0000E942003CE010E944803DF91CF9108952B
:1007E000019741F46F3F7F4F29F460E289E792E07F
:1007F0000E94D302089580E099B1909561F19830FC
:1008000099F038F49230D1F0943061F09130A1F445
:1008100007C0903469F0903869F0903269F406C0EE
:100820008FE50DC083E70BC08CE309C080E707C0EC
:100830008EE305C084E603C080E001C08AE22FEFAA
:1008400035EA9EE0215030409040E1F700C00000C2
:100850009FEF9BB9D1CF0895CF93DF93EC0189E748
:1008600092E00E943D0340E060E089E792E00E9450
:100870005303BE0189E792E00E949101DF91CF917D
:100880000895CF93DF93EC0141E060E089E792E0C7
:100890000E945303BE0189E792E00E949101DF911B
:1008A000CF910895CF93DF931092890281E48093D2
:1008B0008102C0E0D1E4CF30D9F0DB35C9F061E886
:1008C00072E089E992E00E94E711882369F0EC2F39
:1008D000F0E080918102E657FD4F8083809189028C
:1008E0008F5F80938902CF5FDF5FD0938102E3CF78
:1008F000CF3040F4EC2FF0E0E657FD4F8FE58083DA
:10090000CF5FF6CFDF91CF910895E0918802EF5F3E
:10091000E0938802F0E0E657FD4F80818F3511F4B7
:1009200010928802E0918802F0E0E657FD4F808146
:1009300080938102089580918802811106C0809180
:10094000890281508093880203C08150809388027D
:10095000E0918802F0E0E657FD4F808180938102AC
:100960000895CF9381E480938102C1E461E872E04D
:1009700089E992E00E94E711882321F0CF5FC093BC
:100980008102F4CFCF91089561E872E089E992E0A5
:100990000E94F311E1E8F2E083E58083A0918802F0
:1009A000B0E0A657BD4F8C9181838EE2828387E5AC
:1009B000838381E4848386E58583BF0189E992E0AE
:1009C0000E94E711882331F061E872E089E992E042
:1009D0000E94F31188E48093810261E872E089E962
:1009E00092E00E94E711882331F061E872E089E922
:1009F00092E00E94F3118CE48093810261E872E03E
:100A000089E992E00E94E711882331F061E872E001
:100A100089E992E00E94F31182E48093810261E807
:100A200072E089E992E00E94E711882331F061E8E1
:100A300072E089E992E00E94F311E0918802F0E00F
:100A4000E657FD4F8081E1E8F2E080838EE281830A
:100A500087E5828381E4838386E584831582089514
:100A60000F931F93CF93DF93CDB7DEB72A970FB6BF
:100A7000F894DEBF0FBECDBF8C0140E150E065E9C8
:100A800071E00E942D0D8AE0E5E1F1E0DE011196B2
:100A900001900D928A95E1F74AE050E0BE016F5F48
:100AA0007F4FC8010E942D0D19821A8280ED8B8321
:100AB00080E38C831D821E8281E08F83188688E00C
:100AC00089871A864AE050E0BE016F5F7F4FC801F8
:100AD0000E942D0D48E050E066EA71E0C8010E94D6
:100AE0002D0D2A960FB6F894DEBF0FBECDBFDF9155
:100AF000CF911F910F9108958F929F92AF92BF92C5
:100B0000CF92DF92EF92FF920F931F93CF93DF93D9
:100B100000D000D0CDB7DEB78C010E942B0E6B0148
:100B20007C014B015C0188E0881A9108A108B1089A
:100B300044E050E060E070E0C8010E940C0E898241
:100B40009A82AB82BC8244E050E0BE016F5F7F4F6F
:100B5000C8010E942D0D48E250E060E070E0C8013D
:100B60000E940C0ED701C6018C97A109B109898397
:100B70009A83AB83BC8344E050E0BE016F5F7F4F3C
:100B8000C8010E942D0D0F900F900F900F90DF91D4
:100B9000CF911F910F91FF90EF90DF90CF90BF907A
:100BA000AF909F908F900895EF92FF920F931F93B5
:100BB000CF93DF93CDB7DEB7CA56D1090FB6F894FD
:100BC000DEBF0FBECDBF8C0127E14FEA51E069E9DE
:100BD00072E0CE0101960E94D01021E0A80169E9DF
:100BE00072E0CE014C960E94D0104CE250E060E0E2
:100BF00070E0CE014C960E940C0E8AE1EFE1F1E02C
:100C0000DE01AF5ABF4F01900D928A95E1F7E12CBA
:100C100010E001C0E02ECE014C960E943B0E892BC5
:100C2000E9F101E00E0DF12CCE014C960E94550D1C
:100C3000BC016F57710921E0210FE12FF0E0EE0FA9
:100C4000FF1F81E590E08C0F9D1FE80FF91F408189
:100C50005181649FC001659F900D749F900D112478
:100C60006AE070E00E94A429E7E3F0E0EC0FFD1FCA
:100C7000EE0DFF1D615860832D3011F0122F01C061
:100C800010E00A3139F64AE150E0BE01695C7F4F5D
:100C9000CE0101960E942D0D00E0BCCFCE01019641
:100CA0000E946A0ECE014C960E946A0EC659DF4F12
:100CB0000FB6F894DEBF0FBECDBFDF91CF911F916D
:100CC0000F91FF90EF9008952F923F925F926F9255
:100CD0007F928F929F92AF92BF92CF92DF92EF92CC
:100CE000FF920F931F93CF93DF93CDB7DEB7CD5F06
:100CF000D1090FB6F894DEBF0FBECDBF5C016B010A
:100D0000F42E19012DB73EB7C450DF4F3983288325
:100D1000CC5FD040842F90E03C0131E0631A710831
:100D2000ADB7BEB7A81BB90B0FB6F894BEBF0FBEC8
:100D3000ADBF0DB71EB70F5F1F4F4801CE018854DE
:100D40009F4F0E94EE0D80918102833509F04FC0C4
:100D500021E04FEA51E069E972E0CE018E5A9F4FDF
:100D60000E94D01066968EAD9FAD6697C654DF4F39
:100D700099838883CA5BD0406A968CAD9DADAEAD39
:100D8000BFAD6A97C454DF4F88839983AA83BB831E
:100D9000CC5BD0406E968CAD9DADAEADBFAD6E97C9
:100DA000C054DF4F88839983AA83BB83C05CD04043
:100DB000E2E5F0E0EC0FFD1F3C968CE090E0A8EB44
:100DC000B0E0AC0FBD1F1C968F3F2FEF920721F0B4
:100DD00021912D930197F8CFAD968EAD9FADAD9734
:100DE000CF52DF4F99838883C15DD04048C021E056
:100DF000A60169E972E0CE01C7960E94D01089ADC4
:100E00009AADC654DF4F99838883CA5BD0408BADBF
:100E10009CADADADBEADC454DF4F88839983AA832A
:100E2000BB83CC5BD04023968CAD9DADAEADBFAD4A
:100E30002397C054DF4F88839983AA83BB83C05C08
:100E4000D040A7E3B0E0AC0FBD1F1C968CE090E053
:100E5000E8EBF0E0EC0FFD1F3C968F3F3FEF930770
:100E600021F02D9121930197F8CF62968EAD9FAD21
:100E70006297CF52DF4F99838883C15DD04027E1CD
:100E800041E852E069E972E0CE018D529F4F0E9425
:100E9000D010CB52DF4F88819981C55DD0409F8FA4
:100EA0008E8FC952DF4F88819981AA81BB81C75D2E
:100EB000D04088A399A3AAA3BBA3C552DF4F8881C2
:100EC0009981AA81BB81CB5DD0408CA39DA3AEA3A9
:100ED000BFA382E492E09D8F8C8F8DE0E3EDF0E084
:100EE000EC0FFD1F3C96DE01989601900D928A95BD
:100EF000E1F7C451DF4F88819981CC5ED0409EAB31
:100F00008DABCE014C960E943005CE0188549F4F88
:100F10000E942B0ECA50DF4F688379838A839B839C
:100F2000C65FD0408F2D90E0C650DF4F99838883F5
:100F3000CA5FD040AC01B801CE0188549F4F0E94D7
:100F4000010E4BE450E0BE0163597F4FCE0188543F
:100F50009F4F0E94010EE12CCE2CCA50DF4F88819A
:100F60009981AA81BB81C65FD040892B8A2B8B2BAC
:100F700009F410C19BE4C9120BC04BE450E0BE0160
:100F800063597F4FCE0188549F4F0E94010EC12CA0
:100F9000D12C80E090E0AEEFB2E4CE50DF4F8883FA
:100FA0009983AA83BB83C25FD0405D2CDC2C052DC6
:100FB00010E0061517050CF068C07401E00EF11E74
:100FC000D7016C9170E080E090E00E94A92820E0B9
:100FD00030E04EEF52E40E949B27C251DF4F6883FE
:100FE00079838A839B83CE5ED040F801EE0FFF1F8A
:100FF000EA0DFB1D60817181072E000C880B990B97
:101000000E94AB28C251DF4F288139814A815B8120
:10101000CE5ED0400E943729C251DF4F688379836A
:101020008A839B83CE5ED040B101032C000C880BD9
:10103000990B0E94AB289B01AC01C251DF4F688124
:1010400079818A819B81CE5ED0400E9408289B01D5
:10105000AC01CE50DF4F688179818A819B81C25F6C
:10106000D0400E949C27CE50DF4F688379838A83CB
:101070009B83C25FD0400F5F1F4FF401E00FF11F51
:101080008081F7018083539492CF8401060D171D50
:10109000D8016C9170E080E090E00E94A92820E0E7
:1010A00030E04EEF52E40E949B27C251DF4F68832D
:1010B00079838A839B83CE5ED040C650DF4FE88120
:1010C000F981CA5FD040E150F048EE0FFF1FEA0DF2
:1010D000FB1D60817181072E000C880B990B0E940B
:1010E000AB28C251DF4F288139814A815B81CE5EB6
:1010F000D0400E943729C251DF4F688379838A83A9
:101100009B83CE5ED040B101032C000C880B990B61
:101110000E94AB289B01AC01C251DF4F68817981ED
:101120008A819B81CE5ED0400E9408289B01AC0141
:10113000CE50DF4F688179818A819B81C25FD04028
:101140000E949C27FF24F394FD0CEDE6F0E0EC0FE9
:10115000FD1FED0DF11D2081F80120830E947A28EA
:10116000CE018D529F4F0E94050DCA50DF4F8881DE
:101170009981AA81BB81C65FD0400197A109B109BD
:10118000CA50DF4F88839983AA83BB83C65FD04050
:10119000CF2CE3CECB52DF4F88819981C55DD04003
:1011A0009C838B83C952DF4F88819981AA81BB813F
:1011B000C75DD0408D839E83AF83B887C552DF4F14
:1011C00088819981AA81BB81CB5DD04089879A872C
:1011D000AB87BC8782E492E09A8389838DE0E3ED5C
:1011E000F0E0EC0FFD1F3C96DE011D9601900D9284
:1011F0008A95E1F7C451DF4F88819981CC5ED04058
:101200009B8F8A8FCE0101960E947C05CE018D5264
:101210009F4F0E946A0ECE0188549F4F0E946A0E13
:101220006FEA71E089E992E00E94E711882331F0CA
:101230006FEA71E089E992E00E94F311C450DF4F38
:10124000A881B981CC5FD0400FB6F894BEBF0FBE65
:10125000ADBFC350DF4F0FB6F894DEBF0FBECDBF9A
:10126000DF91CF911F910F91FF90EF90DF90CF9082
:10127000BF90AF909F908F907F906F905F903F90C6
:101280002F9008951F93CF93DF93CDB7DEB76E975E
:101290000FB6F894DEBF0FBECDBF182FFE013196FA
:1012A00086E0DF011D928A95E9F73EE23A8327E561
:1012B0002B8391E49C8386E58D83E0918802F0E0A6
:1012C000E657FD4F40814983E1E8F2E01083418316
:1012D0003283238394838583BF0189E992E00E944E
:1012E000E711811154C0133511F0183429F586E146
:1012F000E9E3F1E0DE01179601900D928A95E1F79E
:10130000133579F4CE0101960E94D40524EF31E023
:101310004BE0BE016F5F7F4FCE0107960E946406CF
:1013200036C024EF31E04BE0BE016F5F7F4FCE014E
:1013300007960E9464062BC01234A1F486E1EFE404
:10134000F1E0DE01179601900D928A95E1F724EF06
:1013500031E04BE0BE016F5F7F4FCE0107960E94E8
:10136000640615C01C3499F488E1E5E6F1E0DE017D
:10137000179601900D928A95E1F728EE33E04CE044
:10138000BE016F5F7F4FCE0107960E9464066E9686
:101390000FB6F894DEBF0FBECDBFDF91CF911F9186
:1013A00008950F931F93CF93DF9300D000D000D008
:1013B000CDB7DEB788EB91E00E942C04FE01319698
:1013C00086E0DF011D928A95E9F780E289838B83AD
:1013D0008C8381E38A8388E58D8318E501E30E948D
:1013E000FB03803731F4005300930601183529F5CB
:1013F0002BC08E3359F4183581F0183481F01C3429
:1014000081F0123481F0133589F40FC08C3371F4FC
:10141000033309F400E30F5F09C018E407C01CE4BC
:1014200005C012E403C013E501C018E50A831D835B
:10143000CE0101960E944104D2CF8EEB91E00E9432
:101440002C04812F0E94420926960FB6F894DEBF25
:101450000FBECDBFDF91CF911F910F9108951F93C4
:10146000CF93DF93CDB7DEB76B970FB6F894DEBF9F
:101470000FBECDBF0E94D10989EC91E00E942C04DF
:1014800021E041E852E069E972E0CE0101960E9454
:10149000D010CE0101960E947D0E81110EC081ED0B
:1014A00091E00E9441042FEF83ED90E321508040B2
:1014B0009040E1F700C000005EC04CE250E060E008
:1014C00070E0CE0101960E940C0E81E892E00E942D
:1014D0004104809106018230C8F4CE0101960E9439
:1014E0003B0E892BE1F1CE0101960E94550D9093A0
:1014F00089008093880025ED2A95F1F700000E946D
:10150000FB03803751F72BC011E001C011E0CE0181
:1015100001960E943B0E892B11F10E94FB0380373C
:10152000F1F0113069F4CE0101960E94550D9093AF
:1015300089008093880085ED8A95F1F7000004C04A
:10154000CE0101960E94550D1F5F212F30E0809142
:10155000060190E0019628173907C9F6D5CF1092F9
:1015600089001092880087ED91E00E944104CE012D
:1015700001960E946A0E9FEF23ED80E39150204078
:101580008040E1F700C00000E0918802F0E0E657FB
:10159000FD4F8081E1E8F2E080838EE2818387E580
:1015A000828381E4838386E5848315826B960FB6FC
:1015B000F894DEBF0FBECDBFDF91CF911F9108958C
:1015C000ECE7F0E09081892B8083EAE7F0E080810E
:1015D0008064808380917A0086FDFCCFECE7F0E0A8
:1015E0008081807F80838091790008951F93CF93BD
:1015F000DF93CDB7DEB7C155D1090FB6F894DEBF82
:101600000FBECDBF0E94B10427E141E852E069E975
:1016100072E0CE01C7960E94D010CE01C7960E94FC
:101620007D0E811105C081ED91E00E942C0480C0E7
:1016300083EE91E00E942C0489AD9AAD9F8F8E8F2E
:101640008BAD9CADADADBEAD88A399A3AAA3BBA342
:1016500023968CAD9DADAEADBFAD23978CA39DA35E
:10166000AEA3BFA382E492E09D8F8C8F8DE0FE013C
:10167000ED5BFF4FDE01989601900D928A95E1F7A0
:1016800062968EAD9FAD62979EAB8DABCE014C96B0
:101690000E94300580E090E00E94E00A182F0E942E
:1016A000FB03833751F0612FCE01C7960E94050DD1
:1016B00025E92A95F1F70000EDCF89AD9AAD9C831D
:1016C0008B838BAD9CADADADBEAD8D839E83AF8363
:1016D000B88723968CAD9DADAEADBFAD23978987FE
:1016E0009A87AB87BC8782E492E09A8389838DE0F6
:1016F000FE01ED5BFF4FDE011D9601900D928A9574
:10170000E1F762968EAD9FAD62979B8F8A8FCE0177
:1017100001960E947C058DEE91E00E942C048FEFD3
:1017200093ED20E3815090402040E1F700C000009D
:10173000CE01C7960E946A0ECF5ADF4F0FB6F894BB
:10174000DEBF0FBECDBFDF91CF911F91089578947A
:1017500084B5826084BD84B5816084BD85B58260B6
:1017600085BD85B5816085BDEEE6F0E08081816054
:101770008083E1E8F0E01082808181608083A0E8CE
:10178000B0E08C9181608C938C9180688C93808187
:1017900088608083E1EBF0E0808184608083E0EB0F
:1017A000F0E0808181608083EAE7F0E080818460FE
:1017B000808380818068808380E680937C001092A3
:1017C000C10008950E94A70BE1E8F2E08EE2818358
:1017D00087E5828381E4838386E584831AB88FEF6B
:1017E0008BB987B18E7F87B984B1826084B910923A
:1017F00089001092880089E792E00E9494036AE0D1
:1018000089E992E00E94AA0F811105C081ED91E063
:101810000E942C04FFCF0E9452042FEF83ED90E32F
:10182000215080409040E1F700C000008091080105
:10183000833759F4809107018A3639F40E94F60AF9
:101840000E94520489E68093080180910801803744
:10185000C1F5809107018A36A1F58BE680930701D7
:1018600089E68093080180918902811111C08AE67E
:101870008093070183EF91E00E942C042FEF83ED0A
:1018800090E3215080409040E1F700C0000019C073
:101890008DEF91E00E942C042FEF83ED90E3215017
:1018A00080409040E1F700C00000E0918802F0E045
:1018B000E657FD4F80818093810281E892E00E948B
:1018C0004104809107018B3609F083C00E94FB031D
:1018D0008823E1F380930801803739F40E942F0AAE
:1018E0008DEF91E00E942C046DC08E3319F40E949C
:1018F000850468C08C3319F40E949B0463C083374D
:1019000039F48AE68093070189E6809308015AC07A
:10191000843609F057C08BE092E00E942C0483E1EA
:1019200092E00E9441040E94FB038436D9F40E9495
:10193000C40487E292E00E942C040E945204809129
:10194000880290918902891303C081508093880294
:101950002FEF83ED90E3215080409040E1F700C0ED
:1019600000000FC08037F9F683E292E00E942C0459
:101970002FEF83ED90E3215080409040E1F700C0CD
:10198000000080918902811111C083EF91E00E94D3
:101990002C042FEF83ED90E3215080409040E1F73D
:1019A00000C000008AE6809307010CC08DEF91E033
:1019B0000E942C04E0918802F0E0E657FD4F808100
:1019C0008093810281E892E00E94410489E680933D
:1019D000080180910801893609F028CF809107011C
:1019E0008A3609F023CF8FE292E00E942C040E94F5
:1019F000FB038823E1F38093080118CF6FEF7FEF9B
:101A000081E090E00E94F0030895CF93DF931F924E
:101A1000CDB7DEB76983DC01ED91FC910280F381E3
:101A2000E02D41E050E0BE016F5F7F4F09950F90C0
:101A3000DF91CF910895DC0159968D919C915A9731
:101A4000009741F0DC01ED91FC910480F581E02DDF
:101A50000995089580E090E00895CF93DF93DC012D
:101A60005996ED91FC915A97309749F421E030E076
:101A700013963C932E93129780E090E013C0EC01F4
:101A800013821282898D9A8D0E945A1CE98DFA8DDB
:101A900022813381232B31F081E090E09B838A8384
:101AA00080E090E0DF91CF910895CF93DF931F9274
:101AB000CDB7DEB7FC01818D928D009779F041E0C2
:101AC00050E0BE016F5F7F4F0E94E316019719F44B
:101AD000898190E005C08FEF9FEF02C08FEF9FEFED
:101AE0000F90DF91CF910895EF92FF920F931F9384
:101AF000CF93DF931F92CDB7DEB7FC01818D928D1E
:101B0000009719F18F0141E050E0BE016F5F7F4FF8
:101B10000E94E316019719F4E980F12C03C0EE242A
:101B2000EA94FE2C8FEFE816F80689F0F801818D13
:101B3000928DFC014285538564857585415051091C
:101B4000610971090E947D1802C0E12CF12CC701C6
:101B50000F90DF91CF911F910F91FF90EF9008951B
:101B6000FC01818D928D009719F061E00E941E1991
:101B70000895EF92FF920F931F93CF93DF93EC01A1
:101B80007B018A011B821A8288EE93E0A0E0B0E01C
:101B90008C839D83AE83BF8382E492E099838883A4
:101BA0008DE190E00E94EC299A8F898F009779F05F
:101BB0002DE1F701DC0101900D922A95E1F74CE04F
:101BC00050E0B801CE010C960E942A2B188EDF91AE
:101BD000CF911F910F91FF90EF900895FC01138218
:101BE000128288EE93E0A0E0B0E084839583A68320
:101BF000B78382E492E091838083128E118E1486E3
:101C00000895FC01818D928D009719F00E94E316D2
:101C1000089580E090E00895FC01818D928D0097F9
:101C200039F00E947D1891E0811103C090E001C05D
:101C300090E0892F0895DC015996ED91FC915A9717
:101C4000309729F0628573858485958508956FEFB7
:101C50007FEFCB010895DC015996ED91FC915A97E5
:101C6000309729F06389748985899689089560E0A1
:101C700070E0CB010895CF92DF92EF92FF92CF9365
:101C8000DF93FC01218D328D232BD9F0EC010E94D2
:101C90002B0E6B017C01CE010E941B0EA701960149
:101CA000261B370B480B590BDA01C901811530E8A7
:101CB0009307A105B10538F08FEF9FE7A0E0B0E0F2
:101CC00002C080E090E0DF91CF91FF90EF90DF9035
:101CD000CF900895CF93DF93FC01818D928D009773
:101CE00049F0EF010E947119898D9A8D0E94842A12
:101CF0001A8E198EDF91CF910895DC015996ED91DE
:101D0000FC915A97309731F0958181E0911103C091
:101D100080E0089580E008950197C9F46F3F7F4FF8
:101D2000B1F4E9E9F2E0158216821186138682E0A9
:101D300090E0A0E0B0E084879587A687B78713A2DC
:101D400015A614A686E592E093A782A717A6089584
:101D50001F93CF93DF93CDB7DEB76D970FB6F8948F
:101D6000DEBF0FBECDBFAB011C821B8226E532E079
:101D70003A8329831E8221E0BC01CE0101960E9494
:101D8000221B11E0811101C010E0882321F0CE0157
:101D900001960E947119812F6D960FB6F894DEBFDF
:101DA0000FBECDBFDF91CF911F910895442339F02D
:101DB0000E94331C91E0811103C090E001C091E0CA
:101DC000892F0895CF93DF93EC01DB01ED91FC9116
:101DD000DC01AE0FBF1F8C918F3209F4319620E0E9
:101DE00030E02C30310584F4DE01AE0FBF1F9C9132
:101DF0009F3251F0992341F0DA01A20FB31F3196BF
:101E00009C932F5F3F4FEDCFDA01A20FB31F1C92BF
:101E1000DE01AE0FBF1F8C918F3209F43196DB01CA
:101E2000ED93FC93EC0FFD1F908181E0911101C0B7
:101E300080E0DF91CF9108955F926F927F928F92B1
:101E40009F92AF92BF92CF92DF92EF92FF920F9349
:101E50001F93CF93DF93CDB7DEB7C954D1090FB627
:101E6000F894DEBF0FBECDBF4C016B013A015901A2
:101E70001C821B8286E592E09A8389831E8219A2C6
:101E800018A29F8F8E8F1BA22A961FAE1EAE2A9776
:101E90008B01CE0101967C01AE01455C5F4FBE0116
:101EA000685B7F4FC4010E94E20E582E41E0482734
:101EB0009501BE01655C7F4FC801F3010995811151
:101EC00008C00C151D0551F1C8010E94711980E070
:101ED0002AC05520D9F021E0AE01455C5F4FB80122
:101EE000C7010E94221B582E0C151D0519F0C801B0
:101EF0000E9471195520A1F00C151D0511F0C801A3
:101F000002C0CE014E9687017C01C6CF0C151D057F
:101F100049F0C8010E94711981E005C080E003C04A
:101F200080E001C081E0C75BDF4F0FB6F894DEBFF1
:101F30000FBECDBFDF91CF911F910F91FF90EF901A
:101F4000DF90CF90BF90AF909F908F907F906F90D9
:101F50005F9008950F931F93CF93DF93EC01162F9B
:101F60008FA5882321F0CE018A960E947119412FF6
:101F700061E0CE010E9433138823E1F08E01045FFB
:101F80001F4F41E0BE01C8010E94FC21811106C023
:101F900040E0BE01C8010E94FC2101C081E088230D
:101FA00059F0B801CE018A960E948616882331F036
:101FB00081E005C080E003C080E001C080E0DF91E7
:101FC000CF911F910F9108954F925F926F927F92E0
:101FD0008F929F92AF92BF92CF92DF92EF92FF9239
:101FE0000F931F93CF93DF93CDB7DEB7C754D109BB
:101FF0000FB6F894DEBF0FBECDBF4C013A012901E8
:102000001C821B8286E592E09A8389831E8219A234
:1020100018A29F8F8E8F1BA2645F7F4FCE01019607
:102020000E94861673016E018EE1C80ED11CFE015E
:1020300031965F016FE270E0C7010E941F2B00978D
:10204000F1F1F70120812F3221F4FFEFEF1AFF0A9F
:10205000F1CF0097A1F18E198D3008F08CE0082F98
:1020600010E0A801B701CE01CB960E942A2BEBE32A
:10207000F0E0EC0FFD1FE00FF11F1082C6010E947F
:10208000711921E0AE01455C5F4FB501C6010E94A8
:10209000221B811109C0F4011382128286E592E0AD
:1020A00091838083158263C0E00EF11EC5010E94FA
:1020B00071199A2D8B2D5601C92ED82EBBCFE6183B
:1020C000F708F201F182E08281E891E0F401918366
:1020D0008083F50182819381F4019383828386E575
:1020E00092E091838083F5018481F4018483F5017A
:1020F0008581F4018583F50186819781A085B1856D
:10210000F40186839783A087B187F5018285938543
:10211000A485B585F40182879387A487B587F501E7
:1021200086859785A089B189F40186879787A08BDA
:10213000B18BF5018289F401828BF5018389948941
:10214000A589B689F401838B948BA58BB68BF50199
:102150008789908DA18DB28DF401878B908FA18F8F
:10216000B28FF501838D948DF401948F838FC40118
:10217000C95BDF4F0FB6F894DEBF0FBECDBFDF9156
:10218000CF911F910F91FF90EF90DF90CF90BF9074
:10219000AF909F908F907F906F905F904F90089539
:1021A000DF92EF92FF920F931F93CF93DF93CDB700
:1021B000DEB7C657D1090FB6F894DEBF0FBECDBF4C
:1021C0007C018A01D22E9E01255C3F4FCE01CD9627
:1021D0000E94E40F8BAD9CAD080F191FF8018081A0
:1021E000811157C021968EAD9FAD219799A388A3E9
:1021F00086E592E09F8F8E8F22968FAD22978AA3DD
:1022000023968FAD23978BA327968CAD9DADAEAD56
:10221000BFAD27978CA39DA3AEA3BFA32B968CAD78
:102220009DADAEADBFAD2B9788A799A7AAA7BBA7B9
:102230002F968CAD9DADAEADBFAD2F978CA79DA752
:10224000AEA7BFA760968FAD609788AB64968CAD44
:102250009DADAEADBFAD649789AB9AABABABBCAB3C
:1022600068968CAD9DADAEADBFAD68978DAB9EABA6
:10227000AFABB8AF6A968EAD9FAD6A979AAF89AF94
:1022800040E552E0BE01625E7F4FC7010E94B90D7A
:102290008EC06E961FAE1EAE6E9786E592E06C966F
:1022A0009FAF8EAF6C97A0961FAEA09723968FAD71
:1022B0002397811104C0C7010E94EE0D78C02D2D17
:1022C000A801BE01635C7F4FCE01865A9F4F0E94DA
:1022D000221B811104C0C7010E94EE0D68C0CE010F
:1022E000CD960E9471198D2D8670863059F4E19635
:1022F0004CAD5DAD6EAD7FADE197CE01865A9F4F7F
:102300000E947D186E968EAD9FAD6E979C838B83D9
:1023100086E592E09A8389836F968FAD6F978D8360
:10232000A0968FADA0978E83A4968CAD9DADAEADDB
:10233000BFADA4978F839887A987BA87A8968CADDD
:102340009DADAEADBFADA8978B879C87AD87BE878F
:10235000AC968CAD9DADAEADBFADAC978F87988B75
:10236000A98BBA8BAD968FADAD978B8BE1968CAD6B
:102370009DADAEADBFADE1978C8B9D8BAE8BBF8B12
:10238000E5968CAD9DADAEADBFADE597888F998FCD
:10239000AA8FBB8FE7968EAD9FADE7979D8F8C8FF1
:1023A000A801BE016F5F7F4FC7010E94B90DC70131
:1023B000CA58DF4F0FB6F894DEBF0FBECDBFDF9116
:1023C000CF911F910F91FF90EF90DF900895FB0147
:1023D000BC01665D7F4F20E030E048EA5EE0CF015F
:1023E0000E941C0F0895FB01BC01665D7F4F20E039
:1023F00030E046ED5EE0CF010E941C0F08956FEFC4
:102400007FEF81E090E00E948C0E08958EBD000069
:102410000DB407FEFDCF8EB508958FEF8EBD000081
:102420000DB407FEFDCF8EB50895019741F46F3FBF
:102430007F4F29F4E3EEF2E080E580831182089576
:1024400061E0FC0184810E94A2028091E202882363
:10245000A1F01092E2028091F004882371F09FB7FE
:10246000F8948091F004813029F48091EE048DBBC2
:102470009FBF08958091EE048FBF08952091E202DE
:10248000211120C021E02093E2023091E30220914B
:10249000E4024091F004442399F04FB7F89450912E
:1024A000F004513059F45DB35093EE046DB3509184
:1024B000EF04509556235DBB4FBF02C04093EE041E
:1024C0003CBD2DBD60E0FC0184810E94A202089504
:1024D000CF93DF93EC018E81882389F08F819885DB
:1024E0009C012F5F3F4F38872F838230924018F432
:1024F0000E940D12F3CFCE010E9420121E82DF91A6
:10250000CF910895673028F026E1FC01258380E013
:1025100008956230D1F028F4662349F0613071F0FB
:1025200030C0643001F1C0F0653021F12AC080E58F
:102530008093E30281E08093E402089580E5809334
:10254000E3021092E40281E0089581E58093E302C2
:1025500081E08093E402089581E58093E302109284
:10256000E40281E0089582E58093E30281E08093B4
:10257000E402089582E58093E3021092E40281E090
:10258000089583E58093E3021092E40281E00895C8
:102590000F931F93CF93DF93EB010E9402028B01F5
:1025A0000E940D128F3F49F00E940202601B710BC6
:1025B0006C177D07A8F380E001C081E0DF91CF9127
:1025C0001F910F910895CF92DF92EF92FF920F9398
:1025D0001F93CF93DF938C01D62F69017A010E945C
:1025E0006812C8010E943E126CE271E0C8010E94AC
:1025F000C8128D2F80640E940612C8E1CC2374F0AB
:10260000D701C6010C2E04C0B695A795979587955E
:102610000A94D2F70E940612C850F0CFDD2311F0C1
:102620008FEF01C085E9D83009F487E80E940612CF
:10263000C0E00E940D12F8018287882324F4CF3F66
:1026400021F490E003C090E001C091E0992311F0E3
:10265000CF5FEFCFDF91CF911F910F91FF90EF9060
:10266000DF90CF9008958F929F92AF92BF92EF929A
:10267000FF920F931F93CF93DF93EC01E62E1B86FF
:1026800019861E821D824C830E9402028B0161E02A
:102690008C810E94630261E08C810E94A2020E94F0
:1026A0005D2382E58093E3021092E4028091F004BE
:1026B000882399F08FB7F8949091F004913059F4F1
:1026C0009DB39093EE042DB39091EF0490959223D7
:1026D0009DBB8FBF02C08093EE0482E58CBD1DBC04
:1026E000F12C89E08F1528F08FEF0E940612F394E9
:1026F000F8CF8091F004882371F09FB7F89480910F
:10270000F004813029F48091EE048DBB9FBF03C09B
:102710008091EE048FBFCE010E943E1220E030E097
:10272000A90160E0CE010E94E3128A87813051F056
:102730000E940202601B710B613D774078F381E0DB
:102740008D8369C02AEA31E040E050E068E0CE01C4
:102750000E94E31282FF03C081E08B8711C0F12C3D
:1027600083E08F1528F00E940D128A87F394F8CF2A
:102770008A858A3A19F082E08D834DC082E08B878A
:102780008B85823031F4812C912C54016894B6F8F9
:1027900003C0812C912C540120E030E0A90167E3B3
:1027A000CE010E94E312A501940169E2CE010E94CC
:1027B000E3128A87882351F00E940202601B710B8A
:1027C000613D774048F388E08D8325C08B8582305A
:1027D000D1F420E030E0A9016AE3CE010E94E312C7
:1027E000882319F086E08D8316C00E940D12807C2C
:1027F000803C11F483E08B8710E0133020F40E94BA
:102800000D121F5FFACFCE010E9420126E2DCE0155
:102810000E94821204C0CE010E94201280E0DF914B
:10282000CF911F910F91FF90EF90BF90AF909F902D
:102830008F9008950F931F93CF93DF93EC010E9425
:1028400002028B010E940D128A878F3F51F40E9471
:102850000202601B710B6D327140A0F38FE08D831B
:1028600004C08E3F39F08DE08D83CE010E9420128E
:1028700080E001C081E0DF91CF911F910F91089519
:10288000AF92BF92CF92DF92EF92FF920F931F937E
:10289000CF93DF93EC0169010115110509F46FC0B5
:1028A000C801820F931F8130924008F063C08E816F
:1028B000882371F088819981AA81BB81841795074B
:1028C000A607B70729F48F819885C816D90620F581
:1028D000488359836A837B838B85833049F0032E39
:1028E00039E0440F551F661F771F3A95D1F7302DF9
:1028F0009A01AB0161E1CE010E94E312882319F035
:1029000083E08D8337C0CE010E941A14882391F191
:1029100018861F8281E08E838F8198858C159D0596
:1029200040F40E940D128F819885019698878F83BD
:10293000F3CFC12CD12CC016D10658F45701AC0CE2
:10294000BD1C0E940D12F5018083FFEFCF1ADF0A34
:10295000F2CF8F819885080F191F18870F838985FB
:10296000882319F00115124060F0CE010E94681210
:1029700081E008C0CE010E94201280E003C081E007
:1029800001C081E0DF91CF911F910F91FF90EF90F7
:10299000DF90CF90BF90AF900895EF92FF920F938A
:1029A0001F93790100E012E020E030E00E94401423
:1029B0001F910F91FF90EF900895EF92FF920F9368
:1029C0001F93CF93DF937C01862F8A010E9406120A
:1029D000C0E0D0E0C11582E0D80740F4F801EC0F68
:1029E000FD1F80810E9406122196F4CF8FEF0E9476
:1029F00006128FEF0E9406120E940D12F7018287C5
:102A00008F71853039F081E18583C7010E942012E2
:102A100080E001C081E0DF91CF911F910F91FF9085
:102A2000EF900895EF92FF920F93CF93DF93EC0115
:102A30007901411551056105710519F482E18D8314
:102A400045C08B85833049F0032E39E0440F551F74
:102A5000661F771F3A95D1F7302D9A01AB0168E1D7
:102A6000CE010E94E312882319F084E08D832EC0EA
:102A7000A7016EEFCE010E94DD14882339F10023F7
:102A800001F168E572E0CE010E94C812811103C015
:102A900085E18D831BC020E030E0A9016DE0CE010F
:102AA0000E94E312811105C00E940D12811103C022
:102AB00003C081E001C081E0882319F084E18D83A7
:102AC00005C0CE010E94201281E004C0CE010E9408
:102AD000201280E0DF91CF910F91FF90EF90089549
:102AE0001F93CF93DF93EC010E943E120E940D12C0
:102AF000182FCE010E94201281E01F3F09F480E0D0
:102B0000DF91CF911F9108956FEF7FEF81E090E00B
:102B10000E9415120895CF93DF93EC019C012A5F68
:102B20003F4F41E050E060E070E08B8D9C8D0E9453
:102B300092208823B9F08F89988DA98DBA8D892B21
:102B40008A2B8B2B59F48E819F81A885B9858F8B19
:102B5000988FA98FBA8F8C8180688C838C818062DA
:102B60008C8381E0DF91CF910895CF92DF92EF9235
:102B7000FF920F931F93CF938C010E948B15882394
:102B800009F454C0D8011696CD90DD90ED90FC90DC
:102B900019975B96ED91FC915C9786859785A08946
:102BA000B18922E0C21AD108E108F108058404C005
:102BB000CC0CDD1CEE1CFF1C0A94D2F7C80ED91EEB
:102BC000EA1EFB1EC481CC2391F0D701C6018C0FF5
:102BD000911DA11DB11DBC01CD016150710981097B
:102BE00091090E94B41E882309F1C150ECCFD8018D
:102BF0005B96ED91FC915C9780E092E0A0E0B0E004
:102C0000058404C0880F991FAA1FBB1F0A94D2F71E
:102C1000F8014389548965897689840F951FA61F19
:102C2000B71F838B948BA58BB68B81E0CF911F91BF
:102C30000F91FF90EF90DF90CF900895CF93DF93A7
:102C4000EC01462F6E857F85888999890E947A1EBE
:102C5000882341F08A8920E2829FC0011124825199
:102C60009D4F02C080E090E0DF91CF910895CF9317
:102C7000DF93DC0190E09B3048F4FB01E90FF11D8C
:102C800020E220839F5FF7CFDE0102C040E057E0E3
:102C9000ED0121969C91992331F19E3229F45A300D
:102CA00049F148E05AE0F0CFEAE4F2E09F012F5FFB
:102CB0003F4F8491882321F0F9019813F7CF1CC06E
:102CC0005417E0F09132E0F09F37E0F481E0840F98
:102CD000FB01E40FF11D2FE9290F2A3108F490526E
:102CE0009083482FD1CFFB01908181E0903259F43D
:102CF00080E009C080E007C080E005C080E003C03C
:102D000080E001C080E0DF91CF9108950F931F9381
:102D1000CF93DF93EC018D8181114FC08B01FB01BB
:102D20009789903119F582E08D831F8A188E198E4C
:102D30001A8E808D918DA0E0B0E0880F991FAA1F98
:102D4000BB1F880F991FAA1FBB1F880F991FAA1F9F
:102D5000BB1F880F991FAA1FBB1F880F991FAA1F8F
:102D6000BB1F8B8B9C8BAD8BBE8B15C0903231F50E
:102D700083E08D83FB01428D538D648D758D4F8B68
:102D8000588F698F7A8F9E012D5E3F4FC8010E9438
:102D9000691F882399F01C8F0B8F81E08C831E8222
:102DA0001F82188619861A861B861C861D861E861B
:102DB0001F86188A198A1A8A01C080E0DF91CF9194
:102DC0001F910F9108953F924F925F926F927F9261
:102DD0008F929F92AF92BF92CF92DF92EF92FF922B
:102DE0000F931F93CF93DF9300D000D0CDB7DEB702
:102DF0004C016B015A834983FC018581882331F0A2
:102E0000848180FD06C03324339404C0332433947A
:102E100001C0312C311005C109811A81C801A0E01F
:102E2000B0E0F401038914892589368942855385E8
:102E30006485758528013901441A550A660A770A9E
:102E4000481659066A067B0628F4C801841B950BB0
:102E50009A83898369807A806114710409F4DEC0E1
:102E6000F40182859385A485B5852C01F1E05F226C
:102E7000F40125812230C9F4238D348DF901428D6E
:102E8000538D648D758D072E79E0B695A79597952E
:102E900087957A95D1F7702D8A019B01080F191F2C
:102EA0002A1F3B1FC901B80154C0F401038D148DC2
:102EB000F801B480BA94AC01BD01032E39E07695D7
:102EC0006795579547953A95D1F7302DB42241141F
:102ED0005104F1F4B1101CC0892B8A2B8B2B51F4B7
:102EE000F4018789908DA18DB28D86839783A08709
:102EF000B1870EC0F40146815781608571859401C8
:102F00002A5F3F4FC8010E94DE1E882309F48CC04F
:102F1000F40186819781A085B185238D348DF901D7
:102F200046855785608971890297A109B109058491
:102F300004C0880F991FAA1FBB1F0A94D2F7840FE1
:102F4000951FA61FB71FBC01CD016B0D711D811D03
:102F5000911D20E032E05901A418B508A614B70469
:102F600008F05301F401248126FD04C0A114F2E00D
:102F7000BF0679F40091090110910A0120910B011B
:102F800030910C01601771078207930721F4232DFC
:102F900003C0232D01C021E0222381F076018501A9
:102FA0009201AB01BC018091EC029091ED020E9474
:102FB00040148823E1F1CA0CDB1C20C040E00E94D1
:102FC0007A1E8823B9F1820102511D4F1C830B83A5
:102FD00098012A0D3B1D4B815C814217530771F00C
:102FE000FA018081F60180838A010F5F1F4F1C83E5
:102FF0000B83A6014F5F5F4F6A01EDCFF40182851D
:103000009385A485B5858A0D9B1DA11DB11D828761
:103010009387A487B5876A187B081ECF89819A8118
:103020000BC08FEF9FEF08C08FEF9FEF05C08FEFB2
:103030009FEF02C08FEF9FEF0F900F900F900F90B8
:10304000DF91CF911F910F91FF90EF90DF90CF9084
:10305000BF90AF909F908F907F906F905F904F90B8
:103060003F900895FF920F931F93CF93DF931F928A
:10307000CDB7DEB7FC012581223098F18C01428565
:10308000538564857585689414F87695679557958A
:1030900047951694D1F7F42FFF70FF2E41E050E0D2
:1030A000BE016F5F7F4F0E94E316019719F489817B
:1030B00090E002C08FEF9FEF9923B4F0F801828572
:1030C0009385A485B5854F96A11DB11D82879387F1
:1030D000A487B587F0E2FF9EC001112482519D4F65
:1030E00005C080E090E002C080E090E00F90DF91AA
:1030F000CF911F910F91FF9008958F929F92AF9261
:10310000BF92CF92DF92EF92FF920F931F93CF93D4
:10311000DF93EC018D81882359F00B891C892D895F
:103120003E89041715072607370720F491E003C0EE
:1031300091E001C090E0911173C0823031F44A8770
:103140005B876C877D8781E06CC041155105610507
:10315000710551F41E821F82188619861A861B86F5
:103160001C861D8681E05DC04A015B010A851B85C6
:103170002C853D856801790181E0C81AD108E108F4
:10318000F108EB8DFC8D858590E00996082E04C032
:10319000F694E794D794C7940A94D2F74150510912
:1031A0006109710904C076956795579547958A9589
:1031B000D2F74C155D056E057F0520F0012B022B23
:1031C000032B49F48F89988DA98DBA8D8E839F83A7
:1031D000A887B98704C04C195D096E097F096A0187
:1031E0007B0181E0C81AD108E108F108452B462B84
:1031F000472B81F04E815F81688579859E012A5F2A
:103200003F4F8B8D9C8D0E94DE1EB701A601811160
:10321000E6CF07C08A869B86AC86BD8681E001C06A
:1032200080E0DF91CF911F910F91FF90EF90DF90A1
:10323000CF90BF90AF909F908F900895FF920F9383
:103240001F93CF93DF93FC018581882309F443C04A
:10325000F62EEF0184818823A4F561E0CF010E945E
:103260001E168C01892BB1F18D81823048F48B8937
:103270009C89AD89BE89F801848F958FA68FB78F01
:103280008F89988DA98DBA8DF801938F828F8F8940
:10329000988DA98DBA8DB58BA48BE091E502F09144
:1032A000E602309759F0B8016A5E7F4FC801489630
:1032B0000995F801808D918D938B828B8C818F770E
:1032C0008C83F11003C08C818F7E8C838F2D0E94A4
:1032D0004F1E01C080E0DF91CF911F910F91FF90B1
:1032E0000895CF93DF93EC0161E00E941E198823BB
:1032F00011F01D8281E0DF91CF910895CF93DF938C
:10330000FC012581213029F4248121FD04C021E024
:1033100003C021E001C020E021114AC0EC018C81F2
:1033200082FF12C08A859B85AC85BD854B895C89EF
:103330006D897E8984179507A607B70729F0CE0106
:103340000E947D188823B9F18091EC029091ED02E2
:103350000E947015811132C08C8185FF0AC060E027
:10336000CE010E941E198C818F7D8C8380E090E0BD
:1033700027C04091E7025091E8026091E902709104
:10338000EA02452B462B472B31F080E00E94291E94
:1033900080E090E015C080618C838A859B85AC8538
:1033A000BD859C01317080E092E0821B930B08C0C8
:1033B00080E090E005C080E090E002C080E090E016
:1033C000DF91CF9108954F925F926F927F928F928B
:1033D0009F92AF92BF92EF92FF920F931F93CF9362
:1033E000DF9300D000D0CDB7DEB7FC0185818130FE
:1033F00029F4848181FD04C081E003C081E001C023
:1034000080E0811199C083899489A589B689841740
:103410009507A607B70708F491C0892B8A2B8B2B39
:1034200009F48EC082849384A484B5844815590518
:103430006A057B0510F44A015B012A013B017F010B
:10344000CF010E947D18882309F47BC041145104E8
:1034500061047104B1F4D70157964D915D916D915E
:103460007C915A975B968D919C915C970E94A621C6
:10347000882309F466C0F701178A108E118E128E08
:1034800042C0D70116964D915D916D917C9119972F
:103490009E012F5F3F4F5B968D919C915C970E94A0
:1034A000DE1E882371F149815A816B817C81D701AD
:1034B0005B96ED91FC915C978789803129F488EFC8
:1034C0009FEFA0E0B0E004C088EF9FEFAFEFBFE058
:1034D000481759076A077B07B0F4CF010E94A6215D
:1034E000882379F0F70146815781608571850FEF58
:1034F0001FEF2FEF3FE0838D948D0E94C71F811136
:1035000002C080E01EC0D70153964D925D926D922D
:103510007C92569714968C911497806814968C938D
:1035200061E0C7010E941E19882359F0B501A4016A
:10353000C7010E947D1805C080E003C080E001C083
:1035400081E00F900F900F900F90DF91CF911F911E
:103550000F91FF90EF90BF90AF909F908F907F90D2
:103560006F905F904F9008951F93CF93DF93EC017E
:1035700080E2689FF0011124E251FD4F9385917123
:1035800021F0842F827409F054C0142F6A8B80912B
:10359000090190910A01A0910B01B0910C018E8755
:1035A0009F87A88BB98B84899589A0E0B0E0DC0166
:1035B000992788278F8B988FA98FBA8F428D538D2B
:1035C00060E070E0482B592B6A2B7B2B4F8B588F78
:1035D000698F7A8F2385287159F4848D958DA68DF6
:1035E000B78D8B8B9C8BAD8BBE8B81E08D830DC09B
:1035F000203109F59E012D5E3F4F8B8D9C8D0E94E1
:10360000691F8823D9F084E08D83812F8F708C838C
:103610001E821F82188619861A861B861C861D86A6
:1036200016FF0BC040E050E0BA01CE010E94E31942
:1036300005C080E003C080E001C081E0DF91CF9150
:103640001F910895AF92BF92CF92DF92EF92FF92B7
:103650000F931F93CF93DF93CDB7DEB72B970FB6A2
:10366000F894DEBF0FBECDBFFC01C580C110CAC03B
:10367000A22E8B017C01BE016F5F7F4FCA010E94A9
:103680003716882309F4C0C0F801838D948DF701A3
:10369000948F838FF8011682178210861186128606
:1036A000138614861586B12CF801428553856485EE
:1036B000758583899489A589B689481759076A074A
:1036C0007B0708F044C0689414F876956795579581
:1036D00047951694D1F7F42FFF70DF2EC8010E9492
:1036E0003218009709F491C0FC012081222311F0C7
:1036F000253EB9F4B11010C0F701D28A40910901FA
:1037000050910A0160910B0170910C014687578717
:10371000608B718BBB24B394FC0180818111C4CF79
:1037200016C04BE050E0BC01CE0101960E94122B66
:10373000892B09F0B9CF8A2D8073803309F465C0D5
:103740004A2D6D2DC7010E94B41AC82E5EC08A2D65
:103750008271823109F059C0BB2041F061E0C7019C
:103760000E941E168C01892B89F44FC0F8018581B7
:10377000823009F44AC0C8010E94B515C82E8823BA
:1037800009F443C0F701128A0EEE12E080E2F8015C
:1037900011928A95E9F78BE0FE013196D8010190EC
:1037A0000D928A95E1F7E091E502F091E6023097FB
:1037B00039F0B801625F7F4FC8014096099509C092
:1037C00081E298E2F801918B808B80E098E0978706
:1037D0008687F80180899189938B828B918F808F66
:1037E00086859785978B868B81E00E944F1EC82E19
:1037F000882359F0F70162894A2DC7010E94B41A43
:10380000C82E03C0C12C01C0C82E8C2D2B960FB61C
:10381000F894DEBF0FBECDBFDF91CF911F910F9106
:10382000FF90EF90DF90CF90BF90AF900895CF932F
:10383000DF93EC0140E050E0BA010E94E3198823D5
:1038400079F061E0CE010E941E16009741F025EE4E
:10385000FC0120831D8281E00E944F1E01C080E098
:10386000DF91CF910895CF93DF93CDB7DEB76D97FA
:103870000FB6F894DEBF0FBECDBFAB011C821B821A
:1038800026E532E03A8329831E8222E0BC01CE0184
:1038900001960E94221B882321F0CE0101960E94EE
:1038A000171C6D960FB6F894DEBF0FBECDBFDF912B
:1038B000CF9108953F924F925F926F927F928F9235
:1038C0009F92AF92BF92CF92DF92EF92FF920F93AF
:1038D0001F93CF93DF9300D000D000D0CDB7DEB7D9
:1038E0006C017B015E834D83DC0114969C911497DF
:1038F000292F22952F7081E082278170382E15960E
:103900008C91813019F491FD03C003C081E001C0A6
:1039100080E0811166C192FD03C08D809E8015C03C
:10392000F60182859385A485B58543895489658987
:10393000768984179507A607B70779F3C6010E9411
:103940007D18882309F44DC1E8CF8114910409F44E
:103950001BC1D6011A960D911D912D913C911D9779
:103960005B96ED91FC915C97D901C801072E79E037
:10397000B695A795979587957A95D1F7702D748010
:103980007A9478221170711054C00115110509F054
:1039900050C0D60116964D915D916D917C9119970D
:1039A0004115510561057105B1F457968D919D91B1
:1039B0000D90BC91A02D0097A105B10531F4C60171
:1039C0000E948B15811135C00CC1F6018683978347
:1039D000A087B1872EC09E012F5F3F4FCF010E946D
:1039E000DE1E811102C090E00BC189819A81AB81FA
:1039F000BC81F601238D348DF9012789203129F40A
:103A000048EF5FEF60E070E004C048EF5FEF6FEFFA
:103A10007FE084179507A607B70730F0C6010E941C
:103A20008B15811106C0DDC0F60186839783A087C0
:103A3000B18780E092E05C01A01AB10A8A149B046D
:103A400008F45401F60186819781A085B185238D04
:103A5000348DF90146855785608971890297A109DE
:103A6000B109058404C0880F991FAA1FBB1F0A94BF
:103A7000D2F7840F951FA61FB71F9C01AD01270D1C
:103A8000311D411D511D29013A01A11432E0B30637
:103A900041F58091090190910A01A0910B01B0912B
:103AA0000C01481659066A067B0659F48FEF9FEF02
:103AB000DC018093090190930A01A0930B01B0935C
:103AC0000C01032D9701B301A2018091EC029091AA
:103AD000ED020E941215882309F483C04EEFF41AF8
:103AE00043C00115110531F5D6011A964D915D912E
:103AF0006D917C911D9753968D919D910D90BC91E8
:103B0000A02D481759076A077B07A0F081E00E94A3
:103B10004F1E882309F465C04092090150920A01A2
:103B200060920B0170920C018091EB028160809396
:103B3000EB0208C041E0C301B2010E947A1E882353
:103B400009F44FC0F801E251FD4F9F012A0D3B1DC2
:103B5000E217F30749F0D7018C9180833196A701D2
:103B60004F5F5F4F7A01F4CF8A189B08F601828578
:103B70009385A485B5858A0D9B1DA11DB11D8287E6
:103B80009387A487B587E1CEF60182859385A485C6
:103B9000B5854389548965897689481759076A0725
:103BA0007B0740F4838B948BA58BB68B84818068D4
:103BB00084830DC08091E5029091E602892B39F053
:103BC0002D813E81232B19F0848180688483F60146
:103BD000848183FF10C061E0C6010E941E1981111B
:103BE0000DC081E090E0D60113969C938E931297BE
:103BF00080E090E005C08D819E8102C08D819E8114
:103C000026960FB6F894DEBF0FBECDBFDF91CF91E1
:103C10001F910F91FF90EF90DF90CF90BF90AF90EA
:103C20009F908F907F906F905F904F903F900895FE
:103C3000CF93DF931F92CDB7DEB7698341E050E0A9
:103C4000BE016F5F7F4F0E945A1C0F90DF91CF9192
:103C500008950F934091E7025091E8026091E902C4
:103C60007091EA024115510561057105A9F0082F0F
:103C70002EEE32E08091EC029091ED020E9412153E
:103C8000882359F01092E7021092E8021092E9029C
:103C90001092EA0281E001C081E00F9108950F9334
:103CA000CF939091EB029923F9F0C82F409109012D
:103CB00050910A0160910B0170910C01082F2EEEBA
:103CC00032E08091EC029091ED020E94121588235F
:103CD00071F0CC2359F08C2F0E94291E882339F0D3
:103CE0001092EB0281E003C081E001C081E0CF913E
:103CF0000F910895CF92DF92EF92FF92CF936B01D5
:103D00007C01C42F8091090190910A01A0910B01BF
:103D1000B0910C018C159D05AE05BF05C9F081E081
:103D20000E944F1E8823D1F02EEE32E0B701A6018B
:103D30008091EC029091ED020E94CD14882371F0E5
:103D4000C0920901D0920A01E0920B01F0920C019D
:103D50008091EB02C82BC093EB0281E0CF91FF90E2
:103D6000EF90DF90CF900895CF92DF92EF92FF9285
:103D70006B017C0181E00E944F1E8823D1F080E01E
:103D800090E0811522E0920730F4FC01E251FD4FF2
:103D900010820196F6CFC0920901D0920A01E092FA
:103DA0000B01F0920C018091EB0281608093EB0299
:103DB00081E0FF90EF90DF90CF9008958F929F92D7
:103DC000AF92BF92CF92DF92EF92FF920F931F9329
:103DD000CF93DF93FC01E9010185128523853485AA
:103DE0000F5F1F4F2F4F3F4F041715072607370749
:103DF00008F461C083899489A589B689278920310F
:103E000029F4852E962EA72EBB240AC04A015B01F9
:103E1000689416F8B694A794979487941694D1F75B
:103E20006A017B018F01BC01CD01680D791D8A1DDE
:103E30009B1D8090090190900A01A0900B01B09009
:103E40000C01681579058A059B0529F040E00E9460
:103E50007A1E882389F1F80187898031A1F4B7019E
:103E6000A601552766277727440F551FFA01E2510F
:103E7000FD4F80819181A0E0B0E088839983AA837F
:103E8000BB8381E019C0B701A6014F77552766278C
:103E90007727440F551F440F551FFA01E251FD4F7C
:103EA00080819181A281B381BF7088839983AA8325
:103EB000BB8381E001C080E0DF91CF911F910F9122
:103EC000FF90EF90DF90CF90BF90AF909F908F903A
:103ED00008958F929F92AF92BF92EF92FF920F93AD
:103EE0001F93CF93DF9300D000D0CDB7DEB78C0106
:103EF00049835A836B837C837901812C912C5401F3
:103F000049815A816B817C819E012F5F3F4FC8019F
:103F10000E94DE1E882361F180E092E0A0E0B0E024
:103F2000F801058404C0880F991FAA1FBB1F0A94BB
:103F3000D2F7880E991EAA1EBB1E89819A81AB8179
:103F4000BC812789203129F448EF5FEF60E070E001
:103F500004C048EF5FEF6FEF7FE084179507A60777
:103F6000B70770F2F70180829182A282B38281E06A
:103F70000F900F900F900F90DF91CF911F910F91A5
:103F8000FF90EF90BF90AF909F908F9008954F92C9
:103F90005F926F927F928F929F92AF92BF92CF92D9
:103FA000DF92EF92FF920F931F93CF93DF9300D096
:103FB00000D000D0CDB7DEB74230510561057105A4
:103FC00008F494C0DC011996CD90DD90ED90FC9042
:103FD0001C97BFEFCB1ADB0AEB0AFB0AC416D50607
:103FE000E606F70608F484C0FC0143885488658817
:103FF0007688E789E03129F4852E962EA72EBB24FA
:104000000AC04A015B01689416F8B694A794979485
:1040100087941694D1F709831A832B833C836A0112
:104020007B019E838D83480C591C6A1C7B1C8091EC
:10403000090190910A01A0910B01B0910C01481661
:1040400059066A067B0641F040E0C301B2010E94B6
:104050007A1E882309F44FC0AD81BE8157968C919A
:10406000803179F4B701A601552766277727440FD9
:10407000551FFA01E251FD4F89819A819183808316
:1040800015C0B701A6014F77552766277727440F3C
:10409000551F440F551FFA01E251FD4F89819A8146
:1040A000AB81BC8180839183A283B3838091EB0237
:1040B00081608093EB02AD81BE8152968C915297C4
:1040C0008230C0F015968D919D910D90BC91A02DE0
:1040D000480E591E6A1E7B1E4092E7025092E8026B
:1040E0006092E9027092EA0281E005C080E003C0BC
:1040F00080E001C081E026960FB6F894DEBF0FBEC7
:10410000CDBFDF91CF911F910F91FF90EF90DF9086
:10411000CF90BF90AF909F908F907F906F905F9067
:104120004F9008952F923F924F925F926F927F929D
:104130008F929F92AF92BF92CF92DF92EF92FF92B7
:104140000F931F93CF93DF93CDB7DEB72F970FB6A3
:10415000F894DEBF0FBECDBF1C0149875A876B871D
:104160007C873E872D87D9014D905D906D907C9026
:10417000411451046104710439F0BFEF4B1A5B0A1A
:104180006B0A7B0A1F8611C0FC014080518062804F
:10419000738081E029853A854B855C852130310526
:1041A0004105510509F080E08F87F10181859285F5
:1041B000A385B4859C01AD012F5F3F4F4F4F5F4FEB
:1041C0002D833E834F83588773016201812C912C8C
:1041D0005401F10181859285A385B48588169906DD
:1041E000AA06BB0608F04AC02D813E814F81588542
:1041F0002C153D054E055F0550F4C12CD12C7601E0
:104200006894C1F8412C512C3201689441F89E0108
:104210002F5F3F4FB701A601C1010E94DE1E882318
:1042200069F189819A81AB81BC81892B8A2B8B2B87
:1042300041F0260137013FEF431A530A630A730A1C
:1042400012C0D701C60184199509A609B7090196BC
:10425000A11DB11D29853A854B855C852817390735
:104260004A075B0769F03FEF831A930AA30AB30A70
:104270004FEFC41AD40AE40AF40AABCF80E04DC071
:104280000FEF1FEF2FEF3FE0B701A601C1010E9422
:10429000C71F882309F441C04C145D046E047F04D9
:1042A00098F44601570151E0851A9108A108B10818
:1042B00097018601B501A401C1010E94C71F88238F
:1042C00061F175016401E8CFAD85BE854D915D91C9
:1042D0006D917C91411551056105710539F093018E
:1042E0008201C1010E94C71F8823B9F0ED85FE85B8
:1042F0004082518262827382FF85FF2369F02FEF33
:10430000421A520A620A720AD1014D925D926D926E
:104310007C92139781E001C081E02F960FB6F8944C
:10432000DEBF0FBECDBFDF91CF911F910F91FF90E8
:10433000EF90DF90CF90BF90AF909F908F907F9045
:104340006F905F904F903F902F900895AF92BF92E3
:10435000CF92DF92EF92FF920F931F93CF93DF9351
:1043600000D000D0CDB7DEB75C016A017B0182E0EE
:1043700090E0A0E0B0E0F50180839183A283B38355
:104380009E012F5F3F4FB701A601C5010E94DE1EAF
:10439000882311F100E010E09801B701A601C501E2
:1043A0000E94C71F8823C1F0C980DA80EB80FC809F
:1043B000F5018789803129F488EF9FEFA0E0B0E014
:1043C00004C088EF9FEFAFEFBFE0C816D906EA063A
:1043D000FB06B0F281E001C080E00F900F900F90DB
:1043E0000F90DF91CF911F910F91FF90EF90DF9091
:1043F000CF90BF90AF9008954F925F926F927F924F
:104400008F929F92AF92BF92CF92DF92EF92FF92E4
:104410000F931F93CF93DF938C01C42F7093ED0202
:104420006093EC02442309F444C0453008F029C1EC
:1044300040E060E070E0CB010E947A1E882309F41E
:104440002BC14C2F50E041505109FA01E295F295F1
:10445000F07FFE27E07FFE27E455FB4F80818F77BA
:1044600009F011C1FA01E295F295F07FFE27E07F95
:10447000FE27E854FB4FC080D180E280F38024E621
:10448000C216D104E104F10408F406C14295529524
:10449000507F5427407F5427FA01EC54FB4FC080D3
:1044A000D180E280F380C114D104E104F10421F44D
:1044B000F3C0C12CD12C760140E0C701B6010E94A7
:1044C0007A1E882309F4E8C08091F9029091FA02DB
:1044D0008115924009F0D9C08091FE02882309F429
:1044E000DBC02091FC023091FD02232B09F4CFC0E8
:1044F0006091FB02662309F4CCC0E8018A8B6C83CF
:104500001D86F8018585E82F21E030E0082E02C0E5
:10451000220F331F0A94E2F7462F50E04217530749
:1045200041F091E0980FD8011D969C93883048F394
:10453000B2C020910403309105032115310519F013
:1045400040E050E008C020911203309113034091E5
:10455000140350911503E8012D833E834F83588740
:104560000F2EFEEEAF2EF2E0BF2EF02DD5011E96DF
:104570008D919C911F9726013701480E591E611C91
:10458000711C4B8A5C8A6D8A7E8A51968D909C90B4
:104590005297998E888E50968C91A82FB0E00E94E9
:1045A000BE29DC01CB01840D951DA61DB71D8A8F88
:1045B0009B8FAC8FBD8FE401CC0FDD1FC295D295D0
:1045C000D07FDC27C07FDC27C150DE4FCD2FDD2719
:1045D000C6958C0F9D1FA11DB11DE8018E879F8779
:1045E000A88BB98BE5014B885C884114510419F004
:1045F000612C712C08C040900E0350900F03609006
:10460000100370901103C81AD90AEA0AFB0AC40CF5
:10461000D51CE61CF71C04C0F694E794D794C79405
:10462000EA95D2F7F801C186D286E386F486F5EFE3
:10463000CF16FFE0DF06E104F10430F48CE0D8018E
:1046400057968C9381E028C0B5EFCB16BFEFDB0601
:10465000E104F10428F480E1E8018F8B81E01CC0C3
:1046600080911A0390911B03A0911C03B0911D032C
:10467000F801828F938FA48FB58F80E2878B81E0C2
:104680000BC080E009C080E007C080E005C080E08A
:1046900003C0862F01C080E0DF91CF911F910F9161
:1046A000FF90EF90DF90CF90BF90AF909F908F9052
:1046B0007F906F905F904F900895CF93CFB7F8940D
:1046C0008091F104811127C0ECE2F2E08491E8E1ED
:1046D000F2E09491E82FF0E0EE0FFF1FE05CFD4F59
:1046E000A591B491EC91E92321F461E08AE00E9464
:1046F000A20261E08AE00E9463028CB580618CBDF9
:104700008CB580648CBD61E08DE00E94630261E045
:104710008BE00E9463028091F1048F5F8093F1042B
:10472000CFBFCF9108951092650581E08093630516
:104730001092620561E082E10E94A20261E083E1E1
:104740000E94A202E9EBF0E080818E7F808380816D
:104750008D7F808388E48093B80085E48093BC00DB
:104760000895ECEBF0E080818A7B808360E082E159
:104770000E94A20260E083E10E94A2020895AC01BF
:1047800090911405262F30E0290F311D213231057B
:10479000F4F4809165058430E1F490E00FC08091DD
:1047A0001405292F30E0F901E80FF11DDA01A20FFD
:1047B000B31F8C91EA5EFA4F80839F5F961778F360
:1047C00080911405680F6093140580E0089581E0DE
:1047D000089582E0089590935905809358050895AF
:1047E00090935B0580935A050895882321F085EC0A
:1047F0008093BC00089585E88093BC00089585EC03
:104800008093BC00109265050895EF92FF920F937C
:104810001F93CF93DF9391E090935D05882371F010
:10482000C8EBD0E0F8800AEB10E0F801E0800E94CD
:10483000B1230E949323F801E082F882DF91CF91A7
:104840001F910F91FF90EF9008954F925F926F929A
:104850007F928F929F92AF92BF92DF92EF92FF92E0
:104860000F931F93CF93DF93413208F0D9C0122FDB
:10487000D42F7B01D82E0E940E024B015C0127C071
:1048800080915E0590915F05A0916005B0916105F2
:10489000892B8A2B8B2BD9F00E940E02DC01CB01D5
:1048A00088199909AA09BB0940905E0550905F05D7
:1048B0006090600570906105481659066A067B068F
:1048C00030F480915C050E940524C5E0AEC0C09123
:1048D0006505C111D5CF82E080936505009363051E
:1048E0008FEF8093F20410923705D093360590E055
:1048F0000AC0E92FF0E0D701AE0FBF1F3C91E85C82
:10490000FA4F30839F5F9D17A0F3109264058D2DA1
:1049100090E0880F991FD09064058D2980936405DD
:10492000809162058130C9F5109262050E940E02E5
:104930004B015C01809164058093BB0080915E0512
:1049400090915F05A0916005B0916105892B8A2B3C
:104950008B2BD9F00E940E02DC01CB01881999093A
:10496000AA09BB0940905E0550905F056090600504
:1049700070906105481659066A067B0630F48091EE
:104980005C050E940524C5E050C08091BC0083FDF9
:10499000D1CF85EC8093BC0003C085EE8093BC0032
:1049A0000E940E024B015C0127C080915E05909130
:1049B0005F05A0916005B0916105892B8A2B8B2B37
:1049C000D9F00E940E02DC01CB0188199909AA09CD
:1049D000BB0940905E0550905F0560906005709047
:1049E0006105481659066A067B0630F480915C051D
:1049F0000E940524C5E019C0112321F080916505AE
:104A0000823099F28091F2048F3F79F08091F20424
:104A1000803241F08091F204803331F4C3E005C06C
:104A2000C1E003C0C2E001C0C4E08C2FDF91CF9190
:104A30001F910F91FF90EF90DF90BF90AF909F90EC
:104A40008F907F906F905F904F90089585ED809349
:104A5000BC0040915E0550915F05609160057091CA
:104A60006105495F5F4F6F4F7F4F689412F87695ED
:104A70006795579547951694D1F71FC080915E05AD
:104A800090915F05A0916005B0916105892B8A2BFB
:104A90008B2B99F0411551056105710549F085E3AE
:104AA0008A95F1F70000415051096109710905C06B
:104AB00080915C050E94052408958091BC0084FDCE
:104AC000DDCF1092650508951F920F920FB60F92D9
:104AD00011242F933F934F935F936F937F938F9303
:104AE0009F93AF93BF93EF93FF938091B900E82F0B
:104AF000E87F8E2F90E0893C910508F0F5C0FC011D
:104B0000EC5CFF4F0C94B829809164058093BB0046
:104B100081E00E94F523E8C0909137058091360529
:104B2000981780F4E091370581E08E0F8093370568
:104B3000F0E0E85CFA4F80818093BB0081E00E9446
:104B4000F523D2C080916305882319F00E942625A1
:104B5000CBC081E08093620584EA8093BC00109210
:104B60006505C2C080E28093F2040E942625BCC085
:104B700080E38093F2040E942625B6C088E38093E8
:104B8000F2040E94FF23B0C0E091370581E08E0F50
:104B900080933705F0E08091BB00E85CFA4F80839A
:104BA0009091370580913605981720F481E00E9496
:104BB000F5239AC080E00E94F52396C0E091370566
:104BC00081E08E0F80933705F0E08091BB00E85CB8
:104BD000FA4F808380916305882319F00E9426256F
:104BE00083C081E08093620584EA8093BC001092C8
:104BF00065057AC00E94262577C083E0809365050D
:104C00001092F30481E00E94F5236EC08091F304BA
:104C1000803280F4E091F30481E08E0F8093F304FE
:104C2000F0E08091BB00EC50FB4F808381E00E945C
:104C3000F5235AC080E00E94F52356C00E94FF234E
:104C40008091F304803230F4E091F304F0E0EC5012
:104C5000FB4F10826091F30470E0E0915805F091F1
:104C6000590584EF94E009951092F3043DC080E06B
:104C70000E94F52339C084E08093650510921505E4
:104C800010921405E0915A05F0915B050995809109
:104C90001405811105C081E080931405109216055A
:104CA000E091150581E08E0F80931505F0E0EA5E36
:104CB000FA4F80818093BB00909115058091140577
:104CC000981720F481E00E94F5230EC080E00E9436
:104CD000F5230AC081E00E94F5231092650504C007
:104CE0001092F2040E942625FF91EF91BF91AF919F
:104CF0009F918F917F916F915F914F913F912F91F4
:104D00000F900FBE0F901F90189580919A0590E01C
:104D100020919B05821B9109089590919B0580919C
:104D20009A05981750F4E92FF0E0E456FA4F2081E5
:104D300030E09F5F90939B0502C02FEF3FEFC901CA
:104D40000895E0919B0580919A05E81730F4F0E012
:104D5000E456FA4F808190E008958FEF9FEF089519
:104D60000895CF93DF93EC01E0917205F091730504
:104D70003097E1F090919B0580919A059817B0F0DB
:104D800090E0292F30E02617370754F4DE01A90FF1
:104D9000B11D4C91D901A456BA4F4C939F5FF1CFEE
:104DA000CB0110929B0560939A050995DF91CF91F5
:104DB0000895E0917405F0917505309729F01092EF
:104DC00078051092770509950895CF92DF92EF92BA
:104DD000FF920F931F93CF93DF938C016B017A01A6
:104DE00080917605882399F0C0E0D0E0CE15DF05EC
:104DF00090F4D801ED91FC910190F081E02DD60165
:104E0000AC0FBD1F6C91C80109952196EFCF642F9F
:104E1000C6010E94BF23C701DF91CF911F910F915F
:104E2000FF90EF90DF90CF900895CF93DF931F9284
:104E3000CDB7DEB7FC016983909176059923D9F04F
:104E400090917705903238F081E090E093838283EF
:104E500080E090E017C080917805E82FF0E0E758F7
:104E6000FA4F998190838F5F8093780580937705BF
:104E700081E090E007C061E0CE0101960E94BF236F
:104E800081E090E00F90DF91CF910895FC011382B3
:104E9000128288EE93E0A0E0B0E084839583A6833D
:104EA000B78382E692E0918380830895019739F475
:104EB0006F3F7F4F21F486E695E00E9446270895D4
:104EC00010929B0510929A05109278051092770522
:104ED0000E94932389ED96E20E94F02381EB96E2F3
:104EE0000E94EB23089581E08093760560939905F5
:104EF000109278051092770508950F9340917705E9
:104F0000062F21E069E775E0809199050E9425242C
:104F10001092780510927705109276050F910895FA
:104F200061E00E947D2708956FEF7FEF81E090E0C0
:104F30000E94562708955058BB27AA270E94B327DE
:104F40000C94FD280E94EF2838F00E94F62820F0EB
:104F500039F49F3F19F426F40C94EC280EF4E095F4
:104F6000E7FB0C94E628E92F0E940E2958F3BA17A4
:104F7000620773078407950720F079F4A6F50C946F
:104F800030290EF4E0950B2EBA2FA02D0B01B9019C
:104F900090010C01CA01A0011124FF27591B99F0AF
:104FA000593F50F4503E68F11A16F040A22F232FBB
:104FB000342F4427585FF3CF469537952795A7950B
:104FC000F0405395C9F77EF41F16BA0B620B730BB2
:104FD000840BBAF09150A1F0FF0FBB1F661F771F23
:104FE000881FC2F70EC0BA0F621F731F841F48F4D8
:104FF000879577956795B795F7959E3F08F0B0CF61
:105000009395880F08F09927EE0F97958795089547
:105010000E941C280C94FD280E94F62858F00E943B
:10502000EF2840F029F45F3F29F00C94E628511155
:105030000C9431290C94EC280E940E2968F39923D2
:10504000B1F3552391F3951B550BBB27AA27621784
:105050007307840738F09F5F5F4F220F331F441F91
:10506000AA1FA9F335D00E2E3AF0E0E832D09150C5
:105070005040E695001CCAF72BD0FE2F29D0660FB2
:10508000771F881FBB1F261737074807AB07B0E8F5
:1050900009F0BB0B802DBF01FF2793585F4F3AF0FB
:1050A0009E3F510578F00C94E6280C9431295F3F1F
:1050B000E4F3983ED4F3869577956795B795F79581
:1050C0009F5FC9F7880F911D9695879597F9089569
:1050D000E1E0660F771F881FBB1F62177307840705
:1050E000BA0720F0621B730B840BBA0BEE1F88F714
:1050F000E09508950E94162988F09F5798F0B92FDF
:105100009927B751B0F0E1F0660F771F881F991FFC
:105110001AF0BA95C9F714C0B13091F00E94302945
:10512000B1E008950C943029672F782F8827B85F55
:1051300039F0B93FCCF3869577956795B395D9F754
:105140003EF490958095709561957F4F8F4F9F4F5E
:105150000895E89409C097FB3EF49095809570956A
:1051600061957F4F8F4F9F4F9923A9F0F92F96E9B3
:10517000BB279395F695879577956795B795F11128
:10518000F8CFFAF4BB0F11F460FF1BC06F5F7F4FC5
:105190008F4F9F4F16C0882311F096E911C07723D7
:1051A00021F09EE8872F762F05C0662371F096E8E0
:1051B000862F70E060E02AF09A95660F771F881FAF
:1051C000DAF7880F9695879597F9089597F99F676D
:1051D00080E870E060E008959FEF80EC089500247F
:1051E0000A941616170618060906089500240A944C
:1051F00012161306140605060895092E0394000CD2
:1052000011F4882352F0BB0F40F4BF2B11F460FF60
:1052100004C06F5F7F4F8F4F9F4F089557FD905889
:10522000440F551F59F05F3F71F04795880F97FB6A
:10523000991F61F09F3F79F0879508951216130624
:105240001406551FF2CF4695F1DF08C01616170653
:105250001806991FF1CF8695710561050894089588
:10526000E894BB2766277727CB0197F908950E941A
:105270004A290C94FD280E94EF2838F00E94F62855
:1052800020F0952311F00C94E6280C94EC281124BE
:105290000C9431290E940E2970F3959FC1F3950F4C
:1052A00050E0551F629FF001729FBB27F00DB11DAA
:1052B000639FAA27F00DB11DAA1F649F6627B00D3A
:1052C000A11D661F829F2227B00DA11D621F739F23
:1052D000B00DA11D621F839FA00D611D221F749F31
:1052E0003327A00D611D231F849F600D211D822F78
:1052F000762F6A2F11249F5750409AF0F1F088239F
:105300004AF0EE0FFF1FBB1F661F771F881F9150CB
:105310005040A9F79E3F510580F00C94E6280C946C
:1053200031295F3FE4F3983ED4F3869577956795EE
:10533000B795F795E7959F5FC1F7FE2B880F911DF5
:105340009695879597F9089597FB072E16F4009484
:1053500007D077FD09D00E94C92907FC05D03EF48B
:10536000909581959F4F0895709561957F4F089511
:10537000EE0FFF1F0590F491E02D09940E94DD29A6
:10538000A59F900DB49F900DA49F800D911D112499
:105390000895AA1BBB1B51E107C0AA1FBB1FA6177C
:1053A000B70710F0A61BB70B881F991F5A95A9F7CE
:1053B00080959095BC01CD010895A29FB001B39F47
:1053C000C001A39F700D811D1124911DB29F700D0E
:1053D000811D1124911D08950F931F93CF93DF9387
:1053E0008230910510F482E090E0E091BE05F091EA
:1053F000BF0520E030E0A0E0B0E0309719F1408137
:1054000051810281138148175907C8F08417950705
:1054100069F4109731F012960C93129713961C931F
:1054200027C00093BE051093BF0522C0211531058A
:1054300019F04217530718F49A01BD01EF01DF017B
:10544000F801DBCF21153105F9F0281B390B243089
:10545000310580F48A819B816115710521F0FB0182
:105460009383828304C09093BF058093BE05FE01A1
:10547000329644C0FE01E20FF31F819391932250B4
:105480003109398328833AC02091BC053091BD058C
:10549000232B41F420910201309103013093BD058B
:1054A0002093BC05209100013091010121153105A7
:1054B00041F42DB73EB74091040150910501241BE2
:1054C000350BE091BC05F091BD05E217F307A0F4A0
:1054D0002E1B3F0B2817390778F0AC014E5F5F4F4A
:1054E0002417350748F04E0F5F1F5093BD054093BA
:1054F000BC058193919302C0E0E0F0E0CF01DF9121
:10550000CF911F910F910895CF93DF93009709F4E6
:1055100081C0FC01329713821282A091BE05B09126
:10552000BF05109781F420813181820F931F209154
:10553000BC053091BD052817390751F5F093BD051D
:10554000E093BC0567C0ED0120E030E0CE17DF0737
:1055500040F44A815B819E0141155105F1F0EA0159
:10556000F5CFD383C28340815181840F951FC81723
:10557000D90759F488819981840F951F02969183E8
:1055800080838A819B81938382832115310529F44D
:10559000F093BF05E093BE053DC0E901FB83EA83BC
:1055A00049915991C40FD51FEC17FD0761F4808113
:1055B0009181840F951F0296E901998388838281E6
:1055C00093819B838A83E0E0F0E012968D919C9119
:1055D0001397009719F0FD01DC01F7CF8D919C9195
:1055E00011979D012E5F3F4F820F931F2091BC05A5
:1055F0003091BD052817390769F4309729F41092C6
:10560000BF051092BE0502C013821282B093BD0581
:10561000A093BC05DF91CF91089581E090E0F894CC
:105620000C94392BFB01DC0104C08D910190801991
:1056300021F441505040C8F7881B990B0895FC0194
:105640008191861721F08823D9F7992708953197FA
:10565000CF010895FB01DC014150504048F001901A
:105660000D920020C9F701C01D9241505040E0F753
:065670000895F894FFCF3D
:105676000000C0052000016A69FFFFFFFF0000402F
:1056860000140054001000000001000100D4300A8C
:1056960000080005000000FCFFF8FFF7FFF7FFFA1F
:1056A600FFFFFF030007000900EEFFD2FFADFF88F2
:1056B600FF6CFF42036CFF88FFADFFD2FFEEFFBB1E
:1056C600FF80FF93FF0D00AA00F200AA000D0093D1
:1056D600FF80FFBBFF250039004D0060006F00779B
:1056E6000077006F0060004D0039002500000000C3
:1056F600005B0161015D016001000000008E036135
:10570600015D01600152494646202020205741563E
:1057160045666D7420006461746120202020007449
:10572600656D702E62696E0053434C204D005072B9
:105736006F63657373696E6700506C6179696E6734
:10574600004572726F7200456E64206F6620706C41
:105756006179005265636F7264696E6700536176A2
:105766006564004E6F20547261636B73005265610D
:10577600647920746F20506C61790044656C65749F
:10578600653F0044454C455445204E4F28506C61BA
:105796007929004E6F742044656C65746564005603
:1057A6006F696365205265636F72646572000000FD
:1057B6000000050D2D0D1B0DB00D3B0E550D740D86
:1057C6002F0000000000181E61017E196001000014
:1057D60000001527E5265D01B02685268D26A12623
:00000001FF
