:100000000C9486060C94AE060C94AE060C94AE06C8
:100010000C94AE060C94AE060C94AE060C94AE0690
:100020000C94AE060C94AE060C94AE060C94AE0680
:100030000C94AE060C94AE060C94AE060C94AE0670
:100040000C941A070C94AE060C94AE060C94AE06F3
:100050000C94AE060C94AE060C94AE060C94AE0650
:100060000C94E92B0C94AE06F52CF92CF92CF92CF8
:10007000F92CF92CF92CF92C092CF92CF92CF92C48
:10008000F92CF92CF92CF92C092CF92CF92CF92C38
:10009000F92CF92CF92CF92C112CF92CF92CF92C20
:1000A000F92CF92CF92CF92C372CF92CF92CF92CEA
:1000B000F92CF92CF92CF92C112CF92CF92CF92C00
:1000C000F92CF92CF92CF92C3D2CF92CF92CF92CC4
:1000D000F92CF92CF92CF92C432CF92CF92CF92CAE
:1000E000F92CF92CF92CF92C552CF92CF92CF92C8C
:1000F000F92CF92CF92CF92C7F2CF92CF92CF92C52
:10010000F92CF92CF92CF92C492CF92CF92CF92C77
:10011000F92CF92CF92CF92C632CF92CF92CF92C4D
:10012000F92CF92CF92CF92C822CF92CF92CF92C1E
:10013000F92CF92CF92CF92C822CF92CF92CF92C0E
:10014000F92CF92CF92CF92C822CF92CF92CF92CFE
:10015000F92CF92CF92CF92C822CF92CF92CF92CEE
:10016000F92CF92CF92CF92C8B2CF92CF92CF92CD5
:10017000F92CF92CF92CF92CBC2CF92CF92CF92C94
:10018000F92CF92CF92CF92C8B2CF92CF92CF92CB5
:10019000F92CF92CF92CF92CBC2CF92CF92CF92C74
:1001A000F92CF92CF92CF92CA32CF92CF92CF92C7D
:1001B000F92CF92CF92CF92CC02CF92CF92CF92C50
:1001C000F92CF92CF92CF92CC02CF92CF92CF92C40
:1001D000F92CF92CF92CF92CD52CF92CF92CF92C1B
:1001E000F92CF92CF92CF92CEF2CF92CF92CF92CF1
:1001F000F92CF92CF92CF92CEF2C00000008000246
:1002000001000003040700000000000000000102DC
:100210000408102040800102040810200102040894
:100220001020040404040404040402020202020272
:1002300003030303030300000000250028002B0034
:1002400000000000240027002A0022080D0E206074
:100250000402050607080902030305080204020454
:10026000070407070707070707070202070707082A
:100270000E0908080807070908020708070B0809FC
:10028000070909070808090D0708080404040608F7
:10029000030707060707050707020306020A070701
:1002A000070705060507070B0607050501050708EB
:1002B0000000000000000000FEFE18181E1E001EB8
:1002C0001E000000000090F89E90F89E1C00001C8C
:1002D0000000183C26FF66CC88040C183C180C045F
:1002E0001C221CC0308E408000001804000C100C32
:1002F00080CC7E72F2DE0C80000C1C1010101C0CE6
:100300001C101E1E0000F0FC061C7CC006FCF0C089
:100310007C1C14140E14140000000000606060FCCB
:10032000FC6060600000000C0C0000000000583809
:10033000C0C0C0C0000000000000181800C038068F
:1003400018040000F8FC0E060EFCF8040C1C181C27
:100350000C04180CFEFE00001C1C181C86C6663E11
:100360001C181C1C18181818888C062626FEDC047D
:100370000C1C18180C04C0E0B88CFEFE80040404A9
:10038000041C1C04707E3E3636F6C60C1C18181869
:100390000C04F8FC6E6666EECC040C1818181C0CE5
:1003A000060606E6761E0600001C1C0000009CFEE9
:1003B000666666FE9C0C1C1818181C0C3C7E666653
:1003C00066FCF80C1C18181C0C04181818181818BF
:1003D00058386060F0F098980C0000000004040C9D
:1003E000D8D8D8D8D8D8D8000000000000000C9881
:1003F00098F0F060600C040400000000080C06C6D1
:10040000E6763C180000001818000000E03008C430
:10041000F63A1A1AF2FA7E0408F00C30604C9C98F6
:10042000988C9C9C90484C2000C0F8BE86BEF8C0BA
:1004300000181C04040404041C18FEFE66666666AC
:10044000FEDC1C1C181818181C0CF8FC0E06060EF6
:100450009C08040C1C18181C0C04FEFE0606060E54
:10046000FCF81C1C1818181C0C04FEFE6666666658
:10047000661C1C1818181818FEFE66666666061CB0
:100480001C0000000000F8FC0E0606C6CEDCC80406
:100490000C1C181818180C04FEFE60606060FEFE4C
:1004A0001C1C000000001C1CFEFE1C1C80800000A8
:1004B00000FEFE0C1C1818181C0CFEFE603078ECB8
:1004C00086021C1C000000041C18FEFE0000000038
:1004D000001C1C1818181818FEFE0E7CE000E07CAA
:1004E0000EFEFE1C1C00000C1C0C00001C1CFEFE62
:1004F0001C78E080FEFE1C1C0000040C1C1CF8FC98
:100500000E0606060EFCF8040C1C1818181C0C0429
:10051000FEFE6666667E3C1C1C0000000000F8FCC7
:100520000E0686060EFCF8040C1C18181C0C1C2465
:10053000FEFE6666E6E6BE1C001C1C0000000C1CED
:1005400018103C7E666666EECC0C1C1818181C0C45
:10055000060606FEFE0606060000001C1C00000043
:10056000FEFE00000000FEFE040C1C18181C0C040B
:10057000021EFCE000E0FC1E020000001C1C1C002F
:10058000000006FEF800F0FE0EFEF000F8FE060089
:10059000001C1C1C0000001C1C1C0000060EF8F0B7
:1005A000F80E06181C0400041C18060E38F0F0386B
:1005B0000E060000001C1C000000060686E6761EE3
:1005C0000E06181C1C1818181818FEFE0606FCFC4F
:1005D000C0C00638C000000004180606FEFEC0C0F9
:1005E000FCFC20380E0E3820000000000000000047
:1005F00000000000000080808080808080800206F3
:10060000040000001098D858F8F0000C1C18180CC2
:100610001C10FEFE301838F0E01C1C0C181C0C04DA
:10062000E0F018183830040C18181C0CE0F03818DA
:1006300030FEFE040C1C180C1C1CE0F0D8D8D8F0BE
:10064000E0040C181818180818FCFE1A1A001C1CD4
:100650000000E0F0381830F8F864ECDCD8CCFC7C12
:10066000FEFE301818F8F01C1C0000001C1CFAFAE2
:100670001C1C00FAFAC0FC7CFEFEE0F098081C1C72
:1006800000041C18FEFE1C1CF8F81018F8F01818CE
:10069000F8F01C1C00001C1C00001C1CF8F8301892
:1006A00018F8F01C1C0000001C1CE0F0381838F092
:1006B000E0040C1C181C0C04F8F8301838F0E0FCAE
:1006C000FC0C181C0C04E0F0381830F8F8040C1C72
:1006D000180CFCFCF8F83018181C1C00000070F80E
:1006E000D8D8D890081818181C0C18FCFE18180038
:1006F0000C1C1818F8F8000000F8F80C1C18180C5E
:100700001C1C38F8C000C0F83800001C1C1C00007D
:1007100018F8E000F038F000E0F81800001C1C0C9D
:10072000000C1C1C00001838E0E03818181C0404E9
:100730001C1818F8E000E0F8180084FCF83C0400ED
:100740001898D878381C1C18181880FC7E060600EB
:100750007CFCC0C0FEFC06067EFC80C0C0FC7C00A9
:100760006030307060603000000000000000FE0269
:100770000202020202FE1C1010101010101C0000D9
:10078000070E2060000000000000000000000000D4
:1007900000000000FC0000000000000D0000000050
:1007A000003C003C0000000000000000000020F8B9
:1007B0002020F82000010701010701006090F89057
:1007C00010000004040F0403000018249860100CAB
:1007D000000C02010609060030C8C83000000007FE
:1007E00008080906090000003C00000000000000A5
:1007F000000000000000E0180402000000030C10DC
:100800002000020418E000000020100C030000008B
:1008100080A0C0C0A0800000020101020000808012
:1008200080F08080800000000700000000000000D1
:1008300000000020180C0400000080808080808070
:1008400000000000000000000000000000000000A8
:10085000081C08000000000080601806001806014F
:1008600000000000F008844408F0000304080804B5
:100870000300201008FC0000000000000F00000032
:10088000180404844438000C0A0908080800080405
:10089000444444B8000608080808070080601804AB
:1008A000FC0000010101010F01007C24242424C468
:1008B0000006080808080700F88444444488000734
:1008C000080808080700040404C4340C00000C03E2
:1008D00000000000B844444444B800070808080871
:1008E00007007884848444F8000408080808070096
:1008F0000020702000000000081C080000000020FC
:10090000702000000020180C04000000804020101F
:100910000800000001020408000040404040404040
:1009200000020202020202000008102040800000C3
:1009300008040201000004844424180000000D0093
:1009400000000000F008C42424F8000304090A0A87
:100950000300F884848484F8000F000000000F0076
:10096000FC4444447880000F080808080700F80495
:10097000040404180007080808080600FC0404041E
:1009800008F0000F080808040300FC444444440431
:10099000000F080808080800FC4444444404000F01
:1009A000000000000000F804048484980007080890
:1009B00008080700FC40404040FC000F0000000019
:1009C0000F000404FC0404000008080F08080000DD
:1009D0000000040404FC0006080808080700FC40A6
:1009E00020D00804000F000000030C00FC000000F1
:1009F0000000000F080808080800FC186080601854
:100A0000FC0F00000100000FFC18608000FC000FCC
:100A1000000001060F00F804040404F800070808A9
:100A200008080700FC8484848478000F000000001C
:100A30000000F804040404F8000708080E18170062
:100A4000FC8484848478000F000102040800384488
:100A5000448484080004080808080700040404FC0F
:100A60000404040000000F000000FC00000000FC73
:100A70000007080808080700FC00000000FC000050
:100A8000030C0C030000FC0000C00000FC030C037E
:100A900000030C030C30C0C0300C000C030000033A
:100AA0000C003C408080403C000000000F00000033
:100AB00004048444340C000C0A09080808000000EF
:100AC000FE0202020000003F202020000618608085
:100AD00000000000000001061800020202FE0000F3
:100AE000002020203F00000010080404081000002F
:100AF0000000000000000000000000000020202096
:100B00002020200000040C1820000000000000003D
:100B1000000000A0A0A0A0C00007080808040F0063
:100B2000FC40202020C0000F040808080700C02057
:100B3000202020400007080808080400C0202020CA
:100B400040FC0007080808040F00C020202020C037
:100B5000000709090909090080F884848408000055
:100B60000F0000000000C020202040E0002344448B
:100B700044423F00FC40202020C0000F0000000045
:100B80000F00002020EC0000000000000F0000001B
:100B900000002020EC0000102020201F0000FC009E
:100BA00080402000000F01010204080000FC00004A
:100BB00000000000070808080000E02020C02020F6
:100BC000C00F00000300000FE040202020C0000FF5
:100BD000000000000F00C020202020C000070808EF
:100BE00008080700E040202020C0007F0204040421
:100BF0000300C020202040E00003040404027F0022
:100C0000E04020202040000F000000000000C02035
:100C100020202040000409090909060020F82020AE
:100C200020000000070808080400E000000000E0C1
:100C30000007080808040F00E000000000E00000C2
:100C4000030C0C030000E00000800000E007080433
:100C500003040807204080804020000804020204AA
:100C60000800E000000000E00023444444423F004C
:100C700020202020A06000080C0A0908080000803D
:100C8000807C0202000000001F2020000000FE0007
:100C900000000000001F0000000002027C808000B5
:100CA0000020201F0000000030080810202018003D
:100CB000000000000000FEFEFEFEFEFEFE7F7F7FC5
:100CC0007F7F7F7FCA0C19802000AED580A81FD3FC
:100CD00000408D142002A1C8DA02817FD9F1DB40E7
:100CE000A4A6AF7C3C3E5E2B3D3F2F5B5D3B2C2A98
:100CF000225C0000030C0F30333C3FC0C3CCCFF06C
:100D0000F3FCFF00DE11DF16641AB12D11241FBEA3
:100D1000CFEFD8E0DEBFCDBF12E0A0E0B1E0E0EB66
:100D2000F2E602C005900D92AA37B107D9F725E087
:100D3000AAE7B2E001C01D92A23DB207E1F716E0BA
:100D4000C6E8D6E004C02197FE010E94D52FC23824
:100D5000D107C9F70E94B4100C9456310C940000CE
:100D60000E942A3180E090E008950895CF92DF92AA
:100D7000EF92FF920F931F93CF93DF938C01DB01D0
:100D8000C0E0D0E07A0181E0E81AF108452BA1F03B
:100D9000F80180819181FC01208131816D01FFEF9B
:100DA000CF1ADF0A6C91C801F9010995892B21F04E
:100DB0002196A701D601E6CFCE01DF91CF911F91F9
:100DC0000F91FF90EF90DF90CF900895611571051E
:100DD00081F0FB0101900020E9F73197AF01461B3C
:100DE000570BDC01ED91FC910280F381E02D099518
:100DF000089580E090E00895DC01ED91FC9102807F
:100E0000F381E02D42E050E065E771E00995089537
:100E10000F931F93CF93DF93EC010E94E6068C01A2
:100E2000CE010E94FC06800F911FDF91CF911F9190
:100E30000F9108951F920F920FB60F9211240F93E6
:100E40001F932F933F934F935F936F937F938F9352
:100E50009F93AF93BF9300917B0210917C022091EE
:100E60007D0230917E0290917A02B901A8014F5F14
:100E70005F4F6F4F7F4F83E0890F8D3740F086E8DB
:100E8000890FB901A8014E5F5F4F6F4F7F4F80936D
:100E90007A0240937B0250937C0260937D027093B0
:100EA0007E0280917F0290918002A0918102B09198
:100EB00082020196A11DB11D80937F029093800252
:100EC000A0938102B0938202BF91AF919F918F91C5
:100ED0007F916F915F914F913F912F911F910F9152
:100EE0000F900FBE0F901F9018952FB7F894609138
:100EF0007B0270917C0280917D0290917E022FBFD7
:100F00000895833069F028F48130B1F08230C1F067
:100F100008958730C9F08830E9F0843001F506C0C3
:100F2000E0E8F0E080818F7780830895E0E8F0E0EA
:100F300080818F7D8083089584B58F7784BD0895E7
:100F400084B58F7D84BD0895E0EBF0E080818F77DC
:100F500080830895E0EBF0E080818F7D80830895A9
:100F6000CF93DF9390E0FC01E25FFD4F2491FC0101
:100F7000EE5DFD4F8491882379F190E0880F991FF1
:100F8000FC01E05CFD4FA591B491FC01EA5CFD4FD2
:100F9000C591D49161110CC09FB7F8948C91E22F48
:100FA000E0958E238C932881E223E8839FBF14C0B1
:100FB000623061F49FB7F8948C91322F309583237F
:100FC0008C93E881E22BE8839FBF06C08FB7F8942B
:100FD000EC91E22BEC938FBFDF91CF9108951F939B
:100FE000CF93DF93282F30E0F901E650FE4F849134
:100FF000F901E25FFD4F1491F901EE5DFD4FC491DF
:10100000CC23D1F0D62F81110E948107EC2FF0E084
:10101000EE0FFF1FEA5CFD4FA591B4918FB7F894D6
:10102000D11106C09C91E12FE095E923EC9303C018
:10103000EC91E12BEC938FBFDF91CF911F9108953D
:10104000FC018489882379F041110DC084E98093E3
:10105000BC0094E62091BC0024FF04C0992311F049
:101060009150F8CF148A5489511156C08389782F32
:10107000770F84EA8093BC0020E030E02F3F8FEFB1
:10108000380769F09091BC00992334F48091B9003D
:10109000887F828B81E004C02F5F3F4FEFCF80E0DD
:1010A000882309F19289983019F0903119F003C022
:1010B00080E001C080E0811116C07093BB0084E81D
:1010C0008093BC0080E090E08F3F2FEF920759F0B3
:1010D0002091BC0022232CF48091B900887F828B60
:1010E00002C00196F1CF411150E45093BB0084E857
:1010F0008093BC0020E030E02F3F8FEF380761F095
:101100009091BC0099232CF48091B900887F828B48
:1011100003C02F5F3F4FF0CF6093BB0084E8809304
:10112000BC0020E030E02F3F8FEF380761F0909156
:10113000BC0099232CF48091B900887F828B03C076
:101140002F5F3F4FF0CF423021F484898F5F848B33
:10115000089584E98093BC0094E62091BC0024FFAC
:1011600004C0992311F09150F8CF148A0895019783
:1011700091F46F3F7F4F79F4E3E8F2E0138212823B
:101180001486158617861686108A81E0818B8DE37A
:1011900092E091838083089580E099B1909561F108
:1011A000983099F038F49230D1F0943061F0913069
:1011B000A1F407C0903469F0903869F0903269F476
:1011C00006C08FE50DC083E70BC08CE309C080E744
:1011D00007C08EE305C084E603C080E001C08AE258
:1011E0002FEF35EA9EE0215030409040E1F700C0FB
:1011F00000009FEF9BB9D1CF0895CF93DF93EC010F
:1012000083E892E00E946C296AE472E083E892E04D
:101210000E94CA28BE0183E892E00E940807DF917D
:10122000CF910895CF93DF93EC016EE777E083E8E9
:1012300092E00E94CA28BE0183E892E00E9408075B
:10124000DF91CF910895CF93DF931092A00281E4B4
:1012500080939802C0E0D1E4CF30D9F0DB35C9F0FB
:1012600068E972E080EB92E00E94C716882369F07B
:10127000EC2FF0E080919802EF55FD4F8083809134
:10128000A0028F5F8093A002CF5FDF5FD0939802B0
:10129000E3CFCF3040F4EC2FF0E0EF55FD4F8FE57A
:1012A0008083CF5FF6CFDF91CF910895E0919F02C9
:1012B000EF5FE0939F02F0E0EF55FD4F80818F35A7
:1012C00011F410929F02E0919F02F0E0EF55FD4F64
:1012D000808180939802089580919F02811106C0B9
:1012E0008091A002815080939F0203C0815080931F
:1012F0009F02E0919F02F0E0EF55FD4F80818093C7
:1013000098020895CF9381E480939802C1E468E93C
:1013100072E080EB92E00E94C716882321F0CF5F35
:10132000C0939802F4CFCF91089568E972E080EB02
:1013300092E00E94D316E8E9F2E083E58083A09171
:101340009F02B0E0AF55BD4F8C9181838EE28283C6
:1013500087E5838381E4848386E58583BF0180EB11
:1013600092E00E94C716882331F068E972E080EBB2
:1013700092E00E94D31688E48093980268E972E0B4
:1013800080EB92E00E94C716882331F068E972E092
:1013900080EB92E00E94D3168CE48093980268E977
:1013A00072E080EB92E00E94C716882331F068E972
:1013B00072E080EB92E00E94D31682E48093980260
:1013C00068E972E080EB92E00E94C716882331F052
:1013D00068E972E080EB92E00E94D316E0919F02F0
:1013E000F0E0EF55FD4F8081E8E9F2E080838EE286
:1013F000818387E5828381E4838386E58483158204
:1014000008950F931F93CF93DF93CDB7DEB72A973D
:101410000FB6F894DEBF0FBECDBF8C0140E150E0A7
:1014200060E971E00E940D128AE0EDE0F1E0DE017A
:10143000119601900D928A95E1F74AE050E0BE01C5
:101440006F5F7F4FC8010E940D1219821A8280EDD2
:101450008B8380E38C831D821E8281E08F831886BC
:1014600088E089871A864AE050E0BE016F5F7F4FAF
:10147000C8010E940D1248E050E061EA71E0C80125
:101480000E940D122A960FB6F894DEBF0FBECDBF94
:10149000DF91CF911F910F9108958F929F92AF92FC
:1014A000BF92CF92DF92EF92FF920F931F93CF9351
:1014B000DF9300D000D0CDB7DEB78C010E940B13B4
:1014C0006B017C014B015C0188E0881A9108A1083E
:1014D000B10844E050E060E070E0C8010E94EC1206
:1014E00089829A82AB82BC8244E050E0BE016F5F89
:1014F0007F4FC8010E940D1248E250E060E070E0AA
:10150000C8010E94EC12D701C6018C97A109B1094C
:1015100089839A83AB83BC8344E050E0BE016F5F54
:101520007F4FC8010E940D120F900F900F900F90E7
:10153000DF91CF911F910F91FF90EF90DF90CF90AF
:10154000BF90AF909F908F900895EF92FF920F936E
:101550001F93CF93DF93CDB7DEB7CA56D1090FB62D
:10156000F894DEBF0FBECDBF8C0127E14AEA51E0FF
:1015700060EB72E0CE0101960E94B01521E0A80157
:1015800060EB72E0CE014C960E94B0154CE250E048
:1015900060E070E0CE014C960E94EC128AE1E7E137
:1015A000F1E0DE01AF5ABF4F01900D928A95E1F74D
:1015B000E12C10E001C0E02ECE014C960E941B13DE
:1015C000892BE9F101E00E0DF12CCE014C960E9421
:1015D0003512BC016F57710921E0210FE12FF0E0B6
:1015E000EE0FFF1F81E590E08C0F9D1FE80FF91FA4
:1015F00040815181649FC001659F900D749F900D43
:1016000011246AE070E00E94C12FE7E3F0E0EC0FE4
:10161000FD1FEE0DFF1D615860832D3011F0122F5C
:1016200001C010E00A3139F64AE150E0BE01695CC0
:101630007F4FCE0101960E940D1200E0BCCFCE017B
:1016400001960E944A13CE014C960E944A13C65935
:10165000DF4F0FB6F894DEBF0FBECDBFDF91CF9145
:101660001F910F91FF90EF9008952F923F925F92FC
:101670006F927F928F929F92AF92BF92CF92DF92A2
:10168000EF92FF920F931F93CF93DF93CDB7DEB707
:10169000CD5FD1090FB6F894DEBF0FBECDBF5C01A0
:1016A0006B01F42E19012DB73EB7C450DF4F3983BB
:1016B0002883CC5FD040842F90E03C0131E0631A56
:1016C0007108ADB7BEB7A81BB90B0FB6F894BEBF73
:1016D0000FBEADBF0DB71EB70F5F1F4F4801CE0144
:1016E00088549F4F0E94CE1280919802833509F052
:1016F0004FC021E04AEA51E060EB72E0CE018E5A21
:101700009F4F0E94B01566968EAD9FAD6697C654EA
:10171000DF4F99838883CA5BD0406A968CAD9DADBC
:10172000AEADBFAD6A97C454DF4F88839983AA8357
:10173000BB83CC5BD0406E968CAD9DADAEADBFADE6
:101740006E97C054DF4F88839983AA83BB83C05CA4
:10175000D040E2E5F0E0EC0FFD1F3C968CE090E01D
:10176000A8EBB0E0AC0FBD1F1C968F3F2FEF920788
:1017700021F021912D930197F8CFAD968EAD9FADBD
:10178000AD97CF52DF4F99838883C15DD04048C069
:1017900021E0A60160EB72E0CE01C7960E94B01571
:1017A00089AD9AADC654DF4F99838883CA5BD04018
:1017B0008BAD9CADADADBEADC454DF4F8883998376
:1017C000AA83BB83CC5BD04023968CAD9DADAEADE0
:1017D000BFAD2397C054DF4F88839983AA83BB830F
:1017E000C05CD040A7E3B0E0AC0FBD1F1C968CE0FE
:1017F00090E0E8EBF0E0EC0FFD1F3C968F3F3FEFF1
:10180000930721F02D9121930197F8CF62968EAD29
:101810009FAD6297CF52DF4F99838883C15DD040DF
:1018200027E148E952E060EB72E0CE018D529F4F14
:101830000E94B015CB52DF4F88819981C55DD040A1
:101840009F8F8E8FC952DF4F88819981AA81BB817A
:10185000C75DD04088A399A3AAA3BBA3C552DF4FFD
:1018600088819981AA81BB81CB5DD0408CA39DA347
:10187000AEA3BFA38BE492E09D8F8C8F8DE0E3ED50
:10188000F0E0EC0FFD1F3C96DE01989601900D9262
:101890008A95E1F7C451DF4F88819981CC5ED040B1
:1018A0009EAB8DABCE014C960E94010ACE018854AE
:1018B0009F4F0E940B13CA50DF4F688379838A833E
:1018C0009B83C65FD0408F2D90E0C650DF4F998339
:1018D0008883CA5FD040AC01B801CE0188549F4FC5
:1018E0000E94E1124BE450E0BE0163597F4FCE01EC
:1018F00088549F4F0E94E112E12CCE2CCA50DF4F3A
:1019000088819981AA81BB81C65FD040892B8A2BAF
:101910008B2B09F410C19BE4C9120BC04BE450E0BF
:10192000BE0163597F4FCE0188549F4F0E94E11240
:10193000C12CD12C80E090E0AEEFB2E4CE50DF4F6E
:1019400088839983AA83BB83C25FD0405D2CDC2C43
:10195000052D10E0061517050CF068C07401E00EA7
:10196000F11ED7016C9170E080E090E00E94C62EDD
:1019700020E030E04EEF52E40E94B82DC251DF4F1C
:10198000688379838A839B83CE5ED040F801EE0F13
:10199000FF1FEA0DFB1D60817181072E000C880B73
:1019A000990B0E94C82EC251DF4F288139814A818C
:1019B0005B81CE5ED0400E94542FC251DF4F6883BE
:1019C00079838A839B83CE5ED040B101032C000CC7
:1019D000880B990B0E94C82E9B01AC01C251DF4FAE
:1019E000688179818A819B81CE5ED0400E94252EBC
:1019F0009B01AC01CE50DF4F688179818A819B8148
:101A0000C25FD0400E94B92DCE50DF4F68837983EA
:101A10008A839B83C25FD0400F5F1F4FF401E00FAA
:101A2000F11F8081F7018083539492CF8401060DCA
:101A3000171DD8016C9170E080E090E00E94C62EE6
:101A400020E030E04EEF52E40E94B82DC251DF4F4B
:101A5000688379838A839B83CE5ED040C650DF4FF4
:101A6000E881F981CA5FD040E150F048EE0FFF1FD6
:101A7000EA0DFB1D60817181072E000C880B990B0C
:101A80000E94C82EC251DF4F288139814A815B8173
:101A9000CE5ED0400E94542FC251DF4F68837983BD
:101AA0008A839B83CE5ED040B101032C000C880B4F
:101AB000990B0E94C82E9B01AC01C251DF4F688177
:101AC00079818A819B81CE5ED0400E94252E9B0128
:101AD000AC01CE50DF4F688179818A819B81C25FE2
:101AE000D0400E94B92DFF24F394FD0CEDE6F0E008
:101AF000EC0FFD1FED0DF11D2081F80120830E94E8
:101B0000972ECE018D529F4F0E94E511CA50DF4F94
:101B100088819981AA81BB81C65FD0400197A109C4
:101B2000B109CA50DF4F88839983AA83BB83C65FFC
:101B3000D040CF2CE3CECB52DF4F88819981C55D59
:101B4000D0409C838B83C952DF4F88819981AA81C1
:101B5000BB81C75DD0408D839E83AF83B887C5525C
:101B6000DF4F88819981AA81BB81CB5DD040898775
:101B70009A87AB87BC878BE492E09A8389838DE058
:101B8000E3EDF0E0EC0FFD1F3C96DE011D960190A9
:101B90000D928A95E1F7C451DF4F88819981CC5E1F
:101BA000D0409B8F8A8FCE0101960E944D0ACE01B4
:101BB0008D529F4F0E944A13CE0188549F4F0E941E
:101BC0004A136AEA71E080EB92E00E94C71688230C
:101BD00031F06AEA71E080EB92E00E94D316C450C3
:101BE000DF4FA881B981CC5FD0400FB6F894BEBF5B
:101BF0000FBEADBFC350DF4F0FB6F894DEBF0FBEB0
:101C0000CDBFDF91CF911F910F91FF90EF90DF90AB
:101C1000CF90BF90AF909F908F907F906F905F908C
:101C20003F902F9008951F93CF93DF93CDB7DEB7EA
:101C30006E970FB6F894DEBF0FBECDBF182FFE0112
:101C4000319686E0DF011D928A95E9F73EE23A83FC
:101C500027E52B8391E49C8386E58D83E0919F02A9
:101C6000F0E0EF55FD4F40814983E8E9F2E0108351
:101C700041833283238394838583BF0180EB92E089
:101C80000E94C716811154C0133511F0183429F57C
:101C900086E1E1E3F1E0DE01179601900D928A956D
:101CA000E1F7133579F4CE0101960E94A50A24EFDD
:101CB00031E04BE0BE016F5F7F4FCE0107960E947F
:101CC000350B36C024EF31E04BE0BE016F5F7F4F34
:101CD000CE0107960E94350B2BC01234A1F486E189
:101CE000E7E4F1E0DE01179601900D928A95E1F7A5
:101CF00024EF31E04BE0BE016F5F7F4FCE010796CE
:101D00000E94350B15C01C3499F488E1EDE5F1E033
:101D1000DE01179601900D928A95E1F724EF31E0EC
:101D20004CE0BE016F5F7F4FCE0107960E94350BDE
:101D30006E960FB6F894DEBF0FBECDBFDF91CF9188
:101D40001F9108950F931F93CF93DF9300D000D07E
:101D500000D0CDB7DEB783EB91E00E94FD08FE0115
:101D6000319686E0DF011D928A95E9F780E289834A
:101D70008B838C8381E38A8388E58D8318E501E377
:101D80000E94CC08803731F40053009306011835C7
:101D900029F52BC08E3359F4183581F0183481F0B1
:101DA0001C3481F0123481F0133589F40FC08C3368
:101DB00071F4033309F400E30F5F09C018E407C0AE
:101DC0001CE405C012E403C013E501C018E50A8352
:101DD0001D83CE0101960E941209D2CF89EB91E0BA
:101DE0000E94FD08812F0E94130E26960FB6F894CC
:101DF000DEBF0FBECDBFDF91CF911F910F91089530
:101E00001F93CF93DF93CDB7DEB76B970FB6F894E0
:101E1000DEBF0FBECDBF0E94A20E84EC91E00E94F7
:101E2000FD0821E048E952E060EB72E0CE01019646
:101E30000E94B015CE0101960E945D1381110EC063
:101E40008CEC91E00E9412092FEF83ED90E321507A
:101E500080409040E1F700C000005EC04CE250E0DE
:101E600060E070E0CE0101960E94EC1288E992E0F9
:101E70000E941209809106018230C8F4CE010196B9
:101E80000E941B13892BE1F1CE0101960E943512AD
:101E9000909389008093880025ED2A95F1F7000042
:101EA0000E94CC08803751F72BC011E001C011E02F
:101EB000CE0101960E941B13892B11F10E94CC08C0
:101EC0008037F1F0113069F4CE0101960E9435128D
:101ED000909389008093880085ED8A95F1F7000042
:101EE00004C0CE0101960E9435121F5F212F30E001
:101EF0008091060190E0019628173907C9F6D5CFE1
:101F0000109289001092880082ED91E00E941209DF
:101F1000CE0101960E944A139FEF23ED80E391507A
:101F200020408040E1F700C00000E0919F02F0E017
:101F3000EF55FD4F8081E8E9F2E080838EE28183F6
:101F400087E5828381E4838386E5848315826B96AB
:101F50000FB6F894DEBF0FBECDBFDF91CF911F91BA
:101F60000895ECE7F0E09081892B8083EAE7F0E0C8
:101F700080818064808380917A0086FDFCCFECE7CD
:101F8000F0E08081807F80838091790008951F93A5
:101F9000CF93DF93CDB7DEB7C155D1090FB6F89413
:101FA000DEBF0FBECDBF0E94820927E148E952E0A3
:101FB00060EB72E0CE01C7960E94B015CE01C796C5
:101FC0000E945D13811105C08CEC91E00E94FD0818
:101FD00081C08EED91E00E94FD0889AD9AAD9F8F82
:101FE0008E8F8BAD9CADADADBEAD88A399A3AAA3DA
:101FF000BBA323968CAD9DADAEADBFAD23978CA397
:102000009DA3AEA3BFA38BE492E09D8F8C8F8DE048
:10201000FE01ED5BFF4FDE01989601900D928A95CF
:10202000E1F762968EAD9FAD62979EAB8DABCE0110
:102030004C960E94010A80E090E00E94B10F10E4EB
:10204000180F0E94CC08833751F0612FCE01C7963C
:102050000E94E51125E92A95F1F70000ECCF89AD42
:102060009AAD9C838B838BAD9CADADADBEAD8D83A6
:102070009E83AF83B88723968CAD9DADAEADBFADCB
:10208000239789879A87AB87BC878BE492E09A83F2
:1020900089838DE0FE01ED5BFF4FDE011D9601900F
:1020A0000D928A95E1F762968EAD9FAD62979B8FF8
:1020B0008A8FCE0101960E944D0A88EE91E00E941F
:1020C000FD088FEF93ED20E3815090402040E1F731
:1020D00000C00000CE01C7960E944A13CF5ADF4FBE
:1020E0000FB6F894DEBF0FBECDBFDF91CF911F9129
:1020F0000895789484B5826084BD84B5816084BD80
:1021000085B5826085BD85B5816085BDEEE6F0E070
:10211000808181608083E1E8F0E0108280818160CD
:102120008083A0E8B0E08C9181608C938C91806872
:102130008C93808188608083E1EBF0E08081846013
:102140008083E0EBF0E0808181608083EAE7F0E06B
:1021500080818460808380818068808380E6809332
:102160007C001092C10008950E947910E8E9F2E025
:102170008EE2818387E5828381E4838386E584839D
:102180001AB88FEF8BB987B18E7F87B984B182601F
:1021900084B91092890010928800E3E8F2E0148A72
:1021A0008CE3838B1092B90084E48093BC008CE0B4
:1021B0008093B80064EC7CE0CF010E9484296AE03F
:1021C00080EB92E00E948A14811105C08CEC91E0B2
:1021D0000E94FD08FFCF0E9423092FEF83ED90E3BB
:1021E000215080409040E1F700C00000809108013C
:1021F000833759F4809107018A3639F40E94C70F5A
:102200000E94230989E680930801809108018037A4
:10221000C1F5809107018A36A1F58BE6809307010D
:1022200089E6809308018091A002811111C08AE69D
:10223000809307018EEE91E00E94FD082FEF83ED61
:1022400090E3215080409040E1F700C0000019C0A9
:1022500088EF91E00E94FD082FEF83ED90E321507D
:1022600080409040E1F700C00000E0919F02F0E064
:10227000EF55FD4F80818093980288E992E00E949B
:102280001209809107018B3609F083C00E94CC08A7
:102290008823E1F380930801803739F40E94000F0E
:1022A00088EF91E00E94FD086DC08E3319F40E9402
:1022B000560968C08C3319F40E946C0963C08337D7
:1022C00039F48AE68093070189E6809308015AC0B1
:1022D000843609F057C086E092E00E94FD088EE047
:1022E00092E00E9412090E94CC088436D9F40E9420
:1022F000950982E292E00E94FD080E9423098091E4
:102300009F029091A002891303C0815080939F0285
:102310002FEF83ED90E3215080409040E1F700C023
:1023200000000FC08037F9F68EE192E00E94FD08B0
:102330002FEF83ED90E3215080409040E1F700C003
:1023400000008091A002811111C08EEE91E00E94E8
:10235000FD082FEF83ED90E3215080409040E1F79E
:1023600000C000008AE6809307010CC088EF91E06E
:102370000E94FD08E0919F02F0E0EF55FD4F808143
:102380008093980288E992E00E94120989E680937E
:10239000080180910801893609F028CF8091070152
:1023A0008A3609F023CF8AE292E00E94FD080E945B
:1023B000CC088823E1F38093080118CF6FEF7FEFFB
:1023C00081E090E00E94B7080895CF93DF931F92B9
:1023D000CDB7DEB76983DC01ED91FC910280F3811A
:1023E000E02D41E050E0BE016F5F7F4F09950F90F7
:1023F000DF91CF910895DC0159968D919C915A9768
:10240000009741F0DC01ED91FC910480F581E02D15
:102410000995089580E090E00895CF93DF93DC0163
:102420005996ED91FC915A97309749F421E030E0AC
:1024300013963C932E93129780E090E013C0EC012A
:1024400013821282898D9A8D0E943A21E98DFA8D2C
:1024500022813381232B31F081E090E09B838A83BA
:1024600080E090E0DF91CF910895CF93DF931F92AA
:10247000CDB7DEB7FC01818D928D009779F041E0F8
:1024800050E0BE016F5F7F4F0E94C31B019719F49C
:10249000898190E005C08FEF9FEF02C08FEF9FEF23
:1024A0000F90DF91CF910895EF92FF920F931F93BA
:1024B000CF93DF931F92CDB7DEB7FC01818D928D54
:1024C000009719F18F0141E050E0BE016F5F7F4F2F
:1024D0000E94C31B019719F4E980F12C03C0EE247C
:1024E000EA94FE2C8FEFE816F80689F0F801818D4A
:1024F000928DFC0142855385648575854150510953
:10250000610971090E945D1D02C0E12CF12CC70117
:102510000F90DF91CF911F910F91FF90EF90089551
:10252000FC01818D928D009719F061E00E94FE1DE3
:102530000895EF92FF920F931F93CF93DF93EC01D7
:102540007B018A011B821A8288EE93E0A0E0B0E052
:102550008C839D83AE83BF838BE492E099838883D1
:102560008DE190E00E9409309A8F898F009779F071
:102570002DE1F701DC0101900D922A95E1F74CE085
:1025800050E0B801CE010C960E944731188EDF91C1
:10259000CF911F910F91FF90EF900895FC0113824E
:1025A000128288EE93E0A0E0B0E084839583A68356
:1025B000B7838BE492E091838083128E118E148610
:1025C0000895FC01818D928D009719F00E94C31B24
:1025D000089580E090E00895FC01818D928D009730
:1025E00039F00E945D1D91E0811103C090E001C0AF
:1025F00090E0892F0895DC015996ED91FC915A974E
:10260000309729F0628573858485958508956FEFED
:102610007FEFCB010895DC015996ED91FC915A971B
:10262000309729F06389748985899689089560E0D7
:1026300070E0CB010895CF92DF92EF92FF92CF939B
:10264000DF93FC01218D328D232BD9F0EC010E9408
:102650000B136B017C01CE010E94FB12A7019601B6
:10266000261B370B480B590BDA01C901811530E8DD
:102670009307A105B10538F08FEF9FE7A0E0B0E028
:1026800002C080E090E0DF91CF91FF90EF90DF906B
:10269000CF900895CF93DF93FC01818D928D0097A9
:1026A00049F0EF010E94511E898D9A8D0E94A13040
:1026B0001A8E198EDF91CF910895DC015996ED9114
:1026C000FC915A97309731F0958181E0911103C0C8
:1026D00080E0089580E008950197C9F46F3F7F4F2F
:1026E000B1F4E0EBF2E0158216821186138682E0E7
:1026F00090E0A0E0B0E084879587A687B78713A213
:1027000015A614A68FE592E093A782A717A60895B1
:102710001F93CF93DF93CDB7DEB76D970FB6F894C5
:10272000DEBF0FBECDBFAB011C821B822FE532E0A6
:102730003A8329831E8221E0BC01CE0101960E94CA
:10274000022011E0811101C010E0882321F0CE01A8
:1027500001960E94511E812F6D960FB6F894DEBF30
:102760000FBECDBFDF91CF911F910895442339F063
:102770000E94132191E0811103C090E001C091E01B
:10278000892F0895CF93DF93EC01DB01ED91FC914C
:10279000DC01AE0FBF1F8C918F3209F4319620E01F
:1027A00030E02C30310584F4DE01AE0FBF1F9C9168
:1027B0009F3251F0992341F0DA01A20FB31F3196F5
:1027C0009C932F5F3F4FEDCFDA01A20FB31F1C92F6
:1027D000DE01AE0FBF1F8C918F3209F43196DB0101
:1027E000ED93FC93EC0FFD1F908181E0911101C0EE
:1027F00080E0DF91CF9108955F926F927F928F92E8
:102800009F92AF92BF92CF92DF92EF92FF920F937F
:102810001F93CF93DF93CDB7DEB7C954D1090FB65D
:10282000F894DEBF0FBECDBF4C016B013A015901D8
:102830001C821B828FE592E09A8389831E8219A2F3
:1028400018A29F8F8E8F1BA22A961FAE1EAE2A97AC
:102850008B01CE0101967C01AE01455C5F4FBE014C
:10286000685B7F4FC4010E94C213582E41E0482785
:102870009501BE01655C7F4FC801F3010995811187
:1028800008C00C151D0551F1C8010E94511E80E0C1
:102890002AC05520D9F021E0AE01455C5F4FB80158
:1028A000C7010E940220582E0C151D0519F0C80101
:1028B0000E94511E5520A1F00C151D0511F0C801F4
:1028C00002C0CE014E9687017C01C6CF0C151D05B6
:1028D00049F0C8010E94511E81E005C080E003C09C
:1028E00080E001C081E0C75BDF4F0FB6F894DEBF28
:1028F0000FBECDBFDF91CF911F910F91FF90EF9051
:10290000DF90CF90BF90AF909F908F907F906F900F
:102910005F9008950F931F93CF93DF93EC01162FD1
:102920008FA5882321F0CE018A960E94511E412F47
:1029300061E0CE010E9413188823E1F08E01045F4C
:102940001F4F41E0BE01C8010E94DC26811106C074
:1029500040E0BE01C8010E94DC2601C081E088235E
:1029600059F0B801CE018A960E94661B882331F087
:1029700081E005C080E003C080E001C080E0DF911D
:10298000CF911F910F9108954F925F926F927F9216
:102990008F929F92AF92BF92CF92DF92EF92FF926F
:1029A0000F931F93CF93DF93CDB7DEB7C754D109F1
:1029B0000FB6F894DEBF0FBECDBF4C013A0129011E
:1029C0001C821B828FE592E09A8389831E8219A262
:1029D00018A29F8F8E8F1BA2645F7F4FCE0101963E
:1029E0000E94661B73016E018EE1C80ED11CFE01B0
:1029F00031965F016FE270E0C7010E943C310097A1
:102A0000F1F1F70120812F3221F4FFEFEF1AFF0AD5
:102A1000F1CF0097A1F18E198D3008F08CE0082FCE
:102A200010E0A801B701CE01CB960E944731EBE33D
:102A3000F0E0EC0FFD1FE00FF11F1082C6010E94B5
:102A4000511E21E0AE01455C5F4FB501C6010E94F9
:102A50000220811109C0F401138212828FE592E0F5
:102A600091838083158263C0E00EF11EC5010E9430
:102A7000511E9A2D8B2D5601C92ED82EBBCFE6188C
:102A8000F708F201F182E08288E891E0F401918395
:102A90008083F50182819381F401938382838FE5A2
:102AA00092E091838083F5018481F4018483F501B0
:102AB0008581F4018583F50186819781A085B185A3
:102AC000F40186839783A087B187F501828593857A
:102AD000A485B585F40182879387A487B587F5011E
:102AE00086859785A089B189F40186879787A08B11
:102AF000B18BF5018289F401828BF5018389948978
:102B0000A589B689F401838B948BA58BB68BF501CF
:102B10008789908DA18DB28DF401878B908FA18FC5
:102B2000B28FF501838D948DF401948F838FC4014E
:102B3000C95BDF4F0FB6F894DEBF0FBECDBFDF918C
:102B4000CF911F910F91FF90EF90DF90CF90BF90AA
:102B5000AF909F908F907F906F905F904F9008956F
:102B6000DF92EF92FF920F931F93CF93DF93CDB736
:102B7000DEB7C657D1090FB6F894DEBF0FBECDBF82
:102B80007C018A01D22E9E01255C3F4FCE01CD965D
:102B90000E94C4148BAD9CAD080F191FF8018081F1
:102BA000811157C021968EAD9FAD219799A388A31F
:102BB0008FE592E09F8F8E8F22968FAD22978AA30A
:102BC00023968FAD23978BA327968CAD9DADAEAD8D
:102BD000BFAD27978CA39DA3AEA3BFA32B968CADAF
:102BE0009DADAEADBFAD2B9788A799A7AAA7BBA7F0
:102BF0002F968CAD9DADAEADBFAD2F978CA79DA789
:102C0000AEA7BFA760968FAD609788AB64968CAD7A
:102C10009DADAEADBFAD649789AB9AABABABBCAB72
:102C200068968CAD9DADAEADBFAD68978DAB9EABDC
:102C3000AFABB8AF6A968EAD9FAD6A979AAF89AFCA
:102C400049E552E0BE01625E7F4FC7010E949912C2
:102C50008EC06E961FAE1EAE6E978FE592E06C969C
:102C60009FAF8EAF6C97A0961FAEA09723968FADA7
:102C70002397811104C0C7010E94CE1278C02D2D68
:102C8000A801BE01635C7F4FCE01865A9F4F0E9410
:102C90000220811104C0C7010E94CE1268C0CE017B
:102CA000CD960E94511E8D2D8670863059F4E19686
:102CB0004CAD5DAD6EAD7FADE197CE01865A9F4FB5
:102CC0000E945D1D6E968EAD9FAD6E979C838B832B
:102CD0008FE592E09A8389836F968FAD6F978D838E
:102CE000A0968FADA0978E83A4968CAD9DADAEAD12
:102CF000BFADA4978F839887A987BA87A8968CAD14
:102D00009DADAEADBFADA8978B879C87AD87BE87C5
:102D1000AC968CAD9DADAEADBFADAC978F87988BAB
:102D2000A98BBA8BAD968FADAD978B8BE1968CADA1
:102D30009DADAEADBFADE1978C8B9D8BAE8BBF8B48
:102D4000E5968CAD9DADAEADBFADE597888F998F03
:102D5000AA8FBB8FE7968EAD9FADE7979D8F8C8F27
:102D6000A801BE016F5F7F4FC7010E949912C70182
:102D7000CA58DF4F0FB6F894DEBF0FBECDBFDF914C
:102D8000CF911F910F91FF90EF90DF900895FB017D
:102D9000BC01665D7F4F20E030E048E853E1CF01A1
:102DA0000E94FC130895FB01BC01665D7F4F20E08B
:102DB00030E046EB53E1CF010E94FC1308956FEF22
:102DC0007FEF81E090E00E946C1308958EBD0000BB
:102DD0000DB407FEFDCF8EB508958FEF8EBD0000B8
:102DE0000DB407FEFDCF8EB50895019741F46F3FF6
:102DF0007F4F29F4EAEFF2E080E5808311820895A5
:102E000061E0FC0184810E94EF078091F902882330
:102E1000A1F01092F90280910705882371F09FB705
:102E2000F89480910705813029F4809105058DBBC8
:102E30009FBF0895809105058FBF08952091F902E5
:102E4000211120C021E02093F9023091FA02209153
:102E5000FB0240910705442399F04FB7F894509135
:102E60000705513059F45DB3509305056DB350918A
:102E70000605509556235DBB4FBF02C04093050524
:102E80003CBD2DBD60E0FC0184810E94EF070895E8
:102E9000CF93DF93EC018E81882389F08F81988511
:102EA0009C012F5F3F4F38872F838230924018F468
:102EB0000E94ED16F3CFCE010E9400171E82DF9113
:102EC000CF910895673028F026E1FC01258380E04A
:102ED00008956230D1F028F4662349F0613071F032
:102EE00030C0643001F1C0F0653021F12AC080E5C6
:102EF0008093FA0281E08093FB02089580E580933D
:102F0000FA021092FB0281E0089581E58093FA02B3
:102F100081E08093FB02089581E58093FA0210928C
:102F2000FB0281E0089582E58093FA0281E08093BC
:102F3000FB02089582E58093FA021092FB0281E081
:102F4000089583E58093FA021092FB0281E00895D0
:102F50000F931F93CF93DF93EB010E9475078B01B3
:102F60000E94ED168F3F49F00E947507601B710BA0
:102F70006C177D07A8F380E001C081E0DF91CF915D
:102F80001F910F910895CF92DF92EF92FF920F93CE
:102F90001F93CF93DF938C01D62F69017A010E9492
:102FA0004817C8010E941E176CE271E0C8010E9418
:102FB000A8178D2F80640E94E616C8E1CC2374F018
:102FC000D701C6010C2E04C0B695A7959795879595
:102FD0000A94D2F70E94E616C850F0CFDD2311F014
:102FE0008FEF01C085E9D83009F487E80E94E61622
:102FF000C0E00E94ED16F8018287882324F4CF3FB9
:1030000021F490E003C090E001C091E0992311F019
:10301000CF5FEFCFDF91CF911F910F91FF90EF9096
:10302000DF90CF9008958F929F92AF92BF92EF92D0
:10303000FF920F931F93CF93DF93EC01E62E1B8635
:1030400019861E821D824C830E9475078B0161E0E8
:103050008C810E94B00761E08C810E94EF070E9482
:103060003D2882E58093FA021092FB0280910705C9
:10307000882399F08FB7F89490910705913059F40F
:103080009DB3909305052DB39091060590959223DD
:103090009DBB8FBF02C08093050582E58CBD1DBC22
:1030A000F12C89E08F1528F08FEF0E94E616F3943B
:1030B000F8CF80910705882371F09FB7F89480912D
:1030C0000705813029F4809105058DBB9FBF03C0A2
:1030D000809105058FBFCE010E941E1720E030E0D1
:1030E000A90160E0CE010E94C3178A87813051F0A8
:1030F0000E947507601B710B613D774078F381E09A
:103100008D8369C02AEA31E040E050E068E0CE01FA
:103110000E94C31782FF03C081E08B8711C0F12C8E
:1031200083E08F1528F00E94ED168A87F394F8CF7C
:103130008A858A3A19F082E08D834DC082E08B87C0
:103140008B85823031F4812C912C54016894B6F82F
:1031500003C0812C912C540120E030E0A90167E3E9
:10316000CE010E94C317A501940169E2CE010E941D
:10317000C3178A87882351F00E947507601B710B63
:10318000613D774048F388E08D8325C08B85823090
:10319000D1F420E030E0A9016AE3CE010E94C31718
:1031A000882319F086E08D8316C00E94ED16807C7E
:1031B000803C11F483E08B8710E0133020F40E94F0
:1031C000ED161F5FFACFCE010E9400176E2DCE01C3
:1031D0000E94621704C0CE010E94001780E0DF91B8
:1031E000CF911F910F91FF90EF90BF90AF909F9064
:1031F0008F9008950F931F93CF93DF93EC010E945C
:1032000075078B010E94ED168A878F3F51F40E944B
:103210007507601B710B6D327140A0F38FE08D83D9
:1032200004C08E3F39F08DE08D83CE010E940017DF
:1032300080E001C081E0DF91CF911F910F9108954F
:10324000AF92BF92CF92DF92EF92FF920F931F93B4
:10325000CF93DF93EC0169010115110509F46FC0EB
:10326000C801820F931F8130924008F063C08E81A5
:10327000882371F088819981AA81BB818417950781
:10328000A607B70729F48F819885C816D90620F5B7
:10329000488359836A837B838B85833049F0032E6F
:1032A00039E0440F551F661F771F3A95D1F7302D2F
:1032B0009A01AB0161E1CE010E94C317882319F086
:1032C00083E08D8337C0CE010E94FA18882391F1E4
:1032D00018861F8281E08E838F8198858C159D05CD
:1032E00040F40E94ED168F819885019698878F8310
:1032F000F3CFC12CD12CC016D10658F45701AC0C19
:10330000BD1C0E94ED16F5018083FFEFCF1ADF0A86
:10331000F2CF8F819885080F191F18870F83898531
:10332000882319F00115124060F0CE010E94481761
:1033300081E008C0CE010E94001780E003C081E058
:1033400001C081E0DF91CF911F910F91FF90EF902D
:10335000DF90CF90BF90AF900895EF92FF920F93C0
:103360001F93790100E012E020E030E00E94201974
:103370001F910F91FF90EF900895EF92FF920F939E
:103380001F93CF93DF937C01862F8A010E94E6165C
:10339000C0E0D0E0C11582E0D80740F4F801EC0F9E
:1033A000FD1F80810E94E6162196F4CF8FEF0E94C8
:1033B000E6168FEF0E94E6160E94ED16F70182874F
:1033C0008F71853039F081E18583C7010E94001734
:1033D00080E001C081E0DF91CF911F910F91FF90BC
:1033E000EF900895EF92FF920F93CF93DF93EC014C
:1033F0007901411551056105710519F482E18D834B
:1034000045C08B85833049F0032E39E0440F551FAA
:10341000661F771F3A95D1F7302D9A01AB0168E10D
:10342000CE010E94C317882319F084E08D832EC03B
:10343000A7016EEFCE010E94BD19882339F1002348
:1034400001F168E572E0CE010E94A817811103C066
:1034500085E18D831BC020E030E0A9016DE0CE0145
:103460000E94C317811105C00E94ED16811103C08F
:1034700003C081E001C081E0882319F084E18D83DD
:1034800005C0CE010E94001781E004C0CE010E9459
:10349000001780E0DF91CF910F91FF90EF9008959A
:1034A0001F93CF93DF93EC010E941E170E94ED162D
:1034B000182FCE010E94001781E01F3F09F480E021
:1034C000DF91CF911F9108956FEF7FEF81E090E042
:1034D0000E94F5160895CF93DF93EC019C012A5FBB
:1034E0003F4F41E050E060E070E08B8D9C8D0E948A
:1034F00072258823B9F08F89988DA98DBA8D892B73
:103500008A2B8B2B59F48E819F81A885B9858F8B4F
:10351000988FA98FBA8F8C8180688C838C81806210
:103520008C8381E0DF91CF910895CF92DF92EF926B
:10353000FF920F931F93CF938C010E946B1A8823E5
:1035400009F454C0D8011696CD90DD90ED90FC9012
:1035500019975B96ED91FC915C9786859785A0897C
:10356000B18922E0C21AD108E108F108058404C03B
:10357000CC0CDD1CEE1CFF1C0A94D2F7C80ED91E21
:10358000EA1EFB1EC481CC2391F0D701C6018C0F2B
:10359000911DA11DB11DBC01CD01615071098109B1
:1035A00091090E949423882309F1C150ECCFD801DE
:1035B0005B96ED91FC915C9780E092E0A0E0B0E03A
:1035C000058404C0880F991FAA1FBB1F0A94D2F755
:1035D000F8014389548965897689840F951FA61F50
:1035E000B71F838B948BA58BB68B81E0CF911F91F6
:1035F0000F91FF90EF90DF90CF900895CF93DF93DE
:10360000EC01462F6E857F85888999890E945A230F
:10361000882341F08A8920E2829FC00111248B5FB8
:103620009C4F02C080E090E0DF91CF910895CF934E
:10363000DF93DC0190E09B3048F4FB01E90FF11DC2
:1036400020E220839F5FF7CFDE0102C040E057E019
:10365000ED0121969C91992331F19E3229F45A3043
:1036600049F148E05AE0F0CFE3EEFCE09F012F5F24
:103670003F4F8491882321F0F9019813F7CF1CC0A4
:103680005417E0F09132E0F09F37E0F481E0840FCE
:10369000FB01E40FF11D2FE9290F2A3108F49052A4
:1036A0009083482FD1CFFB01908181E0903259F473
:1036B00080E009C080E007C080E005C080E003C072
:1036C00080E001C080E0DF91CF9108950F931F93B8
:1036D000CF93DF93EC018D8181114FC08B01FB01F2
:1036E0009789903119F582E08D831F8A188E198E83
:1036F0001A8E808D918DA0E0B0E0880F991FAA1FCF
:10370000BB1F880F991FAA1FBB1F880F991FAA1FD5
:10371000BB1F880F991FAA1FBB1F880F991FAA1FC5
:10372000BB1F8B8B9C8BAD8BBE8B15C0903231F544
:1037300083E08D83FB01428D538D648D758D4F8B9E
:10374000588F698F7A8F9E012D5E3F4FC8010E946E
:103750004924882399F01C8F0B8F81E08C831E8273
:103760001F82188619861A861B861C861D861E8651
:103770001F86188A198A1A8A01C080E0DF91CF91CA
:103780001F910F9108953F924F925F926F927F9297
:103790008F929F92AF92BF92CF92DF92EF92FF9261
:1037A0000F931F93CF93DF9300D000D0CDB7DEB738
:1037B0004C016B015A834983FC018581882331F0D8
:1037C000848180FD06C03324339404C033243394B1
:1037D00001C0312C311005C109811A81C801A0E056
:1037E000B0E0F4010389148925893689428553851F
:1037F0006485758528013901441A550A660A770AD5
:10380000481659066A067B0628F4C801841B950BE6
:103810009A83898369807A806114710409F4DEC017
:10382000F40182859385A485B5852C01F1E05F22A2
:10383000F40125812230C9F4238D348DF901428DA4
:10384000538D648D758D072E79E0B695A795979564
:1038500087957A95D1F7702D8A019B01080F191F62
:103860002A1F3B1FC901B80154C0F401038D148DF8
:10387000F801B480BA94AC01BD01032E39E076950D
:103880006795579547953A95D1F7302DB422411455
:103890005104F1F4B1101CC0892B8A2B8B2B51F4ED
:1038A000F4018789908DA18DB28D86839783A0873F
:1038B000B1870EC0F40146815781608571859401FE
:1038C0002A5F3F4FC8010E94BE23882309F48CC0A1
:1038D000F40186819781A085B185238D348DF9010E
:1038E00046855785608971890297A109B1090584C8
:1038F00004C0880F991FAA1FBB1F0A94D2F7840F18
:10390000951FA61FB71FBC01CD016B0D711D811D39
:10391000911D20E032E05901A418B508A614B7049F
:1039200008F05301F401248126FD04C0A114F2E043
:10393000BF0679F40091090110910A0120910B0151
:1039400030910C01601771078207930721F4232D32
:1039500003C0232D01C021E0222381F076018501DF
:103960009201AB01BC0180910303909104030E947A
:1039700020198823E1F1CA0CDB1C20C040E00E9422
:103980005A238823B9F182010B5F1C4F1C830B83E0
:1039900098012A0D3B1D4B815C814217530771F042
:1039A000FA018081F60180838A010F5F1F4F1C831B
:1039B0000B83A6014F5F5F4F6A01EDCFF401828553
:1039C0009385A485B5858A0D9B1DA11DB11D828798
:1039D0009387A487B5876A187B081ECF89819A814F
:1039E0000BC08FEF9FEF08C08FEF9FEF05C08FEFE9
:1039F0009FEF02C08FEF9FEF0F900F900F900F90EF
:103A0000DF91CF911F910F91FF90EF90DF90CF90BA
:103A1000BF90AF909F908F907F906F905F904F90EE
:103A20003F900895FF920F931F93CF93DF931F92C0
:103A3000CDB7DEB7FC012581223098F18C0142859B
:103A4000538564857585689414F8769567955795C0
:103A500047951694D1F7F42FFF70FF2E41E050E008
:103A6000BE016F5F7F4F0E94C31B019719F48981CC
:103A700090E002C08FEF9FEF9923B4F0F8018285A8
:103A80009385A485B5854F96A11DB11D8287938727
:103A9000A487B587F0E2FF9EC00111248B5F9C4F85
:103AA00005C080E090E002C080E090E00F90DF91E0
:103AB000CF911F910F91FF9008958F929F92AF9297
:103AC000BF92CF92DF92EF92FF920F931F93CF930B
:103AD000DF93EC018D81882359F00B891C892D8996
:103AE0003E89041715072607370720F491E003C025
:103AF00091E001C090E0911173C0823031F44A87A7
:103B00005B876C877D8781E06CC04115510561053D
:103B1000710551F41E821F82188619861A861B862B
:103B20001C861D8681E05DC04A015B010A851B85FC
:103B30002C853D856801790181E0C81AD108E1082A
:103B4000F108EB8DFC8D858590E00996082E04C068
:103B5000F694E794D794C7940A94D2F74150510948
:103B60006109710904C076956795579547958A95BF
:103B7000D2F74C155D056E057F0520F0012B022B59
:103B8000032B49F48F89988DA98DBA8D8E839F83DD
:103B9000A887B98704C04C195D096E097F096A01BD
:103BA0007B0181E0C81AD108E108F108452B462BBA
:103BB000472B81F04E815F81688579859E012A5F60
:103BC0003F4F8B8D9C8D0E94BE23B701A6018111B2
:103BD000E6CF07C08A869B86AC86BD8681E001C0A1
:103BE00080E0DF91CF911F910F91FF90EF90DF90D8
:103BF000CF90BF90AF909F908F900895FF920F93BA
:103C00001F93CF93DF93FC018581882309F443C080
:103C1000F62EEF0184818823A4F561E0CF010E9494
:103C2000FE1A8C01892BB1F18D81823048F48B8989
:103C30009C89AD89BE89F801848F958FA68FB78F37
:103C40008F89988DA98DBA8DF801938F828F8F8976
:103C5000988DA98DBA8DB58BA48BE091FC02F09163
:103C6000FD02309759F0B8016A5E7F4FC80148964F
:103C70000995F801808D918D938B828B8C818F7744
:103C80008C83F11003C08C818F7E8C838F2D0E94DA
:103C90002F2301C080E0DF91CF911F910F91FF9002
:103CA0000895CF93DF93EC0161E00E94FE1D88230D
:103CB00011F01D8281E0DF91CF910895CF93DF93C2
:103CC000FC012581213029F4248121FD04C021E05B
:103CD00003C021E001C020E021114AC0EC018C8129
:103CE00082FF12C08A859B85AC85BD854B895C8926
:103CF0006D897E8984179507A607B70729F0CE013D
:103D00000E945D1D8823B9F1809103039091040303
:103D10000E94501A811132C08C8185FF0AC060E078
:103D2000CE010E94FE1D8C818F7D8C8380E090E00F
:103D300027C04091FE025091FF02609100037091F4
:103D40000103452B462B472B31F080E00E940923CD
:103D500080E090E015C080618C838A859B85AC856E
:103D6000BD859C01317080E092E0821B930B08C0FE
:103D700080E090E005C080E090E002C080E090E04C
:103D8000DF91CF9108954F925F926F927F928F92C1
:103D90009F92AF92BF92EF92FF920F931F93CF9398
:103DA000DF9300D000D0CDB7DEB7FC018581813034
:103DB00029F4848181FD04C081E003C081E001C059
:103DC00080E0811199C083899489A589B689841777
:103DD0009507A607B70708F491C0892B8A2B8B2B70
:103DE00009F48EC082849384A484B584481559054F
:103DF0006A057B0510F44A015B012A013B017F0142
:103E0000CF010E945D1D882309F47BC04114510439
:103E100061047104B1F4D70157964D915D916D9194
:103E20007C915A975B968D919C915C970E94862617
:103E3000882309F466C0F701178A108E118E128E3E
:103E400042C0D70116964D915D916D917C91199765
:103E50009E012F5F3F4F5B968D919C915C970E94D6
:103E6000BE23882371F149815A816B817C81D701FE
:103E70005B96ED91FC915C978789803129F488EFFE
:103E80009FEFA0E0B0E004C088EF9FEFAFEFBFE08E
:103E9000481759076A077B07B0F4CF010E948626AE
:103EA000882379F0F70146815781608571850FEF8E
:103EB0001FEF2FEF3FE0838D948D0E94A724811187
:103EC00002C080E01EC0D70153964D925D926D9264
:103ED0007C92569714968C911497806814968C93C4
:103EE00061E0C7010E94FE1D882359F0B501A401BD
:103EF000C7010E945D1D05C080E003C080E001C0D5
:103F000081E00F900F900F900F90DF91CF911F9154
:103F10000F91FF90EF90BF90AF909F908F907F9008
:103F20006F905F904F9008951F93CF93DF93EC01B4
:103F300080E2689FF0011124EB5FFC4F9385917143
:103F400021F0842F827409F054C0142F6A8B809161
:103F5000090190910A01A0910B01B0910C018E878B
:103F60009F87A88BB98B84899589A0E0B0E0DC019C
:103F7000992788278F8B988FA98FBA8F428D538D61
:103F800060E070E0482B592B6A2B7B2B4F8B588FAE
:103F9000698F7A8F2385287159F4848D958DA68D2C
:103FA000B78D8B8B9C8BAD8BBE8B81E08D830DC0D1
:103FB000203109F59E012D5E3F4F8B8D9C8D0E9417
:103FC00049248823D9F084E08D83812F8F708C83DE
:103FD0001E821F82188619861A861B861C861D86DD
:103FE00016FF0BC040E050E0BA01CE010E94C31E94
:103FF00005C080E003C080E001C081E0DF91CF9187
:104000001F910895AF92BF92CF92DF92EF92FF92ED
:104010000F931F93CF93DF93CDB7DEB72B970FB6D8
:10402000F894DEBF0FBECDBFFC01C580C110CAC071
:10403000A22E8B017C01BE016F5F7F4FCA010E94DF
:10404000171B882309F4C0C0F801838D948DF701F4
:10405000948F838FF801168217821086118612863C
:10406000138614861586B12CF80142855385648524
:10407000758583899489A589B689481759076A0780
:104080007B0708F044C0689414F8769567955795B7
:1040900047951694D1F7F42FFF70DF2EC8010E94C8
:1040A000121D009709F491C0FC012081222311F018
:1040B000253EB9F4B11010C0F701D28A4091090130
:1040C00050910A0160910B0170910C01468757874E
:1040D000608B718BBB24B394FC0180818111C4CFB0
:1040E00016C04BE050E0BC01CE0101960E942F317A
:1040F000892B09F0B9CF8A2D8073803309F465C00C
:104100004A2D6D2DC7010E94941FC82E5EC08A2DB6
:104110008271823109F059C0BB2041F061E0C701D2
:104120000E94FE1A8C01892B89F44FC0F801858109
:10413000823009F44AC0C8010E94951AC82E88230B
:1041400009F443C0F701128A05E013E080E2F801A8
:1041500011928A95E9F78BE0FE013196D801019022
:104160000D928A95E1F7E091FC02F091FD02309703
:1041700039F0B801625F7F4FC8014096099509C0C8
:1041800081E298E2F801918B808B80E098E097873C
:104190008687F80180899189938B828B918F808F9C
:1041A00086859785978B868B81E00E942F23C82E6A
:1041B000882359F0F70162894A2DC7010E94941F94
:1041C000C82E03C0C12C01C0C82E8C2D2B960FB653
:1041D000F894DEBF0FBECDBFDF91CF911F910F913D
:1041E000FF90EF90DF90CF90BF90AF900895CF9366
:1041F000DF93EC0140E050E0BA010E94C31E882327
:1042000079F061E0CE010E94FE1A009741F025EEA0
:10421000FC0120831D8281E00E942F2301C080E0E9
:10422000DF91CF910895CF93DF93CDB7DEB76D9730
:104230000FB6F894DEBF0FBECDBFAB011C821B8250
:104240002FE532E03A8329831E8222E0BC01CE01B1
:1042500001960E940220882321F0CE0101960E943F
:10426000F7206D960FB6F894DEBF0FBECDBFDF917D
:10427000CF9108953F924F925F926F927F928F926B
:104280009F92AF92BF92CF92DF92EF92FF920F93E5
:104290001F93CF93DF9300D000D000D0CDB7DEB70F
:1042A0006C017B015E834D83DC0114969C91149715
:1042B000292F22952F7081E082278170382E159644
:1042C0008C91813019F491FD03C003C081E001C0DD
:1042D00080E0811166C192FD03C08D809E8015C073
:1042E000F60182859385A485B585438954896589BE
:1042F000768984179507A607B70779F3C6010E9448
:104300005D1D882309F44DC1E8CF8114910409F49F
:104310001BC1D6011A960D911D912D913C911D97AF
:104320005B96ED91FC915C97D901C801072E79E06D
:10433000B695A795979587957A95D1F7702D748046
:104340007A9478221170711054C00115110509F08A
:1043500050C0D60116964D915D916D917C91199743
:104360004115510561057105B1F457968D919D91E7
:104370000D90BC91A02D0097A105B10531F4C601A7
:104380000E946B1A811135C00CC1F6018683978398
:10439000A087B1872EC09E012F5F3F4FCF010E94A3
:1043A000BE23811102C090E00BC189819A81AB814B
:1043B000BC81F601238D348DF9012789203129F440
:1043C00048EF5FEF60E070E004C048EF5FEF6FEF31
:1043D0007FE084179507A607B70730F0C6010E9453
:1043E0006B1A811106C0DDC0F60186839783A08712
:1043F000B18780E092E05C01A01AB10A8A149B04A4
:1044000008F45401F60186819781A085B185238D3A
:10441000348DF90146855785608971890297A10914
:10442000B109058404C0880F991FAA1FBB1F0A94F5
:10443000D2F7840F951FA61FB71F9C01AD01270D52
:10444000311D411D511D29013A01A11432E0B3066D
:1044500041F58091090190910A01A0910B01B09161
:104460000C01481659066A067B0659F48FEF9FEF38
:10447000DC018093090190930A01A0930B01B09392
:104480000C01032D9701B301A201809103039091C8
:1044900004030E94F219882309F483C04EEFF41A32
:1044A00043C00115110531F5D6011A964D915D9164
:1044B0006D917C911D9753968D919D910D90BC911E
:1044C000A02D481759076A077B07A0F081E00E94DA
:1044D0002F23882309F465C04092090150920A01F4
:1044E00060920B0170920C018091020381608093B5
:1044F000020308C041E0C301B2010E945A2388238D
:1045000009F44FC0F801EB5FFC4F9F012A0D3B1DE2
:10451000E217F30749F0D7018C9180833196A70108
:104520004F5F5F4F7A01F4CF8A189B08F6018285AE
:104530009385A485B5858A0D9B1DA11DB11D82871C
:104540009387A487B587E1CEF60182859385A485FC
:10455000B5854389548965897689481759076A075B
:104560007B0740F4838B948BA58BB68B848180680A
:1045700084830DC08091FC029091FD02892B39F05B
:104580002D813E81232B19F0848180688483F6017C
:10459000848183FF10C061E0C6010E94FE1D81116D
:1045A0000DC081E090E0D60113969C938E931297F4
:1045B00080E090E005C08D819E8102C08D819E814A
:1045C00026960FB6F894DEBF0FBECDBFDF91CF9118
:1045D0001F910F91FF90EF90DF90CF90BF90AF9021
:1045E0009F908F907F906F905F904F903F90089535
:1045F000CF93DF931F92CDB7DEB7698341E050E0E0
:10460000BE016F5F7F4F0E943A210F90DF91CF91E3
:1046100008950F934091FE025091FF0260910003B4
:10462000709101034115510561057105A9F0082F2D
:1046300025E033E080910303909104030E94F21976
:10464000882359F01092FE021092FF02109200038C
:104650001092010381E001C081E00F9108950F9352
:10466000CF93909102039923F9F0C82F409109014B
:1046700050910A0160910B0170910C01082F25E007
:1046800033E080910303909104030E94F219882380
:1046900071F0CC2359F08C2F0E940923882339F024
:1046A0001092020381E003C081E001C081E0CF915C
:1046B0000F910895CF92DF92EF92FF92CF936B010B
:1046C0007C01C42F8091090190910A01A0910B01F6
:1046D000B0910C018C159D05AE05BF05C9F081E0B8
:1046E0000E942F238823D1F025E033E0B701A601F3
:1046F00080910303909104030E94AD19882371F007
:10470000C0920901D0920A01E0920B01F0920C01D3
:1047100080910203C82BC093020381E0CF91FF90E8
:10472000EF90DF90CF900895CF92DF92EF92FF92BB
:104730006B017C0181E00E942F238823D1F080E06F
:1047400090E0811522E0920730F4FC01EB5FFC4F12
:1047500010820196F6CFC0920901D0920A01E09230
:104760000B01F0920C01809102038160809302039F
:1047700081E0FF90EF90DF90CF9008958F929F920D
:10478000AF92BF92CF92DF92EF92FF920F931F935F
:10479000CF93DF93FC01E9010185128523853485E0
:1047A0000F5F1F4F2F4F3F4F04171507260737077F
:1047B00008F461C083899489A589B6892789203145
:1047C00029F4852E962EA72EBB240AC04A015B0130
:1047D000689416F8B694A794979487941694D1F792
:1047E0006A017B018F01BC01CD01680D791D8A1D15
:1047F0009B1D8090090190900A01A0900B01B09040
:104800000C01681579058A059B0529F040E00E9496
:104810005A23882389F1F80187898031A1F4B701EF
:10482000A601552766277727440F551FFA01EB5F2E
:10483000FC4F80819181A0E0B0E088839983AA83B6
:10484000BB8381E019C0B701A6014F7755276627C2
:104850007727440F551F440F551FFA01EB5FFC4F9C
:1048600080819181A281B381BF7088839983AA835B
:10487000BB8381E001C080E0DF91CF911F910F9158
:10488000FF90EF90DF90CF90BF90AF909F908F9070
:1048900008958F929F92AF92BF92EF92FF920F93E3
:1048A0001F93CF93DF9300D000D0CDB7DEB78C013C
:1048B00049835A836B837C837901812C912C540129
:1048C00049815A816B817C819E012F5F3F4FC801D6
:1048D0000E94BE23882361F180E092E0A0E0B0E076
:1048E000F801058404C0880F991FAA1FBB1F0A94F2
:1048F000D2F7880E991EAA1EBB1E89819A81AB81B0
:10490000BC812789203129F448EF5FEF60E070E037
:1049100004C048EF5FEF6FEF7FE084179507A607AD
:10492000B70770F2F70180829182A282B38281E0A0
:104930000F900F900F900F90DF91CF911F910F91DB
:10494000FF90EF90BF90AF909F908F9008954F92FF
:104950005F926F927F928F929F92AF92BF92CF920F
:10496000DF92EF92FF920F931F93CF93DF9300D0CC
:1049700000D000D0CDB7DEB74230510561057105DA
:1049800008F494C0DC011996CD90DD90ED90FC9078
:104990001C97BFEFCB1ADB0AEB0AFB0AC416D5063D
:1049A000E606F70608F484C0FC014388548865884D
:1049B0007688E789E03129F4852E962EA72EBB2430
:1049C0000AC04A015B01689416F8B694A7949794BC
:1049D00087941694D1F709831A832B833C836A0149
:1049E0007B019E838D83480C591C6A1C7B1C809123
:1049F000090190910A01A0910B01B0910C01481698
:104A000059066A067B0641F040E0C301B2010E94EC
:104A10005A23882309F44FC0AD81BE8157968C91EB
:104A2000803179F4B701A601552766277727440F0F
:104A3000551FFA01EB5FFC4F89819A819183808336
:104A400015C0B701A6014F77552766277727440F72
:104A5000551F440F551FFA01EB5FFC4F89819A8166
:104A6000AB81BC8180839183A283B3838091020355
:104A7000816080930203AD81BE8152968C915297E2
:104A80008230C0F015968D919D910D90BC91A02D16
:104A9000480E591E6A1E7B1E4092FE025092FF0273
:104AA000609200037092010381E005C080E003C0C2
:104AB00080E001C081E026960FB6F894DEBF0FBEFD
:104AC000CDBFDF91CF911F910F91FF90EF90DF90BD
:104AD000CF90BF90AF909F908F907F906F905F909E
:104AE0004F9008952F923F924F925F926F927F92D4
:104AF0008F929F92AF92BF92CF92DF92EF92FF92EE
:104B00000F931F93CF93DF93CDB7DEB72F970FB6D9
:104B1000F894DEBF0FBECDBF1C0149875A876B8753
:104B20007C873E872D87D9014D905D906D907C905C
:104B3000411451046104710439F0BFEF4B1A5B0A50
:104B40006B0A7B0A1F8611C0FC0140805180628085
:104B5000738081E029853A854B855C85213031055C
:104B60004105510509F080E08F87F101818592852B
:104B7000A385B4859C01AD012F5F3F4F4F4F5F4F21
:104B80002D833E834F83588773016201812C912CC2
:104B90005401F10181859285A385B4858816990613
:104BA000AA06BB0608F04AC02D813E814F81588578
:104BB0002C153D054E055F0550F4C12CD12C760116
:104BC0006894C1F8412C512C3201689441F89E013F
:104BD0002F5F3F4FB701A601C1010E94BE2388236A
:104BE00069F189819A81AB81BC81892B8A2B8B2BBE
:104BF00041F0260137013FEF431A530A630A730A53
:104C000012C0D701C60184199509A609B7090196F2
:104C1000A11DB11D29853A854B855C85281739076B
:104C20004A075B0769F03FEF831A930AA30AB30AA6
:104C30004FEFC41AD40AE40AF40AABCF80E04DC0A7
:104C40000FEF1FEF2FEF3FE0B701A601C1010E9458
:104C5000A724882309F441C04C145D046E047F042A
:104C600098F44601570151E0851A9108A108B1084E
:104C700097018601B501A401C1010E94A7248823E0
:104C800061F175016401E8CFAD85BE854D915D91FF
:104C90006D917C91411551056105710539F09301C4
:104CA0008201C1010E94A7248823B9F0ED85FE8509
:104CB0004082518262827382FF85FF2369F02FEF69
:104CC000421A520A620A720AD1014D925D926D92A5
:104CD0007C92139781E001C081E02F960FB6F89483
:104CE000DEBF0FBECDBFDF91CF911F910F91FF901F
:104CF000EF90DF90CF90BF90AF909F908F907F907C
:104D00006F905F904F903F902F900895AF92BF9219
:104D1000CF92DF92EF92FF920F931F93CF93DF9387
:104D200000D000D0CDB7DEB75C016A017B0182E024
:104D300090E0A0E0B0E0F50180839183A283B3838B
:104D40009E012F5F3F4FB701A601C5010E94BE2300
:104D5000882311F100E010E09801B701A601C50118
:104D60000E94A7248823C1F0C980DA80EB80FC80F0
:104D7000F5018789803129F488EF9FEFA0E0B0E04A
:104D800004C088EF9FEFAFEFBFE0C816D906EA0670
:104D9000FB06B0F281E001C080E00F900F900F9011
:104DA0000F90DF91CF911F910F91FF90EF90DF90C7
:104DB000CF90BF90AF9008954F925F926F927F9285
:104DC0008F929F92AF92BF92CF92DF92EF92FF921B
:104DD0000F931F93CF93DF938C01C42F7093040321
:104DE00060930303442309F444C0453008F029C10B
:104DF00040E060E070E0CB010E945A23882309F470
:104E00002BC14C2F50E041505109FA01E295F29527
:104E1000F07FFE27E07FFE27ED53FB4F80818F77E9
:104E200009F011C1FA01E295F295F07FFE27E07FCB
:104E3000FE27E153FB4FC080D180E280F38024E65F
:104E4000C216D104E104F10408F406C1429552955A
:104E5000507F5427407F5427FA01E553FB4FC08011
:104E6000D180E280F380C114D104E104F10421F483
:104E7000F3C0C12CD12C760140E0C701B6010E94DD
:104E80005A23882309F4E8C08091100390911103FC
:104E90008115924009F0D9C080911503882309F447
:104EA000DBC02091130330911403232B09F4CFC0EE
:104EB00060911203662309F4CCC0E8018A8B6C83ED
:104EC0001D86F8018585E82F21E030E0082E02C01C
:104ED000220F331F0A94E2F7462F50E04217530780
:104EE00041F091E0980FD8011D969C93883048F3CB
:104EF000B2C020911B0330911C032115310519F01C
:104F000040E050E008C02091290330912A034091ED
:104F10002B0350912C03E8012D833E834F83588748
:104F20000F2EF5E0AF2EF3E0BF2EF02DD5011E962B
:104F30008D919C911F9726013701480E591E611CC7
:104F4000711C4B8A5C8A6D8A7E8A51968D909C90EA
:104F50005297998E888E50968C91A82FB0E00E941F
:104F6000DB2FDC01CB01840D951DA61DB71D8A8F9B
:104F70009B8FAC8FBD8FE401CC0FDD1FC295D29506
:104F8000D07FDC27C07FDC27C150DE4FCD2FDD274F
:104F9000C6958C0F9D1FA11DB11DE8018E879F87AF
:104FA000A88BB98BE5014B885C884114510419F03A
:104FB000612C712C08C0409025035090260360900E
:104FC000270370902803C81AD90AEA0AFB0AC40CFE
:104FD000D51CE61CF71C04C0F694E794D794C7943C
:104FE000EA95D2F7F801C186D286E386F486F5EF1A
:104FF000CF16FFE0DF06E104F10430F48CE0D801C5
:1050000057968C9381E028C0B5EFCB16BFEFDB0637
:10501000E104F10428F480E1E8018F8B81E01CC0F9
:105020008091310390913203A0913303B091340306
:10503000F801828F938FA48FB58F80E2878B81E0F8
:105040000BC080E009C080E007C080E005C080E0C0
:1050500003C0862F01C080E0DF91CF911F910F9197
:10506000FF90EF90DF90CF90BF90AF909F908F9088
:105070007F906F905F904F900895CF93CFB7F89443
:1050800080910805811127C0ECE2F2E08491E8E10B
:10509000F2E09491E82FF0E0EE0FFF1FE05CFD4F8F
:1050A000A591B491EC91E92321F461E08AE00E949A
:1050B000EF0761E08AE00E94B0078CB580618CBD8B
:1050C0008CB580648CBD61E08DE00E94B00761E02A
:1050D0008BE00E94B007809108058F5F80930805E0
:1050E000CFBFCF910895DC011E96ED91FC911F97E3
:1050F000309799F051962C913396E491F0E03796E1
:10510000CF010AF40796959587959595879595957E
:105110008795289F802D1124089580E00895DC0153
:105120001E96ED91FC911F97849190E0982F88270F
:105130003196E4918E2B08951F93CF93DF93FC015A
:105140002681621718F5EC0164838085162F180FED
:10515000612F6F700190F081E02D0084F185E02DCA
:1051600040E0CE010995612F70E0759567957595C2
:10517000679575956795759567956061E881F98183
:105180000084F185E02D40E0CE010995DF91CF91BB
:105190001F910895CF93DF93EC017F876E87672B74
:1051A00031F00E948F28019721F481E003C080E054
:1051B00001C080E0882311F0198602C081E0898750
:1051C000DF91CF910895FC0127812695269526959C
:1051D000621768F465832385620F6770606B0190C6
:1051E000F081E02D0084F185E02D40E009950895DF
:1051F0001F93CF93DF93EC01142F0E949C28612F03
:10520000CE010E94E328DF91CF911F9108956F7323
:10521000DC011A966C931A976064ED91FC910084FE
:10522000F185E02D40E009950895CF93DF93FC01CF
:105230008585882319F08150858713C094818681E4
:10524000981778F4EF010190F081E02D0084F1854A
:10525000E02D8889682742E0CE0109958C818F5F17
:105260008C83DF91CF910895CF92DF92EF92FF92DE
:105270000F931F93CF93DF937C01D62ED42FC22E92
:10528000FC0115868781869586958695081710F00E
:105290000FEF080F1C2D011788F0412F6D2DC7014E
:1052A0000E94F828CD2DDC1738F0F7016089C7017E
:1052B0000E941529CF5FF7CF1F5FEDCF4C2D6D2DCD
:1052C000C7010E94F828DF91CF911F910F91FF90A5
:1052D000EF90DF90CF9008950F93CF93DF93EC0181
:1052E0001B8660E00E9407290F81069506950695AA
:1052F00001504E81415020E060E0CE010E943429EF
:10530000DF91CF910F910895EF92FF920F931F932A
:10531000CF93DF938C01DC0114961C9214971596A1
:105320001C921597FB01E590F490FB013296D49105
:105330003196E4911696EC931697FB013496E4911E
:105340001796EC93FB0135966491FC016087C0E0F1
:10535000CD1780F4F701EC0FF11D6491F801A081E5
:10536000B1811896ED91FC91199740E0C80109951B
:10537000CF5FEECFC8010E946C29DF91CF911F91C2
:105380000F91FF90EF9008950F93CF93DF93EC016F
:105390000D810E947328800F0FEF080F2D814E8121
:1053A00041506C81CE010E943429DF91CF910F9141
:1053B00008953F924F925F926F927F928F929F9249
:1053C000AF92BF92CF92DF92EF92FF920F931F9313
:1053D000CF93DF93FC01C684D784C114D10409F4B0
:1053E00018C1F6013296D4913196F4902F2D30E009
:1053F000295F3F4F59011AF4F7E0AF0EB11C8C0141
:10540000B594A794B594A794B594A7945A2CF60193
:10541000349684913196E49046E0C40ED11C68170E
:1054200050F0462F50E02E2D30E0280F311D42174E
:1054300053070CF443C06D3039F460E0C8010E949A
:105440009C2881E090E0EDC06A3009F0E5C060E0A2
:10545000C8010E949C28F80181898A9DA02C1124F2
:10546000878186958695869565816A0D9A2D960F1A
:10547000292F281B3485332311F0121634F0C8016C
:105480000E94E32881E090E0CCC0F8019385920F60
:10549000977093878A198583C8010E94C429F801EF
:1054A0008485813009F0BBC06385660F660F660F87
:1054B000C8010E94072981E090E0B3C0C62FC81B35
:1054C000F80191888185989E902C1124C8010E9432
:1054D0008F28029760F4AD9E90011124C29FC001F5
:1054E000C39F900D1124C80ED91EF12C22C08F2D00
:1054F000877021F098E0F92EF81A01C0F12C80E0B5
:1055000020E030E08C1740F4F601E80FF11DE49143
:105510002E0F311D8F5FF6CFF601EC0FF11DD491E8
:10552000A29EC001A39E900D11248E0D911DC80E48
:10553000D91EF801648045807584E12CE51408F0DB
:1055400061C0812CF8018189881608F059C07586E0
:10555000E11002C0882039F0F80145814F5F662DC7
:10556000C8010E94F828C0E0CD1708F03EC08E2D7B
:1055700090E0D89FF001D99FF00D1124EC0FF11DA0
:10558000EC0DFD1D3490FF2079F001969501332735
:105590002817390749F4E32DF0E00F2C02C0F595E8
:1055A000E7950A94E2F73E2EF80181898230B9F43A
:1055B000882059F0E32DF0E0F595E795F595E7950E
:1055C000F595E795F595E79502C0E32DEF70F0E0CE
:1055D000ED50F34F3490632DC8010E941529632DBF
:1055E000C8010E941529CF5FBFCFC0E0C91530F4B4
:1055F00060E0C8010E941529CF5FF8CF8394A2CF45
:10560000E3949CCF642DC8010E94E32881E090E0E0
:1056100008C080E090E005C080E090E002C081E03A
:1056200090E0DF91CF911F910F91FF90EF90DF906D
:10563000CF90BF90AF909F908F907F906F905F9032
:105640004F903F90089510927C0581E080937A05F9
:105650001092790561E082E10E94EF0761E083E149
:105660000E94EF07E9EBF0E080818E7F80838081EC
:105670008D7F808388E48093B80085E48093BC00AC
:105680000895ECEBF0E080818A7B808360E082E12A
:105690000E94EF0760E083E10E94EF070895AC01EC
:1056A00090912B05262F30E0290F311D2132310535
:1056B000F4F480917C058430E1F490E00FC0809197
:1056C0002B05292F30E0F901E80FF11DDA01A20FB7
:1056D000B31F8C91E35DFA4F80839F5F961778F339
:1056E00080912B05680F60932B0580E0089581E081
:1056F000089582E00895882321F085EC8093BC0012
:10570000089585E88093BC00089585EC8093BC00E3
:1057100010927C050895EF92FF920F931F93CF9301
:10572000DF9391E090937405882371F0C8EBD0E08B
:10573000F8800AEB10E0F801E0800E94412B0E9403
:10574000232BF801E082F882DF91CF911F910F9116
:10575000FF90EF90089585ED8093BC004091750512
:10576000509176056091770570917805495F5F4F9C
:105770006F4F7F4F689412F87695679557954795C8
:105780001694D1F71FC08091750590917605A09170
:105790007705B0917805892B8A2B8B2B99F04115D1
:1057A00051056105710549F085E38A95F1F700001F
:1057B000415051096109710905C0809173050E942A
:1057C0008B2B08958091BC0084FDDDCF10927C0569
:1057D00008951F920F920FB60F9211242F933F93AB
:1057E0004F935F936F937F938F939F93AF93BF93E9
:1057F000EF93FF938091B900E82FE87F8E2F90E020
:10580000893C910508F0F5C0FC01EC5CFF4F0C945D
:10581000D52F80917B058093BB0081E00E947B2B7C
:10582000E8C090914E0580914D05981780F4E09165
:105830004E0581E08E0F80934E05F0E0E15BFA4F5C
:1058400080818093BB0081E00E947B2BD2C080913D
:105850007A05882319F00E94AB2BCBC081E080939E
:10586000790584EA8093BC0010927C05C2C080E276
:10587000809309050E94AB2BBCC080E3809309058F
:105880000E94AB2BB6C088E3809309050E94852B4C
:10589000B0C0E0914E0581E08E0F80934E05F0E0A0
:1058A0008091BB00E15BFA4F808390914E0580911F
:1058B0004D05981720F481E00E947B2B9AC080E070
:1058C0000E947B2B96C0E0914E0581E08E0F809365
:1058D0004E05F0E08091BB00E15BFA4F8083809140
:1058E0007A05882319F00E94AB2B83C081E0809356
:1058F000790584EA8093BC0010927C057AC00E94EE
:10590000AB2B77C083E080937C0510920A0581E081
:105910000E947B2B6EC080910A05803280F4E0915A
:105920000A0581E08E0F80930A05F0E08091BB00AC
:10593000E55FFA4F808381E00E947B2B5AC080E0B4
:105940000E947B2B56C00E94852B80910A058032D5
:1059500030F4E0910A05F0E0E55FFA4F10826091C3
:105960000A0570E0E0916F05F09170058BE095E01D
:10597000099510920A053DC080E00E947B2B39C03A
:1059800084E080937C0510922C0510922B05E09109
:105990007105F0917205099580912B05811105C063
:1059A00081E080932B0510922D05E0912C0581E07C
:1059B0008E0F80932C05F0E0E35DFA4F8081809399
:1059C000BB0090912C0580912B05981720F481E065
:1059D0000E947B2B0EC080E00E947B2B0AC081E0DE
:1059E0000E947B2B10927C0504C0109209050E9436
:1059F000AB2BFF91EF91BF91AF919F918F917F91D1
:105A00006F915F914F913F912F910F900FBE0F902B
:105A10001F9018958091AC0590E02091AD05821BF8
:105A2000910908959091AD058091AC05981750F4B7
:105A3000E92FF0E0E255FA4F208130E09F5F90932C
:105A4000AD0502C02FEF3FEFC9010895E091AD050C
:105A50008091AC05E81730F4F0E0E255FA4F808110
:105A600090E008958FEF9FEF08950895CF92DF9211
:105A7000EF92FF920F931F93CF93DF938C016B01F3
:105A80007A0180918905882399F0C0E0D0E0CE1595
:105A9000DF0590F4D801ED91FC910190F081E02DAB
:105AA000D601AC0FBD1F6C91C80109952196EFCFAF
:105AB000642FC6010E944F2BC701DF91CF911F9128
:105AC0000F91FF90EF90DF90CF900895CF93DF93E9
:105AD0001F92CDB7DEB7FC016983909189059923A8
