:020000040000FA
:100000000C9466000C948E000C948E000C948E0060
:100010000C948E000C948E000C948E000C948E0028
:100020000C948E000C948E000C948E000C948E0018
:100030000C948E000C948E000C948E000C948E0008
:100040000C94CD170C948E000C949B170C94751780
:100050000C948E000C948E000C948E000C948E00E8
:100060000C9417180C948E007C3C3E5E2B3D3F2F69
:100070005B5D3B2C2A225C0000000000250028006C
:100080002B0000000008000201000003040700002C
:1000900000000000000000000000240027002A00EB
:1000A000010204081020408001020408102001020F
:1000B00004081020040404040404040402020202DC
:1000C00002020303030303033619941F11241FBE06
:1000D000CFEFD8E0DEBFCDBF26E0ACE2B2E001C09A
:1000E0001D92A231B207E1F712E0A0E0B1E0E8E82A
:1000F000F6E402C005900D92AC32B107D9F710E0DA
:10010000C5E6D0E004C02197FE010E941321C43649
:10011000D107C9F70E949A190C9437230C94000058
:1001200008950895AF92BF92CF92DF92EF92FF921F
:100130000F931F93CF93DF936C017B018B01040F0F
:10014000151FEB015E01AE18BF08C017D10759F0AB
:100150006991D601ED91FC910190F081E02DC601ED
:100160000995892B79F7C501DF91CF911F910F91E7
:10017000FF90EF90DF90CF90BF90AF900895FC017B
:10018000448155816081718180E096E00C949200F9
:10019000FC01538D448D252F30E0842F90E0821B8D
:1001A000930B541710F0CF96089501970895FC0112
:1001B000918D828D981761F0A28DAE0FBF2FB11D6A
:1001C0005D968C91928D9F5F9F73928F90E00895C2
:1001D0008FEF9FEF0895FC01918D828D981731F07C
:1001E000828DE80FF11D858D90E008958FEF9FEFD0
:1001F0000895FC01918D228D892F90E0805C9F4FA6
:10020000821B91098F73992708958CE095E00E94D5
:10021000F90021E0892B09F420E0822F089580E085
:1002200090E0892B29F00E94050181110C940000B7
:100230000895FC01A48DA80FB92FB11DA35ABF4F7B
:100240002C91848D90E001968F739927848FA689D5
:10025000B7892C93A089B1898C91837080648C9329
:10026000938D848D981306C00288F389E02D8081D8
:100270008F7D80830895EF92FF920F931F93CF930A
:10028000DF93EC0181E0888F9B8D8C8D98131AC0D1
:10029000E889F989808185FF15C09FB7F894EE89B8
:1002A000FF896083E889F989808183708064808315
:1002B0009FBF81E090E0DF91CF911F910F91FF9060
:1002C000EF900895F62E0B8D10E00F5F1F4F0F7308
:1002D0001127E02E8C8D8E110CC00FB607FCFACFC3
:1002E000E889F989808185FFF5CFCE010E94190147
:1002F000F1CFEB8DEC0FFD2FF11DE35AFF4FF08294
:100300009FB7F8940B8FEA89FB8980818062CFCFF9
:10031000CF93DF93EC01888D8823B9F0AA89BB893C
:10032000E889F9898C9185FD03C0808186FD0DC027
:100330000FB607FCF7CF8C9185FFF2CF808185FF48
:10034000EDCFCE010E941901E9CFDF91CF91089541
:1003500090E0FC01EE57FF4F2491FC01E056FF4F67
:100360003491FC01EC54FF4FE491EE23C9F02223B9
:1003700039F0233001F1A8F4213019F1223029F1AC
:10038000F0E0EE0FFF1FE858FF4FA591B4918FB733
:10039000F894EC91611126C030953E233C938FBFB9
:1003A00008952730A9F02830C9F0243049F780910A
:1003B00080008F7D03C0809180008F7780938000C4
:1003C000DFCF84B58F7784BDDBCF84B58F7DFBCF46
:1003D0008091B0008F778093B000D2CF8091B00031
:1003E0008F7DF9CF3E2BDACFCF93DF9390E0FC01E6
:1003F000E056FF4F24918C549F4FFC018491882339
:10040000D1F090E0880F991FFC01EA56FF4FA591AB
:10041000B491FC01E858FF4FC591D49161110EC011
:100420009FB7F8948C91E22FE0958E238C932881CE
:10043000E223E8839FBFDF91CF9108958FB7F894AF
:10044000EC91E22BEC938FBFF6CF8E5080648093BB
:100450007C0080917A00806480937A0080917A0099
:1004600086FDFCCF809178009091790008953FB788
:10047000F8948091EB029091EC02A091ED02B09182
:10048000EE0226B5A89B05C02F3F19F00196A11DCD
:10049000B11D3FBFBA2FA92F982F8827BC01CD01CE
:1004A000620F711D811D911D42E0660F771F881F2D
:1004B000991F4A95D1F708958F929F92AF92BF925C
:1004C000CF92DF92EF92FF924B015C010E943702C4
:1004D0006B017C010E9437026C197D098E099F090E
:1004E000683E734081059105A8F321E0821A9108C6
:1004F000A108B10888EEC80E83E0D81EE11CF11CEB
:1005000081149104A104B10429F7FF90EF90DF90CA
:10051000CF90BF90AF909F908F9008952FB7F89491
:100520006091E7027091E8028091E9029091EA02FD
:100530002FBF089520919C02260F3327331F2132AD
:100540003105ECF42091C002FC0190E080E0243001
:1005500069F082E00895A0919C022191AC01445879
:100560005D4FA40FB52FB11D2C930196861798F3FC
:1005700080919C02680F60939C0280E0089581E066
:1005800008951092C00281E08093C2021092C102CD
:1005900061E082E10E94A80161E083E10E94A8017C
:1005A000E9EBF0E080818E7F808380818D7F808386
:1005B00088E48093B80085E48093BC000895CF93CD
:1005C000DF9391E090937B028823B9F0C091B8004B
:1005D000D091BA008091BC008A7B8093BC0060E01F
:1005E00082E10E94A80160E083E10E94A8010E94CC
:1005F000C102D093BA00C093B800DF91CF910895A3
:100600000895E091F6028091F502E81730F4F0E0E9
:10061000EA5AFD4F808190E008958FEF9FEF089593
:100620009091F6028091F5022FEF3FEF981748F472
:10063000E92FF0E0EA5AFD4F208130E09F5F909370
:10064000F602C90108958091F5029091F602891B86
:10065000990B0895CF92DF92EF92FF920F931F9321
:10066000CF93DF937C01CB018A0120915502222395
:1006700089F0EB016B01C40ED51ECC15DD0569F0C8
:100680006991D701ED91FC910190F081E02DC701B6
:100690000995F3CF642F0E949A02C801DF91CF9190
:1006A0001F910F91FF90EF90DF90CF900895CF931F
:1006B000DF931F92CDB7DEB76983209155022223C5
:1006C000F9F02091F302203258F021E030E0FC01F3
:1006D0003383228390E080E00F90DF91CF910895E3
:1006E0008091F402E82FF0E0EB5CFD4F998190835C
:1006F0008F5F8093F4028093F30281E090E0ECCF6F
:1007000061E0CE0101960E949A02F7CF8FB7F8946C
:1007100080912F028FBF089561E0FC0184810E94C7
:10072000A80180912E02811110922E0208958EBD93
:1007300000000DB407FEFDCF8EB508958FEF0C9429
:1007400097030F931F93CF93DF93EC010E948E02C8
:100750008B010E949E038F3F69F00E948E02601BF6
:10076000710B6C177D07A8F380E0DF91CF911F918B
:100770000F91089581E0F9CF8CBD9DBD0895CF9371
:10078000DF93EC0180912E02811109C081E08093FA
:100790002E028091B5059091B6050E94BC0360E0E1
:1007A0008C81DF91CF910C94A8018F929F92AF9290
:1007B000BF92FF920F931F93CF93DF93EC01F62E1E
:1007C00049015A018E81882389F08F8198859C0187
:1007D0002F5F3F4F38872F838230924018F40E945A
:1007E0009E03F3CFCE010E948C031E82CE010E9495
:1007F000BF038CE291E00E94A1038F2D80640E94D0
:10080000970308E110E0D501C401002E04C0B6959D
:10081000A795979587950A94D2F70E949703085059
:100820001109083F8FEF180771F785E9FF2021F0C4
:1008300028E087E8F2128FEF0E94970310E00E94F1
:100840009E038A8787FF04C01F3F11F01F5FF7CF09
:10085000DF91CF911F910F91FF90BF90AF909F902C
:100860008F900895AF92BF92CF92DF92EF92FF9256
:100870000F931F93CF93DF93EC016901C801820F9F
:10088000931F8130924050F58E81882379F08881C2
:100890009981AA81BB8184179507A607B70731F410
:1008A0008F819885C816D90608F042C048835983BD
:1008B0006A837B838B85833039F089E0440F551F31
:1008C000661F771F8A95D1F79A01AB0161E1CE01CE
:1008D0000E94D503882389F083E08D83CE010E9496
:1008E0008C0380E0DF91CF911F910F91FF90EF90EB
:1008F000DF90CF90BF90AF9008950E948E025B0171
:100900000E949E038A878F3F69F40E948E026A19B3
:100910007B096D327140A0F38FE08D83CE010E9480
:100920008C03DCCF8E3F89F418861F8281E08E8392
:100930008F8198858C159D0550F40E949E038F81B0
:100940009885019698878F83F3CF8DE0E6CF670176
:10095000E00EF11E0E949E03F60181936F01EE15D9
:10096000FF05C1F78F819885080F191F18870F831E
:100970008985882319F001151240A0F08E81882303
:1009800089F08F8198859C012F5F3F4F38872F8397
:100990008230924018F40E949E03F3CFCE010E9451
:1009A0008C031E8281E09ECFCF92DF92EF92FF9266
:1009B0000F93CF93DF93EC01690182E1411551055B
:1009C0006105710599F08B85833039F089E0440F1A
:1009D000551F661F771F8A95D1F79A01AB0168E111
:1009E000CE010E94D503882319F084E08D832DC0A9
:1009F0008EEF0E94970376018EEFD81AF70181914E
:100A00007F010E949703EC14FD04C1F78FEF0E9451
:100A100097038FEF0E9497030E949E038A878F712E
:100A2000853071F4011116C0CE010E948C0381E063
:100A3000DF91CF910F91FF90EF90DF90CF900895CD
:100A400081E18D83CE010E948C03CE010E948C0334
:100A500080E0EECF88E592E00E94A103811102C000
:100A600085E1C4CF20E030E0A9016DE0CE010E9415
:100A7000D503882311F084E1B9CF0E949E03811130
:100A8000FACFD2CF0F934091310250913202609150
:100A9000330270913402411551056105710599F0D9
:100AA000082F2CE033E080910A0390910B030E9401
:100AB000D404882349F0109231021092320210922D
:100AC00033021092340281E00F9108950F93CF9377
:100AD000C82F80913002811105C0C1E08C2FCF91C9
:100AE0000F91089540910001509101016091020120
:100AF000709103010C2F2CE033E080910A03909158
:100B00000B030E94D404811102C0C0E0E7CFCC23C4
:100B100021F381E00E9442058823B9F3109230024C
:100B2000DDCF8F929F92AF92BF92EF92FF920F9381
:100B30001F93CF934B015C01C42F809100019091D2
:100B40000101A0910201B091030188159905AA0540
:100B5000BB0551F181E00E94660581110BC080E068
:100B6000CF911F910F91FF90EF90BF90AF909F900A
:100B70008F9008958CE0E82E83E0F82E00E012E0DC
:100B800030E020E0B501A40180910A0390910B03AD
:100B90000E943204882319F380920001909201018F
:100BA000A0920201B0920301409130024C2B40937D
:100BB000300281E0D5CFCF93DF93EC016E857F8546
:100BC0008889998941E00E949105882351F08A899A
:100BD00020E2829FC0011124845F9C4FDF91CF915E
:100BE000089590E080E0FACF8F929F92AF92BF92EB
:100BF000CF92DF92EF92FF92CF9327EB35E03093C5
:100C00000B0320930A03882309F46DC040E060E0E1
:100C100070E0CB010E94910581110BC080E0CF9163
:100C2000FF90EF90DF90CF90BF90AF909F908F900C
:100C300008958091CA048F7789F78091D6049091A6
:100C4000D704A091D804B091D90484369105A105A8
:100C5000B10520F3C090D204D090D304E090D40426
:100C6000F090D504C114D104E104F104B9F240E0DC
:100C7000C701B6010E949105882381F28091170374
:100C8000909118038115924049F6A0911C03AA2364
:100C900029F260911A0370911B036115710509F423
:100CA000BDCF20911903222309F4B8CFA093D50515
:100CB0002093C70590E080E030E0E1E0F0E0C82F4D
:100CC000AF01082E02C0440F551F0A94E2F7241703
:100CD000350769F041E0480F01968930910579F7B1
:100CE0004093D0059BCFC12CD12C7601C0CF8093EF
:100CF000D005209122033091230350E040E02115DC
:100D0000310541F420913003309131034091320399
:100D1000509133032093C8053093C9054093CA0509
:100D20005093CB0546015701860E971EA11CB11C9E
:100D30008092D6059092D705A092D805B092D90599
:100D4000E0911D03F0911E03F093DC05E093DB05B9
:100D5000B0E00E949320DC01CB01880D991DAA1DF3
:100D6000BB1D8093DD059093DE05A093DF05B09356
:100D7000E00525E0EE0FFF1F2A95E1F7E150FE4F59
:100D8000EF2FFF27E6958E0F9F1FA11DB11D8093AA
:100D9000D1059093D205A093D305B093D40580904C
:100DA0001F0390902003B12CA12C8114910441F4D5
:100DB00080902C0390902D03A0902E03B0902F03D1
:100DC000C81AD90AEA0AFB0AC80CD91CEA1CFB1C7F
:100DD00004C0F694E794D794C794CA95D2F7C0920A
:100DE000CC05D092CD05E092CE05F092CF0585EFEF
:100DF000C8168FE0D806E104F10428F48CE0809353
:100E0000DA0581E00CCF80E125EFC2162FEFD20684
:100E1000E104F104A0F38091380390913903A0918B
:100E20003A03B0913B038093DD059093DE05A093D8
:100E3000DF05B093E00580E2E2CF4F925F926F92C0
:100E40007F928F929F92AF92BF92CF92DF92EF925A
:100E5000FF920F931F93CF93DF93EC014230510524
:100E60006105710590F480E0DF91CF911F910F91A2
:100E7000FF90EF90DF90CF90BF90AF909F908F90BA
:100E80007F906F905F904F90089589859A85AB858C
:100E9000BC850196A11DB11D84179507A607B7074C
:100EA00010F3CB88DC88ED88FE888F89803109F0CB
:100EB00042C0BB27A72F962F852F480159012A0131
:100EC0003B01C80ED91EEA1EFB1E809100019091C5
:100ED0000101A0910201B0910301C816D906EA06EA
:100EE000FB0699F58F898031C1F5B301A201552721
:100EF00066277727440F551F445F5C4FFA019182A4
:100F00008082809130028160809330028A898230B1
:100F100080F08D819E81AF81B8858C0D9D1DAE1DA9
:100F2000BF1D8093310290933202A0933302B0939D
:100F3000340281E099CFDB01CA01E7E0B695A795BD
:100F400097958795EA95D1F7B8CF40E0C701B601EC
:100F50000E9491058111C6CF86CFB301A2014F77C0
:100F6000552766277727440F551F440F551F445FA9
:100F70005C4FFA0180829182A282B382C2CF8F92AB
:100F80009F92AF92BF92CF92DF92EF92FF920F9318
:100F90001F93CF93DF93FC0181859285A385B48550
:100FA0000196A11DB11D84179507A607B70770F418
:100FB00080E0DF91CF911F910F91FF90EF90DF9034
:100FC000CF90BF90AF909F908F9008958388948822
:100FD000A588B6888789803189F5BB27A72F962FEA
:100FE000852FE9016A017B018F01BC01CD01680DEC
:100FF000791D8A1D9B1D8090000190900101A09099
:101000000201B090030186169706A806B90601F5FD
:10101000F8018789803111F5DD24EE24FF24F601E3
:10102000EE0FFF1FE45FFC4F80819181B0E0A0E0F4
:1010300088839983AA83BB8381E0BBCFDB01CA018C
:10104000C7E0B695A79597958795CA95D1F7C9CF6B
:1010500040E00E9491058111DBCFAACFE894C7F848
:10106000DD24EE24FF24F601EE0FFF1FEE0FFF1F1D
:10107000E45FFC4F80819181A281B381BF70D8CFA2
:101080004F925F926F927F92AF92BF92CF92DF9218
:10109000EF92FF920F931F93CF93DF9300D000D076
:1010A000CDB7DEB78C0149835A836B837C835901AA
:1010B000C12CD12C7601412C82E0582E612C712C50
:1010C00049815A816B817C819E012F5F3F4FC8010E
:1010D0000E94BF07882339F1F8018585A301920199
:1010E00004C0220F331F441F551F8A95D2F7DA011F
:1010F000C901C80ED91EEA1EFB1E49815A816B81A7
:101100007C818789803111F188EF9FEFAFEFBFE0DD
:10111000481759076A077B0798F2F501C082D18208
:10112000E282F38281E00F900F900F900F90DF9199
:10113000CF911F910F91FF90EF90DF90CF90BF90D4
:10114000AF907F906F905F904F90089588EF9FEFE2
:10115000A0E0B0E0DDCFCF93DF93FC012581222317
:1011600021F080E0DF91CF910895EC018091DA05C4
:10117000803159F582E08583178A108E118E128E88
:101180008091DB059091DC05B0E0A0E025E0880FC0
:10119000991FAA1FBB1F2A95D1F7838B948BA58B10
:1011A000B68B83EC95E09C8F8B8F81E08C831E82C5
:1011B0001F82188619861A861B861C861D861E8627
:1011C0001F86188A198A1A8ACDCF803251F683E099
:1011D00085834091DD055091DE056091DF057091BA
:1011E000E005478B508F618F728F9F012D5E3F4FBF
:1011F00083EC95E00E9440088111D3CFB2CF8F924B
:101200009F92AF92BF92CF92DF92EF92FF920F9395
:101210001F93CF93DF93EC018D8181110EC080E08D
:10122000DF91CF911F910F91FF90EF90DF90CF90C2
:10123000BF90AF909F908F9008950B891C892D8946
:101240003E89041715072607370748F34A015B0153
:10125000823031F48A869B86AC86BD8681E0E0CF01
:1012600081149104A104B10449F41E821F821886DE
:1012700019861A861B861C861D86F0CF0A851B855B
:101280002C853D85EB8DFC8D858590E00996B90117
:10129000A8014150510961097109082E04C07695D1
:1012A0006795579547950A94D2F775016401E1E077
:1012B000CE1AD108E108F10804C0F694E794D79457
:1012C000C7948A95D2F7C416D506E606F70620F02D
:1012D000012B022B032B11F58F89988DA98DBA8DC7
:1012E0008E839F83A887B9878E010A5F1F4FC11421
:1012F000D104E104F10409F4ADCF4E815F8168852A
:10130000798598018B8D9C8D0E94BF0791E0C91A49
:10131000D108E108F1088111EACF81CFC41AD50ABA
:10132000E60AF70AE1CF3F924F925F926F927F9267
:101330008F929F92AF92BF92CF92DF92EF92FF92E5
:101340000F931F93CF93DF93CDB7DEB72C970FB6D4
:10135000F894DEBF0FBECDBF5C01DC015B968D90C3
:101360009C905C9716964D905D906D907C9019972F
:10137000411451046104710409F468C0BFEF4B1AB1
:101380005B0A6B0A7B0A312CF40181859285A38567
:10139000B4859C01AD012F5F3F4F4F4F5F4F2987B1
:1013A0003A874B875C87730162011D821E821F8210
:1013B0001886F40181859285A385B4852D813E81AF
:1013C0004F815885281739074A075B0708F056C030
:1013D00089859A85AB85BC858C159D05AE05BF05B5
:1013E00050F482E0C82ED12CE12CF12C92E0492E51
:1013F000512C612C712C9E012F5F3F4FB701A6012C
:10140000C4010E94BF078823C9F189819A81AB81F9
:10141000BC81892B8A2B8B2B09F1260137019FEF89
:10142000491A590A690A790A2D813E814F815885E6
:101430002F5F3F4F4F4F5F4F2D833E834F83588722
:101440003FEFC31AD30AE30AF30AB3CFF401408093
:101450005180628073803324339496CFC414D504B2
:10146000E604F70409F70FEF1FEF2FEF3FE0B70196
:10147000A601C4010E941D07811119C080E02C96AD
:101480000FB6F894DEBF0FBECDBFDF91CF911F9195
:101490000F91FF90EF90DF90CF90BF90AF909F9013
:1014A0008F907F906F905F904F903F900895D501FF
:1014B00016964D915D916D917C911997411551054D
:1014C0006105710539F097018601C4010E941D076D
:1014D0008823A1F2D5011696CD92DD92ED92FC9271
:1014E0001997332051F0D701C6010196A11DB11DF6
:1014F000F40180839183A283B383F5018789908D62
:10150000A18DB28D892B8A2B8B2B39F48481C78ACC
:10151000D08EE18EF28E80688483F50184818062B2
:10152000848381E0ACCF1F93CF93DF93FC012581AF
:10153000222371F1162FEC01848187FF1EC0CF0199
:101540000E94DB05FC01892B19F18D81823040F46A
:101550008B899C89AD89BE89848F958FA68FB78F23
:101560008F89988D938F828F8F89988DA98DBA8D51
:10157000B58BA48B8C818F778C83111103C08C81E8
:101580008F7E8C83812FDF91CF911F910C94660504
:1015900080E0DF91CF911F910895FF920F931F93E9
:1015A000CF93DF93EC018D81813041F090E080E0BA
:1015B000DF91CF911F910F91FF9008958C8181FF52
:1015C000F5CF82FD1BC000910A0310910B03C801E7
:1015D0000E94BF030E949E03F82EC8010E948C0344
:1015E0008FEFF812E3CF8C8185FF1BC060E0CE0146
:1015F0000E94930A8C818F7D8C83D8CF4B895C8924
:101600006D897E898A859B85AC85BD858417950704
:10161000A607B707C1F2CE010E94FF088111D3CF00
:10162000C5CF4091310250913202609133027091E6
:101630003402452B462B472B21F080E00E944205C7
:10164000B5CF80618C832A853B85317080E092E044
:10165000821B930BADCFCF93DF93EC0161E00E942F
:10166000930A882311F01D8281E0DF91CF910895C4
:101670002F923F924F925F926F927F928F929F92A2
:10168000AF92BF92CF92DF92EF92FF920F931F9390
:10169000CF93DF9300D000D01F92CDB7DEB77C018F
:1016A0005B01342E5D83DC0115968C91159781309A
:1016B00009F0CEC014962C9021FECAC022FCB4C002
:1016C000C32CDD8022947FE027222094B22DB170BC
:1016D0002B2ED7011A964D915D916D917C911D979E
:1016E000C114D10409F428C15B968D919C915C973B
:1016F000FC0174807A948A019B0169E036952795F4
:10170000179507956A95D1F770228A0111707110AB
:1017100020C001151105E9F416964D915D916D916A
:101720007C911997411551056105710509F099C022
:1017300057968D919D910D90BC91A02D0097A1057C
:10174000B10509F0B0C0C7010E949309882309F4CC
:101750007FC080E092E0801B910B46018C159D05B7
:1017600008F44C01D7015B964D915C915C971696FD
:101770008D919D910D90BC91A02D0297A109B10969
:10178000FA01258504C0880F991FAA1FBB1F2A953F
:10179000D2F74685578560897189840F951FA61FEA
:1017A000B71F9C01AD01270D311D411D511D2901A0
:1017B0003A01811432E0930609F07BC08091000168
:1017C00090910101A0910201B0910301841595054A
:1017D000A605B70559F48FEF9FEFDC018093000158
:1017E00090930101A0930201B0930301022D950192
:1017F000B301A20180910A0390910B030E94D404CB
:10180000882331F19EEFB91AC818D908F7018285EB
:101810009385A485B585880D991DA11DB11D82876D
:101820009387A487B58755CFF70143895489658984
:10183000768982859385A485B585481759076A07F7
:101840007B0709F43DCFC7010E94FF08811138CF03
:1018500081E090E0D70113969C938E93129780E0DD
:1018600007C09E012F5F3F4F0E94BF07811102C03A
:1018700090E079C089819A81AB81BC81F701238D89
:10188000348DF901278948EF5FEF60E070E0203187
:1018900021F048EF5FEF6FEF7FE084179507A60711
:1018A000B70708F050CFF70186839783A087B187E9
:1018B00050CF0115110599F5D7011A964D915D91FB
:1018C0006D917C911D9753968D919D910D90BC913A
:1018D000A02D481759076A077B0708F181E00E948D
:1018E0006605882309F4B4CF4092000150920101AB
:1018F00060920201709203018091300281608093B6
:101900003002C801845F9C4FD5019C01280D391D10
:10191000FC012E173F0759F04D914193FACF41E05A
:10192000C301B2010E9491058111EBCF91CF281B19
:10193000390BA20EB31E68CFF70183899489A5895C
:10194000B68984179507A607B70738F48481438BB7
:10195000548B658B768B80688483F701848183FD4B
:101960001AC0832D9D810F900F900F900F900F90B4
:10197000DF91CF911F910F91FF90EF90DF90CF906B
:10198000BF90AF909F908F907F906F905F904F909F
:101990003F902F90089561E0C7010E94930A882329
:1019A00009F456CFDECFCF93DF931F92CDB7DEB7CA
:1019B000698341E050E0BE016F5F7F4F0E94380BAA
:1019C0000F90DF91CF910895FC01DB0112968D916C
:1019D0009C9113979383828380E791E09183808326
:1019E00014968C911497848315968C911597858302
:1019F00016964D915D916D917C9119974683578311
:101A0000608771871A964D915D916D917C911D97BC
:101A100042875387648775871E964D915D916D91BE
:101A20007C91519746875787608B718B52968C912A
:101A30005297828B53964D915D916D917C91569703
:101A4000438B548B658B768B57964D915D916D9141
:101A50007C915A97478B508F618F728F5B968D91D7
:101A60009C91948F838F0895FC01818D928D0097B6
:101A700029F00E94FF0891E0811101C090E0892FB8
:101A80000895FC01818D928D009719F061E00C940E
:101A9000930A0895DC015996ED91FC913097B9F0C5
:101AA00083899489A589B68942855385648575851E
:101AB000841B950BA60BB70B811520E89207A10597
:101AC000B10538F08FEF9FE7A0E0B0E0089590E017
:101AD00080E00895DC0159968D919C91009739F032
:101AE000DC01ED91FC910480F581E02D099490E0FA
:101AF00080E00895CF93DF93EC01E98DFA8D309764
:101B000049F481E090E09B838A8390E080E0DF915C
:101B1000CF91089513821282898D9A8D0E94380B7D
:101B2000E98DFA8D22813381232B59F7F0CFCF93A2
:101B3000DF931F92CDB7DEB76983DC01ED91FC9195
:101B40000280F381E02D41E050E0BE016F5F7F4FE6
:101B500009950F90DF91CF9108952F923F924F9268
:101B60005F926F927F928F929F92AF92BF92CF922D
:101B7000DF92EF92FF920F931F93CF93DF9300D0EA
:101B80001F92CDB7DEB7FC018581811118C08FEFA0
:101B90009FEF0F900F900F90DF91CF911F910F91BA
:101BA000FF90EF90DF90CF90BF90AF909F908F907D
:101BB0007F906F905F904F903F902F900895848119
:101BC00080FFE5CF4389548965897689828593852D
:101BD000A485B585312C212C481759076A077B0746
:101BE00019F022242394312C6F012101CE0101969A
:101BF0003C01DF011696BB83AA834114510409F40A
:101C0000C5C0F60142855385648575854A01F1E0BA
:101C10009F22D6015B968D919C915C978A019B01D6
:101C2000E9E03695279517950795EA95D1F715962A
:101C3000EC91E230E9F5FC01628D738D848D958D18
:101C4000600F711F821F931FA12C22E0B22EA818D3
:101C5000B9084A145B0408F45201F601248126FDF8
:101C600004C0A114F2E0BF0671F4009100011091CC
:101C7000010120910201309103010617170728077F
:101C8000390709F05EC040E00E949105882309F4FD
:101C90007ECFC401845F9C4FD3019C012A0D3B1D64
:101CA000FC012E173F0709F46CC041914D93F9CF09
:101CB000DC011496BC90BA94B0228114910479F49A
:101CC000B1100DC0452B462B472B69F5F6018789CE
:101CD000908DA18DB28D86839783A087B187D60121
:101CE0005B96ED91FC915C9716966D917D918D912F
:101CF0009C9119976250710981099109258504C049
:101D0000660F771F881F991F2A95D2F706851785BA
:101D100020893189600F711F821F931F6B0D711D08
:101D2000811D911D91CFD60116964D915D916D91BA
:101D30007C9119972A813B810E94BF078111CFCFE7
:101D400026CF730185019401AB01BC0180910A0388
:101D500090910B030E943204882309F418CF6A0C77
:101D60007B1CF60182859385A485B5858A0D9B1D14
:101D7000A11DB11D82879387A487B5874A185B0888
:101D80003CCF281B390B620E731EEBCF2A942328FD
:101D900009F0FDCE898190E0FCCEFC01818D928D11
:101DA000009711F00C94AD0D8FEF9FEF08950F93F6
:101DB0001F93CF93DF93EC01898D9A8D10E000E0A3
:101DC000009799F00E94AD0D8C010F3F100769F04C
:101DD000898D9A8DFC0142855385648575854150B6
:101DE0005109610971090E94FF08C801DF91CF9173
:101DF0001F910F910895CF92DF92EF92FF920F9370
:101E00001F93CF93DF93FC01C48181E0809355023F
:101E1000C0932D021092F4021092F302686089EAD6
:101E200095E00E945703D091F302D13208F092C09E
:101E30000E9437026B017C018091C002811165C054
:101E400082E08093C00281E08093C2028FEF809392
:101E5000BF021092E402D093E302A5E3B2E0E3EC08
:101E6000F2E080E0D81385C01092E5028091E5028F
:101E7000CC0FC82BC093E5028091C102813009F0DC
:101E80007CC01092C1020E9437026B017C018091DC
:101E9000E5028093BB008091770290917802A09137
:101EA0007902B0917A02892B8A2B8B2B99F00E94B0
:101EB00037020091770210917802209179023091D7
:101EC0007A026C197D098E099F09061717072807E2
:101ED0003907E0F18091BC0083FDD9CF85EC809378
:101EE000BC000E9437026B017C018091C0028230ED
:101EF00009F445C08091BF028F3F61F18091BF021C
:101F0000803241F18091BF0225C08091770290918B
:101F10007802A0917902B0917A02892B8A2B8B2BBF
:101F200009F48ACF0E94370200917702109178025B
:101F30002091790230917A026C197D098E099F09EE
:101F4000061717072807390708F076CF8091760221
:101F50000E94DF021092F4021092F30210925502D6
:101F6000DF91CF911F910F91FF90EF90DF90CF9075
:101F700008959D9191938F5F75CF85EEB0CF80913D
:101F8000770290917802A0917902B0917A02892B20
:101F90008A2B8B2B09F4A9CF0E943702009177027C
:101FA000109178022091790230917A026C197D09A2
:101FB0008E099F09061717072807390708F095CFDC
:101FC000C5CFCF92DF92FF920F931F93CF93DF93F2
:101FD00080E10E942502F12C8F3F9340FCF486E2C1
:101FE000C82E81E0D82E01E010E0F12C80E10E94A3
:101FF0002502F601C191D1916F018C1B9D0B181622
:102000001906ACF480E10E9425028C1B9D0B0597FC
:10201000ACF00F5F1F4F0930110541F78F2DDF9195
:10202000CF911F910F91FF90DF90CF90089580E1A5
:102030000E942502C81BD90B25975CF7F801E35EC7
:10204000FE4FF08080E10E942502883E9340D4F349
:10205000E0CF089590E080E008958F929F92AF9234
:10206000BF92CF92DF92EF92FF920F931F93CF9385
:10207000DF9300D000D0CDB7DEB7FC018581813081
:1020800091F080E00F900F900F900F90DF91CF9123
:102090001F910F91FF90EF90DF90CF90BF90AF9086
:1020A0009F908F900895848181FFEBCF83899489DD
:1020B000A589B689892B8A2B8B2B09F45FC07F01F8
:1020C00040E050E0BA01CF010E94FF088823C9F226
:1020D000F701C38CD48C8788908CA18CB28C82E061
:1020E00090E0A0E0B0E0F60180839183A283B38307
:1020F0009E012F5F3F4FB501A401C6010E94BF079B
:10210000882309F4BECF00E010E09801B501A401D6
:10211000C6010E941D07882309F4B3CF89809A80E5
:10212000AB80BC80F6018789803119F188EF9FEF81
:10213000AFEFBFE088169906AA06BB06C8F2F70102
:10214000178A108E118E128E138A148A158A168A97
:1021500084818068848361E0C7010E94930A882398
:1021600009F48FCF40E050E0BA01C7010E94FF0898
:1021700089CF88EF9FEFA0E0B0E0DCCF81E082CF95
:10218000CF92DF92EF92FF921F93CF93DF93EC01F8
:1021900080E2689FF0011124E45FFC4F9385917108
:1021A00061F0842F827449F080E0DF91CF911F911C
:1021B000FF90EF90DF90CF900895142F6A8B80915D
:1021C000000190910101A0910201B09103018E875D
:1021D0009F87A88BB98BC488D588F12CE12C760118
:1021E000DD24CC24CF8AD88EE98EFA8E828D938D11
:1021F000B0E0A0E0AC01BD014C295D296E297F292A
:102200004F8B588F698F7A8F83858871B1F4848D55
:10221000958DA68DB78D8B8B9C8BAD8BBE8B81E006
:102220008D831F701C831E821F82188619861A8652
:102230001B861C861D8681E0B8CF803109F0B4CFA3
:102240009E012D5E3F4F8B8D9C8D0E944008882300
:1022500009F4AACF84E0E4CF0F931F93CF938C01AE
:10226000C62F0E94FB0E6C2F6460C8010E94FB0EFB
:102270006C2F6B7FC8010E94FB0E83EC90E00197EE
:10228000F1F7CF911F910F9108950F931F93CF9363
:10229000DF938C01D62FC42F607F642B0E942C11FA
:1022A00080E1D89FB00111246C2BC801DF91CF9140
:1022B0001F910F910C942C11CF93DF93CDB7DEB704
:1022C00028970FB6F894DEBF0FBECDBF98E0ECE0C4
:1022D000F1E0DE01119601900D929A95E1F790E000
:1022E000880F991F21E030E02C0F3D1F820F931FB4
:1022F000FC016081606840E080E096E028960FB6BF
:10230000F894DEBF0FBECDBFDF91CF910C94451185
:10231000CF93DF93EC0181E00E945C11CE01DF914D
:10232000CF910C94BF0041E00E94451181E090E004
:102330000895CF93DF93EC0188819981009711F084
:102340000E94B521198218821D821C821B821A826A
:10235000DF91CF910895FC0180819181009711F068
:102360000C94B52108950E94FB220F931F93CF93E5
:10237000DF93EC0188819981009759F02A813B8194
:102380002617370730F081E0DF91CF911F910F9131
:1023900008958B016F5F7F4F0E943E22009759F096
:1023A000998388831B830A832C813D81232B59F7D2
:1023B000FC011082E8CF80E0E7CFEF92FF920F930D
:1023C0001F93CF93DF938C017B01FB0101900020D1
:1023D000E9F73197E61BF70BD1F0DC011496CD91AC
:1023E000DC91CE0FDF1FBE010E94B5118823B9F02A
:1023F000F8012081318184819581B701820F931F7B
:102400000E942123D8011596DC93CE931497C8011E
:10241000DF91CF911F910F91FF90EF900895C80128
:102420000E949911F4CFEF92FF920F931F93CF93D5
:10243000DF93EC017B018A01BA010E94B511811181
:102440000BC0CE010E949911CE01DF91CF911F9157
:102450000F91FF90EF9008951D830C83B701888141
:1024600099810E942123F0CFCF93DF93EC01FB01F0
:102470008617970749F0608171816115710541F0F8
:10248000448155810E941312CE01DF91CF910895AE
:102490000E949911F9CFFC011182108213821282DD
:1024A000158214820C9434120F931F93CF93DF93F1
:1024B00000D000D000D0CDB7DEB78C0140E061E0A5
:1024C00080E096E00E9445118BE39FE10197F1F7D0
:1024D000B801CE0101960E944B1280E00E945C116F
:1024E000CE0101960E94BF00CE0101960E94AB1161
:1024F00026960FB6F894DEBF0FBECDBFDF91CF9109
:102500001F910F910895CF93DF9300D0CDB7DEB721
:10251000FC01118210821382128215821482698357
:102520001A82BE016F5F7F4FFB0101900020E9F727
:102530003197AF01461B570B0E9413120F900F905B
:10254000DF91CF910895FC011182108213821282D3
:1025500015821482FB0101900020E9F73197AF0149
:10256000461B570B0C94131285ED8093BC00809191
:10257000770290917802A0917902B0917A02079641
:10258000A11DB11D23E0B695A795979587952A952E
:10259000D1F72091BC0024FD03C01092C002089521
:1025A00040917702509178026091790270917A029D
:1025B000452B462B472B69F30097A105B10541F048
:1025C00025E32A95F1F700000197A109B109E1CFB0
:1025D000809176020C94DF023F924F925F926F924D
:1025E0007F928F929F92AF92BF92CF92DF92EF92A3
:1025F000FF920F931F93CF93DF93CDB7DEB72B9747
:102600000FB6F894DEBF0FBECDBF7C01DC0115967E
:102610008C91811115C0FE013196CE010C966F018F
:1026200030E23193E817F907E1F7DA0130E087E0AB
:102630009D91B92E992329F19E3239F48A3011F4F3
:1026400080E0DAC038E08AE0F3CFE8E6F0E04491D9
:10265000442321F031969413FACFF2CF831780F3FD
:102660004FED490F4E3560F74FE9490F4A3118F4E5
:1026700040EEB42EB90EF601E30FF11DB0823F5FBC
:10268000D7CF89818032E1F2322E8B01FB01838D1D
:10269000948DD7015C969C938E935B9716821782DC
:1026A000108611861286138614861586F801828597
:1026B0009385A485B585438954896589768984176E
:1026C0009507A607B70708F04DC025E0B695A79572
:1026D000979587952A95D1F7F82FFF70AF2ED801DF
:1026E00015968C91823008F4ABCFC8010E94AD0DD5
:1026F00097FDA6CFF80182859385A485B5854F9671
:10270000A11DB11D82879387A487B587F0E2AF9E94
:10271000B0011124645F7C4F6115710509F490CFFD
:10272000DB018C91882341F0853E09F058C0BB2025
:1027300029F0BB24B394BACFB1100EC0F701A28A1E
:102740008091000190910101A0910201B0910301DB
:1027500086879787A08BB18BDB018C918111E9CFA4
:10276000BB24B394832D8271823109F069CFBB20E1
:1027700009F45AC0C7010E94DB05009709F460CF35
:1027800020E2FC0111922A95E9F72BE0F601DC0129
:1027900001900D922A95E1F721E238E2DC01519691
:1027A0003C932E93509740E058E01F965C934E93D5
:1027B0001E9753963C932E93529759963C932E9383
:1027C000589757965C934E93569781E00E94660502
:1027D000882309F435CF432DF70162890AC04BE005
:1027E00050E0C6010E940023892B09F05FCF432DE2
:1027F0006A2DC7010E94C0102B960FB6F894DEBF59
:102800000FBECDBFDF91CF911F910F91FF90EF9041
:10281000DF90CF90BF90AF909F908F907F906F9000
:102820005F904F903F900895F8018581823009F4C0
:1028300007CFC8010E949309882309F401CFD8016A
:102840005B96ED91FC915C9716968D909D90AD9066
:10285000BC901997B2E08B1A9108A108B108858540
:1028600004C0880C991CAA1CBB1C8A95D2F78685CB
:102870009785A089B189880E991EAA1EBB1E8481E6
:1028800024013501480E511C611C711C84149504EF
:10289000A604B70409F1E1E04E1A51086108710875
:1028A00081E00E946605882309F4CACEECE0F3E0DB
:1028B00011928CE095E08E179F07D1F740920001AE
:1028C00050920101609202017092030180913002E6
:1028D000816080933002DACFD8015B96ED91FC9154
:1028E000258580E092E0A0E0B0E004C0880F991F49
:1028F000AA1FBB1F2A95D2F7F8014389548965891D
:102900007689840F951FA61FB71F838B948BA58B89
:10291000B68BD70152961C928CE093E031CF5F9238
:102920006F927F928F929F92AF92BF92CF92DF92DF
:10293000EF92FF920F931F93CF93DF93CDB7DEB744
:10294000C754D1090FB6F894DEBF0FBECDBF5C01EE
:102950003B0119A218A280E791E09F8F8E8F1BA2E6
:102960001C821B829A8389831E8210E000E06E0124
:102970008EE1C80ED11C81EEE82E85E0F82EF5011F
:10298000E00FF11F80818F3211F40F5F1F4FD501CF
:10299000A00FB11FFE01FB9690E080E04F012D914A
:1029A0002F3249F0222339F00F5F1F4F01962193F8
:1029B0008C309105A1F7880D991DFC011082F5015D
:1029C000E00FF11F80818F3211F40F5F1F4FF5016F
:1029D000E00FF11F508041E0511040E030E020E076
:1029E000B401C701F3010995811121C0F1EEEF1681
:1029F000F5E0FF06C1F480E0C95BDF4F0FB6F89445
:102A0000DEBF0FBECDBFDF91CF911F910F91FF9021
:102A1000EF90DF90CF90BF90AF909F908F907F907E
:102A20006F905F900895C7010E942B0BE4CF552053
:102A300091F021E0A401B701C6010E94EC12982E8A
:102A400081EEE81685E0F80681F0C7010E942B0BA5
:102A5000911010C0D0CF91EEE91695E0F90619F06B
:102A6000C7010E942B0B81E0C7CF992021F2FE0104
:102A700031967F019E2D8F2D7601C92ED82E7FCFC6
:102A80000F931F93CF93DF93CDB7DEB72C970FB67D
:102A9000F894DEBF0FBECDBF1092090361E4CE01F2
:102AA00001960E948312BE016F5F7F4FCE01079691
:102AB0000E944B1264E871E0CE0107960E94DD117E
:102AC000BC0188E096E00E943412CE0107960E9475
:102AD000AB11CE0101960E94AB1110E001E46FEC46
:102AE00075E180910806909109060E948F14882351
:102AF000E1F080910C0690910D06892B31F0A091A8
:102B00000806B0910906109721F410922C02ACE24D
:102B1000B2E0E12FF0E0E750FD4F8C91808380918F
:102B200009038F5F809309031F5F0F5F602FCE0142
:102B300001960E948312BE016F5F7F4FCE01079600
:102B40000E944B1264E871E0CE0107960E94DD11ED
:102B5000BC0188E096E00E943412CE0107960E94E4
:102B6000AB11CE0101960E94AB111F3059F42C9687
:102B70000FB6F894DEBF0FBECDBFDF91CF911F918E
:102B80000F9108950B3509F0AACFE12FF0E0E7503F
:102B9000FD4F8FE51F3058F781931F5FFBCF1F93C9
:102BA000CF93DF93CDB7DEB76D970FB6F894DEBF46
:102BB0000FBECDBFAB011C821B8220E731E03A8300
:102BC00029831E8221E0BC01CE0101960E94EC12F5
:102BD00011E081110CC010E0812F6D960FB6F894B2
:102BE000DEBF0FBECDBFDF91CF911F910895CE0103
:102BF00001960E942B0BF0CFCF93DF93CDB7DEB7BA
:102C00006D970FB6F894DEBF0FBECDBF442399F188
:102C1000AB01BC011C821B8280E791E09A8389830F
:102C20001E8222E0CE0101960E94EC1281110EC09C
:102C300090E081E0911101C080E06D960FB6F894AC
:102C4000DEBF0FBECDBFDF91CF910895CE010196BB
:102C50000E942D10882361F3CE0101960E94DB05AE
:102C6000009731F325EEFC0120831E8281E00E9453
:102C70006605982FDECF81E0E0CFEF92FF920F93B1
:102C80001F93CF93DF93EC017B018A011B821A8291
:102C900088EE93E0A0E0B0E08C839D83AE83BF8399
:102CA0008AE391E0998388838DE190E00E94192165
:102CB0009A8F898F009779F02DE1F701DC0101905F
:102CC0000D922A95E1F74CE050E0B801CE010C9648
:102CD0000E942823188EDF91CF911F910F91FF90B2
:102CE000EF9008952F923F924F925F926F927F9252
:102CF0008F929F92AF92BF92CF92DF92EF92FF920C
:102D00000F931F93CF93DF93CDB7DEB7C756D1098B
:102D10000FB6F894DEBF0FBECDBF5C013B01A69697
:102D20004FAFA69719A218A280E791E09F8F8E8FD0
:102D30001BA21C821B829A8389831E824E018EE114
:102D4000880E911CC4010E94AB0863018E010F5FC5
:102D50001F4F240118016FE270E0C6010E94162384
:102D6000009709F459C0F60120812F3271F4FFEF6A
:102D7000CF1ADF0A902F812F8201492E582E942DD1
:102D8000852D2801092F182FE6CF8C198D3008F0DA
:102D90008CE0E82EF12CA701B601CE01885A9F4F96
:102DA0000E942823E8E5F0E0EC0FFD1FEE0DFF1D6B
:102DB0001082C8010E942B0B21E0AE01485A5F4FE0
:102DC000B201C8010E94EC12811120C01EAE1DAEDE
:102DD00080E791E09CAF8BAF21961FAE2197A8961C
:102DE000EEADFFADA8976E0E7F1EF30180818111BD
:102DF00020C0BE01655C7F4FC1010E94E40C49E820
:102E000051E0B101C5010E943D1631C0CE0CDF1C5E
:102E1000C2010E942B0BB3CFC60186199709A89651
:102E20009FAF8EAFA897B201CE01CB960E94E40C63
:102E3000D6CF19A218A280E791E09F8F8E8F1BA298
:102E400021968FAD219781112DC0F5011382128239
:102E500088EE93E0A0E0B0E084839583A683B783F7
:102E60008AE391E091838083128E118E1486C501CE
:102E7000C959DF4F0FB6F894DEBF0FBECDBFDF914B
:102E8000CF911F910F91FF90EF90DF90CF90BF9067
:102E9000AF909F908F907F906F905F904F903F90FA
:102EA0002F900895A6962FADA697A301BE01655C4D
:102EB0007F4FC4010E94EC12882339F2CE01CB96D9
:102EC0000E942B0BA6968FADA6978670863039F49C
:102ED00049A95AA96BA97CA9C4010E94FF08B401A1
:102EE000C1010E94E40CA3018CCF1F920F920FB678
:102EF0000F9211242F933F934F935F936F937F9380
:102F00008F939F93AF93BF93EF93FF938CE095E0E4
:102F10000E941901FF91EF91BF91AF919F918F9105
:102F20007F916F915F914F913F912F910F900FBEC5
:102F30000F901F9018951F920F920FB60F921124A9
:102F40002F938F939F93EF93FF93E0911C05F09144
:102F50001D058081E0912205F091230582FD1BC0B3
:102F60009081809125058F5F8F73209126058217B0
:102F700041F0E0912505F0E0E45FFA4F958F8093F2
:102F80002505FF91EF919F918F912F910F900FBE8B
:102F90000F901F9018958081F4CF1F920F920FB65B
:102FA0000F9211242F933F938F939F93AF93BF93CF
:102FB0008091E7029091E802A091E902B091EA02C3
:102FC0003091E60223E0230F2D3758F50196A11D1D
:102FD000B11D2093E6028093E7029093E802A0934C
:102FE000E902B093EA028091EB029091EC02A09189
:102FF000ED02B091EE020196A11DB11D8093EB028E
:103000009093EC02A093ED02B093EE02BF91AF91CA
:103010009F918F913F912F910F900FBE0F901F9016
:10302000189526E8230F0296A11DB11DD2CF1F923D
:103030000F920FB60F9211242F933F934F935F93EC
:103040006F937F938F939F93AF93BF93EF93FF9370
:103050008091B900887F803609F44AC0F0F5883243
:1030600009F4A7C018F5803109F49BC0B8F488238F
:1030700009F4F9C0883009F494C0FF91EF91BF9131
:10308000AF919F918F917F916F915F914F913F9100
:103090002F910F900FBE0F901F901895883109F453
:1030A00088C0803251F78093BF0214C0803409F485
:1030B0009DC040F48033B9F38833F9F68093BF02A2
:1030C00085ECB0C0803509F485C0883509F496C018
:1030D000883499F60E94B412D0CF883909F48CC094
:1030E00038F5883729F050F4883611F0803729F602
:1030F00083E08093C0021092BE0257C0883809F462
:103100007BC0803919F0803809F0B7CF8091BE02BA
:10311000803208F071C0E091BE0281E08E0F809392
:10312000BE028091BB00F0E0E256FD4F80833DC0BF
:10313000803B39F0E0F4803A09F479C0883A09F02C
:103140009CCF84E08093C00210929D0210929C025A
:10315000E091F102F091F202099580919C028111B7
:103160000FC081E080939C0210927C0209C0803CD9
:1031700009F4A6CF883C09F4A3CF883B09F07DCFA2
:10318000E0919D0281E08E0F80939D02F0E0E45873
:10319000FD4F80818093BB0090919D0280919C02A5
:1031A00029C08091E5028093BB0085EC8093BC0030
:1031B00064CF9091E4028091E302981758F5E09172
:1031C000E40281E08E0F8093E402F0E0ED53FD4FC6
:1031D0008081E9CFE091E40281E08E0F8093E402E8
:1031E0008091BB00F0E0ED53FD4F80839091E402AD
:1031F0008091E3029817C8F285E8D8CFE091E40205
:1032000081E08E0F8093E4028091BB00F0E0ED53EB
:10321000FD4F80838091C20281115CCF81E0809359
:10322000C10284EA8093BC001092C00226CF85ECD4
:103230008093BC001092C0028091BE02803230F4B4
:10324000E091BE02F0E0E256FD4F10826091BE02B6
:1032500070E0E091EF02F091F0028EE992E00995C2
:103260001092BE020ACF1092BF0234CFECE0F5E01C
:103270001382128288EE93E0A0E0B0E0848395830D
:10328000A683B7832CE431E03183208325EC30E042
:103290003587248724EC30E03787268720EC30E020
:1032A000318B208B21EC30E0338B228B22EC30E011
:1032B000358B248B26EC30E0378B268B118E128ECB
:1032C000138E148EE9EAF5E01382128284839583CB
:1032D000A683B7838EE591E091838083E5EBF5E0EB
:1032E00080E580831182E7EBF5E015821682118676
:1032F000138682E090E0A0E0B0E084879587A687FF
:10330000B78713A215A614A680E791E093A782A71A
:1033100017A66AEC71E088E096E00E94A312E0E054
:10332000F6E0138212828CE791E09183808380E241
:1033300084830895CF93DF93CDB7DEB7C054D1090E
:103340000FB6F894DEBF0FBECDBF789484B582600F
:1033500084BD84B5816084BD85B5826085BD85B539
:10336000816085BD80916E00816080936E001092B7
:103370008100809181008260809381008091810032
:1033800081608093810080918000816080938000C3
:103390008091B10084608093B1008091B000816021
:1033A0008093B00080917A00846080937A0080914D
:1033B0007A00826080937A0080917A0081608093A5
:1033C0007A0080917A00806880937A001092C10020
:1033D00080917A00846080937A0080917A008D7F5A
:1033E00080937A0080917A008E7F80937A0060E0EB
:1033F0008EE00E94F40160E080E10E94F40160E050
:1034000081E10E94F40110E061E0812F0E94F4014B
:103410001F5F1830C9F71092F6021092F502109251
:10342000F4021092F3020E94C10280E990E09093AE
:10343000F2028093F10281E990E09093F002809390
:10344000EF021093050662E370E080E090E00E94D6
:103450005C0268E080E096E00E94FB0E68EE73E09C
:1034600080E090E00E945C0260E380E096E00E94D1
:103470002C110BE416E4C8010197F1F760E380E03A
:1034800096E00E942C11C8010197F1F760E380E0FB
:1034900096E00E942C1183E592E00197F1F760E23B
:1034A00080E096E00E942C1160910506606240E089
:1034B00080E096E00E94451184E08093060640E09B
:1034C0006CE080E096E00E94451140E061E080E021
:1034D00096E00E9445110BE31FE1C8010197F1F747
:1034E00082E08093070640E066E080E096E00E947C
:1034F000451140E062E080E096E00E944511C8017D
:103500000197F1F76BE871E0CE0101960E94A312DA
:1035100080E00E945C11CE0101960E94BF00CE01A6
:1035200001960E94AB1168EE73E080E090E00E948B
:103530005C028091E605882321F081EE95E00E94EF
:103540002B0B1092C2051092C0051092BD0510926F
:10355000BC058AE08093BB050E948E028B0161E06E
:103560008091BB050E94F40161E08091BB050E943F
:10357000A801FFB6F8948091F702811127C0EEEB05
:10358000F0E08491EAEAF0E09491E82FF0E0EE0FA9
:10359000FF1FEA56FF4FA591B491EC91E92321F466
:1035A00061E08AE00E94A80161E08AE00E94F401E3
:1035B0008CB580618CBD8CB580648CBD61E08DE084
:1035C0000E94F40161E08BE00E94F4018091F70217
:1035D0008F5F8093F702FFBE82E58093B50510925E
:1035E000B6058091B5059091B6050E94BC036AE0CE
:1035F000F62E8FEF0E949703FA94F110FACF87EB23
:1036000095E00E94BF0320E030E0A90160E087EB75
:1036100095E00E94D503F82E8093C10581E0F8164D
:10362000E9F00E948E02601B710B613D774058F3F8
:1036300081E08093BC0587EB95E00E948C036CE9E8
:1036400071E0CE0101960E94A312CE0101960E9464
:103650005412CE0101960E94AB11FFCF2AEA31E04D
:1036600040E050E068E087EB95E00E94D50382FFE0
:103670002AC0F092C2058091C205C12CD12CE12C48
:1036800040E4F42E823019F0C12CD12C760120E0D8
:1036900030E0A90167E387EB95E00E94D503A7011D
:1036A000960169E287EB95E00E94D5038093C105FE
:1036B0008823D1F00E948E02601B710B613D774020
:1036C00030F388E0B6CF54E0F52E0E949E0380933D
:1036D000C105FA94F110F9CF8A3A11F082E0A9CF2E
:1036E00082E08093C205C7CF8091C2058230D1F4B9
:1036F00020E030E0A9016AE387EB95E00E94D50362
:10370000882311F086E095CF0E949E03807C803C48
:1037100019F483E08093C2050E949E030E949E03D9
:103720000E949E0387EB95E00E948C0380E58093C6
:10373000B5051092B60581E00E94F405882309F4CE
:1037400084C081EE95E00E94AB08882309F477CF0E
:103750000E94401564E971E0CE0101960E94A31217
:10376000CE0101960E948811CE0101960E94AB11F4
:1037700068EE73E080E090E00E945C0203EC10E0F1
:103780003AE3A32E31E0B32E99E6392E20E0822EC3
:1037900020E0922E0E94E10F81118093050180911B
:1037A0000501833709F08AC0809104018A3609F047
:1037B00085C061E4CE014C960E948312BE01645E16
:1037C0007F4FCE0101960E944B1262EA71E0CE015A
:1037D00001960E94DD11BC0188E096E00E9434123F
:1037E000CE0101960E94AB11CE014C960E94AB1106
:1037F00081E4F82E6FEC75E180910806909109063E
:103800000E948F14882341F1F3946F2DCE014C96C2
:103810000E948312BE01645E7F4FCE0101960E941A
:103820004B1262EA71E0CE0101960E94DD11BC01EB
:1038300088E096E00E943412CE0101960E94AB11FE
:10384000CE014C960E94AB11D5CF80E00E94F405CA
:10385000882309F4F4CE75CF6091080670910906AB
:1038600047E1CE014C960E947216EDA9FEA9309751
:1038700019F085818111B4C06CE971E0CE01019627
:103880000E94A312CE0101960E945412CE0101960D
:103890000E94AB1168EE73E080E090E00E945C0251
:1038A0008DA99EA9009731F00E942B0B8DA99EA98E
:1038B0000E94B5210E9440153092050180910501BA
:1038C000803719F5809104018A36F9F49BE69093CC
:1038D00004013092050190910903911172C1809306
:1038E000040161ED71E0CE0101960E94A312CE01A8
:1038F00001960E945412CE0101960E94AB1168EE0F
:1039000073E080E090E00E945C02809104018B36BD
:1039100009F061C280910501803709F015C281E18B
:103920000E942502BC01990F880B990B0E949A1FD7
:1039300020ED3FE34FE75EE30E94D51F0E94E420A5
:1039400081E06A3520F082E0643B08F083E08093F8
:10395000F802609108067091090641E0CE010196D7
:103960000E947216EA8DFB8D309719F085818111C6
:103970006FC16CE971E0CE014C960E94A312CE019A
:103980004C960E948811CE014C960E94AB1168EEB5
:1039900073E080E090E00E945C026BED71E0CE018C
:1039A00001960E94A312CE0101960E945412CE01EC
:1039B00001960E94AB1168EC70E080E090E00E94FC
:1039C0005C0268E076E0CE0101960E944B12CE01C7
:1039D00001960E948811CE0101960E94AB11F9C197
:1039E00067EA71E0CE0101960E94A312CE01019612
:1039F0000E945412CE0101960E94AB118E8D9F8DB4
:103A00009C838B8388A199A1AAA1BBA18D839E834E
:103A1000AF83B8878CA19DA1AEA1BFA189879A87EA
:103A2000AB87BC87BA82A9828DE0FE01B896DE0121
:103A30001D9601900D928A95E1F78DA99EA99B8F05
:103A40008A8F40E150E061EB71E0CE0101960E9467
:103A50007A0D8AE0E4E1F1E0DE01D79601900D9263
:103A60008A95E1F74AE050E0BE01695C7F4FCE01E4
:103A700001960E947A0D1FAA18AE80E189AF87E2F5
:103A80008AAF1BAE1CAE81E08DAF1EAE88E08FAF5B
:103A900021961FAE21974AE050E0BE01695C7F4F3E
:103AA000CE0101960E947A0D48E050E062EC71E090
:103AB000CE0101960E947A0D8EE00E942502BC0183
:103AC000990F880B990B0E949A1F20ED3FE34FE757
:103AD0005EE30E94D51F0E94E420F62E0E94E10FB3
:103AE000833751F06F2DCE014C960E94970D83E4E1
:103AF00090E00197F1F7E0CF8E8D9F8D9C838B83B3
:103B000088A199A1AAA1BBA18D839E83AF83B88709
:103B10008CA19DA1AEA1BFA189879A87AB87BC87E5
:103B2000BA82A9828DE0FE01B896DE011D96019051
:103B30000D928A95E1F7EDA9FEA9FB8FEA8FC12CC2
:103B4000D12C7601309721F0C388D488E588F68897
:103B50002601370188E0481A51086108710844E0DD
:103B600050E060E070E0CE0101960E94340D4FAA53
:103B700058AE69AE7AAE44E050E0BE01695C7F4F5A
:103B8000CE0101960E947A0D48E250E060E070E0BC
:103B9000CE0101960E94340D8CE2C81AD108E108CA
:103BA000F108CFAAD8AEE9AEFAAE44E050E0BE01CB
:103BB000695C7F4FCE0101960E947A0D6BEC71E03B
:103BC0005DCE6BED71E0CE0101960E94A312CE0195
:103BD00001960E945412CE0101960E94AB1168EE2C
:103BE00073E080E090E00E945C02E0910803F0E066
:103BF000E750FD4F6081CE014C960E948312BE01BA
:103C0000645E7F4FCE0101960E944B1264E871E022
:103C1000CE0101960E94DD11BC0188E096E00E9471
:103C20003412CE0101960E94AB11CE014C960E9437
:103C3000AB1168E076E0CE0101960E944B12CE01F6
:103C400001960E948811CE0101960E94AB115DCEB3
:103C50004CE250E060E070E0CE0101960E94340D2D
:103C600069EE71E0CE014C960E94A312CE014C96F3
:103C70000E945412CE014C960E94AB1168E076E08F
:103C8000CE014C960E944B12CE014C960E94881198
:103C9000CE014C960E94AB118091F802823098F4CC
:103CA000CE0101960E944A0D892B91F10E94E10FED
:103CB000803771F1CE0101960E94CD0E8BB9C801FB
:103CC0000197F1F7EDCFFF24F394CE0101960E9406
:103CD0004A0D892BE9F00E94E10F8037C9F081E09D
:103CE000F81211C0CE0101960E94CD0E8BB9C80109
:103CF0000197F1F7F3948091F80290E00196F8169D
:103D0000190619F7E0CFCE0101960E94CD0EF2CF31
:103D100065EF71E0CE014C960E94A312CE014C9645
:103D20000E948811CE014C960E94AB118A8D9B8D0A
:103D3000009709F42CCE0E942B0B8A8D9B8D0E943C
:103D4000B5211B8E1A8E23CE8E3391F5E091080398
:103D5000EF5FE0930803F0E0E750FD4F80818F357F
:103D600011F410920803E0910803F0E0E750FD4FD2
:103D70006081CE014C960E948312BE01645E7F4F2B
:103D8000CE0101960E944B1264E871E0CE010196CB
:103D90000E94DD11BC0188E096E00E943412CE0141
:103DA00001960E94AB11CE014C960E94AB1109CE38
:103DB0008C3351F480910803811102C08091090372
:103DC000815080930803CFCF8D3669F58AE68093C2
:103DD000040130920501809105018936C1F480917A
:103DE00004018A36A1F46DE172E0CE0101960E94D1
:103DF000A312CE0101960E945412CE0101960E9498
:103E0000AB110E94E10F8823E1F380930501811437
:103E1000910409F4BFCC0E940501882309F4B4CCB5
:103E20000E940000B1CC8436A1F661E072E0CE01C0
:103E300001960E94A312CE0101960E945412CE0157
:103E400001960E94AB1169E072E0CE0101960E94DA
:103E5000A312CE0101960E948811CE0101960E9404
:103E6000AB110E94E10F8F3609F04CC06CEF75E189
:103E700080910806909109060E948F1465E172E016
:103E8000CE0101960E94A312CE0101960E94541207
:103E9000CE0101960E94AB110E94401568EE73E0BE
:103EA00080E090E00E945C0280910903811117C0BC
:103EB00061ED71E0CE0101960E94A312CE01019640
:103EC0000E945412CE0101960E94AB1168EE73E07D
:103ED00080E090E00E945C028AE6809304011092E8
:103EE00008036BED71E0CE0101960E94A312CE0192
:103EF00001960E945412CE0101960E94AB1160916E
:103F0000F90237CF882309F4ACCF61E172E0CE012A
:103F100001960E94A312CE0101960E945412CE0176
:103F200001960E94AB11BACF88E096E00C94AB11D9
:103F3000E89409C097FB3EF4909580957095619543
:103F40007F4F8F4F9F4F9923A9F0F92F96E9BB27F9
:103F50009395F695879577956795B795F111F8CF75
:103F6000FAF4BB0F11F460FF1BC06F5F7F4F8F4FE0
:103F70009F4F16C0882311F096E911C0772321F0D6
:103F80009EE8872F762F05C0662371F096E8862F6E
:103F900070E060E02AF09A95660F771F881FDAF7C5
:103FA000880F9695879597F908950E94E81F0C94BD
:103FB00059200E944B2038F00E94522020F0952377
:103FC00011F00C9442200C94482011240C948D2064
:103FD0000E946A2070F3959FC1F3950F50E0551F22
:103FE000629FF001729FBB27F00DB11D639FAA274E
:103FF000F00DB11DAA1F649F6627B00DA11D661F9D
:10400000829F2227B00DA11D621F739FB00DA11DBD
:10401000621F839FA00D611D221F749F3327A00D77
:10402000611D231F849F600D211D822F762F6A2F13
:1040300011249F5750409AF0F1F088234AF0EE0F78
:10404000FF1FBB1F661F771F881F91505040A9F7A5
:104050009E3F510580F00C9442200C948D205F3FD0
:10406000E4F3983ED4F3869577956795B795F795E1
:10407000E7959F5FC1F7FE2B880F911D9695879559
:1040800097F9089597F99F6780E870E060E00895D8
:104090009FEF80EC089500240A9416161706180660
:1040A0000906089500240A9412161306140605063C
:1040B0000895092E0394000C11F4882352F0BB0FCD
:1040C00040F4BF2B11F460FF04C06F5F7F4F8F4F30
:1040D0009F4F089557FD9058440F551F59F05F3F6B
:1040E00071F04795880F97FB991F61F09F3F79F01A
:1040F00087950895121613061406551FF2CF46959C
:10410000F1DF08C0161617061806991FF1CF86951D
:104110007105610508940895E894BB276627772701
:10412000CB0197F908950E94D520A59F900DB49FCB
:10413000900DA49F800D911D112408952F923F9200
:104140004F925F926F927F928F929F92AF92BF92A7
:10415000CF92DF92EF92FF920F931F93CF93DF9353
:10416000CDB7DEB7CA1BDB0B0FB6F894DEBF0FBEB0
:10417000CDBF09942A88398848885F846E847D84FD
:104180008C849B84AA84B984C884DF80EE80FD80FF
:104190000C811B81AA81B981CE0FD11D0FB6F89475
:1041A000DEBF0FBECDBFED010895A29FB001B39F4A
:1041B000C001A39F700D811D1124911DB29F700D30
:1041C000811D1124911D08950E94722088F09F572F
:1041D00098F0B92F9927B751B0F0E1F0660F771F2B
:1041E000881F991F1AF0BA95C9F714C0B13091F021
:1041F0000E948C20B1E008950C948C20672F782FBA
:104200008827B85F39F0B93FCCF3869577956795E5
:10421000B395D9F73EF490958095709561957F4F51
:104220008F4F9F4F0895EE0FFF1F0590F491E02DE3
:1042300009940F931F93CF93DF938230910510F46D
:1042400082E090E0E0911006F091110630E020E06D
:10425000B0E0A0E0309799F42115310509F44AC087
:10426000281B390B24303105D8F58A819B816115D3
:10427000710589F1FB0193838283FE0111C04081A6
:1042800051810281138148175907E0F048175907F7
:1042900099F4109761F012960C93129713961C9351
:1042A0003296CF01DF91CF911F910F910895009326
:1042B000100610931106F4CF2115310551F0421765
:1042C000530738F0A901DB019A01BD01DF01F801B4
:1042D000C1CFEF01F9CF9093110680931006CDCF97
:1042E000FE01E20FF31F819391932250310939832C
:1042F0002883D7CF20910E0630910F06232B41F44F
:10430000209108013091090130930F0620930E0689
:1043100020910601309107012115310541F42DB797
:104320003EB740910A0150910B01241B350BE091DF
:104330000E06F0910F06E217F307A0F42E1B3F0BB9
:104340002817390778F0AC014E5F5F4F2417350707
:1043500048F04E0F5F1F50930F0640930E06819357
:1043600091939FCFF0E0E0E09CCFCF93DF93009755
:10437000E9F0FC01329713821282A0911006B091ED
:104380001106ED0130E020E01097A1F42081318189
:10439000820F931F20910E0630910F0628173907C0
:1043A00009F061C0F0930F06E0930E06DF91CF9104
:1043B0000895EA01CE17DF07E8F54A815B819E0187
:1043C00041155105B1F7E901FB83EA834991599100
:1043D000C40FD51FEC17FD0761F48081918102960F
:1043E000840F951FE90199838883828193819B8340
:1043F0008A83F0E0E0E012968D919C9113970097EC
:10440000B9F52D913C911197CD010296820F931F22
:1044100020910E0630910F062817390739F630978C
:1044200051F51092110610921006B0930F06A0934A
:104430000E06BCCFD383C28340815181840F951F68
:10444000C817D90761F44E5F5F4F88819981480F83
:10445000591F518340838A819B81938382832115D5
:10446000310509F0B0CFF0931106E09310069ECF0E
:10447000FD01DC01C0CF13821282D7CFB0E0A0E0F3
:10448000E4E4F2E20C94A0208C01009751F4CB01FB
:104490000E9419218C01C801CDB7DEB7E0E10C9470
:1044A000BC20FC01E60FF71F9C0122503109E217E6
:1044B000F30708F49DC0D901CD91DC911197C6177F
:1044C000D70798F0C530D10530F3CE010497861791
:1044D000970708F3C61BD70B2297C193D1936D930F
:1044E0007C93CF010E94B521D6CF5B01AC1ABD0AE7
:1044F0004C018C0E9D1EA0911006B0911106512CFE
:10450000412CF12CE12C109731F580910E06909101
:104510000F068815990509F05CC04616570608F085
:1045200058C08091060190910701009741F48DB722
:104530009EB740910A0150910B01841B950BE8171F
:10454000F90708F055C0F0930F06E0930E06F90145
:1045500071836083A0CF8D919C91119712966C907E
:10456000129713967C901397A815B90559F56C010D
:1045700042E0C40ED11CCA14DB0420F1AC014A197C
:104580005B09DA011296159780F06282738251837B
:104590004083D9016D937C93E114F10471F0D7014C
:1045A0001396FC93EE93129776CF22968C0F9D1F55
:1045B000F90191838083F301EFCFF0931106E0932B
:1045C000100669CF4816590608F42C017D01D30165
:1045D0009ACFCB010E9419217C01009749F0AE01CE
:1045E000B8010E940D23C8010E94B521870153CF55
:1045F00010E000E050CF81E090E0F8940C94372375
:10460000FB01DC0104C08D910190801921F441501F
:104610005040C8F7881B990B0895FB01DC0102C0CC
:1046200001900D9241505040D8F70895FC018191BE
:10463000861721F08823D9F7992708953197CF015C
:104640000895FB01DC0101900D920020E1F708952F
:10465000FB01DC014150504048F001900D920020D8
:10466000C9F701C01D9241505040E0F7089510E095
:10467000C5E6D0E004C0FE010E9413212196C63693
:10468000D107C9F7F894FFCFFFFFFFFF6A69000069
:1046900012068000000040001400540010000000CA
:1046A000010001001027723C703E73646D6FF501CC
:1046B0000000F8004E010A024E002601AD01000084
:1046C0000000970D7A0D6A0D410D4A0DCD0ED70EE3
:1046D000000000003B019200C8008801F900D700EB
:1046E000EB000000000057032A032A1000032303F5
:1046F0001003010300000000D30C9200CD0A291022
:1047000000000000931192002A1029102E574156E4
:10471000002F005374617274696E670057656C6393
:104720006F6D65004572726F72002E776176005270
:1047300065636F7264696E670052494646202020A7
:104740002057415645666D742000646174612020D5
:104750002020005361766564004E6F2054726163BF
:104760006B7300526561647920746F20506C6179BD
:10477000004E6F7720506C6179696E6700456E64FA
:10478000206F6620706C61790044656C6574653FCC
:10479000004F4B2045786974004E6F742044656C5F
:1047A0006574656400566F696365205265636F7256
:0447B00064657200CA
:107E0000112484B714BE81FFF0D085E080938100F7
:107E100082E08093C00088E18093C10086E0809377
:107E2000C20080E18093C4008EE0C9D0259A86E02C
:107E300020E33CEF91E0309385002093840096BBD3
:107E4000B09BFECF1D9AA8958150A9F7CC24DD24C4
:107E500088248394B5E0AB2EA1E19A2EF3E0BF2EE7
:107E6000A2D0813461F49FD0082FAFD0023811F036
:107E7000013811F484E001C083E08DD089C08234E0
:107E800011F484E103C0853419F485E0A6D080C0E4
:107E9000853579F488D0E82EFF2485D0082F10E0AE
:107EA000102F00270E291F29000F111F8ED06801E7
:107EB0006FC0863521F484E090D080E0DECF843638
:107EC00009F040C070D06FD0082F6DD080E0C81688
:107ED00080E7D80618F4F601B7BEE895C0E0D1E017
:107EE00062D089930C17E1F7F0E0CF16F0E7DF06D8
:107EF00018F0F601B7BEE89568D007B600FCFDCFD4
:107F0000A601A0E0B1E02C9130E011968C91119780
:107F100090E0982F8827822B932B1296FA010C0160
:107F200087BEE89511244E5F5F4FF1E0A038BF0790
:107F300051F7F601A7BEE89507B600FCFDCF97BE46
:107F4000E89526C08437B1F42ED02DD0F82E2BD052
:107F50003CD0F601EF2C8F010F5F1F4F84911BD097
:107F6000EA94F801C1F70894C11CD11CFA94CF0C13
:107F7000D11C0EC0853739F428D08EE10CD085E9AC
:107F80000AD08FE07ACF813511F488E018D01DD067
:107F900080E101D065CF982F8091C00085FFFCCF94
:107FA0009093C60008958091C00087FFFCCF809118
:107FB000C00084FD01C0A8958091C6000895E0E648
:107FC000F0E098E1908380830895EDDF803219F02E
:107FD00088E0F5DFFFCF84E1DECF1F93182FE3DFCA
:107FE0001150E9F7F2DF1F91089580E0E8DFEE27F6
:047FF000FF270994CA
:027FFE00040479
:00000001FF
