:020000040000FA
:100000000C946A000C9492000C9492000C94920050
:100010000C9492000C9492000C9492000C94920018
:100020000C9492000C9492000C9492000C94920008
:100030000C9492000C9492000C9492000C949200F8
:100040000C949B1B0C9492000C94691B0C94431B06
:100050000C9492000C9492000C9492000C949200D8
:100060000C94E51B0C9492007C3C3E5E2B3D3F2F94
:100070005B5D3B2C2A225C0000000000250028006C
:100080002B000000000023002600290000000008CB
:10009000000201000003040700000000000000004F
:1000A00000000000240027002A000102040810209C
:1000B00040800102040810200102040810200404FA
:1000C0000404040404040202020202020303030300
:1000D0000303041D11241FBECFEFD8E0DEBFCDBF48
:1000E00027E0ACEAB2E001C01D92A432B207E1F70A
:1000F00012E0A0E0B1E0ECE7FCE402C005900D9254
:10010000AC3AB107D9F710E0CAE6D0E004C02197B5
:10011000FE010E940F24C936D107C9F70E94111EA3
:100120000C943C260C94000096E0899FD001112489
:10013000A558B94F90967C936E935F9791E09196F6
:100140009C939197E091E806F091E9069091E7067B
:10015000992339F0309751F0811108C080919706AA
:100160000994309719F05C968C91FACF0895089510
:1001700008950895AF92BF92CF92DF92EF92FF92CF
:100180000F931F93CF93DF936C017B018B01040FBF
:10019000151FEB015E01AE18BF08C017D10759F05B
:1001A0006991D601ED91FC910190F081E02DC6019D
:1001B0000995892B79F7C501DF91CF911F910F9197
:1001C000FF90EF90DF90CF90BF90AF900895FC012B
:1001D00044815581608171818FE696E00C94BA006C
:1001E000FC01538D448D252F30E0842F90E0821B3D
:1001F000930B541710F0CF96089501970895FC01C2
:10020000918D828D981761F0A28DAE0FBF2FB11D19
:100210005D968C91928D9F5F9F73928F90E0089571
:100220008FEF9FEF0895FC01918D828D981731F02B
:10023000828DE80FF11D858D90E008958FEF9FEF7F
:100240000895FC01918D228D892F90E0805C9F4F55
:10025000821B91098F73992708958BE795E00E947F
:10026000210121E0892B09F420E0822F089580E00C
:1002700090E0892B29F00E942D0181110C9400003F
:100280000895FC01A48DA80FB92FB11DA35ABF4F2B
:100290002C91848D90E001968F739927848FA68985
:1002A000B7892C93A089B1898C91837080648C93D9
:1002B000938D848D981306C00288F389E02D808188
:1002C0008F7D80830895EF92FF920F931F93CF93BA
:1002D000DF93EC0181E0888F9B8D8C8D98131AC081
:1002E000E889F989808185FF15C09FB7F894EE8968
:1002F000FF896083E889F9898081837080648083C5
:100300009FBF81E090E0DF91CF911F910F91FF900F
:10031000EF900895F62E0B8D10E00F5F1F4F0F73B7
:100320001127E02E8C8D8E110CC00FB607FCFACF72
:10033000E889F989808185FFF5CFCE010E944101CE
:10034000F1CFEB8DEC0FFD2FF11DE35AFF4FF08243
:100350009FB7F8940B8FEA89FB8980818062CFCFA9
:10036000CF93DF93EC01888D8823B9F0AA89BB89EC
:10037000E889F9898C9185FD03C0808186FD0DC0D7
:100380000FB607FCF7CF8C9185FFF2CF808185FFF8
:10039000EDCFCE010E944101E9CFDF91CF910895C9
:1003A000833081F028F4813099F08230A9F00895EB
:1003B0008730A9F08830C9F08430B1F48091800092
:1003C0008F7D03C0809180008F7780938000089597
:1003D00084B58F7784BD089584B58F7DFBCF8091E0
:1003E000B0008F778093B00008958091B0008F7D2A
:1003F000F9CFCF93DF93282F30E0F901E457FF4F77
:100400008491F901E655FF4FD491F901E254FF4F71
:10041000C491CC23A1F081110E94D001EC2FF0E017
:10042000EE0FFF1FEE57FF4FA591B491EC91ED2316
:1004300081E090E009F480E0DF91CF91089580E0C1
:1004400090E0FACF862F0C94F9011F93CF93DF939E
:10045000282F30E0F901E457FF4F8491F901E65568
:10046000FF4FD491F901E254FF4FC491CC23A9F07E
:10047000162F81110E94D001EC2FF0E0EE0FFF1F2C
:10048000E858FF4FA591B4918FB7F894EC911111F2
:1004900008C0D095DE23DC938FBFDF91CF911F91F1
:1004A0000895DE2BF8CF862F642F0C942502CF936E
:1004B000DF9390E0FC01E655FF4F249182549F4F5B
:1004C000FC0184918823C9F090E0880F991FFC01FA
:1004D000E056FF4FA591B491FC01E858FF4FC5913C
:1004E000D49161110DC09FB7F8948C91209582230F
:1004F0008C938881282328839FBFDF91CF91089513
:10050000623051F49FB7F8943C91822F80958323F9
:100510008C93E8812E2BEFCF8FB7F894EC912E2B94
:100520002C938FBFEACF862F642F0C9457023FB7CE
:10053000F89480916A0390916B03A0916C03B09141
:100540006D0326B5A89B05C02F3F19F00196A11D8C
:10055000B11D3FBFBA2FA92F982F8827BC01CD010D
:10056000620F711D811D911D42E0660F771F881F6C
:10057000991F4A95D1F708958F929F92AF92BF929B
:10058000CF92DF92EF92FF924B015C010E949702A3
:100590006B017C010E9497026C197D098E099F09ED
:1005A000683E734081059105A8F321E0821A910805
:1005B000A108B10888EEC80E83E0D81EE11CF11C2A
:1005C00081149104A104B10429F7FF90EF90DF900A
:1005D000CF90BF90AF909F908F9008952FB7F894D1
:1005E000609166037091670380916803909169033D
:1005F0002FBF08950F931F93CF93DF93C82FD62F4C
:1006000086E0C89FF0011124E558F94F11A2878DAB
:1006100090A181309105F1F058F082309105F1F10F
:10062000039709F440C0DF91CF911F910F91089576
:100630006623C9F361E070E08C2F0E9494000E9451
:10064000EE026093D3067093D4068093D506909300
:10065000D606E9CF0E94EE020091D3061091D4068F
:100660002091D5063091D606AB01BC01401B510B41
:10067000620B730B8091E5069091E606B0E0A0E076
:1006800084179507A607B70748F462E070E08C2F3F
:10069000DF91CF911F910F910C94940063E070E073
:1006A000D111C1CFF4CF70E060E0F1CF6F927F92B3
:1006B0008F929F92AF92BF92CF92DF92EF92FF9272
:1006C0000F931F93CF93DF9381E08093E7060E94FF
:1006D000EE020091D7061091D8062091D9063091EC
:1006E000DA06AB01BC01401B510B620B730B80910E
:1006F000E3069091E406B0E0A0E084179507A60712
:10070000B70708F014C1C0E08091E106C81760F493
:10071000E091DD06F091DE06EC0FF11D62E08081D4
:100720000E945702CF5FF0CF712C812C912C540185
:1007300083948091E206781608F05FC0072D10E0E0
:10074000E091DF06F091E006E00FF11F61E08081AB
:100750000E945702E091DF06F091E006E00FF11FE2
:1007600060E080810E942502D501C401072C04C0ED
:10077000880F991FAA1FBB1F0A94D2F76C017C0136
:10078000E094F094612C8091E1066816F8F4C62D8F
:10079000D0E0E091DD06F091DE06EC0FFD1F8081D8
:1007A0000E94F9012496CC0FDD1FC558D94F892B23
:1007B00041F4888199818C299D2999838883639448
:1007C000E2CF888199818E219F21F7CFE091DF06CA
:1007D000F091E006E00FF11F61E080810E942502A8
:1007E0008091DF069091E006080F191F60E0F80184
:1007F00080810E94570273949CCFCBE7D6E0FE0124
:100800008FEF9FEF278D30A1232B21F4148E968F2D
:10081000858F11A2369626E0E73BF20799F7F12C77
:1008200096E0D92E8091E106F81608F050C0E12C30
:100830000F2D10E0000F111F0D57194F2091E206E8
:10084000E21608F042C0F801608171810E2C02C0EE
:10085000769567950A94E2F7F29E900111242E0D89
:10086000311DEBE7F6E080E0458D568D2417350706
:1008700009F461C08F5F36968A30B1F760FF23C0FC
:10088000EBE7F6E090E080E0448D411117C0E09185
:10089000DB06F091DC06E20FF31F4081D89EF001E9
:1008A000D99EF00D1124E558F94F448F368F258FCE
:1008B00010A2178E61E00E94FA0205C001963696DA
:1008C0008A30910509F7E394B9CFF394ABCF10E0E8
:1008D00089A18111182F2696F6E0C73BDF07C1F7E3
:1008E0000E94EE026093D7067093D8068093D906D3
:1008F0009093DA061123D9F080919C068823B9F0F1
:1009000080919A0690919B06019789F480919706B1
:10091000DF91CF911F910F91FF90EF90DF90CF90DB
:10092000BF90AF909F908F907F906F90089510929E
:10093000E70680E0EDCF6170BECF2091F402260F74
:100940003327331F21323105ECF420913D03FC01A4
:1009500090E080E0243069F082E00895A091F402F4
:100960002191AC014C525D4FA40FB52FB11D2C93BA
:100970000196861798F38091F402680F6093F40251
:1009800080E0089581E0089510923D0381E0809316
:100990003C031092170361E082E10E94250261E0AE
:1009A00083E10E942502E9EBF0E080818E7F808365
:1009B00080818D7F808388E48093B80085E4809374
:1009C000BC000895CF93DF9391E09093D3028823E6
:1009D000B9F0C091B800D091BA008091BC008A7B78
:1009E0008093BC0060E082E10E94250260E083E128
:1009F0000E9425020E94C404D093BA00C093B8009C
:100A0000DF91CF9108950895E0917503809174036B
:100A1000E81730F4F0E0ED54FD4F808190E0089548
:100A20008FEF9FEF089590917503809174032FEFDE
:100A30003FEF981748F4E92FF0E0ED54FD4F208187
:100A400030E09F5F90937503C9010895809174030E
:100A500090917503891B990B0895CF92DF92EF92C5
:100A6000FF920F931F93CF93DF937C01CB018A01F9
:100A700020914303222389F0EB016B01C40ED51EA4
:100A8000CC15DD0569F06991D701ED91FC910190DC
:100A9000F081E02DC7010995F3CF642F0E949D04DA
:100AA000C801DF91CF911F910F91FF90EF90DF90E0
:100AB000CF900895CF93DF931F92CDB7DEB76983B0
:100AC000209143032223F9F020917203203258F041
:100AD00021E030E0FC013383228390E080E00F903E
:100AE000DF91CF91089580917303E82FF0E0EC5BE4
:100AF000FC4F998190838F5F80937303809372037F
:100B000081E090E0ECCF61E0CE0101960E949D046F
:100B1000F7CFCF92DF92EF92FF920F931F93CF9375
:100B2000DF93FC01C48121E020934303C09364035D
:100B300010927303109272038385682B88E196E00C
:100B40000E945A05D0917203D13208F092C00E94DF
:100B500097026B017C0180913D03811165C082E0A9
:100B600080933D0381E080933C038FEF80933B03B0
:100B700010923A03D0933903A4E4B3E0E9E1F3E03F
:100B800080E0D81385C01092180380911803CC0F11
:100B9000C82BC093180380911703813009F07CC0E3
:100BA000109217030E9497026B017C018091180339
:100BB0008093BB0080913F0390914003A09141033B
:100BC000B0914203892B8A2B8B2B99F00E949702BC
:100BD00000913F0310914003209141033091420363
:100BE0006C197D098E099F09061717072807390711
:100BF000E0F18091BC0083FDD9CF85EC8093BC00EF
:100C00000E9497026B017C0180913D03823009F4C0
:100C100045C080913B038F3F61F180913B0380325F
:100C200041F180913B0325C080913F0390914003A7
:100C3000A0914103B0914203892B8A2B8B2B09F49D
:100C40008ACF0E94970200913F03109140032091A8
:100C50004103309142036C197D098E099F090617E3
:100C600017072807390708F076CF80913E030E94C6
:100C7000E204109273031092720310924303DF9107
:100C8000CF911F910F91FF90EF90DF90CF9008953B
:100C90009D9191938F5F75CF85EEB0CF80913F038B
:100CA00090914003A0914103B0914203892B8A2B7C
:100CB0008B2B09F4A9CF0E94970200913F0310915A
:100CC000400320914103309142036C197D098E0944
:100CD0009F09061717072807390708F095CFC5CFD2
:100CE0008FB7F8948091AD028FBF089561E0FC0149
:100CF00084810E9425028091AC0281111092AC0285
:100D000008958EBD00000DB407FEFDCF8EB5089589
:100D10008FEF0C9481060F931F93CF93DF93EC0119
:100D20000E94EE028B010E9488068F3F69F00E94AC
:100D3000EE02601B710B6C177D07A8F380E0DF915A
:100D4000CF911F910F91089581E0F9CF8CBD9DBD8A
:100D50000895CF93DF93EC018091AC02811109C01B
:100D600081E08093AC0280912406909125060E9438
:100D7000A60660E08C81DF91CF910C9425028F92C2
:100D80009F92AF92BF92FF920F931F93CF93DF93E7
:100D9000EC01F62E49015A018E81882389F08F815A
:100DA00098859C012F5F3F4F38872F838230924078
:100DB00018F40E948806F3CFCE010E9476061E82A8
:100DC000CE010E94A9068CE291E00E948B068F2D35
:100DD00080640E94810608E110E0D501C401002E64
:100DE00004C0B695A795979587950A94D2F70E9467
:100DF000810608501109083F8FEF180771F785E940
:100E0000FF2021F028E087E8F2128FEF0E94810690
:100E100010E00E9488068A8787FF04C01F3F11F0F8
:100E20001F5FF7CFDF91CF911F910F91FF90BF9080
:100E3000AF909F908F900895AF92BF92CF92DF9224
:100E4000EF92FF920F931F93CF93DF93EC01690111
:100E5000C801820F931F8130924050F58E81882304
:100E600079F088819981AA81BB8184179507A607AB
:100E7000B70731F48F819885C816D90608F042C0AB
:100E8000488359836A837B838B85833039F089E07B
:100E9000440F551F661F771F8A95D1F79A01AB0142
:100EA00061E1CE010E94BF06882389F083E08D8333
:100EB000CE010E94760680E0DF91CF911F910F91C5
:100EC000FF90EF90DF90CF90BF90AF9008950E9479
:100ED000EE025B010E9488068A878F3F69F40E94B8
:100EE000EE026A197B096D327140A0F38FE08D83A9
:100EF000CE010E947606DCCF8E3F89F418861F82D1
:100F000081E08E838F8198858C159D0550F40E9419
:100F100088068F819885019698878F83F3CF8DE01F
:100F2000E6CF6701E00EF11E0E948806F60181936C
:100F30006F01EE15FF05C1F78F819885080F191F06
:100F400018870F838985882319F001151240A0F0B6
:100F50008E81882389F08F8198859C012F5F3F4F78
:100F600038872F838230924018F40E948806F3CF8E
:100F7000CE010E9476061E8281E09ECFCF92DF9244
:100F8000EF92FF920F93CF93DF93EC01690182E11F
:100F9000411551056105710599F08B85833039F054
:100FA00089E0440F551F661F771F8A95D1F79A0174
:100FB000AB0168E1CE010E94BF06882319F084E0EE
:100FC0008D832DC08EEF0E94810676018EEFD81A98
:100FD000F70181917F010E948106EC14FD04C1F7A5
:100FE0008FEF0E9481068FEF0E9481060E94880683
:100FF0008A878F71853071F4011116C0CE010E946D
:10100000760681E0DF91CF910F91FF90EF90DF9016
:10101000CF90089581E18D83CE010E947606CE01A6
:101020000E94760680E0EECF88E592E00E948B0673
:10103000811102C085E1C4CF20E030E0A9016DE05C
:10104000CE010E94BF06882311F084E1B9CF0E942F
:1010500088068111FACFD2CF0F934091AF02509101
:10106000B0026091B1027091B20241155105610563
:10107000710599F0082F2BE733E080917903909167
:101080007A030E94BE07882349F01092AF021092A3
:10109000B0021092B1021092B20281E00F91089555
:1010A0000F93CF93C82F8091AE02811105C0C1E08C
:1010B0008C2FCF910F910895409100015091010123
:1010C00060910201709103010C2F2BE733E08091B6
:1010D000790390917A030E94BE07811102C0C0E09B
:1010E000E7CFCC2321F381E00E942C088823B9F3B9
:1010F0001092AE02DDCF8F929F92AF92BF92EF928D
:10110000FF920F931F93CF934B015C01C42F8091EB
:10111000000190910101A0910201B0910301881595
:101120009905AA05BB0551F181E00E945008811183
:101130000BC080E0CF911F910F91FF90EF90BF9077
:10114000AF909F908F9008958BE7E82E83E0F82E64
:1011500000E012E030E020E0B501A40180917903C5
:1011600090917A030E941C07882319F38092000152
:1011700090920101A0920201B09203014091AE024F
:101180004C2B4093AE0281E0D5CFCF93DF93EC019F
:101190006E857F858889998941E00E947B08882334
:1011A00051F08A8920E2829FC001112485589C4F0A
:1011B000DF91CF91089590E080E0FACF8F929F92D7
:1011C000AF92BF92CF92DF92EF92FF92CF9326E23F
:1011D00036E030937A0320937903882309F46DC0B5
:1011E00040E060E070E0CB010E947B0881110BC001
:1011F00080E0CF91FF90EF90DF90CF90BF90AF90C5
:101200009F908F900895809139058F7789F780910D
:10121000450590914605A0914705B0914805843653
:101220009105A105B10520F3C0904105D09042057C
:10123000E0904305F0904405C114D104E104F104A9
:10124000B9F240E0C701B6010E947B08882381F211
:1012500080918603909187038115924049F6A09171
:101260008B03AA2329F26091890370918A03611587
:10127000710509F4BDCF20918803222309F4B8CF6A
:10128000A09344062093360690E080E030E0E1E051
:10129000F0E0C82FAF01082E02C0440F551F0A947A
:1012A000E2F72417350769F041E0480F01968930CD
:1012B000910579F740933F069BCFC12CD12C760145
:1012C000C0CF80933F06209191033091920350E06C
:1012D00040E02115310541F420919F033091A00396
:1012E0004091A1035091A203209337063093380612
:1012F0004093390650933A0646015701860E971ED1
:10130000A11CB11C8092450690924606A092470609
:10131000B0924806E0918C03F0918D03F0934B0658
:10132000E0934A06B0E00E949C23DC01CB01880DCB
:10133000991DAA1DBB1D80934C0690934D06A0934A
:101340004E06B0934F0625E0EE0FFF1F2A95E1F7FA
:10135000E150FE4FEF2FFF27E6958E0F9F1FA11D37
:10136000B11D8093400690934106A0934206B0932E
:10137000430680908E0390908F03B12CA12C811492
:10138000910441F480909B0390909C03A0909D0356
:10139000B0909E03C81AD90AEA0AFB0AC80CD91CE5
:1013A000EA1CFB1C04C0F694E794D794C794CA9532
:1013B000D2F7C0923B06D0923C06E0923D06F092F6
:1013C0003E0685EFC8168FE0D806E104F10428F444
:1013D0008CE08093490681E00CCF80E125EFC216B6
:1013E0002FEFD206E104F104A0F38091A7039091BE
:1013F000A803A091A903B091AA0380934C069093EF
:101400004D06A0934E06B0934F0680E2E2CF4F9276
:101410005F926F927F928F929F92AF92BF92CF9284
:10142000DF92EF92FF920F931F93CF93DF93EC0124
:10143000423051056105710590F480E0DF91CF9154
:101440001F910F91FF90EF90DF90CF90BF90AF90E2
:101450009F908F907F906F905F904F9008958985B7
:101460009A85AB85BC850196A11DB11D8417950792
:10147000A607B70710F3CB88DC88ED88FE888F8934
:10148000803109F042C0BB27A72F962F852F480136
:1014900059012A013B01C80ED91EEA1EFB1E80918C
:1014A000000190910101A0910201B0910301C816C1
:1014B000D906EA06FB0699F58F898031C1F5B3019B
:1014C000A201552766277727440F551F45585C4FC3
:1014D000FA01918280828091AE0281608093AE0297
:1014E0008A89823080F08D819E81AF81B8858C0D94
:1014F0009D1DAE1DBF1D8093AF029093B002A093BF
:10150000B102B093B20281E099CFDB01CA01E7E0FA
:10151000B695A79597958795EA95D1F7B8CF40E00E
:10152000C701B6010E947B088111C6CF86CFB301E7
:10153000A2014F77552766277727440F551F440F81
:10154000551F45585C4FFA0180829182A282B38276
:10155000C2CF8F929F92AF92BF92CF92DF92EF92C3
:10156000FF920F931F93CF93DF93FC0181859285A8
:10157000A385B4850196A11DB11D84179507A60703
:10158000B70770F480E0DF91CF911F910F91FF902A
:10159000EF90DF90CF90BF90AF909F908F90089585
:1015A00083889488A588B6888789803189F5BB2788
:1015B000A72F962F852FE9016A017B018F01BC01BE
:1015C000CD01680D791D8A1D9B1D809000019090B2
:1015D0000101A0900201B090030186169706A806AB
:1015E000B90601F5F8018789803111F5DD24EE2473
:1015F000FF24F601EE0FFF1FE558FC4F808191811B
:10160000B0E0A0E088839983AA83BB8381E0BBCF4D
:10161000DB01CA01C7E0B695A79597958795CA954E
:10162000D1F7C9CF40E00E947B088111DBCFAACF60
:10163000E894C7F8DD24EE24FF24F601EE0FFF1F27
:10164000EE0FFF1FE558FC4F80819181A281B3818D
:10165000BF70D8CF4F925F926F927F92AF92BF923E
:10166000CF92DF92EF92FF920F931F93CF93DF936E
:1016700000D000D0CDB7DEB78C0149835A836B838D
:101680007C835901C12CD12C7601412C82E0582E4B
:10169000612C712C49815A816B817C819E012F5F65
:1016A0003F4FC8010E94A90A882339F1F8018585B6
:1016B000A301920104C0220F331F441F551F8A95B6
:1016C000D2F7DA01C901C80ED91EEA1EFB1E4981F4
:1016D0005A816B817C818789803111F188EF9FEF7E
:1016E000AFEFBFE0481759076A077B0798F2F5018B
:1016F000C082D182E282F38281E00F900F900F903E
:101700000F90DF91CF911F910F91FF90EF90DF909D
:10171000CF90BF90AF907F906F905F904F90089563
:1017200088EF9FEFA0E0B0E0DDCFCF93DF93FC0127
:101730002581222321F080E0DF91CF910895EC01F3
:1017400080914906803159F582E08583178A108E91
:10175000118E128E80914A0690914B06B0E0A0E067
:1017600025E0880F991FAA1FBB1F2A95D1F7838BED
:10177000948BA58BB68B82E396E09C8F8B8F81E058
:101780008C831E821F82188619861A861B861C86E9
:101790001D861E861F86188A198A1A8ACDCF803226
:1017A00051F683E0858340914C0650914D0660913F
:1017B0004E0670914F06478B508F618F728F9F013D
:1017C0002D5E3F4F82E396E00E942A0B8111D3CF1A
:1017D000B2CF8F929F92AF92BF92CF92DF92EF9251
:1017E000FF920F931F93CF93DF93EC018D818111B3
:1017F0000EC080E0DF91CF911F910F91FF90EF908D
:10180000DF90CF90BF90AF909F908F9008950B89FD
:101810001C892D893E89041715072607370748F3C9
:101820004A015B01823031F48A869B86AC86BD8694
:1018300081E0E0CF81149104A104B10449F41E8237
:101840001F82188619861A861B861C861D86F0CF75
:101850000A851B852C853D85EB8DFC8D858590E06B
:101860000996B901A8014150510961097109082E71
:1018700004C076956795579547950A94D2F77501F8
:101880006401E1E0CE1AD108E108F10804C0F69441
:10189000E794D794C7948A95D2F7C416D506E6067E
:1018A000F70620F0012B022B032B11F58F89988D61
:1018B000A98DBA8D8E839F83A887B9878E010A5F11
:1018C0001F4FC114D104E104F10409F4ADCF4E81DE
:1018D0005F816885798598018B8D9C8D0E94A90A0E
:1018E00091E0C91AD108E108F1088111EACF81CF4E
:1018F000C41AD50AE60AF70AE1CF3F924F925F92E7
:101900006F927F928F929F92AF92BF92CF92DF920F
:10191000EF92FF920F931F93CF93DF93CDB7DEB774
:101920002C970FB6F894DEBF0FBECDBF5C01DC0173
:101930005B968D909C905C9716964D905D906D9007
:101940007C901997411451046104710409F468C032
:10195000BFEF4B1A5B0A6B0A7B0A312CF4018185BD
:101960009285A385B4859C01AD012F5F3F4F4F4FFA
:101970005F4F29873A874B875C87730162011D821D
:101980001E821F821886F40181859285A385B48505
:101990002D813E814F815885281739074A075B07FB
:1019A00008F056C089859A85AB85BC858C159D0548
:1019B000AE05BF0550F482E0C82ED12CE12CF12CED
:1019C00092E0492E512C612C712C9E012F5F3F4FCC
:1019D000B701A601C4010E94A90A8823C9F189811F
:1019E0009A81AB81BC81892B8A2B8B2B09F1260133
:1019F00037019FEF491A590A690A790A2D813E81F8
:101A00004F8158852F5F3F4F4F4F5F4F2D833E8350
:101A10004F8358873FEFC31AD30AE30AF30AB3CFC1
:101A2000F40140805180628073803324339496CFD8
:101A3000C414D504E604F70409F70FEF1FEF2FEFE6
:101A40003FE0B701A601C4010E94070A811119C035
:101A500080E02C960FB6F894DEBF0FBECDBFDF91AD
:101A6000CF911F910F91FF90EF90DF90CF90BF909B
:101A7000AF909F908F907F906F905F904F903F902E
:101A80000895D50116964D915D916D917C911997B0
:101A9000411551056105710539F097018601C401B1
:101AA0000E94070A8823A1F2D5011696CD92DD92F5
:101AB000ED92FC921997332051F0D701C60101969F
:101AC000A11DB11DF40180839183A283B383F5012D
:101AD0008789908DA18DB28D892B8A2B8B2B39F420
:101AE0008481C78AD08EE18EF28E80688483F5016E
:101AF00084818062848381E0ACCF2F923F924F92A9
:101B00005F926F927F928F929F92AF92BF92CF928D
:101B1000DF92EF92FF920F931F93CF93DF93EC012D
:101B20005B012A018D81811115C08FEF9FEFDF913D
:101B3000CF911F910F91FF90EF90DF90CF90BF90CA
:101B4000AF909F908F907F906F905F904F903F905D
:101B50002F9008958C8180FFE8CF0B891C892D89F7
:101B60003E894A855B856C857D85C201B0E0A0E039
:101B700068017901C41AD50AE60AF70AC816D90617
:101B8000EA06FB0618F42801441A550A42011E0110
:101B900026E0220E311C8114910409F4B3C04A8559
:101BA0005B856C857D856A0181E0D8228B8D9C8D5B
:101BB0008A019B01E9E03695279517950795EA95E7
:101BC000D1F7ED81E230E1F5FC01628D738D848DFA
:101BD000958D600F711F821F931F612C22E0722E62
:101BE0006C187D088614970408F434012C8126FDB6
:101BF00004C06114F2E07F0671F4009100011091BD
:101C000001012091020130910301061717072807EF
:101C1000390709F053C040E00E947B08882309F48B
:101C200084CFC60185589C4FD5019C01260D371DD8
:101C3000FC012E173F0709F460C041914D93F9CF85
:101C4000FC0174807A947022C114D10471F4711073
:101C50000CC0452B462B472B39F58F89988DA98DC4
:101C6000BA8D8E839F83A887B987EB8DFC8D6E819B
:101C70007F8188859985625071098109910925853F
:101C800004C0660F771F881F991F2A95D2F7068513
:101C9000178520893189600F711F821F931F670D7F
:101CA000711D811D911D99CF4E815F816885798558
:101CB00091010E94A90A8111D8CF37CF7501830104
:101CC0009601AB01BC018091790390917A030E9447
:101CD0001C07882309F429CFA60CB71C8A859B858D
:101CE000AC85BD85860D971DA11DB11D8A879B877B
:101CF000AC87BD87861897084ECF281B390BA20EDC
:101D0000B31EECCFC20113CF1F93CF93DF93FC011F
:101D10002581222371F1162FEC01848187FF1EC0DB
:101D2000CF010E94C508FC01892B19F18D818230F9
:101D300040F48B899C89AD89BE89848F958FA68F4D
:101D4000B78F8F89988D938F828F8F89988DA98D6A
:101D5000BA8DB58BA48B8C818F778C83111103C0C6
:101D60008C818F7E8C83812FDF91CF911F910C947A
:101D7000500880E0DF91CF911F910895FF920F935B
:101D80001F93CF93DF93EC018D81813041F090E080
:101D900080E0DF91CF911F910F91FF9008958C818A
:101DA00081FFF5CF82FD1BC00091790310917A036A
:101DB000C8010E94A9060E948806F82EC8010E9448
:101DC00076068FEFF812E3CF8C8185FF1BC060E0B1
:101DD000CE010E94840E8C818F7D8C83D8CF4B895D
:101DE0005C896D897E898A859B85AC85BD858417D4
:101DF0009507A607B707C1F2CE010E94E90B811132
:101E0000D3CFC5CF4091AF025091B0026091B102E3
:101E10007091B202452B462B472B21F080E00E94A7
:101E20002C08B5CF80618C832A853B85317080E09A
:101E300092E0821B930BADCFCF93DF93EC0161E077
:101E40000E94840E882311F01D8281E0DF91CF91E2
:101E500008952F923F924F925F926F927F928F924E
:101E60009F92AF92BF92CF92DF92EF92FF920F9329
:101E70001F93CF93DF9300D000D01F92CDB7DEB772
:101E80007C015B01342E5D83DC0115968C911597E6
:101E9000813009F0CEC014962C9021FECAC022FCDD
:101EA000B4C0C32CDD8022947FE027222094B22D81
:101EB000B1702B2ED7011A964D915D916D917C9149
:101EC0001D97C114D10409F428C15B968D919C9192
:101ED0005C97FC0174807A948A019B0169E03695D5
:101EE0002795179507956A95D1F770228A01117089
:101EF000711020C001151105E9F416964D915D9100
:101F00006D917C911997411551056105710509F095
:101F100099C057968D919D910D90BC91A02D0097E1
:101F2000A105B10509F0B0C0C7010E947D0C88234E
:101F300009F47FC080E092E0801B910B46018C1574
:101F40009D0508F44C01D7015B964D915C915C971F
:101F500016968D919D910D90BC91A02D0297A1098F
:101F6000B109FA01258504C0880F991FAA1FBB1F5C
:101F70002A95D2F74685578560897189840F951F08
:101F8000A61FB71F9C01AD01270D311D411D511D1D
:101F900029013A01811432E0930609F07BC0809157
:101FA000000190910101A0910201B09103018415FB
:101FB0009505A605B70559F48FEF9FEFDC018093D7
:101FC000000190930101A0930201B0930301022D3F
:101FD0009501B301A2018091790390917A030E9447
:101FE000BE07882331F19EEFB91AC818D908F70146
:101FF00082859385A485B585880D991DA11DB11D88
:1020000082879387A487B58755CFF7014389548981
:102010006589768982859385A485B5854817590792
:102020006A077B0709F43DCFC7010E94E90B8111C4
:1020300038CF81E090E0D70113969C938E9312974E
:1020400080E007C09E012F5F3F4F0E94A90A8111C7
:1020500002C090E079C089819A81AB81BC81F7018F
:10206000238D348DF901278948EF5FEF60E070E040
:10207000203121F048EF5FEF6FEF7FE08417950785
:10208000A607B70708F050CFF70186839783A0878C
:10209000B18750CF0115110599F5D7011A964D91C9
:1020A0005D916D917C911D9753968D919D910D90B1
:1020B000BC91A02D481759076A077B0708F181E0FA
:1020C0000E945008882309F4B4CF40920001509236
:1020D000010160920201709203018091AE02816061
:1020E0008093AE02C80185589C4FD5019C01280DF4
:1020F000391DFC012E173F0759F04D914193FACF3E
:1021000041E0C301B2010E947B088111EBCF91CF66
:10211000281B390BA20EB31E68CFF701838994895F
:10212000A589B68984179507A607B70738F484816F
:10213000438B548B658B768B80688483F701848115
:1021400083FD1AC0832D9D810F900F900F900F90EB
:102150000F90DF91CF911F910F91FF90EF90DF9043
:10216000CF90BF90AF909F908F907F906F905F9037
:102170004F903F902F90089561E0C7010E94840E18
:10218000882309F456CFDECFCF93DF931F92CDB7CC
:10219000DEB7698341E050E0BE016F5F7F4F0E9470
:1021A000290F0F90DF91CF910895FC01DB0112966A
:1021B0008D919C911397938382838EE491E0918318
:1021C000808314968C911497848315968C9115971F
:1021D000858316964D915D916D917C9119974683FB
:1021E0005783608771871A964D915D916D917C91AF
:1021F0001D9742875387648775871E964D915D9121
:102200006D917C91519746875787608B718B529661
:102210008C915297828B53964D915D916D917C91EB
:102220005697438B548B658B768B57964D915D916A
:102230006D917C915A97478B508F618F728F5B960F
:102240008D919C91948F838F0895DC015996ED9127
:10225000FC91309721F081E09581911101C080E0DF
:102260000895FC01818D928D009719F061E00C9426
:10227000840E0895DC015996ED91FC913097B9F0E8
:1022800083899489A589B689428553856485758536
:10229000841B950BA60BB70B811520E89207A105AF
:1022A000B10538F08FEF9FE7A0E0B0E0089590E02F
:1022B00080E00895DC0159968D919C91009739F04A
:1022C000DC01ED91FC910480F581E02D099490E012
:1022D00080E00895CF93DF93EC01E98DFA8D30977C
:1022E00049F481E090E09B838A8390E080E0DF9175
:1022F000CF91089513821282898D9A8D0E94290FA1
:10230000E98DFA8D22813381232B59F7F0CFCF93BA
:10231000DF931F92CDB7DEB76983DC01ED91FC91AD
:102320000280F381E02D41E050E0BE016F5F7F4FFE
:1023300009950F90DF91CF910895CF93DF931F926E
:10234000CDB7DEB741E050E0BE016F5F7F4F0E9426
:102350007D0D019731F4898190E00F90DF91CF914D
:1023600008958FEF9FEFF9CFFC01818D928D00973B
:1023700011F00C949D118FEF9FEF08950F931F9311
:10238000CF93DF93EC01898D9A8D10E000E00097E8
:1023900099F00E949D118C010F3F100769F0898D03
:1023A0009A8DFC014285538564857585415051099C
:1023B000610971090E94E90BC801DF91CF911F915A
:1023C0000F910895CF93DF93FB0122813381DC01CC
:1023D00013963C932E9312974481558166817781A1
:1023E00014964D935D936D937C931797408551851B
:1023F0006285738518964D935D936D937C931B97BF
:102400001C96EF012C969C01275E3F4F49914D93FE
:10241000A217B307D9F7218D328DFC01328F218F9E
:10242000DF91CF910895CF93DF93EC01FB0182817F
:1024300093819B838A8384819581A681B7818C83D4
:102440009D83AE83BF8380859185A285B385888770
:102450009987AA87BB8780E791E0998388838DE07D
:102460003C96DE011C9601900D928A95E1F7FB01E6
:10247000818D928D9A8F898FDF91CF91089590E011
:1024800080E008958F929F92AF92BF92CF92DF9299
:10249000EF92FF920F931F93CF93DF9300D000D062
:1024A000CDB7DEB7FC018581813091F080E00F90DF
:1024B0000F900F900F90DF91CF911F910F91FF9090
:1024C000EF90DF90CF90BF90AF909F908F90089546
:1024D000848181FFEBCF83899489A589B689892B73
:1024E0008A2B8B2B09F45FC07F0140E050E0BA01DA
:1024F000CF010E94E90B8823C9F2F701C38CD48C69
:102500008788908CA18CB28C82E090E0A0E0B0E053
:10251000F60180839183A283B3839E012F5F3F4F97
:10252000B501A401C6010E94A90A882309F4BECFFF
:1025300000E010E09801B501A401C6010E94070A5D
:10254000882309F4B3CF89809A80AB80BC80F601E0
:102550008789803119F188EF9FEFAFEFBFE08816D0
:102560009906AA06BB06C8F2F701178A108E118ECB
:10257000128E138A148A158A168A8481806884834D
:1025800061E0C7010E94840E882309F48FCF40E0E8
:1025900050E0BA01C7010E94E90B89CF88EF9FEF95
:1025A000A0E0B0E0DCCF81E082CFCF92DF92EF926B
:1025B000FF921F93CF93DF93EC0180E2689FF001BD
:1025C0001124E558FC4F9385917161F0842F82743A
:1025D00049F080E0DF91CF911F91FF90EF90DF9065
:1025E000CF900895142F6A8B809100019091010182
:1025F000A0910201B09103018E879F87A88BB98BB0
:10260000C488D588F12CE12C7601DD24CC24CF8A36
:10261000D88EE98EFA8E828D938DB0E0A0E0AC0169
:10262000BD014C295D296E297F294F8B588F698FF9
:102630007A8F83858871B1F4848D958DA68DB78D41
:102640008B8B9C8BAD8BBE8B81E08D831F701C832D
:102650001E821F82188619861A861B861C861D8676
:1026600081E0B8CF803109F0B4CF9E012D5E3F4F9D
:102670008B8D9C8D0E942A0B882309F4AACF84E0BD
:10268000E4CF0F931F93CF938C01C62F0E9489052F
:102690006C2F6460C8010E9489056C2F6B7FC80194
:1026A0000E94890583EC90E00197F1F7CF911F918B
:1026B0000F9108950F931F93CF93DF938C01D62F23
:1026C000C42F607F642B0E94411380E1D89FB0012A
:1026D00011246C2BC801DF91CF911F910F910C94A5
:1026E0004113CF93DF93CDB7DEB728970FB6F89499
:1026F000DEBF0FBECDBF98E0EEE1F1E0DE01119646
:1027000001900D929A95E1F790917806981708F448
:102710008FEF90E0880F991F21E030E02C0F3D1FD4
:10272000820F931FFC016081606840E08FE696E0B5
:1027300028960FB6F894DEBF0FBECDBFDF91CF91C4
:102740000C945A13CF93DF93EC0181E00E94711334
:10275000CE01DF91CF910C94E70040E061E08FE67D
:1027600096E00E945A138BE39FE10197F1F70895D9
:1027700041E00E945A1381E090E008958F929F9269
:10278000AF92BF920F931F93CF93DF93CDB7DEB776
:10279000A1970FB6F894DEBF0FBECDBF19A242308D
:1027A00008F44AE08E010F5D1F4F842E912CB12C4E
:1027B000A12CA50194010E94ED23E62FB901CA01C5
:1027C000EA3044F5E05DD801EE938D01232B242BF4
:1027D000252B79F790E080E0109769F0FD010190DA
:1027E0000020E9F73197AF014A1B5B0BBD018AEE70
:1027F00096E00E946A11A1960FB6F894DEBF0FBE54
:10280000CDBFDF91CF911F910F91BF90AF909F905F
:102810008F900895E95CD7CF0E94F7250F931F93FF
:10282000CF93DF93EC0188819981009759F02A8139
:102830003B812617370730F081E0DF91CF911F9160
:102840000F9108958B016F5F7F4F0E943A2500978B
:1028500059F0998388831B830A832C813D81232B24
:1028600059F7FC011082E8CF80E0E7CFEF92FF92AA
:102870000F931F93CF93DF936115710541F480E0AF
:10288000DF91CF911F910F91FF90EF900895411527
:102890005105B1F07B01EC010C811D81040F151F66
:1028A000B8010E940E14882351F3288139818C814C
:1028B0009D81B701820F931F0E9426261D830C83E2
:1028C00081E0DECFCF93DF93EC018881998100977F
:1028D00011F00E94B124198218821D821C821B8271
:1028E0001A82DF91CF910895EF92FF920F931F9379
:1028F000CF93DF93EC017B018A01BA010E940E1491
:1029000081110BC0CE010E946214CE01DF91CF91E4
:102910001F910F91FF90EF9008951D830C83B701D5
:10292000888199810E942626F0CFEF92FF920F9323
:102930001F93CF93DF93CDB7DEB762970FB6F894AE
:10294000DEBF0FBECDBF8C01CB01F801118210821A
:1029500013821282158214824AE09E012F5F3F4F3C
:102960007901B9010E946723F70101900020E9F77E
:102970003197AF014E195F09B701C8010E94741465
:1029800062960FB6F894DEBF0FBECDBFDF91CF9138
:102990001F910F91FF90EF900895CF93DF9300D098
:1029A000CDB7DEB7FC01118210821382128215822C
:1029B000148269831A82BE016F5F7F4FFB01019011
:1029C0000020E9F73197AF01461B570B0E947414A2
:1029D0000F900F90DF91CF910895FB01DC011196CC
:1029E0001C921E9213961C921E92129715961C9280
:1029F0001E9214978617970749F0608171816115BF
:102A0000710521F0448155810C9474140895FC01E2
:102A1000118210821382128215821482611571054F
:102A200051F0FB0101900020E9F73197AF01461BFF
:102A3000570B0C9474140895FC01808191810097C8
:102A400011F00C94B12408950F931F93CF93DF934B
:102A500000D000D000D0CDB7DEB78C010E94AD13FE
:102A6000B801CE0101960E94ED1480E00E9471131E
:102A7000CE0101960E94E700CE0101960E941C152E
:102A800026960FB6F894DEBF0FBECDBFDF91CF9173
:102A90001F910F910895EF92FF921F93CF93DF93B1
:102AA000CDB7DEB72C970FB6F894DEBF0FBECDBF03
:102AB0007C0169EC71E0CE0107960E9407150E9427
:102AC0005603182F8A3209F18823C9F3682FCE01E3
:102AD00001960E94CD14CE0101960E942415CE01CC
:102AE00001960E941C15612FCE0101960E94CD1403
:102AF0004D815E8169817A81CE0107960E943614EC
:102B0000CE0101960E941C15DACFBE01695F7F4F8E
:102B1000CE0101960E94ED1444E050E068E372E0BB
:102B2000CE0101960E943614811104C0CE01019697
:102B30000E946214BE016F5F7F4FC7010E94ED14B7
:102B4000CE0101960E941C15CE0107960E941C150D
:102B5000C7012C960FB6F894DEBF0FBECDBFDF9134
:102B6000CF911F91FF90EF900895CF93DF93EC01E9
:102B7000898D9A8D009741F00E941C0F898D9A8D46
:102B80000E94B1241A8E198EDF91CF91089585EDA0
:102B90008093BC0080913F0390914003A09141033A
:102BA000B09142030796A11DB11D23E0B695A795EC
:102BB000979587952A95D1F72091BC0024FD03C0F5
:102BC00010923D03089540913F035091400360915E
:102BD000410370914203452B462B472B69F3009725
:102BE000A105B10541F025E32A95F1F70000019711
:102BF000A109B109E1CF80913E030C94E2043F9218
:102C00004F925F926F927F928F929F92AF92BF92FC
:102C1000CF92DF92EF92FF920F931F93CF93DF93A8
:102C2000CDB7DEB72B970FB6F894DEBF0FBECDBF82
:102C30007C01DC0115968C91811115C0FE01319645
:102C4000CE010C966F0130E23193E817F907E1F7F6
:102C5000DA0130E087E09D91B92E992329F19E3267
:102C600039F48A3011F480E0DAC038E08AE0F3CF3A
:102C7000E8E6F0E04491442321F031969413FACF32
:102C8000F2CF831780F34FED490F4E3560F74FE9D0
:102C9000490F4A3118F440EEB42EB90EF601E30F95
:102CA000F11DB0823F5FD7CF89818032E1F2322EB1
:102CB0008B01FB01838D948DD7015C969C938E9341
:102CC0005B971682178210861186128613861486E9
:102CD0001586F80182859385A485B5854389548935
:102CE0006589768984179507A607B70708F04DC050
:102CF00025E0B695A795979587952A95D1F7F82F52
:102D0000FF70AF2ED80115968C91823008F4ABCFAE
:102D1000C8010E949D1197FDA6CFF8018285938579
:102D2000A485B5854F96A11DB11D82879387A48781
:102D3000B587F0E2AF9EB001112465587C4F611554
:102D4000710509F490CFDB018C91882341F0853E19
:102D500009F058C0BB2029F0BB24B394BACFB110FE
:102D60000EC0F701A28A8091000190910101A0910B
:102D70000201B091030186879787A08BB18BDB019D
:102D80008C918111E9CFBB24B394832D8271823160
:102D900009F069CFBB2009F45AC0C7010E94C508D9
:102DA000009709F460CF20E2FC0111922A95E9F71F
:102DB0002BE0F601DC0101900D922A95E1F721E26A
:102DC00038E2DC0151963C932E93509740E058E056
:102DD0001F965C934E931E9753963C932E93529757
:102DE00059963C932E93589757965C934E935697CB
:102DF00081E00E945008882309F435CF432DF70164
:102E000062890AC04BE050E0C6010E94FC25892B74
:102E100009F05FCF432D6A2DC7010E94D5122B9672
:102E20000FB6F894DEBF0FBECDBFDF91CF911F91DB
:102E30000F91FF90EF90DF90CF90BF90AF909F9059
:102E40008F907F906F905F904F903F900895F80122
:102E50008581823009F407CFC8010E947D0C882348
:102E600009F401CFD8015B96ED91FC915C97169621
:102E70008D909D90AD90BC901997B2E08B1A9108FF
:102E8000A108B108858504C0880C991CAA1CBB1C2C
:102E90008A95D2F786859785A089B189880E991E73
:102EA000AA1EBB1E848124013501480E511C611CE1
:102EB000711C84149504A604B70409F1E1E04E1ACC
:102EC00051086108710881E00E945008882309F4C4
:102ED000CACEEBE7F3E011928BE795E08E179F07E0
:102EE000D1F740920001509201016092020170926C
:102EF00003018091AE0281608093AE02DACFD801E7
:102F00005B96ED91FC91258580E092E0A0E0B0E039
:102F100004C0880F991FAA1FBB1F2A95D2F7F8017A
:102F20004389548965897689840F951FA61FB71F29
:102F3000838B948BA58BB68BD70152961C928BE713
:102F400093E031CF5F926F927F928F929F92AF9278
:102F5000BF92CF92DF92EF92FF920F931F93CF9386
:102F6000DF93CDB7DEB7C754D1090FB6F894DEBFF3
:102F70000FBECDBF5C013B0119A218A28EE491E007
:102F80009F8F8E8F1BA21C821B829A8389831E8235
:102F900010E000E06E018EE1C80ED11C80E5E82E45
:102FA00086E0F82EF501E00FF11F80818F3211F4D9
:102FB0000F5F1F4FD501A00FB11FFE01FB9690E0E0
:102FC00080E04F012D912F3249F0222339F00F5F1D
:102FD0001F4F019621938C309105A1F7880D991D03
:102FE000FC011082F501E00FF11F80818F3211F496
:102FF0000F5F1F4FF501E00FF11F508041E05110AE
:1030000040E030E020E0B401C701F30109958111EF
:1030100021C0F0E5EF16F6E0FF06C1F480E0C95BE1
:10302000DF4F0FB6F894DEBF0FBECDBFDF91CF915B
:103030001F910F91FF90EF90DF90CF90BF90AF90D6
:103040009F908F907F906F905F900895C7010E942E
:103050001C0FE4CF552091F021E0A401B701C60177
:103060000E94FF15982E80E5E81686E0F80681F0AC
:10307000C7010E941C0F911010C0D0CF90E5E91637
:1030800096E0F90619F0C7010E941C0F81E0C7CF36
:10309000992021F2FE0131967F019E2D8F2D760120
:1030A000C92ED82E7FCFEF92FF920F931F93CF930D
:1030B000DF93CDB7DEB72C970FB6F894DEBF0FBE07
:1030C000CDBF8C017B018FEFE81AF80AB701CE0162
:1030D00001960E949514BE016F5F7F4FCE01079647
:1030E0000E94ED1444E050E06EE771E0CE010796D7
:1030F0000E943614811104C0CE0107960E9462140A
:10310000BE01695F7F4FC8010E94ED14CE01079692
:103110000E941C15CE0101960E941C156DE179E1FB
:10312000F801808191810E94A217882319F1B701CB
:10313000CE0101960E945318F80180819181009779
:1031400049F169817A816115710511F142815381DB
:103150002D813E8142175307D8F00E9426268D818B
:103160009E81F801958384831E821D82CE01019683
:103170000E941C15C8012C960FB6F894DEBF0FBE36
:10318000CDBFDF91CF911F910F91FF90EF900895E8
:103190000E94B12489819A81F801918380838B8177
:1031A0009C81938382838D819E81958384831A82FF
:1031B00019821C821B82D8CFCF93DF93CDB7DEB7A5
:1031C0006D970FB6F894DEBF0FBECDBF442399F1C3
:1031D000AB01BC011C821B828EE491E09A8389833F
:1031E0001E8222E0CE0101960E94FF1581110EC0C1
:1031F00090E081E0911101C080E06D960FB6F894E7
:10320000DEBF0FBECDBFDF91CF910895CE010196F5
:103210000E944212882361F3CE0101960E94C508E4
:10322000009731F325EEFC0120831E8281E00E948D
:103230005008982FDECF81E0E0CF1F93CF93DF932C
:10324000CDB7DEB76D970FB6F894DEBF0FBECDBF1A
:10325000AB011C821B822EE431E03A8329831E825B
:1032600021E0BC01CE0101960E94FF1511E0811101
:103270000CC010E0812F6D960FB6F894DEBF0FBE24
:10328000CDBFDF91CF911F910895CE0101960E948D
:103290001C0FF0CFEF92FF920F931F93CF93DF930A
:1032A000EC017B018A011B821A8288EE93E0A0E088
:1032B000B0E08C839D83AE83BF8380E791E09983E8
:1032C00088838DE190E00E9415249A8F898F009762
:1032D00079F02DE1F701DC0101900D922A95E1F7DB
:1032E0004CE050E0B801CE010C960E942D26188EBD
:1032F000DF91CF911F910F91FF90EF9008952F9242
:103300003F924F925F926F927F928F929F92AF9275
:10331000BF92CF92DF92EF92FF920F931F93CF93C2
:10332000DF93CDB7DEB7C756D1090FB6F894DEBF2D
:103330000FBECDBF5C013B01A6964FAFA69719A269
:1033400018A28EE491E09F8F8E8F1BA21C821B829D
:103350009A8389831E824E018EE1880E911CC401DE
:103360000E94950B63018E010F5F1F4F240118010E
:103370006FE270E0C6010E941226009709F459C05E
:10338000F60120812F3271F4FFEFCF1ADF0A902F60
:10339000812F8201492E582E942D852D2801092F29
:1033A000182FE6CF8C198D3008F08CE0E82EF12C28
:1033B000A701B601CE01885A9F4F0E942D26E8E54D
:1033C000F0E0EC0FFD1FEE0DFF1D1082C8010E9402
:1033D0001C0F21E0AE01485A5F4FB201C8010E94A4
:1033E000FF15811120C01EAE1DAE8EE491E09CAF92
:1033F0008BAF21961FAE2197A896EEADFFADA89793
:103400006E0E7F1EF3018081811120C0BE01655CBC
:103410007F4FC1010E94D51043E851E0B101C501C1
:103420000E944A1931C0CE0CDF1CC2010E941C0F41
:10343000B3CFC60186199709A8969FAF8EAFA897FC
:10344000B201CE01CB960E94D510D6CF19A218A2F8
:103450008EE491E09F8F8E8F1BA221968FAD2197D6
:1034600081112DC0F5011382128288EE93E0A0E055
:10347000B0E084839583A683B78380E791E091834E
:103480008083128E118E1486C501C959DF4F0FB685
:10349000F894DEBF0FBECDBFDF91CF911F910F918A
:1034A000FF90EF90DF90CF90BF90AF909F908F9064
:1034B0007F906F905F904F903F902F900895A696C9
:1034C0002FADA697A301BE01655C7F4FC4010E948A
:1034D000FF15882339F2CE01CB960E941C0FA696C9
:1034E0008FADA6978670863039F449A95AA96BA981
:1034F0007CA9C4010E94E90BB401C1010E94D5104E
:10350000A3018CCFCF92DF92EF92FF920F931F9384
:10351000CF93DF93CDB7DEB7C756D1090FB6F89476
:10352000DEBF0FBECDBF8C017B01DB015996CD9074
:10353000DC90F6018581823008F49AC082859385FB
:10354000A485B5858F719927AA27BB27892B8A2B3C
:103550008B2B09F08DC040E250E0BE016F5F7F4FC2
:10356000C6010E947D0D803209F082C089818823C6
:1035700009F47EC0853E79F38E3269F38C8583FD34
:10358000EACF22961FAE1EAE22978EE491E09FAF47
:103590008EAF24961FAE2497BE016F5F7F4FE0E091
:1035A00080E02EE2DB019D91BD019032A1F08830D8
:1035B00049F44BE550E04C0F5D1F4E0F511DDA01F1
:1035C0002C93EF5F4BE550E04C0F5D1F4E0F511DEC
:1035D000DA019C93EF5F8F5F8B3021F78BE590E0F2
:1035E0008C0F9D1F8E0F911DFC011082D7015996E3
:1035F0006D917C9121E0AE01455A5F4FCE01CE9690
:103600000E94FF15882309F1BE01625C7F4FCE0145
:1036100081960E94D510AE01455A5F4FBE016F5D85
:103620007F4FC8010E944A19C801C959DF4F0FB620
:10363000F894DEBF0FBECDBFDF91CF911F910F91E8
:10364000FF90EF90DF90CF900895F80113821282DF
:1036500088EE93E0A0E0B0E084839583A683B783EF
:1036600080E791E091838083128E118E1486DCCFE7
:10367000D80113961C921E92129788EE93E0A0E058
:10368000B0E0F801E9CF1F920F920FB60F9211240C
:103690002F933F934F935F936F937F938F939F935A
:1036A000AF93BF93EF93FF938BE795E00E944101A7
:1036B000FF91EF91BF91AF919F918F917F916F910A
:1036C0005F914F913F912F910F900FBE0F901F90E0
:1036D00018951F920F920FB60F9211242F938F936C
:1036E0009F93EF93FF93E0918B05F0918C05808180
:1036F000E0919105F091920582FD1BC0908180912F
:1037000094058F5F8F7320919505821741F0E091AA
:103710009405F0E0E558FA4F958F80939405FF915A
:10372000EF919F918F912F910F900FBE0F901F904F
:1037300018958081F4CF1F920F920FB60F9211242B
:103740002F933F938F939F93AF93BF938091660383
:1037500090916703A0916803B0916903309165036C
:1037600023E0230F2D3758F50196A11DB11D20939D
:1037700065038093660390936703A0936803B093F7
:10378000690380916A0390916B03A0916C03B091DF
:103790006D030196A11DB11D80936A0390936B0385
:1037A000A0936C03B0936D03BF91AF919F918F91E4
:1037B0003F912F910F900FBE0F901F90189526E804
:1037C000230F0296A11DB11DD2CF1F920F920FB6EB
:1037D0000F9211242F933F934F935F936F937F9397
:1037E0008F939F93AF93BF93EF93FF938091B90013
:1037F000887F803609F44AC0F0F5883209F4A7C002
:1038000018F5803109F49BC0B8F4882309F4F9C095
:10381000883009F494C0FF91EF91BF91AF919F91CF
:103820008F917F916F915F914F913F912F910F9069
:103830000FBE0F901F901895883109F488C0803210
:1038400051F780933B0314C0803409F49DC040F4C9
:103850008033B9F38833F9F680933B0385ECB0C02D
:10386000803509F485C0883509F496C0883499F606
:103870000E94C715D0CF883909F48CC038F5883735
:1038800029F050F4883611F0803729F683E08093D0
:103890003D031092160357C0883809F47BC0803965
:1038A00019F0803809F0B7CF80911603803208F004
:1038B00071C0E091160381E08E0F80931603809112
:1038C000BB00F0E0EA50FD4F80833DC0803B39F003
:1038D000E0F4803A09F479C0883A09F09CCF84E09A
:1038E00080933D031092F5021092F402E091700370
:1038F000F091710309958091F40281110FC081E06C
:103900008093F4021092D40209C0803C09F4A6CF3F
:10391000883C09F4A3CF883B09F07DCFE091F50204
:1039200081E08E0F8093F502F0E0EC52FD4F808134
:103930008093BB009091F5028091F40229C08091A0
:1039400018038093BB0085EC8093BC0064CF9091FA
:103950003A0380913903981758F5E0913A0381E0D2
:103960008E0F80933A03F0E0E75EFC4F8081E9CF51
:10397000E0913A0381E08E0F80933A038091BB007F
:10398000F0E0E75EFC4F808390913A038091390329
:103990009817C8F285E8D8CFE0913A0381E08E0FFE
:1039A00080933A038091BB00F0E0E75EFC4F808398
:1039B00080913C0381115CCF81E08093170384EAFE
:1039C0008093BC0010923D0326CF85EC8093BC0011
:1039D00010923D0380911603803230F4E09116037B
:1039E000F0E0EA50FD4F10826091160370E0E09124
:1039F0006E03F0916F0386EF92E009951092160323
:103A00000ACF10923B0334CF10927E0510927D05B1
:103A100088EE93E0A0E0B0E080937F05909380056E
:103A2000A0938105B09382052AE231E030937C05B2
:103A300020937B0525EC30E03093880520938705A3
:103A400024EC30E030938A052093890520EC30E0A7
:103A500030938C0520938B0521EC30E030938E055C
:103A600020938D0522EC30E03093900520938F0554
:103A700026EC30E030939205209391051092940546
:103A800010929505109296051092970510921B06BC
:103A900010921A0680931C0690931D06A0931E0692
:103AA000B0931F062CE331E03093190620931806DB
:103AB00020E5209324061092250610922B061092E2
:103AC0002C0610922F061092310642E050E060E082
:103AD00070E040933206509333066093340670933F
:103AE00035061092490610925306109252062EE4A3
:103AF00031E03093510620935006109255061092F3
:103B00000807109207078093090790930A07A0936C
:103B10000B07B0930C0720E731E0309306072093A2
:103B2000050710921F0710921E071092110710929E
:103B3000ED061092EC068093EE069093EF06A093AC
:103B4000F006B093F1063093EB062093EA0610924C
:103B50000407109203071092F60610927D06109249
:103B60008106109280061092820686E691E090937C
:103B70007C0680937B06E7E9F6E0108214821382CC
:103B80001582369686E0E33DF807B9F788E091E0C4
:103B90009093DE068093DD0685E091E09093E00649
:103BA0008093DF0684E08093E10683E08093E20661
:103BB0008CE091E09093DC068093DB068AE090E055
:103BC0009093E4068093E30684EF91E09093E606F9
:103BD0008093E5061092E9061092E8061092D70647
:103BE0001092D8061092D9061092DA061092E706C3
:103BF00010927206109271068AE591E09093700619
:103C000080936F0680E28093730680E1809377064D
:103C100082E0809378061092790688E080937A0695
:103C20000895CF93DF93CDB7DEB7CD55D1090FB649
:103C3000F894DEBF0FBECDBF789484B5826084BD9A
:103C400084B5816084BD85B5826085BD85B58160A0
:103C500085BD80916E00816080936E00109281001E
:103C600080918100826080938100809181008160D9
:103C7000809381008091800081608093800080919A
:103C8000B10084608093B1008091B0008160809326
:103C9000B00080917A00846080937A0080917A00ED
:103CA000826080937A0080917A00816080937A00AC
:103CB00080917A00806880937A001092C1001092FF
:103CC00075031092740310927303109272030E9492
:103CD000C40487EB90E0909371038093700388EBAA
:103CE00090E090936F0380936E031092740680911E
:103CF0007806823018F098E09093740690917906D7
:103D0000992339F0813029F480917406846080937E
:103D1000740662E370E080E090E00E94BC02609173
:103D20007A068FE696E00E94890568EE73E080E0EF
:103D300090E00E94BC0260E38FE696E00E9441138F
:103D40000BE416E4C8010197F1F760E38FE696E013
:103D50000E944113C8010197F1F760E38FE696E0F6
:103D60000E94411383E592E00197F1F760E28FE64C
:103D700096E00E94411360917406606240E08FE615
:103D800096E00E945A1384E08093750640E06CE050
:103D90008FE696E00E945A130E94AD1382E0809352
:103DA000760640E066E08FE696E00E945A1340E017
:103DB00062E08FE696E00E945A138BE39FE1019741
:103DC000F1F765E871E0CE0101960E94071580E0E9
:103DD0000E947113CE0101960E94E700CE01019668
:103DE0000E941C1568EE73E080E090E00E94BC0227
:103DF00080915506882321F080E596E00E941C0FF3
:103E00001092310610922F0610922C0610922B065B
:103E100084E080932A060E94EE028B0161E080918B
:103E20002A060E94570261E080912A060E9425021C
:103E3000FFB6F89480917603811127C0E8ECF0E09A
:103E40008491E4EBF0E09491E82FF0E0EE0FFF1F97
:103E5000E056FF4FA591B491EC91E92321F461E084
:103E60008AE00E94250261E08AE00E9457028CB538
:103E700080618CBD8CB580648CBD61E08DE00E945A
:103E8000570261E08BE00E945702809176038F5FBA
:103E900080937603FFBE82E5809324061092250668
:103EA00080912406909125060E94A6065AE0F52EE0
:103EB0008FEF0E948106FA94F110FACF86E296E025
:103EC0000E94A90620E030E0A90160E086E296E0C9
:103ED0000E94BF06F82E8093300681E0F816E9F0C4
:103EE0000E94EE02601B710B613D774058F381E048
:103EF00080932B0686E296E00E94760661EA71E0E6
:103F0000CE0101960E940715CE0101960E9424154C
:103F1000CE0101960E941C15FFCF2AEA31E040E055
:103F200050E068E086E296E00E94BF0682FF2AC069
:103F3000F092310680913106C12CD12CE12C30E475
:103F4000F32E823019F0C12CD12C760120E030E024
:103F5000A90167E386E296E00E94BF06A7019601E9
:103F600069E286E296E00E94BF06809330068823CD
:103F7000D1F00E94EE02601B710B613D774030F37F
:103F800088E0B6CF44E0F42E0E9488068093300685
:103F9000FA94F110F9CF8A3A11F082E0A9CF82E0C9
:103FA00080933106C7CF809131068230D1F420E072
:103FB00030E0A9016AE386E296E00E94BF0688230A
:103FC00011F086E095CF0E948806807C803C19F431
:103FD00083E0809331060E9488060E9488060E9432
:103FE000880686E296E00E94760680E580932406A5
:103FF0001092250681E00E94DE08882309F452C150
:1040000080E596E00E94950B882309F477CF65E957
:1040100071E0CE0101960E940715CE0101960E9423
:10402000A213CE0101960E941C1568EE73E080E099
:1040300090E00E94BC0220E0E22E20E0F22E80E41C
:10404000C82E98E3D92E0E94560381118093040153
:1040500080910401813309F0BBC0C0927C00809143
:104060007A00806480937A0080917A0086FDFCCF8C
:1040700080917800A0907900BA2CA82E0091770347
:10408000109178030115110509F01BC141E063E8A7
:1040900071E0CE01C7960E947F19BE01695C7F4F17
:1040A000CE014C960E941312712C612CBE01645EED
:1040B0007F4FCE0101960E94821ACE0101960E9486
:1040C00025118111F6C0CE0101960E94B515CE01D1
:1040D000C7960E94B515B301CE014C960E945318A5
:1040E0006C8D7D8D47E1CE0101960E947F19BE0146
:1040F0006F5F7F4F8AEE96E00E94E211CE014C96F0
:104100000E941C158AEE96E00E942511811114C0B0
:1041100060EB71E0CE0101960E940715CE01019679
:104120000E942415CE0101960E941C1568EE73E0D2
:1041300080E090E00E94BC0225010B2C000C660878
:1041400077084AE0C301B201B7FE0DC06DE28AEE06
:1041500096E00E94871166277727CB0164197509BD
:10416000860997094AE00E94BE1342E050E067ECDE
:1041700071E08AEE96E00E946A110F5F1F4F68EEB1
:1041800073E080E090E00E94BC020A301105E1F487
:10419000D09204016AEC71E0CE0101960E940715ED
:1041A000CE0101960E942415CE0101960E941C1595
:1041B00068EE73E080E090E00E94BC028AEE96E038
:1041C0000E94B51510E000E0109378030093770388
:1041D00080910401823309F09DC069ED71E0CE0148
:1041E00001960E940715CE0101960E942415CE016A
:1041F00001960E941C1565EE71E0CE0101960E94A9
:104200000715CE0101960E94A213CE0101960E94CD
:104210001C15CE014C960E944B156C8D7D8D41E096
:10422000CE0101960E947F19BE016F5F7F4F85E02E
:1042300097E00E94E211CE014C960E941C1585E089
:1042400097E00E942511882309F4B3C163EF71E060
:10425000CE0101960E940715CE0101960E942415F9
:10426000CE0101960E941C1585E097E00E943A114C
:10427000892BB1F185E097E00E94B411BC01CE0119
:1042800001960E949514CE0101960E94A213CE01C0
:1042900001960E941C1564E670E080E090E00E94A8
:1042A000BC02E2CF80E00E94DE08882309F426CE1B
:1042B000A7CE8FEF681A780ACE0101960E94B51535
:1042C000F5CE69EB71E0CE0101960E940715CE0193
:1042D00001960E942415CE0101960E941C152CCF38
:1042E0006EEF71E0CE0101960E940715CE01019696
:1042F0000E94A213CE0101960E941C1568EE73E085
:1043000080E090E00E94BC0285E097E00E94B51535
:10431000D0920401809104018A3209F06DC041E01D
:1043200063E871E0CE01C7960E947F1967E172E0F1
:10433000CE0101960E940715CE0101960E94241518
:10434000CE0101960E941C156BE272E0CE0101962F
:104350000E940715CE0101960E94A213CE0101967C
:104360000E941C15CE0101960E944B158D819E81E5
:10437000892B49F067E372E089819A810E941D26AA
:1043800011E0892B09F010E0CE0101960E941C1566
:10439000112381F1BE01695C7F4FCE014C960E94D2
:1043A0001312BE01645E7F4FCE0101960E94821AF5
:1043B000CE0101960E942511811110C1CE010196F6
:1043C0000E94B515CE01C7960E94B5156DE372E047
:1043D000CE0101960E940715CE0101960E94241578
:1043E000CE0101960E941C1568EE73E080E090E01B
:1043F0000E94BC02D092040180910401833209F032
:104400004AC041E063E871E0CE01C7960E947F197F
:104410006EE472E0CE0101960E940715CE0101966E
:104420000E942415CE0101960E941C15BE01695CF4
:104430007F4FCE014C960E941312BE01645E7F4FE7
:10444000CE0101960E94821ACE0101960E9425118A
:104450008111CFC0CE0101960E94B51567E572E0CB
:10446000CE018E5A9F4F0E940715CE018E5A9F4F44
:104470000E942415CE018E5A9F4F0E941C1568EE93
:1044800073E080E090E00E94BC02CE01C7960E94DB
:10449000B515D092040180910401803309F077C0F2
:1044A00041E063E871E0CE01C7960E947F1967E69C
:1044B00072E0CE0101960E940715CE0101960E947E
:1044C0002415CE0101960E941C1565E772E0CE010D
:1044D00001960E940715CE0101960E94A213CE01FB
:1044E00001960E941C15BE01695C7F4FCE014C965F
:1044F0000E941312CE01885A9F4F0E944B15BE0195
:10450000645E7F4FCE0101960E94821ACE01019611
:104510000E942511182F811189C0CE0101960E9499
:10452000B51565E872E0CE018E5A9F4F0E940715BF
:10453000CE018E5A9F4F0E942415CE018E5A9F4F56
:104540000E941C1568EE73E080E090E00E94BC02BF
:10455000CE01885A9F4F0E941C15CE01C7960E941B
:10456000B51560EA72E0CE0101960E940715CE01F2
:1045700001960E942415CE0101960E941C1568EE3A
:1045800073E080E090E00E94BC02D0920401809130
:104590000401883311F40E94AD13E114F10409F40D
:1045A00052CD0E942D01882309F449CD0E940000BC
:1045B00042CD6AE072E0CE0101960E940715CE015D
:1045C00001960E94A213CE0101960E941C1568EE6E
:1045D00073E080E090E00E94BC029ACE6CED78E13E
:1045E000CE010D960E94A217CE0101960E94B5152C
:1045F000D8CEBE01635F7F4FCE018E5A9F4F0E947F
:104600000715CE018E5A9F4F0E94A213CE018E5ADB
:104610009F4F0E941C1568EE73E080E090E00E94BE
:10462000BC02CE0101960E94B51507CFBE01635FA3
:104630007F4FCE018E5A9F4F0E94071568962EAD70
:104640003FAD68976E968EAD9FAD6E972817390770
:1046500009F564968EAD9FAD64976A966EAD7FAD99
:104660006A97009749F06115710549F5232B99F078
:10467000FC01808190E00BC06115710561F0232B76
:1046800051F0FB01808190E091958195910911E0B5
:10469000892B09F010E0CE018E5A9F4F0E941C1505
:1046A000112381F06CED78E1CE010D960E94A217E6
:1046B000CE0101960E94B51563E972E034CF0E94E5
:1046C0001D26E5CFCE0101960E94B51518CFBB2758
:1046D0004A3031F4992322F4BDE2909581959F4FA1
:1046E0000C947323BB27FB015527AA27880F991F1A
:1046F000AA1FA41710F0A41B83955051B9F7A05D11
:10470000AA3308F0A95DA193009779F7B111B1938D
:104710001192CB010C948C23DC01FC01672F719169
:104720007723E1F7329704C07C916D937083629197
:10473000AE17BF07C8F308950E94DE23A59F900D12
:10474000B49F900DA49F800D911D112408952F9268
:104750003F924F925F926F927F928F929F92AF9211
:10476000BF92CF92DF92EF92FF920F931F93CF935E
:10477000DF93CDB7DEB7CA1BDB0B0FB6F894DEBFF5
:104780000FBECDBF09942A88398848885F846E841B
:104790007D848C849B84AA84B984C884DF80EE8065
:1047A000FD800C811B81AA81B981CE0FD11D0FB66E
:1047B000F894DEBF0FBECDBFED010895A29FB001FA
:1047C000B39FC001A39F700D811D1124911DB29F45
:1047D000700D811D1124911D0895A1E21A2EAA1BAE
:1047E000BB1BFD010DC0AA1FBB1FEE1FFF1FA217A1
:1047F000B307E407F50720F0A21BB30BE40BF50B9E
:10480000661F771F881F991F1A9469F76095709526
:10481000809590959B01AC01BD01CF010895EE0FED
:10482000FF1F0590F491E02D09940F931F93CF93F0
:10483000DF938230910510F482E090E0E09122074E
:10484000F091230730E020E0B0E0A0E0309799F449
:104850002115310509F44AC0281B390B24303105D4
:10486000D8F58A819B816115710589F1FB019383DC
:104870008283FE0111C0408151810281138148175A
:104880005907E0F04817590799F4109761F012960C
:104890000C93129713961C933296CF01DF91CF9110
:1048A0001F910F9108950093220710932307F4CFCF
:1048B0002115310551F04217530738F0A901DB01EA
:1048C0009A01BD01DF01F801C1CFEF01F9CF90934B
:1048D000230780932207CDCFFE01E20FF31F8193C0
:1048E00091932250310939832883D7CF2091200713
:1048F00030912107232B41F420911A0130911B01A3
:10490000309321072093200720911801309119013D
:104910002115310541F42DB73EB740911C0150914E
:104920001D01241B350BE0912007F0912107E217B0
:10493000F307A0F42E1B3F0B2817390778F0AC01C2
:104940004E5F5F4F2417350748F04E0F5F1F50939F
:10495000210740932007819391939FCFF0E0E0E0FF
:104960009CCFCF93DF930097E9F0FC01329713823D
:104970001282A0912207B0912307ED0130E020E0E0
:104980001097A1F420813181820F931F209120077D
:10499000309121072817390709F061C0F0932107EA
:1049A000E0932007DF91CF910895EA01CE17DF074A
:1049B000E8F54A815B819E0141155105B1F7E90196
:1049C000FB83EA8349915991C40FD51FEC17FD076A
:1049D00061F4808191810296840F951FE90199838A
:1049E0008883828193819B838A83F0E0E0E0129642
:1049F0008D919C9113970097B9F52D913C9111974A
:104A0000CD010296820F931F20912007309121073C
:104A10002817390739F6309751F51092230710926D
:104A20002207B0932107A0932007BCCFD383C28372
:104A300040815181840F951FC817D90761F44E5FDB
:104A40005F4F88819981480F591F518340838A8124
:104A50009B81938382832115310509F0B0CFF093B8
:104A60002307E09322079ECFFD01DC01C0CF138214
:104A70001282D7CFB0E0A0E0E0E4F5E20C94A923E5
:104A80008C01009751F4CB010E9415248C01C801C0
:104A9000CDB7DEB7E0E10C94C523FC01E60FF71FAC
:104AA0009C0122503109E217F30708F49DC0D90197
:104AB000CD91DC911197C617D70798F0C530D10575
:104AC00030F3CE0104978617970708F3C61BD70B60
:104AD0002297C193D1936D937C93CF010E94B1240F
:104AE000D6CF5B01AC1ABD0A4C018C0E9D1EA09165
:104AF0002207B0912307512C412CF12CE12C109767
:104B000031F580912007909121078815990509F0CA
:104B10005CC04616570608F058C080911801909165
:104B20001901009741F48DB79EB740911C01509137
:104B30001D01841B950BE817F90708F055C0F09389
:104B40002107E0932007F90171836083A0CF8D9145
:104B50009C91119712966C90129713967C901397D4
:104B6000A815B90559F56C0142E0C40ED11CCA1450
:104B7000DB0420F1AC014A195B09DA0112961597A2
:104B800080F06282738251834083D9016D937C935C
:104B9000E114F10471F0D7011396FC93EE93129790
:104BA00076CF22968C0F9D1FF90191838083F301AC
:104BB000EFCFF0932307E093220769CF48165906F9
:104BC00008F42C017D01D3019ACFCB010E9415245A
:104BD0007C01009749F0AE01B8010E940926C80186
:104BE0000E94B124870153CF10E000E050CF81E054
:104BF00090E0F8940C943C26FB01DC0104C08D91FC
:104C00000190801921F441505040C8F7881B990B3E
:104C10000895FB01DC0102C001900D92415050400B
:104C2000D8F70895FC018191861721F08823D9F7E0
:104C3000992708953197CF010895FB01DC018D91EB
:104C4000019080190110D9F3990B0895FB01DC0143
:104C500001900D920020E1F70895FB01DC01415025
:104C6000504048F001900D920020C9F701C01D92FC
:104C700041505040E0F70895F894FFCFFFFFFFFF49
:104C80003808090A03050607313233343536373818
:104C9000392A30230000240780000000400014005F
:104CA0005400000000006301BA00F000B0012101CF
:104CB000FF001301000000005A052D053F120305F7
:104CC00026051305040500000000C410BA00BE0E3E
:104CD000B90000000000B813BA003F12B90000008C
:104CE00000009302530222020000000087116A11A3
:104CF0005A1131113A11B411BE112E747874002F6B
:104D000000496E697469616C697A696E672E2E2E2E
:104D100000696E697469616C697A65640053442046
:104D200063617264204572726F7221006572726FE6
:104D300072202121005265636F7264696E672E2EA6
:104D40002E2E000D0A0044617461207265636F723B
:104D50006465642E00506C6179204D6F6465203E5F
:104D60000046696C65206E756D6265723A2000437D
:104D70006F6E74656E74203A2000456E64206F6615
:104D800020706C6179004E6F2073756368206669CE
:104D90006C650044656C65746520616C6C206669A7
:104DA0006C6573203F20005965732D31204E6F2DA7
:104DB000322000312E5458540046696C65732064CB
:104DC000656C657465642021210066696C657320DB
:104DD0003A2000456E64206F662066696C6573201A
:104DE00021210044656C657465206D6F64652058F1
:104DF0000046696C6520746F2064656C6574653A63
:104E0000004E6F20737563682066696C652E0046DE
:104E1000696C652072656D6F766564004C656176BE
:084E2000696E672E2E2E0000C2
:107E0000112484B714BE81FFF0D085E080938100F7
:107E100082E08093C00088E18093C10086E0809377
:107E2000C20080E18093C4008EE0C9D0259A86E02C
:107E300020E33CEF91E0309385002093840096BBD3
:107E4000B09BFECF1D9AA8958150A9F7CC24DD24C4
:107E500088248394B5E0AB2EA1E19A2EF3E0BF2EE7
:107E6000A2D0813461F49FD0082FAFD0023811F036
:107E7000013811F484E001C083E08DD089C08234E0
:107E800011F484E103C0853419F485E0A6D080C0E4
:107E9000853579F488D0E82EFF2485D0082F10E0AE
:107EA000102F00270E291F29000F111F8ED06801E7
:107EB0006FC0863521F484E090D080E0DECF843638
:107EC00009F040C070D06FD0082F6DD080E0C81688
:107ED00080E7D80618F4F601B7BEE895C0E0D1E017
:107EE00062D089930C17E1F7F0E0CF16F0E7DF06D8
:107EF00018F0F601B7BEE89568D007B600FCFDCFD4
:107F0000A601A0E0B1E02C9130E011968C91119780
:107F100090E0982F8827822B932B1296FA010C0160
:107F200087BEE89511244E5F5F4FF1E0A038BF0790
:107F300051F7F601A7BEE89507B600FCFDCF97BE46
:107F4000E89526C08437B1F42ED02DD0F82E2BD052
:107F50003CD0F601EF2C8F010F5F1F4F84911BD097
:107F6000EA94F801C1F70894C11CD11CFA94CF0C13
:107F7000D11C0EC0853739F428D08EE10CD085E9AC
:107F80000AD08FE07ACF813511F488E018D01DD067
:107F900080E101D065CF982F8091C00085FFFCCF94
:107FA0009093C60008958091C00087FFFCCF809118
:107FB000C00084FD01C0A8958091C6000895E0E648
:107FC000F0E098E1908380830895EDDF803219F02E
:107FD00088E0F5DFFFCF84E1DECF1F93182FE3DFCA
:107FE0001150E9F7F2DF1F91089580E0E8DFEE27F6
:047FF000FF270994CA
:027FFE00040479
:00000001FF
