:100000000C946A000C9492000C9492000C94920050
:100010000C9492000C9492000C9492000C94920018
:100020000C9492000C9492000C9492000C94920008
:100030000C9492000C9492000C9492000C949200F8
:100040000C940F130C9492000C94DD120C94B712C4
:100050000C9492000C9492000C9492000C949200D8
:100060000C9492000C9492007C3C3E5E2B3D3F2F02
:100070005B5D3B2C2A225C0000000000250028006C
:100080002B000000000023002600290000000008CB
:10009000000201000003040700000000000000004F
:1000A00000000000240027002A000102040810209C
:1000B00040800102040810200102040810200404FA
:1000C0000404040404040202020202020303030300
:1000D0000303591311241FBECFEFD8E0DEBFCDBFFD
:1000E00025E0AAE1B2E001C01D92A53AB207E1F70E
:1000F00012E0A0E0B1E0E0E4F7E302C005900D9269
:10010000AA31B107D9F710E0CAE6D0E004C02197C0
:10011000FE010E947F19C936D107C9F70E94261433
:100120000C949E1B0C940000CF93DF93FC01828102
:100130009381909389058093880584819581A68118
:10014000B78180938A0590938B05A0938C05B0931B
:100150008D0580859185A285B38580938E059093CA
:100160008F05A0939005B0939105DF011C96CF01F8
:100170004996C2E9D5E02D912993A817B907D9F777
:10018000818D928D9093A00580939F0586E895E0E0
:10019000DF91CF91089596E0899FD0011124A95E47
:1001A000BA4F90967C936E935F9791E091969C9353
:1001B0009197E0918405F0918505909183059923AD
:1001C00039F0309751F0811108C0809133050994BE
:1001D000309719F05C968C91FACF0895AF92BF9248
:1001E000CF92DF92EF92FF920F931F93CF93DF9303
:1001F0006C017B018B01040F151FEB015E01AE1832
:10020000BF08C017D10759F06991D601ED91FC9153
:100210000190F081E02DC6010995892B79F7C50180
:10022000DF91CF911F910F91FF90EF90DF90CF90D2
:10023000BF90AF900895FC01538D448D252F30E081
:10024000842F90E0821B930B541710F0CF960895E3
:1002500001970895FC01918D828D981761F0A28D10
:10026000AE0FBF2FB11D5D968C91928D9F5F9F73D6
:10027000928F90E008958FEF9FEF0895FC01918D8C
:10028000828D981731F0828DE80FF11D858D90E0F9
:1002900008958FEF9FEF0895FC01918D228D892F96
:1002A00090E0805C9F4F821B91098F73992708957E
:1002B0008FE294E00E944C0121E0892B09F420E0B8
:1002C000822F089580E090E0892B29F00E94580148
:1002D00081110C9400000895FC01A48DA80FB92F82
:1002E000B11DA35ABF4F2C91848D90E001968F735E
:1002F0009927848FA689B7892C93A089B1898C917D
:10030000837080648C93938D848D981306C00288CB
:10031000F389E02D80818F7D80830895EF92FF9295
:100320000F931F93CF93DF93EC0181E0888F9B8D18
:100330008C8D98131AC0E889F989808185FF15C0D2
:100340009FB7F894EE89FF896083E889F9898081F5
:100350008370806480839FBF81E090E0DF91CF91C4
:100360001F910F91FF90EF900895F62E0B8D10E0E6
:100370000F5F1F4F0F731127E02E8C8D8E110CC055
:100380000FB607FCFACFE889F989808185FFF5CFA0
:10039000CE010E946C01F1CFEB8DEC0FFD2FF11D12
:1003A000E35AFF4FF0829FB7F8940B8FEA89FB89DD
:1003B00080818062CFCFCF93DF93EC01888D88233B
:1003C000B9F0AA89BB89E889F9898C9185FD03C0B8
:1003D000808186FD0DC00FB607FCF7CF8C9185FF9D
:1003E000F2CF808185FFEDCFCE010E946C01E9CF75
:1003F000DF91CF910895833081F028F4813099F016
:100400008230A9F008958730A9F08830C9F084308F
:10041000B1F4809180008F7D03C0809180008F7740
:1004200080938000089584B58F7784BD089584B546
:100430008F7DFBCF8091B0008F778093B0000895BF
:100440008091B0008F7DF9CFCF93DF93282F30E0DC
:10045000F901E457FF4F8491F901E655FF4FD4911C
:10046000F901E254FF4FC491CC23A1F081110E9405
:10047000FB01EC2FF0E0EE0FFF1FEE57FF4FA591B1
:10048000B491EC91ED2381E090E009F480E0DF91FC
:10049000CF91089580E090E0FACF862F0C9424024B
:1004A0001F93CF93DF93282F30E0F901E457FF4FDC
:1004B0008491F901E655FF4FD491F901E254FF4FC1
:1004C000C491CC23A9F0162F81110E94FB01EC2FBF
:1004D000F0E0EE0FFF1FE858FF4FA591B4918FB7E2
:1004E000F894EC91111108C0D095DE23DC938FBFF6
:1004F000DF91CF911F910895DE2BF8CF862F642FC7
:100500000C945002CF93DF9390E0FC01E655FF4F2F
:10051000249182549F4FFC0184918823C9F090E07C
:10052000880F991FFC01E056FF4FA591B491FC0183
:10053000E858FF4FC591D49161110DC09FB7F89451
:100540008C91209582238C938881282328839FBFB8
:10055000DF91CF910895623051F49FB7F8943C91A8
:10056000822F809583238C93E8812E2BEFCF8FB73A
:10057000F894EC912E2B2C938FBFEACF862F642F0B
:100580000C9482023FB7F894809126029091270242
:10059000A0912802B091290226B5A89B05C02F3F43
:1005A00019F00196A11DB11D3FBFBA2FA92F982F99
:1005B0008827BC01CD01620F711D811D911D42E094
:1005C000660F771F881F991F4A95D1F708952FB797
:1005D000F8946091220270912302809124029091FC
:1005E00025022FBF08950F931F93CF93DF93C82F3A
:1005F000D62F86E0C89FF0011124E95EFA4F11A2C0
:10060000878D90A181309105F1F058F082309105ED
:10061000F1F1039709F440C0DF91CF911F910F9141
:1006200008956623C9F361E070E08C2F0E94CB002F
:100630000E94E70260936F057093700580937105C7
:1006400090937205E9CF0E94E70200916F05109127
:1006500070052091710530917205AB01BC01401B02
:10066000510B620B730B8091810590918205B0E074
:10067000A0E084179507A607B70748F462E070E08A
:100680008C2FDF91CF911F910F910C94CB0063E0E1
:1006900070E0D111C1CFF4CF70E060E0F1CF8FB73F
:1006A000F89480911B028FBF089561E0FC01848162
:1006B0000E94500280911A02811110921A0208952C
:1006C0008EBD00000DB407FEFDCF8EB508958FEFEF
:1006D0000C9460030F931F93CF93DF93EC010E9460
:1006E000E7028B010E9467038F3F69F00E94E702D7
:1006F000601B710B6C177D07A8F380E0DF91CF9131
:100700001F910F91089581E0F9CF8CBD9DBD089593
:10071000CF93DF93EC0180911A02811109C081E02F
:1007200080931A028091CC049091CD040E9485039D
:1007300060E08C81DF91CF910C9450028F929F9258
:10074000AF92BF92FF920F931F93CF93DF93EC0171
:10075000F62E49015A018E81882389F08F81988570
:100760009C012F5F3F4F38872F838230924018F4CF
:100770000E946703F3CFCE010E9455031E82CE0173
:100780000E9488038CE291E00E946A038F2D8064AE
:100790000E94600308E110E0D501C401002E04C0EE
:1007A000B695A795979587950A94D2F70E9460030E
:1007B00008501109083F8FEF180771F785E9FF20EE
:1007C00021F028E087E8F2128FEF0E94600310E02A
:1007D0000E9467038A8787FF04C01F3F11F01F5FD5
:1007E000F7CFDF91CF911F910F91FF90BF90AF9006
:1007F0009F908F900895AF92BF92CF92DF92EF9229
:10080000FF920F931F93CF93DF93EC016901C8010F
:10081000820F931F8130924050F58E81882379F0AA
:1008200088819981AA81BB8184179507A607B7079C
:1008300031F48F819885C816D90608F042C04883E4
:1008400059836A837B838B85833039F089E0440F39
:10085000551F661F771F8A95D1F79A01AB0161E199
:10086000CE010E949E03882389F083E08D83CE0110
:100870000E94550380E0DF91CF911F910F91FF906F
:10088000EF90DF90CF90BF90AF9008950E94E70265
:100890005B010E9467038A878F3F69F40E94E70229
:1008A0006A197B096D327140A0F38FE08D83CE0110
:1008B0000E945503DCCF8E3F89F418861F8281E0A9
:1008C0008E838F8198858C159D0550F40E94670357
:1008D0008F819885019698878F83F3CF8DE0E6CF3F
:1008E0006701E00EF11E0E946703F60181936F011C
:1008F000EE15FF05C1F78F819885080F191F18871E
:100900000F838985882319F001151240A0F08E818C
:10091000882389F08F8198859C012F5F3F4F38870E
:100920002F838230924018F40E946703F3CFCE01E8
:100930000E9455031E8281E09ECFCF92DF92EF92FC
:10094000FF920F93CF93DF93EC01690182E1411590
:1009500051056105710599F08B85833039F089E087
:10096000440F551F661F771F8A95D1F79A01AB0177
:1009700068E1CE010E949E03882319F084E08D83F4
:100980002DC08EEF0E94600376018EEFD81AF7011A
:1009900081917F010E946003EC14FD04C1F78FEF89
:1009A0000E9460038FEF0E9460030E9467038A87A2
:1009B0008F71853071F4011116C0CE010E9455036C
:1009C00081E0DF91CF910F91FF90EF90DF90CF907A
:1009D000089581E18D83CE010E945503CE010E94CE
:1009E000550380E0EECF88E592E00E946A03811112
:1009F00002C085E1C4CF20E030E0A9016DE0CE0166
:100A00000E949E03882311F084E1B9CF0E946703FE
:100A10008111FACFD2CF0F9340911D0250911E0247
:100A200060911F0270912002411551056105710509
:100A300099F0082F2FE232E080912D0290912E0242
:100A40000E949D04882349F010921D0210921E02FC
:100A500010921F021092200281E00F9108950F93CF
:100A6000CF93C82F80911C02811105C0C1E08C2F4B
:100A7000CF910F9108954091000150910101609133
:100A80000201709103010C2F2FE232E080912D02C0
:100A900090912E020E949D04811102C0C0E0E7CF18
:100AA000CC2321F381E00E940B058823B9F3109237
:100AB0001C02DDCF8F929F92AF92BF92EF92FF9276
:100AC0000F931F93CF934B015C01C42F80910001C2
:100AD00090910101A0910201B0910301881599053F
:100AE000AA05BB0551F181E00E942F0581110BC0C1
:100AF00080E0CF911F910F91FF90EF90BF90AF904A
:100B00009F908F9008958FE2E82E82E0F82E00E00B
:100B100012E030E020E0B501A40180912D02909117
:100B20002E020E94FB03882319F380920001909209
:100B30000101A0920201B092030140911C024C2BD2
:100B400040931C0281E0D5CFCF93DF93EC016E85FB
:100B50007F858889998941E00E945A05882351F050
:100B60008A8920E2829FC0011124815D9D4FDF911F
:100B7000CF91089590E080E0FACF8F929F92AF924C
:100B8000BF92CF92DF92EF92FF92CF932EEC34E0A0
:100B900030932E0220932D02882309F46DC040E08B
:100BA00060E070E0CB010E945A0581110BC080E02B
:100BB000CF91FF90EF90DF90CF90BF90AF909F903C
:100BC0008F9008958091ED038F7789F78091F903D5
:100BD0009091FA03A091FB03B091FC038436910538
:100BE000A105B10520F3C090F503D090F603E09085
:100BF000F703F090F803C114D104E104F104B9F251
:100C000040E0C701B6010E945A05882381F2809115
:100C10003A0290913B028115924049F6A0913F0221
:100C2000AA2329F260913D0270913E02611571057F
:100C300009F4BDCF20913C02222309F4B8CFA09340
:100C4000EC042093DE0490E080E030E0E1E0F0E0AE
:100C5000C82FAF01082E02C0440F551F0A94E2F7B7
:100C60002417350769F041E0480F01968930910556
:100C700079F74093E7049BCFC12CD12C7601C0CFEC
:100C80008093E704209145023091460250E040E015
:100C90002115310541F420915302309154024091C5
:100CA0005502509156022093DF043093E0044093A4
:100CB000E1045093E20446015701860E971EA11CE1
:100CC000B11C8092ED049092EE04A092EF04B092D9
:100CD000F004E0914002F0914102F093F304E093BC
:100CE000F204B0E00E940C19DC01CB01880D991DC3
:100CF000AA1DBB1D8093F4049093F504A093F60401
:100D0000B093F70425E0EE0FFF1F2A95E1F7E150BD
:100D1000FE4FEF2FFF27E6958E0F9F1FA11DB11DE0
:100D20008093E8049093E904A093EA04B093EB0461
:100D30008090420290904302B12CA12C8114910426
:100D400041F480904F0290905002A0905102B090D8
:100D50005202C81AD90AEA0AFB0AC80CD91CEA1CB2
:100D6000FB1C04C0F694E794D794C794CA95D2F7B5
:100D7000C092E304D092E404E092E504F092E60429
:100D800085EFC8168FE0D806E104F10428F48CE062
:100D90008093F10481E00CCF80E125EFC2162FEFA4
:100DA000D206E104F104A0F380915B0290915C0211
:100DB000A0915D02B0915E028093F4049093F504DB
:100DC000A093F604B093F70480E2E2CF4F925F92D3
:100DD0006F927F928F929F92AF92BF92CF92DF924B
:100DE000EF92FF920F931F93CF93DF93EC0142306A
:100DF00051056105710590F480E0DF91CF911F915D
:100E00000F91FF90EF90DF90CF90BF90AF909F90A9
:100E10008F907F906F905F904F90089589859A850D
:100E2000AB85BC850196A11DB11D84179507A6074A
:100E3000B70710F3CB88DC88ED88FE888F89803176
:100E400009F042C0BB27A72F962F852F48015901D3
:100E50002A013B01C80ED91EEA1EFB1E809100012B
:100E600090910101A0910201B0910301C816D90629
:100E7000EA06FB0699F58F898031C1F5B301A2011D
:100E8000552766277727440F551F415D5D4FFA01AF
:100E90009182808280911C02816080931C028A89E9
:100EA000823080F08D819E81AF81B8858C0D9D1D33
:100EB000AE1DBF1D80931D0290931E02A0931F02C2
:100EC000B093200281E099CFDB01CA01E7E0B6953B
:100ED000A79597958795EA95D1F7B8CF40E0C701D8
:100EE000B6010E945A058111C6CF86CFB301A20177
:100EF0004F77552766277727440F551F440F551FF7
:100F0000415D5D4FFA0180829182A282B382C2CF9D
:100F10008F929F92AF92BF92CF92DF92EF92FF9209
:100F20000F931F93CF93DF93FC0181859285A38557
:100F3000B4850196A11DB11D84179507A607B707B3
:100F400070F480E0DF91CF911F910F91FF90EF90AF
:100F5000DF90CF90BF90AF909F908F90089583883F
:100F60009488A588B6888789803189F5BB27A72F03
:100F7000962F852FE9016A017B018F01BC01CD010C
:100F8000680D791D8A1D9B1D8090000190900101C4
:100F9000A0900201B090030186169706A806B90634
:100FA00001F5F8018789803111F5DD24EE24FF2455
:100FB000F601EE0FFF1FE15DFD4F80819181B0E0F2
:100FC000A0E088839983AA83BB8381E0BBCFDB0148
:100FD000CA01C7E0B695A79597958795CA95D1F7A9
:100FE000C9CF40E00E945A058111DBCFAACFE89417
:100FF000C7F8DD24EE24FF24F601EE0FFF1FEE0FED
:10100000FF1FE15DFD4F80819181A281B381BF709F
:10101000D8CF4F925F926F927F92AF92BF92CF9252
:10102000DF92EF92FF920F931F93CF93DF9300D045
:1010300000D0CDB7DEB78C0149835A836B837C83A4
:101040005901C12CD12C7601412C82E0582E612C03
:10105000712C49815A816B817C819E012F5F3F4FAA
:10106000C8010E948807882339F1F8018585A3010A
:10107000920104C0220F331F441F551F8A95D2F7D7
:10108000DA01C901C80ED91EEA1EFB1E49815A8128
:101090006B817C818789803111F188EF9FEFAFEF01
:1010A000BFE0481759076A077B0798F2F501C0822D
:1010B000D182E282F38281E00F900F900F900F9027
:1010C000DF91CF911F910F91FF90EF90DF90CF9024
:1010D000BF90AF907F906F905F904F90089588EF92
:1010E0009FEFA0E0B0E0DDCFCF93DF93FC0125813F
:1010F000222321F080E0DF91CF910895EC018091CF
:10110000F104803159F582E08583178A108E118EA3
:10111000128E8091F2049091F304B0E0A0E025E0FB
:10112000880F991FAA1FBB1F2A95D1F7838B948B19
:10113000A58BB68B8AED94E09C8F8B8F81E08C839E
:101140001E821F82188619861A861B861C861D869B
:101150001E861F86188A198A1A8ACDCF803251F6C8
:1011600083E085834091F4045091F5046091F60486
:101170007091F704478B508F618F728F9F012D5EA6
:101180003F4F8AED94E00E9409088111D3CFB2CF7E
:101190008F929F92AF92BF92CF92DF92EF92FF9287
:1011A0000F931F93CF93DF93EC018D8181110EC0BC
:1011B00080E0DF91CF911F910F91FF90EF90DF9032
:1011C000CF90BF90AF909F908F9008950B891C890E
:1011D0002D893E89041715072607370748F34A016A
:1011E0005B01823031F48A869B86AC86BD8681E0C5
:1011F000E0CF81149104A104B10449F41E821F823E
:10120000188619861A861B861C861D86F0CF0A85CD
:101210001B852C853D85EB8DFC8D858590E00996A1
:10122000B901A8014150510961097109082E04C092
:1012300076956795579547950A94D2F7750164019D
:10124000E1E0CE1AD108E108F10804C0F694E79471
:10125000D794C7948A95D2F7C416D506E606F70642
:1012600020F0012B022B032B11F58F89988DA98D6E
:10127000BA8D8E839F83A887B9878E010A5F1F4F1F
:10128000C114D104E104F10409F4ADCF4E815F81B2
:101290006885798598018B8D9C8D0E94880791E0E7
:1012A000C91AD108E108F1088111EACF81CFC41A27
:1012B000D50AE60AF70AE1CF3F924F925F926F920A
:1012C0007F928F929F92AF92BF92CF92DF92EF92D6
:1012D000FF920F931F93CF93DF93CDB7DEB72C9779
:1012E0000FB6F894DEBF0FBECDBF5C01DC015B968C
:1012F0008D909C905C9716964D905D906D907C9033
:101300001997411451046104710409F468C0BFEFD6
:101310004B1A5B0A6B0A7B0A312CF401818592859A
:10132000A385B4859C01AD012F5F3F4F4F4F5F4FA9
:1013300029873A874B875C87730162011D821E8271
:101340001F821886F40181859285A385B4852D813D
:101350003E814F815885281739074A075B0708F0F7
:1013600056C089859A85AB85BC858C159D05AE05D3
:10137000BF0550F482E0C82ED12CE12CF12C92E074
:10138000492E512C612C712C9E012F5F3F4FB701CC
:10139000A601C4010E9488078823C9F189819A8126
:1013A000AB81BC81892B8A2B8B2B09F1260137015C
:1013B0009FEF491A590A690A790A2D813E814F81A6
:1013C00058852F5F3F4F4F4F5F4F2D833E834F8395
:1013D00058873FEFC31AD30AE30AF30AB3CFF401E5
:1013E00040805180628073803324339496CFC4143C
:1013F000D504E604F70409F70FEF1FEF2FEF3FE0E6
:10140000B701A601C4010E94E606811119C080E05F
:101410002C960FB6F894DEBF0FBECDBFDF91CF91F3
:101420001F910F91FF90EF90DF90CF90BF90AF9002
:101430009F908F907F906F905F904F903F90089516
:10144000D50116964D915D916D917C91199741153D
:1014500051056105710539F097018601C4010E94AB
:10146000E6068823A1F2D5011696CD92DD92ED9283
:10147000FC921997332051F0D701C6010196A11DA6
:10148000B11DF40180839183A283B383F501878921
:10149000908DA18DB28D892B8A2B8B2B39F4848171
:1014A000C78AD08EE18EF28E80688483F5018481B4
:1014B0008062848381E0ACCF1F93CF93DF93FC01E4
:1014C0002581222371F1162FEC01848187FF1EC034
:1014D000CF010E94A405FC01892B19F18D81823076
:1014E00040F48B899C89AD89BE89848F958FA68FA6
:1014F000B78F8F89988D938F828F8F89988DA98DC3
:10150000BA8DB58BA48B8C818F778C83111103C01E
:101510008C818F7E8C83812FDF91CF911F910C94D2
:101520002F0580E0DF91CF911F910895FF920F93D7
:101530001F93CF93DF93EC018D81813041F090E0D8
:1015400080E0DF91CF911F910F91FF9008958C81E2
:1015500081FFF5CF82FD1BC000912D0210912E025C
:10156000C8010E9488030E946703F82EC8010E94E8
:1015700055038FEFF812E3CF8C8185FF1BC060E02D
:10158000CE010E945C0A8C818F7D8C83D8CF4B89E1
:101590005C896D897E898A859B85AC85BD8584172C
:1015A0009507A607B707C1F2CE010E94C8088111AE
:1015B000D3CFC5CF40911D0250911E0260911F02F2
:1015C00070912002452B462B472B21F080E00E9492
:1015D0000B05B5CF80618C832A853B85317080E017
:1015E00092E0821B930BADCFCF93DF93EC0161E0D0
:1015F0000E945C0A882311F01D8281E0DF91CF9167
:1016000008952F923F924F925F926F927F928F92A6
:101610009F92AF92BF92CF92DF92EF92FF920F9381
:101620001F93CF93DF9300D000D01F92CDB7DEB7CA
:101630007C015B01342E5D83DC0115968C9115973E
:10164000813009F0CEC014962C9021FECAC022FC35
:10165000B4C0C32CDD8022947FE027222094B22DD9
:10166000B1702B2ED7011A964D915D916D917C91A1
:101670001D97C114D10409F428C15B968D919C91EA
:101680005C97FC0174807A948A019B0169E036952D
:101690002795179507956A95D1F770228A011170E1
:1016A000711020C001151105E9F416964D915D9158
:1016B0006D917C911997411551056105710509F0EE
:1016C00099C057968D919D910D90BC91A02D00973A
:1016D000A105B10509F0B0C0C7010E945C098823CB
:1016E00009F47FC080E092E0801B910B46018C15CD
:1016F0009D0508F44C01D7015B964D915C915C9778
:1017000016968D919D910D90BC91A02D0297A109E7
:10171000B109FA01258504C0880F991FAA1FBB1FB4
:101720002A95D2F74685578560897189840F951F60
:10173000A61FB71F9C01AD01270D311D411D511D75
:1017400029013A01811432E0930609F07BC08091AF
:10175000000190910101A0910201B0910301841553
:101760009505A605B70559F48FEF9FEFDC0180932F
:10177000000190930101A0930201B0930301022D97
:101780009501B301A20180912D0290912E020E9439
:101790009D04882331F19EEFB91AC818D908F701C2
:1017A00082859385A485B585880D991DA11DB11DE0
:1017B00082879387A487B58755CFF70143895489DA
:1017C0006589768982859385A485B58548175907EB
:1017D0006A077B0709F43DCFC7010E94C808811141
:1017E00038CF81E090E0D70113969C938E931297A7
:1017F00080E007C09E012F5F3F4F0E948807811144
:1018000002C090E079C089819A81AB81BC81F701E7
:10181000238D348DF901278948EF5FEF60E070E098
:10182000203121F048EF5FEF6FEF7FE084179507DD
:10183000A607B70708F050CFF70186839783A087E4
:10184000B18750CF0115110599F5D7011A964D9121
:101850005D916D917C911D9753968D919D910D9009
:10186000BC91A02D481759076A077B0708F181E052
:101870000E942F05882309F4B4CF409200015092B2
:101880000101609202017092030180911C0281604B
:1018900080931C02C801815D9D4FD5019C01280DDC
:1018A000391DFC012E173F0759F04D914193FACF96
:1018B00041E0C301B2010E945A058111EBCF91CFE3
:1018C000281B390BA20EB31E68CFF70183899489B8
:1018D000A589B68984179507A607B70738F48481C8
:1018E000438B548B658B768B80688483F70184816E
:1018F00083FD1AC0832D9D810F900F900F900F9044
:101900000F90DF91CF911F910F91FF90EF90DF909B
:10191000CF90BF90AF909F908F907F906F905F908F
:101920004F903F902F90089561E0C7010E945C0A9C
:10193000882309F456CFDECFCF93DF931F92CDB724
:10194000DEB7698341E050E0BE016F5F7F4F0E94C8
:10195000010B0F90DF91CF910895FC01DB011296EE
:101960008D919C9113979383828384E391E091837B
:10197000808314968C911497848315968C91159777
:10198000858316964D915D916D917C911997468353
:101990005783608771871A964D915D916D917C9107
:1019A0001D9742875387648775871E964D915D9179
:1019B0006D917C91519746875787608B718B5296BA
:1019C0008C915297828B53964D915D916D917C9144
:1019D0005697438B548B658B768B57964D915D91C3
:1019E0006D917C915A97478B508F618F728F5B9668
:1019F0008D919C91948F838F08950895FC01818D22
:101A0000928D009719F061E00C945C0A0895DC0156
:101A10005996ED91FC913097B9F083899489A58905
:101A2000B6894285538564857585841B950BA60B05
:101A3000B70B811520E89207A105B10538F08FEFAB
:101A40009FE7A0E0B0E0089590E080E00895DC0119
:101A500059968D919C91009739F0DC01ED91FC91A4
:101A60000480F581E02D099490E080E00895CF9303
:101A7000DF93EC01E98DFA8D309749F481E090E035
:101A80009B838A8390E080E0DF91CF910895138259
:101A90001282898D9A8D0E94010BE98DFA8D228127
:101AA0003381232B59F7F0CFCF93DF931F92CDB71C
:101AB000DEB76983DC01ED91FC910280F381E02DBA
:101AC00041E050E0BE016F5F7F4F09950F90DF91BD
:101AD000CF9108952F923F924F925F926F927F9293
:101AE0008F929F92AF92BF92CF92DF92EF92FF922E
:101AF0000F931F93CF93DF9300D01F92CDB7DEB724
:101B0000FC018581811118C08FEF9FEF0F900F901E
:101B10000F90DF91CF911F910F91FF90EF90DF9089
:101B2000CF90BF90AF909F908F907F906F905F907D
:101B30004F903F902F900895848180FFE5CF438997
:101B400054896589768982859385A485B585312CEC
:101B5000212C481759076A077B0719F02224239480
:101B6000312C6F012101CE0101963C01DF01169657
:101B7000BB83AA834114510409F4C5C0F601428510
:101B80005385648575854A01F1E09F22D6015B96F5
:101B90008D919C915C978A019B01E9E03695279590
:101BA00017950795EA95D1F71596EC91E230E9F58E
:101BB000FC01628D738D848D958D600F711F821F66
:101BC000931FA12C22E0B22EA818B9084A145B0476
:101BD00008F45201F601248126FD04C0A114F2E0AC
:101BE000BF0671F4009100011091010120910201E2
:101BF00030910301061717072807390709F05EC05F
:101C000040E00E945A05882309F47ECFC401815D1B
:101C10009D4FD3019C012A0D3B1DFC012E173F0750
:101C200009F46CC041914D93F9CFDC011496BC903E
:101C3000BA94B0228114910479F4B1100DC0452BEF
:101C4000462B472B69F5F6018789908DA18DB28DC2
:101C500086839783A087B187D6015B96ED91FC912F
:101C60005C9716966D917D918D919C91199762501C
:101C7000710981099109258504C0660F771F881FA6
:101C8000991F2A95D2F70685178520893189600F1B
:101C9000711F821F931F6B0D711D811D911D91CFAF
:101CA000D60116964D915D916D917C9119972A817F
:101CB0003B810E9488078111CFCF26CF7301850118
:101CC0009401AB01BC0180912D0290912E020E94E3
:101CD000FB03882309F418CF6A0C7B1CF60182856C
:101CE0009385A485B5858A0D9B1DA11DB11D828795
:101CF0009387A487B5874A185B083CCF281B390B0C
:101D0000620E731EEBCF2A94232809F0FDCE898141
:101D100090E0FCCEFC01818D928D009711F00C9427
:101D20006A0D8FEF9FEF08950F931F93CF93DF936B
:101D3000EC01898D9A8D10E000E0009799F00E94E7
:101D40006A0D8C010F3F100769F0898D9A8DFC0197
:101D50004285538564857585415051096109710932
:101D60000E94C808C801DF91CF911F910F9108957B
:101D70008F929F92AF92BF92CF92DF92EF92FF929B
:101D80000F931F93CF93DF9300D000D0CDB7DEB772
:101D9000FC018581813091F080E00F900F900F90D1
:101DA0000F90DF91CF911F910F91FF90EF90DF90F7
:101DB000CF90BF90AF909F908F900895848181FFC6
:101DC000EBCF83899489A589B689892B8A2B8B2BA4
:101DD00009F45FC07F0140E050E0BA01CF010E94EA
:101DE000C8088823C9F2F701C38CD48C8788908CEB
:101DF000A18CB28C82E090E0A0E0B0E0F60180839C
:101E00009183A283B3839E012F5F3F4FB501A4014D
:101E1000C6010E948807882309F4BECF00E010E0C5
:101E20009801B501A401C6010E94E606882309F4C1
:101E3000B3CF89809A80AB80BC80F60187898031DE
:101E400019F188EF9FEFAFEFBFE088169906AA0659
:101E5000BB06C8F2F701178A108E118E128E138AF4
:101E6000148A158A168A84818068848361E0C70198
:101E70000E945C0A882309F48FCF40E050E0BA0149
:101E8000C7010E94C80889CF88EF9FEFA0E0B0E0AB
:101E9000DCCF81E082CFCF92DF92EF92FF921F934F
:101EA000CF93DF93EC0180E2689FF0011124E15DA4
:101EB000FD4F9385917161F0842F827449F080E029
:101EC000DF91CF911F91FF90EF90DF90CF90089519
:101ED000142F6A8B8091000190910101A091020161
:101EE000B09103018E879F87A88BB98BC488D58852
:101EF000F12CE12C7601DD24CC24CF8AD88EE98E1A
:101F0000FA8E828D938DB0E0A0E0AC01BD014C292A
:101F10005D296E297F294F8B588F698F7A8F838532
:101F20008871B1F4848D958DA68DB78D8B8B9C8B2C
:101F3000AD8BBE8B81E08D831F701C831E821F8240
:101F4000188619861A861B861C861D8681E0B8CFE6
:101F5000803109F0B4CF9E012D5E3F4F8B8D9C8D5B
:101F60000E940908882309F4AACF84E0E4CFFB018A
:101F700001900020E9F73197AF01461B570BDC01B8
:101F8000ED91FC910280F381E02D0994CF93DF93D2
:101F9000BC018FE294E00E94B70FEC0168E571E0AC
:101FA0008FE294E00E94B70F8C0F9D1FDF91CF91BD
:101FB00008953F924F925F926F927F928F929F927D
:101FC000AF92BF92CF92DF92EF92FF920F931F9347
:101FD000CF93DF93CDB7DEB72B970FB6F894DEBF64
:101FE0000FBECDBF7C01FE013196CE010C966F0174
:101FF00030E231938E179F07E1F7DA0130E087E096
:102000009D91B92E992309F43CC09E32F1F48A3097
:10201000C9F480E02B960FB6F894DEBF0FBECDBF9B
:10202000DF91CF911F910F91FF90EF90DF90CF90B4
:10203000BF90AF909F908F907F906F905F904F90E8
:102040003F90089538E08AE0DBCFE8E6F0E0449185
:10205000442321F031969413FACFDBCF8317C8F2D3
:102060004FED490F4E35A8F64FE9490F4A3118F4A4
:1020700040EEB42EB90EF601E30FF11DB0823F5FC2
:10208000BFCF8981803229F2322E8B01DB015B9632
:102090008D919C915C97F701948F838F16961D927A
:1020A0001D921D921C921997FB01128613861486AD
:1020B0001586F80182859385A485B5854389548961
:1020C0006589768984179507A607B70708F04DC07C
:1020D00025E0B695A795979587952A95D1F7F82F7E
:1020E000FF70AF2ED80115968C91823008F491CFF5
:1020F000C8010E946A0D97FD8CCFF80182859385F7
:10210000A485B5854F96A11DB11D82879387A487AD
:10211000B587F0E2AF9EB0011124615D7D4F61157E
:10212000710509F476CFDB018C91882341F0853E5F
:1021300009F058C0BB2029F0BB24B394BACFB1102A
:102140000EC0F701A28A8091000190910101A09137
:102150000201B091030186879787A08BB18BDB01C9
:102160008C918111E9CFBB24B394832D827182318C
:1021700009F04FCFBB2009F443C0C7010E94A4055A
:10218000009709F446CF20E2FC0111922A95E9F765
:102190002BE0F601DC0101900D922A95E1F721E296
:1021A00038E2DC0151963C932E93509740E058E082
:1021B0001F965C934E931E9753963C932E93529783
:1021C00059963C932E93589757965C934E935697F7
:1021D00081E00E942F05882309F41BCF432DF701CE
:1021E00062890AC04BE050E0C6010E94671B892B40
:1021F00009F05FCF432D6A2DC7010E944B0F0ACF14
:10220000F8018581823009F404CFC8010E945C097D
:10221000882309F4FECED8015B96ED91FC915C9782
:1022200016968D909D90AD90BC901997B2E08B1A48
:102230009108A108B108858504C0880C991CAA1CC6
:10224000BB1C8A95D2F786859785A089B189880EAF
:10225000991EAA1EBB1E848124013501480E511C03
:10226000611C711C481459046A047B0409F1E1E003
:102270004E1A51086108710881E00E942F058823D9
:1022800009F4C7CEEFE2F2E011928FE294E08E17EC
:102290009F07D1F740920001509201016092020124
:1022A0007092030180911C02816080931C02DACF3E
:1022B000D8015B96ED91FC91258580E092E0A0E04D
:1022C000B0E004C0880F991FAA1FBB1F2A95D2F740
:1022D000F8014389548965897689840F951FA61F63
:1022E000B71F838B948BA58BB68BD70152961C920C
:1022F0008FE292E048CFEF92FF920F931F93CF931C
:10230000DF93EC017B018A011B821A8288EE93E045
:10231000A0E0B0E08C839D83AE83BF838AE491E02C
:10232000998388838DE190E00E9485199A8F898F27
:10233000009779F02DE1F701DC0101900D922A95CB
:10234000E1F74CE050E0B801CE010C960E948F1BE3
:10235000188EDF91CF911F910F91FF90EF9008950C
:102360002F923F924F925F926F927F928F929F92A5
:10237000AF92BF92CF92DF92EF92FF920F931F9393
:10238000CF93DF93CDB7DEB7C756D1090FB6F89418
:10239000DEBF0FBECDBF6C015B01A6964FAFA69707
:1023A00019A218A284E391E09F8F8E8F1BA21C823A
:1023B0001B829A8389831E824E018EE1880E911CB6
:1023C000C4010E94740875018E010F5F1F4F240124
:1023D00018016FE270E0C7010E947D1B009709F4AD
:1023E0005DC0F70120812F3271F4FFEFEF1AFF0A71
:1023F000902F812F8201492E582E942D852D280152
:10240000092F182FE6CF8E198D3008F08CE0682E3A
:10241000712CA301B701CE01885A9F4F0E948F1BD8
:10242000E8E5F0E0EC0FFD1FE60DF71D1082C80196
:102430000E94F40AF8018581882301F11EAE1DAEC9
:1024400084E391E09CAF8BAF21961FAE2197A896B5
:10245000EEADFFADA897AE0EBF1EF50180818111D4
:102460002AC0BE01655C7F4FC1010E94AD0C4BE5E7
:1024700051E0B101C6010E947B113BC021E0AE01D9
:10248000485A5F4FB201C8010E94D90F8823B1F2A8
:10249000E60CF71CC2010E94F40AAFCFC7018A19EB
:1024A0009B09A8969FAF8EAFA897B201CE01CB969D
:1024B0000E94AD0CCCCF19A218A284E391E09F8FAB
:1024C0008E8F1BA221968FAD219781112DC0F60111
:1024D0001382128288EE93E0A0E0B0E084839583BB
:1024E000A683B7838AE491E091838083128E118E54
:1024F0001486C601C959DF4F0FB6F894DEBF0FBE70
:10250000CDBFDF91CF911F910F91FF90EF90DF90A2
:10251000CF90BF90AF909F908F907F906F905F9083
:102520004F903F902F900895A6962FADA697A501A6
:10253000BE01655C7F4FC4010E94D90F882339F228
:10254000CE01CB960E94F40AA6968FADA697867010
:10255000863039F449A95AA96BA97CA9C4010E9403
:10256000C808B401C1010E94AD0CA50182CF1F9221
:102570000F920FB60F9211242F933F934F935F93B7
:102580006F937F938F939F93AF93BF93EF93FF933B
:102590008FE294E00E946C01FF91EF91BF91AF91A7
:1025A0009F918F917F916F915F914F913F912F916B
:1025B0000F900FBE0F901F9018951F920F920FB69D
:1025C0000F9211242F938F939F93EF93FF93E0919A
:1025D0003F04F09140048081E0914504F09146046D
:1025E00082FD1BC09081809148048F5F8F73209182
:1025F0004904821741F0E0914804F0E0E15DFB4FAF
:10260000958F80934804FF91EF919F918F912F9127
:102610000F900FBE0F901F9018958081F4CF1F92DE
:102620000F920FB60F9211242F933F938F939F9386
:10263000AF93BF938091220290912302A091240234
:10264000B09125023091210223E0230F2D3758F558
:102650000196A11DB11D2093210280932202909327
:102660002302A0932402B093250280912602909128
:102670002702A0912802B09129020196A11DB11D47
:102680008093260290932702A0932802B0932902F8
:10269000BF91AF919F918F913F912F910F900FBE5E
:1026A0000F901F90189526E8230F0296A11DB11DCB
:1026B000D2CF109232041092310488EE93E0A0E061
:1026C000B0E08093330490933404A0933504B09326
:1026D000360422E231E03093300420932F0425ECBD
:1026E00030E030933C0420933B0424EC30E0309302
:1026F0003E0420933D0420EC30E0309340042093CE
:102700003F0421EC30E0309342042093410422EC5A
:1027100030E0309344042093430426EC30E03093BF
:1027200046042093450410924804109249041092E4
:102730004A0410924B0420E52093CC041092CD045F
:102740001092D3041092D4041092D7041092D9049A
:1027500042E050E060E070E04093DA045093DB0424
:102760006093DC047093DD041092F1041092FB047A
:102770001092FA0424E331E03093F9042093F80432
:102780001092FD04109289051092880580938A05A5
:1027900090938B05A0938C05B0938D058AE491E00E
:1027A00090938705809386051092A00510929F054F
:1027B000109292051092190510921D0510921C0599
:1027C00010921E0580E491E0909318058093170500
:1027D000E3E3F5E01082148213821582369685E0D9
:1027E000EF36F807B9F788E091E090937A05809387
:1027F000790585E091E090937C0580937B0584E0EA
:1028000080937D0583E080937E058CE091E090933A
:102810007805809377058AE090E090938005809317
:102820007F0584EF91E0909382058093810510925B
:10283000850510928405109273051092740510920C
:10284000750510927605109283050895CF93DF9356
:10285000CDB7DEB7C65BD1090FB6F894DEBF0FBEA9
:10286000CDBF789484B5826084BD84B5816084BD19
:1028700085B5826085BD85B5816085BD80916E001E
:10288000816080936E00109281008091810082604F
:10289000809381008091810081608093810080918C
:1028A00080008160809380008091B100846080937B
:1028B000B1008091B00081608093B00080917A0077
:1028C000846080937A0080917A00826080937A009D
:1028D00080917A00816080937A0080917A0080688C
:1028E00080937A001092C100E0913F04F09140047F
:1028F00082E08083E0913B04F0913C041082E091FF
:102900003D04F0913E048FEC808310924704E091E7
:102910004304F091440486E08083E0914104F09107
:102920004204808180618083E0914104F0914204FF
:10293000808188608083E0914104F091420480812D
:1029400080688083E0914104F091420480818F7D12
:1029500080836DE571E08FE294E00E94B70F809173
:10296000FD04882321F088EF94E00E94F40A10927D
:10297000D9041092D7041092D4041092D30484E0A6
:102980008093D2040E94E7028B0161E08091D2041F
:102990000E94820261E08091D2040E945002FFB640
:1029A000F89480912A02811127C0E8ECF0E084912C
:1029B000E4EBF0E09491E82FF0E0EE0FFF1FE0561B
:1029C000FF4FA591B491EC91E92321F461E08AE0F5
:1029D0000E94500261E08AE00E9482028CB5806110
:1029E0008CBD8CB580648CBD61E08DE00E9482025C
:1029F00061E08BE00E94820280912A028F5F8093C7
:102A00002A02FFBE82E58093CC041092CD0480910F
:102A1000CC049091CD040E948503BAE0FB2E8FEF89
:102A20000E946003FA94F110FACF8EEC94E00E94B9
:102A3000880320E030E0A90160E08EEC94E00E9481
:102A40009E03F82E8093D80421E0821799F00E940B
:102A5000E702601B710B613D774058F381E0809382
:102A6000D3048EEC94E00E9455038AE891E00E9422
:102A7000C60FFFCF2AEA31E040E050E068E08EEC7C
:102A800094E00E949E0382FF2AC0F092D9048091B4
:102A9000D904C12CD12CE12CF0E4FF2E823019F0A6
:102AA000C12CD12C760120E030E0A90167E38EEC47
:102AB00094E00E949E03A701960169E28EEC94E0E7
:102AC0000E949E038093D8048823D1F00E94E702DD
:102AD000601B710B613D774030F388E0C0CFA4E00C
:102AE000FA2E0E9467038093D804FA94F110F9CF6C
:102AF0008A3A11F082E0B3CF82E08093D904C7CF45
:102B00008091D9048230D1F420E030E0A9016AE359
:102B10008EEC94E00E949E03882311F086E09FCF04
:102B20000E946703807C803C19F483E08093D90481
:102B30000E9467030E9467030E9467038EEC94E083
:102B40000E94550380E58093CC041092CD0481E06F
:102B50000E94BD05882309F450C088EF94E00E94CC
:102B60007408882309F481CF85E791E00E94C60F9D
:102B7000FE017D96CE01875A9F4F108214821382E8
:102B800015823696E817F907C1F7EAE08E2E912CE8
:102B9000A12CB12C22242A94322C81E0809383052D
:102BA0000E94E7020091730510917405209175054C
:102BB00030917605AB01BC01401B510B620B730BCE
:102BC00080917F0590918005B0E0A0E08417950783
:102BD000A607B70708F0FDC110E080917D05181722
:102BE00098F4E0917905F0917A05E10FF11D62E02A
:102BF00080810E9482021F5FF0CF80E00E94BD05AD
:102C0000882309F432CFA9CF712C80917E057816E4
:102C100008F065C0072D10E0E0917B05F0917C0580
:102C2000E00FF11F61E080810E948202E0917B054C
:102C3000F0917C05E00FF11F60E080810E9450025E
:102C4000C12CD12C7601C394072C04C0CC0CDD1C04
:102C5000EE1CFF1C0A94D2F72601C094D094612C7C
:102C600080917D05681620F5E62CF12CE091790520
:102C7000F0917A05EE0DFF1D80810E942402F7017C
:102C80003496892B61F4EE0FFF1FE95EFA4F8081C5
:102C9000918184299529918380836394E1CFEE0FFC
:102CA000FF1FE95EFA4F808191818C219D21F3CF36
:102CB000E0917B05F0917C05E00FF11F61E08081E0
:102CC0000E94500280917B0590917C05080F191F8E
:102CD00060E0F80180810E948202739496CF37E110
:102CE000E32E35E0F32E83E595E08701F801278D8B
:102CF00030A1232B21F4148E368E258E11A20A5F6B
:102D00001F4F8017910791F7D12C26E0522E80910A
:102D10007D05D81608F052C0C12C6D2C712C660CA4
:102D2000771C9301215E3A4F390120917E05C2162E
:102D300008F042C0F301608171810C2C02C07695CD
:102D400067950A94E2F7D29E900111242C0D311D53
:102D5000E7E1F5E080E0458D568D2417350709F44D
:102D60001FC28F5F36968A30B1F760FF23C0E7E15C
:102D7000F5E090E080E0448D411117C0E0917705C7
:102D8000F0917805E20FF31F4081589EF001599EA3
:102D9000F00D1124E95EFA4F448F368F258F10A273
:102DA000178E61E00E94F30205C0019636968A30C4
:102DB000910509F7C394B9CFD394A9CFD12CF701CA
:102DC00081A18111D82EF6E0EF0EF11C0E151F0522
:102DD000B1F70E94E70260937305709374058093C6
:102DE000750590937605DD2009F4F3C080913805D0
:102DF000882309F4EEC0809136059091370501973C
:102E000009F0E7C0809133058111E6C0809104018B
:102E1000803309F09CC080E480937C0080917A002C
:102E2000806480937A0080917A0086FDFCCF909137
:102E30007800809179008927982789276C01092ECD
:102E4000000CEE08FF0897FFCAC06DE286E895E027
:102E50000E94540D22273327A9012C193D094E0940
:102E60005F0919A28E010F5D1F4FCA01B901A501AB
:102E700094010E945D19605DF80162938F01211534
:102E800031054105510589F70115110529F0B801F2
:102E900086E895E00E94B70F68E571E086E895E066
:102EA0000E94B70F80912B0290912C02892B09F080
:102EB000ACC047E161EA71E0CE0101960E94B01119
:102EC000CE0101960E949400E0919F05F091A0052B
:102ED000309719F08581811104C08AEA91E00E943F
:102EE000C60F8DEB91E00E94C60F0E94C2022B011B
:102EF0003C0188EEC82E83E0D82EE12CF12C0E94F4
:102F0000C2026419750986099709683E73408105F4
:102F10009105A8F3F1E0CF1AD108E108F10828EEF5
:102F2000420E23E0521E611C711CC114D104E10445
:102F3000F10429F780912B0290912C0201968A309E
:102F4000910509F469C090932C0280932B02809123
:102F50000401813309F09AC088ED91E00E94C60F08
:102F600069E070E090E080E00E94AA1A8C0100976E
:102F700031F0FC01108261EA71E00E94881B41E09F
:102F8000B801CE0101960E94B011CE0101960E94B7
:102F90009400E0919F05F091A005309709F4FBC0E3
:102FA0008581882309F4F7C089EE91E00E94C60F5D
:102FB00086E895E00E94070D892B09F44CC086E84D
:102FC00095E00E948A0E682F8FE294E00E948E01A5
:102FD000EFCF109283051ACF8093040117CFA7017A
:102FE000960119A28E010F5D1F4FCA01B901A501FB
:102FF00094010E945D19605DF80162938F012115B3
:1030000031054105510589F73FCF63E771E08FE254
:1030100094E00E94B70F69CF10922C0210922B02FD
:1030200088E38093040187EC91E00E94C60F8091B1
:103030009F059091A005009709F489CF0E94F40A9A
:1030400080919F059091A0050E94211A1092A005E1
:1030500010929F057CCF80919F059091A0050097CD
:1030600061F00E94F40A80919F059091A0050E9452
:10307000211A1092A00510929F050115110519F053
:10308000C8010E94211A88E3809304018091040101
:10309000823309F0A9C0C157DF4F19821882CF5877
:1030A000D04084E391E0C357DF4F99838883CD58A4
:1030B000D040CE56DF4F1882C259D040E4961FAEA2
:1030C0001EAEE497E2969FAF8EAFE297E6961FAEF4
:1030D000E697712CD12C9E0123573F4F790108EFC1
:1030E00014E0872D9D2DFC01EF55FE4F20812F32DE
:1030F00009F40196DC01AF55BE4FFE01E655FF4FC6
:1031000030E020E0AF016D916F3249F0662339F075
:1031100001962F5F3F4F61932C303105A1F7240FAB
:10312000351FF9011082FC01EF55FE4F20812F322F
:1031300009F40196782ED92E8F559E4FFC0180817F
:10314000811138C01C821B8284E391E09A838983B9
:103150001E8222E0B801CE0101960E94D90F882379
:10316000A9F0CE0101960E94B80E882379F0CE0115
:1031700001960E94A405009749F025EEFC012083EA
:103180001E8281E00E942F0581110CC0F4E0083FEF
:103190001F0719F10BC08AEA91E00E94C60F6DCF9C
:1031A000617000CE34E0083F1307B9F0C8010E94F7
:1031B000F40A13C0F70185818111E8CF21E0B8013D
:1031C000C7010E94D90FC82E24E0083F1207C9F09A
:1031D000C8010E94F40AC11019C084EF91E00E9456
:1031E000C60F88E38093040180E090E0892B09F406
:1031F000D4CC0E945801882309F4CFCC0E9400004F
:10320000C9CC882351F38E0100591F4F902F812F75
:103210008701E92EF82E65CF0E944E19A59F900DCB
:10322000B49F900DA49F800D911D112408952F929D
:103230003F924F925F926F927F928F929F92AF9246
:10324000BF92CF92DF92EF92FF920F931F93CF9393
:10325000DF93CDB7DEB7CA1BDB0B0FB6F894DEBF2A
:103260000FBECDBF09942A88398848885F846E8450
:103270007D848C849B84AA84B984C884DF80EE809A
:10328000FD800C811B81AA81B981CE0FD11D0FB6A3
:10329000F894DEBF0FBECDBFED010895A29FB0012F
:1032A000B39FC001A39F700D811D1124911DB29F7A
:1032B000700D811D1124911D0895A1E21A2EAA1BE3
:1032C000BB1BFD010DC0AA1FBB1FEE1FFF1FA217D6
:1032D000B307E407F50720F0A21BB30BE40BF50BD3
:1032E000661F771F881F991F1A9469F7609570955C
:1032F000809590959B01AC01BD01CF010895EE0F23
:10330000FF1F0590F491E02D09940F931F93CF9325
:10331000DF938230910510F482E090E0E091A30504
:10332000F091A40530E020E0B0E0A0E0309799F4FF
:103330002115310509F44AC0281B390B2430310509
:10334000D8F58A819B816115710589F1FB01938311
:103350008283FE0111C0408151810281138148178F
:103360005907E0F04817590799F4109761F0129641
:103370000C93129713961C933296CF01DF91CF9145
:103380001F910F9108950093A3051093A405F4CF06
:103390002115310551F04217530738F0A901DB011F
:1033A0009A01BD01DF01F801C1CFEF01F9CF909380
:1033B000A4058093A305CDCFFE01E20FF31F8193F7
:1033C00091932250310939832883D7CF2091A105C9
:1033D0003091A205232B41F420911A0130911B0159
:1033E0003093A2052093A105209118013091190175
:1033F0002115310541F42DB73EB740911C01509184
:103400001D01241B350BE091A105F091A205E217E7
:10341000F307A0F42E1B3F0B2817390778F0AC01F7
:103420004E5F5F4F2417350748F04E0F5F1F5093D4
:10343000A2054093A105819391939FCFF0E0E0E036
:103440009CCFCF93DF930097E9F0FC013297138272
:103450001282A091A305B091A405ED0130E020E017
:103460001097A1F420813181820F931F2091A10533
:103470003091A2052817390709F061C0F093A20521
:10348000E093A105DF91CF910895EA01CE17DF0700
:10349000E8F54A815B819E0141155105B1F7E901CB
:1034A000FB83EA8349915991C40FD51FEC17FD079F
:1034B00061F4808191810296840F951FE9019983BF
:1034C0008883828193819B838A83F0E0E0E0129677
:1034D0008D919C9113970097B9F52D913C9111977F
:1034E000CD010296820F931F2091A1053091A20574
:1034F0002817390739F6309751F51092A405109224
:10350000A305B093A205A093A105BCCFD383C2832A
:1035100040815181840F951FC817D90761F44E5F10
:103520005F4F88819981480F591F518340838A8159
:103530009B81938382832115310509F0B0CFF093ED
:10354000A405E093A3059ECFFD01DC01C0CF13824B
:103550001282D7CFB0E0A0E0E0EBFAE10C941919A9
:103560008C01009751F4CB010E9485198C01C80190
:10357000CDB7DEB7E0E10C943519FC01E60FF71F7B
:103580009C0122503109E217F30708F49DC0D901CC
:10359000CD91DC911197C617D70798F0C530D105AA
:1035A00030F3CE0104978617970708F3C61BD70B95
:1035B0002297C193D1936D937C93CF010E94211ADE
:1035C000D6CF5B01AC1ABD0A4C018C0E9D1EA0919A
:1035D000A305B091A405512C412CF12CE12C10979E
:1035E00031F58091A1059091A2058815990509F002
:1035F0005CC04616570608F058C08091180190919B
:103600001901009741F48DB79EB740911C0150916C
:103610001D01841B950BE817F90708F055C0F093BE
:10362000A205E093A105F90171836083A0CF8D917C
:103630009C91119712966C90129713967C90139709
:10364000A815B90559F56C0142E0C40ED11CCA1485
:10365000DB0420F1AC014A195B09DA0112961597D7
:1036600080F06282738251834083D9016D937C9391
:10367000E114F10471F0D7011396FC93EE931297C5
:1036800076CF22968C0F9D1FF90191838083F301E1
:10369000EFCFF093A405E093A30569CF4816590630
:1036A00008F42C017D01D3019ACFCB010E9485192A
:1036B0007C01009749F0AE01B8010E94741BC8015B
:1036C0000E94211A870153CF10E000E050CFFB0188
:1036D000DC0104C08D910190801921F441505040CB
:1036E000C8F7881B990B0895FB01DC0102C001900B
:1036F0000D9241505040D8F70895FC0181918617F2
:1037000021F08823D9F7992708953197CF0108959B
:10371000FB01DC0101900D920020E1F70895FB010F
:10372000DC014150504048F001900D920020C9F753
:1037300001C01D9241505040E0F70895F894FFCF2A
:10374000FFFFFFFF3008090A030506073132333453
:1037500035363738392A30230000A50580000000AF
:1037600000008E01EE001B01DB014C012A013E012D
:10377000000000009C0CEE00960AFD0C000000000A
:10378000BE027E024D0200000000540D370D270DD1
:10379000FE0C070D8A0E940E0D0A002F00496E696B
:1037A0007469616C697A696E672053442063617241
:1037B000642E2E2E00696E697469616C697A617479
:1037C000696F6E20646F6E652E00696E6974696141
:1037D0006C697A6174696F6E206661696C656421D9
:1037E00000746573742E747874006572726F722041
:1037F0006F70656E696E672066696C6500526563FF
:103800006F7264696E67000A20446174612072659A
:10381000636F726465642E000A0A20526561642039
:103820004D6F64652021212100436F6E74656E74B5
:10383000203A20000A0A436F6E74656E7420646536
:103840006C657465642066726F6D20746578742091
:0A38500066696C652021212100004B
:00000001FF
