:100000000C9434000C943E000C943E000C943E0082
:100010000C943E000C943E000C943E000C943E0068
:100020000C943E000C943E000C943E000C943E0058
:100030000C943E000C943E000C943E000C943E0048
:100040000C943E000C943E000C943E000C943E0038
:100050000C943E000C943E000C943E000C943E0028
:100060000C943E000C943E0011241FBECFEFD8E04C
:10007000DEBFCDBF0E9468000C9475000C94000098
:1000800017B880E680937C0084E880937A00089516
:10009000ECE7F0E09081892B8083EAE7F0E0808153
:1000A0008064808380917A0086FDFCCF8091790006
:1000B00090E00895E0E8F0E0808181688083E1E8E5
:1000C000F0E080818960808384B1826084B9089582
:1000D0000E9440000E945A0080E090E00E94480088
:0E00E0009093890080938800F7CFF894FFCFAB
:00000001FF
