:020000040000FA
:100000000C9462000C948A000C948A000C948A0070
:100010000C948A000C948A000C948A000C948A0038
:100020000C948A000C948A000C948A000C948A0028
:100030000C948A000C948A000C948A000C948A0018
:100040000C94CA020C948A000C9498020C947202CC
:100050000C948A000C948A000C948A000C948A00F8
:100060000C948A000C948A000000000024002700F1
:100070002A000000000023002600290000000000E4
:10008000250028002B0004040404040404040202D4
:100090000202020203030303030301020408102007
:1000A0004080010204081020010204081020000012
:1000B0000008000201000003040700000000000027
:1000C00000004B0411241FBECFEFD8E0DEBFCDBF30
:1000D00011E0A0E0B1E0E2EDFBE002C005900D927E
:1000E000A631B107D9F721E0A6E1B1E001C01D9228
:1000F000AE3BB207E1F710E0C2E6D0E004C02197C2
:10010000FE010E94E105C136D107C9F70E94140320
:100110000C94E7050C940000AF92BF92CF92DF924F
:10012000EF92FF920F931F93CF93DF936C017B01AC
:100130008B01040F151FEB015E01AE18BF08C0173D
:10014000D10759F06991D601ED91FC910190F081B0
:10015000E02DC6010995892B79F7C501DF91CF9173
:100160001F910F91FF90EF90DF90CF90BF90AF90D5
:100170000895FC01538D448D252F30E0842F90E0AD
:10018000821B930B541710F0CF9608950197089592
:10019000FC01918D828D981761F0A28DAE0FBF2F5B
:1001A000B11D5D968C91928D9F5F9F73928F90E0B1
:1001B00008958FEF9FEF0895FC01918D828D981720
:1001C00031F0828DE80FF11D858D90E008958FEF5D
:1001D0009FEF0895FC01918D228D892F90E0805C26
:1001E0009F4F821B91098F739927089581E291E0B7
:1001F0000E94EA0021E0892B09F420E0822F089573
:1002000080E090E0892B29F00E94F60081110C9487
:1002100000000895FC01A48DA80FB92FB11DA35AA9
:10022000BF4F2C91848D90E001968F739927848F16
:10023000A689B7892C93A089B1898C918370806439
:100240008C93938D848D981306C00288F389E02DDA
:1002500080818F7D80830895EF92FF920F931F938B
:10026000CF93DF93EC0181E0888F9B8D8C8D981369
:100270001AC0E889F989808185FF15C09FB7F89475
:10028000EE89FF896083E889F989808183708064C1
:1002900080839FBF81E090E0DF91CF911F910F910C
:1002A000FF90EF900895F62E0B8D10E00F5F1F4F1B
:1002B0000F731127E02E8C8D8E110CC00FB607FC2A
:1002C000FACFE889F989808185FFF5CFCE010E94B8
:1002D0000A01F1CFEB8DEC0FFD2FF11DE35AFF4F1B
:1002E000F0829FB7F8940B8FEA89FB898081806246
:1002F000CFCFCF93DF93EC01888D8823B9F0AA8903
:10030000BB89E889F9898C9185FD03C0808186FDD0
:100310000DC00FB607FCF7CF8C9185FFF2CF80811F
:1003200085FFEDCFCE010E940A01E9CFDF91CF9189
:100330000895833081F028F4813099F08230A9F05B
:1003400008958730A9F08830C9F08430B1F48091E5
:1003500080008F7D03C0809180008F778093800024
:10036000089584B58F7784BD089584B58F7DFBCFC4
:100370008091B0008F778093B00008958091B00095
:100380008F7DF9CFCF93DF93282F30E0F901E2552D
:10039000FF4F8491F901E656FF4FD491F901EA57D6
:1003A000FF4FC491CC23A1F081110E949901EC2F41
:1003B000F0E0EE0FFF1FEE58FF4FA591B491EC91C6
:1003C000ED2381E090E009F480E0DF91CF91089582
:1003D00080E090E0FACFCF93DF9390E0FC01E65607
:1003E000FF4F24918A579F4FFC0184918823D1F0BD
:1003F00090E0880F991FFC01E859FF4FA591B49137
:10040000FC01E458FF4FC591D491623071F49FB75D
:10041000F8943C91822F809583238C93E8812E2B36
:1004200028839FBFDF91CF9108958FB7F894EC9107
:100430002E2B2C938FBFF6CF8F929F92AF92BF92AD
:100440000F931F93CF93DF93CDB7DEB7A1970FB66E
:10045000F894DEBF0FBECDBF19A2423008F44AE0C7
:100460008E010F5D1F4F842E912CB12CA12CA50164
:1004700094010E94BF05E62FB901CA01EA3044F594
:10048000E05DD801EE938D01232B242B252B79F7EA
:1004900090E080E0109769F0FD0101900020E9F7FD
:1004A0003197AF014A1B5B0BBD0181E291E00E94D5
:1004B0008C00A1960FB6F894DEBF0FBECDBFDF91C2
:1004C000CF911F910F91BF90AF909F908F90089503
:1004D000E95CD7CF42E050E062E171E081E291E077
:1004E0000C948C001F920F920FB60F9211242F9331
:1004F0003F934F935F936F937F938F939F93AF93AC
:10050000BF93EF93FF9381E291E00E940A01FF9174
:10051000EF91BF91AF919F918F917F916F915F917B
:100520004F913F912F910F900FBE0F901F901895F4
:100530001F920F920FB60F9211242F938F939F93B8
:10054000EF93FF93E0913101F09132018081E091CE
:100550003701F091380182FD1BC0908180913A01F2
:100560008F5F8F7320913B01821741F0E0913A0138
:10057000F0E0EF5DFE4F958F80933A01FF91EF9190
:100580009F918F912F910F900FBE0F901F901895F4
:100590008081F4CF1F920F920FB60F9211242F93E8
:1005A0003F938F939F93AF93BF9380911B01909143
:1005B0001C01A0911D01B0911E0130911A0123E090
:1005C000230F2D3758F50196A11DB11D20931A0157
:1005D00080931B0190931C01A0931D01B0931E01F9
:1005E0008091160190911701A0911801B091190105
:1005F0000196A11DB11D8093160190931701A09340
:100600001801B0931901BF91AF919F918F913F91C4
:100610002F910F900FBE0F901F90189526E8230F73
:100620000296A11DB11DD2CF789484B5826084BD9D
:1006300084B5816084BD85B5826085BD85B58160E6
:1006400085BD80916E00816080936E001092810064
:10065000809181008260809381008091810081601F
:1006600080938100809180008160809380008091E0
:10067000B10084608093B1008091B000816080936C
:10068000B00080917A00846080937A0080917A0033
:10069000826080937A0080917A00816080937A00F2
:1006A00080917A00806880937A001092C10061E0A6
:1006B0008DE00E94EB0162E08CE00E94EB01C0E063
:1006C00061E08C2F0E94EB01CF5FC830C9F7E09149
:1006D0003101F091320182E08083E0912D01F091AF
:1006E0002E011082E0912F01F09130018FEC808378
:1006F00010923901E0913501F091360186E0808356
:10070000E0913301F0913401808180618083E09138
:100710003301F0913401808188608083E09133015E
:10072000F0913401808180688083E0913301F09101
:10073000340180818F7D808360E090E080E00E94C2
:1007400080049BEB292E90E0392E27EA822E20E0B0
:10075000922E03E910E0CBE1D0E030E0A32E30E0B0
:10076000B32E8CE00E94C201F12CE12C892B09F000
:1007700068C080E480937C0080917A0080648093DC
:100780007A0080917A0086FDFCCF8091780060919C
:100790007900762F682F072E000C880B990B0E948A
:1007A000C60420ED3FE34FE75EE30E942A050E9466
:1007B0008E042B016B01770FEE08FF084AE0C7019A
:1007C000B601F7FE0DC06DE281E291E00E942C01BE
:1007D00066277727CB016C197D098E099F094AE0AE
:1007E0000E941C020E946A02642D80911F01909158
:1007F00020010E948004F1018491F401F490F80139
:10080000E490EE2089F081110E949901EE2DF0E034
:10081000EE0FFF1FE458FF4FA591B4918FB7F894E6
:100820009C91F92AFC928FBFCE010197F1F780913C
:100830001F019091200101969093200180931F0148
:1008400090CF80911F01909120018E159F05BCF0E3
:10085000C7010E9478048BB9C7010E947804682FF1
:1008600070E090E080E04AE00E941C020E946A0270
:10087000CE010197F1F7FFEFEF1AFF0AE2CFA114C3
:10088000B10409F46ECF0E94F600882309F469CF01
:100890000E94000066CFE1E2F1E01382128288EE4E
:1008A00093E0A0E0B0E084839583A683B78384E0DF
:1008B00091E09183808385EC90E09587848784EC38
:1008C00090E09787868780EC90E0918B808B81EC1D
:1008D00090E0938B828B82EC90E0958B848B86ECFE
:1008E00090E0978B868B118E128E138E148E089546
:1008F000F999FECF92BD81BDF89A992780B50895E8
:10090000262FF999FECF1FBA92BD81BD20BD0FB62B
:10091000F894FA9AF99A0FBE019608950E949504E8
:100920006894B1110C94240508950E94090588F07B
:100930009F5798F0B92F9927B751B0F0E1F0660FA3
:10094000771F881F991F1AF0BA95C9F714C0B130E4
:1009500091F00E942305B1E008950C942305672FC0
:10096000782F8827B85F39F0B93FCCF38695779513
:100970006795B395D9F73EF49095809570956195FC
:100980007F4F8F4F9F4F0895E89409C097FB3EF427
:1009900090958095709561957F4F8F4F9F4F9923CC
:1009A000A9F0F92F96E9BB279395F695879577954A
:1009B0006795B795F111F8CFFAF4BB0F11F460FF0A
:1009C0001BC06F5F7F4F8F4F9F4F16C0882311F062
:1009D00096E911C0772321F09EE8872F762F05C076
:1009E000662371F096E8862F70E060E02AF09A9511
:1009F000660F771F881FDAF7880F9695879597F906
:100A0000089557FD9058440F551F59F05F3F71F0FE
:100A10004795880F97FB991F61F09F3F79F0879565
:100A20000895121613061406551FF2CF4695F1DFEE
:100A300008C0161617061806991FF1CF869571057E
:100A4000610508940895E894BB2766277727CB01B2
:100A500097F908950E943D050C94AE050E94A005EB
:100A600038F00E94A70520F0952311F00C9497050B
:100A70000C949D0511240C9424050E94010570F32B
:100A8000959FC1F3950F50E0551F629FF001729F33
:100A9000BB27F00DB11D639FAA27F00DB11DAA1F42
:100AA000649F6627B00DA11D661F829F2227B00D8F
:100AB000A11D621F739FB00DA11D621F839FA00D1A
:100AC000611D221F749F3327A00D611D231F849F6A
:100AD000600D211D822F762F6A2F11249F575040C1
:100AE0009AF0F1F088234AF0EE0FFF1FBB1F661F3C
:100AF000771F881F91505040A9F79E3F510580F005
:100B00000C9497050C9424055F3FE4F3983ED4F3CE
:100B1000869577956795B795F795E7959F5FC1F7A8
:100B2000FE2B880F911D9695879597F9089597F953
:100B30009F6780E870E060E008959FEF80EC089583
:100B400000240A94161617061806090608950024AC
:100B50000A9412161306140605060895092E039426
:100B6000000C11F4882352F0BB0F40F4BF2B11F49A
:100B700060FF04C06F5F7F4F8F4F9F4F0895A1E2CA
:100B80001A2EAA1BBB1BFD010DC0AA1FBB1FEE1F07
:100B9000FF1FA217B307E407F50720F0A21BB30B52
:100BA000E40BF50B661F771F881F991F1A9469F7CE
:100BB00060957095809590959B01AC01BD01CF012A
:100BC0000895EE0FFF1F0590F491E02D0994F8941D
:100BD000FFCF000000002C018C00B9007901EA0071
:080BE000C800DC000D0A000052
:107E0000112484B714BE81FFF0D085E080938100F7
:107E100082E08093C00088E18093C10086E0809377
:107E2000C20080E18093C4008EE0C9D0259A86E02C
:107E300020E33CEF91E0309385002093840096BBD3
:107E4000B09BFECF1D9AA8958150A9F7CC24DD24C4
:107E500088248394B5E0AB2EA1E19A2EF3E0BF2EE7
:107E6000A2D0813461F49FD0082FAFD0023811F036
:107E7000013811F484E001C083E08DD089C08234E0
:107E800011F484E103C0853419F485E0A6D080C0E4
:107E9000853579F488D0E82EFF2485D0082F10E0AE
:107EA000102F00270E291F29000F111F8ED06801E7
:107EB0006FC0863521F484E090D080E0DECF843638
:107EC00009F040C070D06FD0082F6DD080E0C81688
:107ED00080E7D80618F4F601B7BEE895C0E0D1E017
:107EE00062D089930C17E1F7F0E0CF16F0E7DF06D8
:107EF00018F0F601B7BEE89568D007B600FCFDCFD4
:107F0000A601A0E0B1E02C9130E011968C91119780
:107F100090E0982F8827822B932B1296FA010C0160
:107F200087BEE89511244E5F5F4FF1E0A038BF0790
:107F300051F7F601A7BEE89507B600FCFDCF97BE46
:107F4000E89526C08437B1F42ED02DD0F82E2BD052
:107F50003CD0F601EF2C8F010F5F1F4F84911BD097
:107F6000EA94F801C1F70894C11CD11CFA94CF0C13
:107F7000D11C0EC0853739F428D08EE10CD085E9AC
:107F80000AD08FE07ACF813511F488E018D01DD067
:107F900080E101D065CF982F8091C00085FFFCCF94
:107FA0009093C60008958091C00087FFFCCF809118
:107FB000C00084FD01C0A8958091C6000895E0E648
:107FC000F0E098E1908380830895EDDF803219F02E
:107FD00088E0F5DFFFCF84E1DECF1F93182FE3DFCA
:107FE0001150E9F7F2DF1F91089580E0E8DFEE27F6
:047FF000FF270994CA
:027FFE00040479
:00000001FF
