S01700004763634170706C69636174696F6E332E7372656359
S11300000C9434000C943E000C943E000C943E007E
S11300100C943E000C943E000C943E000C943E0064
S11300200C943E000C943E000C943E000C943E0054
S11300300C943E000C943E000C943E000C943E0044
S11300400C943E000C943E000C943E000C943E0034
S11300500C943E000C943E000C943E000C943E0024
S11300600C943E000C943E0011241FBECFEFD8E048
S1130070DEBFCDBF0E9461000C9469000C940000A7
S113008017B8ACE7B0E090E69C93EAE7F0E094E8B8
S113009090839C91892B8C93808180648083809150
S11300A07A0086FDFCCF8091790090E0089584B5B4
S11300B0836884BD85B5816085BD8AB180648AB951
S11300C008950E94570080E090E00E94400087BDA0
S10900D0FACFF894FFCF03
S9030000FC
